{
  "contractName": "ScinionFactoryTest1",
  "abi": [
    {
      "inputs": [],
      "stateMutability": "nonpayable",
      "type": "constructor"
    },
    {
      "anonymous": false,
      "inputs": [
        {
          "indexed": true,
          "internalType": "address",
          "name": "owner",
          "type": "address"
        },
        {
          "indexed": true,
          "internalType": "address",
          "name": "approved",
          "type": "address"
        },
        {
          "indexed": true,
          "internalType": "uint256",
          "name": "tokenId",
          "type": "uint256"
        }
      ],
      "name": "Approval",
      "type": "event"
    },
    {
      "anonymous": false,
      "inputs": [
        {
          "indexed": true,
          "internalType": "address",
          "name": "owner",
          "type": "address"
        },
        {
          "indexed": true,
          "internalType": "address",
          "name": "operator",
          "type": "address"
        },
        {
          "indexed": false,
          "internalType": "bool",
          "name": "approved",
          "type": "bool"
        }
      ],
      "name": "ApprovalForAll",
      "type": "event"
    },
    {
      "anonymous": false,
      "inputs": [
        {
          "indexed": false,
          "internalType": "uint256",
          "name": "money",
          "type": "uint256"
        },
        {
          "indexed": false,
          "internalType": "address",
          "name": "from",
          "type": "address"
        }
      ],
      "name": "MoneyTransfer",
      "type": "event"
    },
    {
      "anonymous": false,
      "inputs": [
        {
          "indexed": false,
          "internalType": "uint256",
          "name": "scinionId",
          "type": "uint256"
        },
        {
          "indexed": false,
          "internalType": "string",
          "name": "name",
          "type": "string"
        }
      ],
      "name": "NewScinion",
      "type": "event"
    },
    {
      "anonymous": false,
      "inputs": [
        {
          "indexed": true,
          "internalType": "address",
          "name": "previousOwner",
          "type": "address"
        },
        {
          "indexed": true,
          "internalType": "address",
          "name": "newOwner",
          "type": "address"
        }
      ],
      "name": "OwnershipTransferred",
      "type": "event"
    },
    {
      "anonymous": false,
      "inputs": [
        {
          "indexed": true,
          "internalType": "address",
          "name": "from",
          "type": "address"
        },
        {
          "indexed": true,
          "internalType": "address",
          "name": "to",
          "type": "address"
        },
        {
          "indexed": true,
          "internalType": "uint256",
          "name": "tokenId",
          "type": "uint256"
        }
      ],
      "name": "Transfer",
      "type": "event"
    },
    {
      "inputs": [
        {
          "internalType": "address",
          "name": "to",
          "type": "address"
        },
        {
          "internalType": "uint256",
          "name": "tokenId",
          "type": "uint256"
        }
      ],
      "name": "approve",
      "outputs": [],
      "stateMutability": "nonpayable",
      "type": "function"
    },
    {
      "inputs": [
        {
          "internalType": "address",
          "name": "owner",
          "type": "address"
        }
      ],
      "name": "balanceOf",
      "outputs": [
        {
          "internalType": "uint256",
          "name": "",
          "type": "uint256"
        }
      ],
      "stateMutability": "view",
      "type": "function"
    },
    {
      "inputs": [
        {
          "internalType": "uint256",
          "name": "tokenId",
          "type": "uint256"
        }
      ],
      "name": "getApproved",
      "outputs": [
        {
          "internalType": "address",
          "name": "",
          "type": "address"
        }
      ],
      "stateMutability": "view",
      "type": "function"
    },
    {
      "inputs": [
        {
          "internalType": "address",
          "name": "owner",
          "type": "address"
        },
        {
          "internalType": "address",
          "name": "operator",
          "type": "address"
        }
      ],
      "name": "isApprovedForAll",
      "outputs": [
        {
          "internalType": "bool",
          "name": "",
          "type": "bool"
        }
      ],
      "stateMutability": "view",
      "type": "function"
    },
    {
      "inputs": [],
      "name": "name",
      "outputs": [
        {
          "internalType": "string",
          "name": "",
          "type": "string"
        }
      ],
      "stateMutability": "view",
      "type": "function"
    },
    {
      "inputs": [],
      "name": "owner",
      "outputs": [
        {
          "internalType": "address",
          "name": "",
          "type": "address"
        }
      ],
      "stateMutability": "view",
      "type": "function"
    },
    {
      "inputs": [
        {
          "internalType": "uint256",
          "name": "tokenId",
          "type": "uint256"
        }
      ],
      "name": "ownerOf",
      "outputs": [
        {
          "internalType": "address",
          "name": "",
          "type": "address"
        }
      ],
      "stateMutability": "view",
      "type": "function"
    },
    {
      "inputs": [],
      "name": "renounceOwnership",
      "outputs": [],
      "stateMutability": "nonpayable",
      "type": "function"
    },
    {
      "inputs": [
        {
          "internalType": "address",
          "name": "from",
          "type": "address"
        },
        {
          "internalType": "address",
          "name": "to",
          "type": "address"
        },
        {
          "internalType": "uint256",
          "name": "tokenId",
          "type": "uint256"
        }
      ],
      "name": "safeTransferFrom",
      "outputs": [],
      "stateMutability": "nonpayable",
      "type": "function"
    },
    {
      "inputs": [
        {
          "internalType": "address",
          "name": "from",
          "type": "address"
        },
        {
          "internalType": "address",
          "name": "to",
          "type": "address"
        },
        {
          "internalType": "uint256",
          "name": "tokenId",
          "type": "uint256"
        },
        {
          "internalType": "bytes",
          "name": "_data",
          "type": "bytes"
        }
      ],
      "name": "safeTransferFrom",
      "outputs": [],
      "stateMutability": "nonpayable",
      "type": "function"
    },
    {
      "inputs": [
        {
          "internalType": "address",
          "name": "operator",
          "type": "address"
        },
        {
          "internalType": "bool",
          "name": "approved",
          "type": "bool"
        }
      ],
      "name": "setApprovalForAll",
      "outputs": [],
      "stateMutability": "nonpayable",
      "type": "function"
    },
    {
      "inputs": [
        {
          "internalType": "bytes4",
          "name": "interfaceId",
          "type": "bytes4"
        }
      ],
      "name": "supportsInterface",
      "outputs": [
        {
          "internalType": "bool",
          "name": "",
          "type": "bool"
        }
      ],
      "stateMutability": "view",
      "type": "function"
    },
    {
      "inputs": [],
      "name": "symbol",
      "outputs": [
        {
          "internalType": "string",
          "name": "",
          "type": "string"
        }
      ],
      "stateMutability": "view",
      "type": "function"
    },
    {
      "inputs": [
        {
          "internalType": "uint256",
          "name": "tokenId",
          "type": "uint256"
        }
      ],
      "name": "tokenURI",
      "outputs": [
        {
          "internalType": "string",
          "name": "",
          "type": "string"
        }
      ],
      "stateMutability": "view",
      "type": "function"
    },
    {
      "inputs": [
        {
          "internalType": "address",
          "name": "from",
          "type": "address"
        },
        {
          "internalType": "address",
          "name": "to",
          "type": "address"
        },
        {
          "internalType": "uint256",
          "name": "tokenId",
          "type": "uint256"
        }
      ],
      "name": "transferFrom",
      "outputs": [],
      "stateMutability": "nonpayable",
      "type": "function"
    },
    {
      "inputs": [
        {
          "internalType": "address",
          "name": "newOwner",
          "type": "address"
        }
      ],
      "name": "transferOwnership",
      "outputs": [],
      "stateMutability": "nonpayable",
      "type": "function"
    },
    {
      "inputs": [],
      "name": "getOwner",
      "outputs": [
        {
          "internalType": "address",
          "name": "",
          "type": "address"
        }
      ],
      "stateMutability": "view",
      "type": "function"
    },
    {
      "inputs": [
        {
          "internalType": "uint256",
          "name": "_fee",
          "type": "uint256"
        }
      ],
      "name": "setMinPrice",
      "outputs": [],
      "stateMutability": "nonpayable",
      "type": "function"
    },
    {
      "inputs": [
        {
          "internalType": "string",
          "name": "baseURI_",
          "type": "string"
        }
      ],
      "name": "setBaseURI",
      "outputs": [],
      "stateMutability": "nonpayable",
      "type": "function"
    },
    {
      "inputs": [
        {
          "internalType": "address",
          "name": "_from",
          "type": "address"
        },
        {
          "internalType": "address",
          "name": "_to",
          "type": "address"
        },
        {
          "internalType": "uint256",
          "name": "_tokenId",
          "type": "uint256"
        }
      ],
      "name": "transferScinion",
      "outputs": [],
      "stateMutability": "payable",
      "type": "function"
    },
    {
      "inputs": [
        {
          "internalType": "string",
          "name": "_name",
          "type": "string"
        }
      ],
      "name": "claimScinion",
      "outputs": [
        {
          "internalType": "uint256",
          "name": "id",
          "type": "uint256"
        }
      ],
      "stateMutability": "payable",
      "type": "function"
    },
    {
      "inputs": [
        {
          "internalType": "address",
          "name": "owner",
          "type": "address"
        }
      ],
      "name": "balanceOfScinions",
      "outputs": [
        {
          "internalType": "uint256",
          "name": "balance",
          "type": "uint256"
        }
      ],
      "stateMutability": "view",
      "type": "function"
    }
  ],
  "bytecode": "0x608060405266038d7ea4c680006009553480156200001c57600080fd5b506040518060400160405280600a81526020017f5363696e696f6e4e4654000000000000000000000000000000000000000000008152506040518060400160405280600481526020017f5343544b00000000000000000000000000000000000000000000000000000000815250620000a96200009d6200014c60201b60201c565b6200015460201b60201c565b8160019080519060200190620000c192919062000218565b508060029080519060200190620000da92919062000218565b50505033600a60006101000a81548173ffffffffffffffffffffffffffffffffffffffff021916908373ffffffffffffffffffffffffffffffffffffffff16021790555060405180602001604052806000815250600890805190602001906200014592919062000218565b506200032c565b600033905090565b60008060009054906101000a900473ffffffffffffffffffffffffffffffffffffffff169050816000806101000a81548173ffffffffffffffffffffffffffffffffffffffff021916908373ffffffffffffffffffffffffffffffffffffffff1602179055508173ffffffffffffffffffffffffffffffffffffffff168173ffffffffffffffffffffffffffffffffffffffff167f8be0079c531659141344cd1fd0a4f28419497f9722a3daafe3b4186f6b6457e060405160405180910390a35050565b8280546200022690620002f7565b90600052602060002090601f0160209004810192826200024a576000855562000296565b82601f106200026557805160ff191683800117855562000296565b8280016001018555821562000296579182015b828111156200029557825182559160200191906001019062000278565b5b509050620002a59190620002a9565b5090565b5b80821115620002c4576000816000905550600101620002aa565b5090565b7f4e487b7100000000000000000000000000000000000000000000000000000000600052602260045260246000fd5b600060028204905060018216806200031057607f821691505b602082108103620003265762000325620002c8565b5b50919050565b6137e9806200033c6000396000f3fe6080604052600436106101355760003560e01c806370a08231116100ab578063a22cb4651161006f578063a22cb4651461042b578063a612c71a14610454578063b88d4fde14610470578063c87b56dd14610499578063e985e9c5146104d6578063f2fde38b1461051357610135565b806370a0823114610356578063715018a614610393578063893d20e8146103aa5780638da5cb5b146103d557806395d89b411461040057610135565b806342842e0e116100fd57806342842e0e146102315780635182efd31461025a57806355f804b31461028a5780635ea8cd12146102b35780636352211e146102dc5780636fa9174e1461031957610135565b806301ffc9a71461013a57806306fdde0314610177578063081812fc146101a2578063095ea7b3146101df57806323b872dd14610208575b600080fd5b34801561014657600080fd5b50610161600480360381019061015c91906124c4565b61053c565b60405161016e919061250c565b60405180910390f35b34801561018357600080fd5b5061018c61061e565b60405161019991906125c0565b60405180910390f35b3480156101ae57600080fd5b506101c960048036038101906101c49190612618565b6106b0565b6040516101d69190612686565b60405180910390f35b3480156101eb57600080fd5b50610206600480360381019061020191906126cd565b610735565b005b34801561021457600080fd5b5061022f600480360381019061022a919061270d565b61084c565b005b34801561023d57600080fd5b506102586004803603810190610253919061270d565b6108ac565b005b610274600480360381019061026f9190612895565b6108cc565b60405161028191906128ed565b60405180910390f35b34801561029657600080fd5b506102b160048036038101906102ac9190612895565b610a54565b005b3480156102bf57600080fd5b506102da60048036038101906102d59190612618565b610aea565b005b3480156102e857600080fd5b5061030360048036038101906102fe9190612618565b610b70565b6040516103109190612686565b60405180910390f35b34801561032557600080fd5b50610340600480360381019061033b9190612908565b610c21565b60405161034d91906128ed565b60405180910390f35b34801561036257600080fd5b5061037d60048036038101906103789190612908565b610c6a565b60405161038a91906128ed565b60405180910390f35b34801561039f57600080fd5b506103a8610d21565b005b3480156103b657600080fd5b506103bf610da9565b6040516103cc9190612686565b60405180910390f35b3480156103e157600080fd5b506103ea610dd3565b6040516103f79190612686565b60405180910390f35b34801561040c57600080fd5b50610415610dfc565b60405161042291906125c0565b60405180910390f35b34801561043757600080fd5b50610452600480360381019061044d9190612961565b610e8e565b005b61046e6004803603810190610469919061270d565b610ea4565b005b34801561047c57600080fd5b5061049760048036038101906104929190612a42565b610f71565b005b3480156104a557600080fd5b506104c060048036038101906104bb9190612618565b610fd3565b6040516104cd91906125c0565b60405180910390f35b3480156104e257600080fd5b506104fd60048036038101906104f89190612ac5565b61107a565b60405161050a919061250c565b60405180910390f35b34801561051f57600080fd5b5061053a60048036038101906105359190612908565b61110e565b005b60007f80ac58cd000000000000000000000000000000000000000000000000000000007bffffffffffffffffffffffffffffffffffffffffffffffffffffffff1916827bffffffffffffffffffffffffffffffffffffffffffffffffffffffff1916148061060757507f5b5e139f000000000000000000000000000000000000000000000000000000007bffffffffffffffffffffffffffffffffffffffffffffffffffffffff1916827bffffffffffffffffffffffffffffffffffffffffffffffffffffffff1916145b80610617575061061682611205565b5b9050919050565b60606001805461062d90612b34565b80601f016020809104026020016040519081016040528092919081815260200182805461065990612b34565b80156106a65780601f1061067b576101008083540402835291602001916106a6565b820191906000526020600020905b81548152906001019060200180831161068957829003601f168201915b5050505050905090565b60006106bb8261126f565b6106fa576040517f08c379a00000000000000000000000000000000000000000000000000000000081526004016106f190612bd7565b60405180910390fd5b6005600083815260200190815260200160002060009054906101000a900473ffffffffffffffffffffffffffffffffffffffff169050919050565b600061074082610b70565b90508073ffffffffffffffffffffffffffffffffffffffff168373ffffffffffffffffffffffffffffffffffffffff16036107b0576040517f08c379a00000000000000000000000000000000000000000000000000000000081526004016107a790612c69565b60405180910390fd5b8073ffffffffffffffffffffffffffffffffffffffff166107cf6112db565b73ffffffffffffffffffffffffffffffffffffffff1614806107fe57506107fd816107f86112db565b61107a565b5b61083d576040517f08c379a000000000000000000000000000000000000000000000000000000000815260040161083490612cfb565b60405180910390fd5b61084783836112e3565b505050565b61085d6108576112db565b8261139c565b61089c576040517f08c379a000000000000000000000000000000000000000000000000000000000815260040161089390612d8d565b60405180910390fd5b6108a783838361147a565b505050565b6108c783838360405180602001604052806000815250610f71565b505050565b6000806108d8836116e0565b905061092d6001600d60003373ffffffffffffffffffffffffffffffffffffffff1673ffffffffffffffffffffffffffffffffffffffff1681526020019081526020016000205461186890919063ffffffff16565b600d60003373ffffffffffffffffffffffffffffffffffffffff1673ffffffffffffffffffffffffffffffffffffffff1681526020019081526020016000208190555033600c600083815260200190815260200160002060006101000a81548173ffffffffffffffffffffffffffffffffffffffff021916908373ffffffffffffffffffffffffffffffffffffffff160217905550600954600a60009054906101000a900473ffffffffffffffffffffffffffffffffffffffff1673ffffffffffffffffffffffffffffffffffffffff163373ffffffffffffffffffffffffffffffffffffffff167fddf252ad1be2c89b69c2b068fc378daa952ba7f163c4a11628f55a4df523b3ef60405160405180910390a4610a4b338261187e565b80915050919050565b610a5c6112db565b73ffffffffffffffffffffffffffffffffffffffff16610a7a610dd3565b73ffffffffffffffffffffffffffffffffffffffff1614610ad0576040517f08c379a0000000000000000000000000000000000000000000000000000000008152600401610ac790612df9565b60405180910390fd5b8060089080519060200190610ae6929190612378565b5050565b610af26112db565b73ffffffffffffffffffffffffffffffffffffffff16610b10610dd3565b73ffffffffffffffffffffffffffffffffffffffff1614610b66576040517f08c379a0000000000000000000000000000000000000000000000000000000008152600401610b5d90612df9565b60405180910390fd5b8060098190555050565b6000806003600084815260200190815260200160002060009054906101000a900473ffffffffffffffffffffffffffffffffffffffff169050600073ffffffffffffffffffffffffffffffffffffffff168173ffffffffffffffffffffffffffffffffffffffff1603610c18576040517f08c379a0000000000000000000000000000000000000000000000000000000008152600401610c0f90612e8b565b60405180910390fd5b80915050919050565b6000600d60008373ffffffffffffffffffffffffffffffffffffffff1673ffffffffffffffffffffffffffffffffffffffff168152602001908152602001600020549050919050565b60008073ffffffffffffffffffffffffffffffffffffffff168273ffffffffffffffffffffffffffffffffffffffff1603610cda576040517f08c379a0000000000000000000000000000000000000000000000000000000008152600401610cd190612f1d565b60405180910390fd5b600460008373ffffffffffffffffffffffffffffffffffffffff1673ffffffffffffffffffffffffffffffffffffffff168152602001908152602001600020549050919050565b610d296112db565b73ffffffffffffffffffffffffffffffffffffffff16610d47610dd3565b73ffffffffffffffffffffffffffffffffffffffff1614610d9d576040517f08c379a0000000000000000000000000000000000000000000000000000000008152600401610d9490612df9565b60405180910390fd5b610da7600061189c565b565b6000600a60009054906101000a900473ffffffffffffffffffffffffffffffffffffffff16905090565b60008060009054906101000a900473ffffffffffffffffffffffffffffffffffffffff16905090565b606060028054610e0b90612b34565b80601f0160208091040260200160405190810160405280929190818152602001828054610e3790612b34565b8015610e845780601f10610e5957610100808354040283529160200191610e84565b820191906000526020600020905b815481529060010190602001808311610e6757829003601f168201915b5050505050905090565b610ea0610e996112db565b8383611960565b5050565b80600c600082815260200190815260200160002060009054906101000a900473ffffffffffffffffffffffffffffffffffffffff1673ffffffffffffffffffffffffffffffffffffffff163373ffffffffffffffffffffffffffffffffffffffff1614610f1057600080fd5b600954341015610f55576040517f08c379a0000000000000000000000000000000000000000000000000000000008152600401610f4c90612faf565b60405180910390fd5b610f60848484611acc565b610f6b84848461084c565b50505050565b610f82610f7c6112db565b8361139c565b610fc1576040517f08c379a0000000000000000000000000000000000000000000000000000000008152600401610fb890612d8d565b60405180910390fd5b610fcd84848484611caa565b50505050565b6060610fde8261126f565b61101d576040517f08c379a000000000000000000000000000000000000000000000000000000000815260040161101490613041565b60405180910390fd5b6000611027611d06565b905060008151116110475760405180602001604052806000815250611072565b8061105184611d98565b60405160200161106292919061309d565b6040516020818303038152906040525b915050919050565b6000600660008473ffffffffffffffffffffffffffffffffffffffff1673ffffffffffffffffffffffffffffffffffffffff16815260200190815260200160002060008373ffffffffffffffffffffffffffffffffffffffff1673ffffffffffffffffffffffffffffffffffffffff16815260200190815260200160002060009054906101000a900460ff16905092915050565b6111166112db565b73ffffffffffffffffffffffffffffffffffffffff16611134610dd3565b73ffffffffffffffffffffffffffffffffffffffff161461118a576040517f08c379a000000000000000000000000000000000000000000000000000000000815260040161118190612df9565b60405180910390fd5b600073ffffffffffffffffffffffffffffffffffffffff168173ffffffffffffffffffffffffffffffffffffffff16036111f9576040517f08c379a00000000000000000000000000000000000000000000000000000000081526004016111f090613133565b60405180910390fd5b6112028161189c565b50565b60007f01ffc9a7000000000000000000000000000000000000000000000000000000007bffffffffffffffffffffffffffffffffffffffffffffffffffffffff1916827bffffffffffffffffffffffffffffffffffffffffffffffffffffffff1916149050919050565b60008073ffffffffffffffffffffffffffffffffffffffff166003600084815260200190815260200160002060009054906101000a900473ffffffffffffffffffffffffffffffffffffffff1673ffffffffffffffffffffffffffffffffffffffff1614159050919050565b600033905090565b816005600083815260200190815260200160002060006101000a81548173ffffffffffffffffffffffffffffffffffffffff021916908373ffffffffffffffffffffffffffffffffffffffff160217905550808273ffffffffffffffffffffffffffffffffffffffff1661135683610b70565b73ffffffffffffffffffffffffffffffffffffffff167f8c5be1e5ebec7d5bd14f71427d1e84f3dd0314c0f7b2291e5b200ac8c7c3b92560405160405180910390a45050565b60006113a78261126f565b6113e6576040517f08c379a00000000000000000000000000000000000000000000000000000000081526004016113dd906131c5565b60405180910390fd5b60006113f183610b70565b90508073ffffffffffffffffffffffffffffffffffffffff168473ffffffffffffffffffffffffffffffffffffffff16148061146057508373ffffffffffffffffffffffffffffffffffffffff16611448846106b0565b73ffffffffffffffffffffffffffffffffffffffff16145b806114715750611470818561107a565b5b91505092915050565b8273ffffffffffffffffffffffffffffffffffffffff1661149a82610b70565b73ffffffffffffffffffffffffffffffffffffffff16146114f0576040517f08c379a00000000000000000000000000000000000000000000000000000000081526004016114e790613257565b60405180910390fd5b600073ffffffffffffffffffffffffffffffffffffffff168273ffffffffffffffffffffffffffffffffffffffff160361155f576040517f08c379a0000000000000000000000000000000000000000000000000000000008152600401611556906132e9565b60405180910390fd5b61156a838383611ef8565b6115756000826112e3565b6001600460008573ffffffffffffffffffffffffffffffffffffffff1673ffffffffffffffffffffffffffffffffffffffff16815260200190815260200160002060008282546115c59190613338565b925050819055506001600460008473ffffffffffffffffffffffffffffffffffffffff1673ffffffffffffffffffffffffffffffffffffffff168152602001908152602001600020600082825461161c919061336c565b92505081905550816003600083815260200190815260200160002060006101000a81548173ffffffffffffffffffffffffffffffffffffffff021916908373ffffffffffffffffffffffffffffffffffffffff160217905550808273ffffffffffffffffffffffffffffffffffffffff168473ffffffffffffffffffffffffffffffffffffffff167fddf252ad1be2c89b69c2b068fc378daa952ba7f163c4a11628f55a4df523b3ef60405160405180910390a46116db838383611efd565b505050565b60006116ec6007611f02565b60006116f86007611f18565b90506117026123fe565b838160000181905250611713611f26565b8160200181905250611723611f63565b816080018181525050600a816060019060ff16908160ff16815250506001816040019061ffff16908161ffff168152505061175c611f6f565b8160a0018181525050600b81908060018154018082558091505060019003906000526020600020906005020160009091909190915060008201518160000190805190602001906117ad929190612378565b5060208201518160010190805190602001906117ca929190612378565b5060408201518160020160006101000a81548161ffff021916908361ffff16021790555060608201518160020160026101000a81548160ff021916908360ff1602179055506080820151816003015560a0820151816004015550507f806638a1fc90cec1d905c742ef32e76004dcce146ea274170b3018708eec5b2f82856040516118569291906133c2565b60405180910390a18192505050919050565b60008183611876919061336c565b905092915050565b611898828260405180602001604052806000815250611f84565b5050565b60008060009054906101000a900473ffffffffffffffffffffffffffffffffffffffff169050816000806101000a81548173ffffffffffffffffffffffffffffffffffffffff021916908373ffffffffffffffffffffffffffffffffffffffff1602179055508173ffffffffffffffffffffffffffffffffffffffff168173ffffffffffffffffffffffffffffffffffffffff167f8be0079c531659141344cd1fd0a4f28419497f9722a3daafe3b4186f6b6457e060405160405180910390a35050565b8173ffffffffffffffffffffffffffffffffffffffff168373ffffffffffffffffffffffffffffffffffffffff16036119ce576040517f08c379a00000000000000000000000000000000000000000000000000000000081526004016119c59061343e565b60405180910390fd5b80600660008573ffffffffffffffffffffffffffffffffffffffff1673ffffffffffffffffffffffffffffffffffffffff16815260200190815260200160002060008473ffffffffffffffffffffffffffffffffffffffff1673ffffffffffffffffffffffffffffffffffffffff16815260200190815260200160002060006101000a81548160ff0219169083151502179055508173ffffffffffffffffffffffffffffffffffffffff168373ffffffffffffffffffffffffffffffffffffffff167f17307eab39ab6107e8899845ad3d59bd9653f200f220920489ca2b5937696c3183604051611abf919061250c565b60405180910390a3505050565b611b1f6001600d60008573ffffffffffffffffffffffffffffffffffffffff1673ffffffffffffffffffffffffffffffffffffffff1681526020019081526020016000205461186890919063ffffffff16565b600d60008473ffffffffffffffffffffffffffffffffffffffff1673ffffffffffffffffffffffffffffffffffffffff16815260200190815260200160002081905550611bb56001600d60008673ffffffffffffffffffffffffffffffffffffffff1673ffffffffffffffffffffffffffffffffffffffff16815260200190815260200160002054611fdf90919063ffffffff16565b600d60008573ffffffffffffffffffffffffffffffffffffffff1673ffffffffffffffffffffffffffffffffffffffff1681526020019081526020016000208190555081600c600083815260200190815260200160002060006101000a81548173ffffffffffffffffffffffffffffffffffffffff021916908373ffffffffffffffffffffffffffffffffffffffff160217905550808273ffffffffffffffffffffffffffffffffffffffff168473ffffffffffffffffffffffffffffffffffffffff167fddf252ad1be2c89b69c2b068fc378daa952ba7f163c4a11628f55a4df523b3ef60405160405180910390a4505050565b611cb584848461147a565b611cc184848484611ff5565b611d00576040517f08c379a0000000000000000000000000000000000000000000000000000000008152600401611cf7906134d0565b60405180910390fd5b50505050565b606060088054611d1590612b34565b80601f0160208091040260200160405190810160405280929190818152602001828054611d4190612b34565b8015611d8e5780601f10611d6357610100808354040283529160200191611d8e565b820191906000526020600020905b815481529060010190602001808311611d7157829003601f168201915b5050505050905090565b606060008203611ddf576040518060400160405280600181526020017f30000000000000000000000000000000000000000000000000000000000000008152509050611ef3565b600082905060005b60008214611e11578080611dfa906134f0565b915050600a82611e0a9190613567565b9150611de7565b60008167ffffffffffffffff811115611e2d57611e2c61276a565b5b6040519080825280601f01601f191660200182016040528015611e5f5781602001600182028036833780820191505090505b5090505b60008514611eec57600182611e789190613338565b9150600a85611e879190613598565b6030611e93919061336c565b60f81b818381518110611ea957611ea86135c9565b5b60200101907effffffffffffffffffffffffffffffffffffffffffffffffffffffffffffff1916908160001a905350600a85611ee59190613567565b9450611e63565b8093505050505b919050565b505050565b505050565b6001816000016000828254019250508190555050565b600081600001549050919050565b60606040518060400160405280600781526020017f5363696e696f6e00000000000000000000000000000000000000000000000000815250905090565b60006306059a01905090565b60006c014370dcb3ba2d04989a029004905090565b611f8e838361217c565b611f9b6000848484611ff5565b611fda576040517f08c379a0000000000000000000000000000000000000000000000000000000008152600401611fd1906134d0565b60405180910390fd5b505050565b60008183611fed9190613338565b905092915050565b60006120168473ffffffffffffffffffffffffffffffffffffffff16612355565b1561216f578373ffffffffffffffffffffffffffffffffffffffff1663150b7a0261203f6112db565b8786866040518563ffffffff1660e01b8152600401612061949392919061364d565b6020604051808303816000875af192505050801561209d57506040513d601f19601f8201168201806040525081019061209a91906136ae565b60015b61211f573d80600081146120cd576040519150601f19603f3d011682016040523d82523d6000602084013e6120d2565b606091505b506000815103612117576040517f08c379a000000000000000000000000000000000000000000000000000000000815260040161210e906134d0565b60405180910390fd5b805181602001fd5b63150b7a0260e01b7bffffffffffffffffffffffffffffffffffffffffffffffffffffffff1916817bffffffffffffffffffffffffffffffffffffffffffffffffffffffff191614915050612174565b600190505b949350505050565b600073ffffffffffffffffffffffffffffffffffffffff168273ffffffffffffffffffffffffffffffffffffffff16036121eb576040517f08c379a00000000000000000000000000000000000000000000000000000000081526004016121e290613727565b60405180910390fd5b6121f48161126f565b15612234576040517f08c379a000000000000000000000000000000000000000000000000000000000815260040161222b90613793565b60405180910390fd5b61224060008383611ef8565b6001600460008473ffffffffffffffffffffffffffffffffffffffff1673ffffffffffffffffffffffffffffffffffffffff1681526020019081526020016000206000828254612290919061336c565b92505081905550816003600083815260200190815260200160002060006101000a81548173ffffffffffffffffffffffffffffffffffffffff021916908373ffffffffffffffffffffffffffffffffffffffff160217905550808273ffffffffffffffffffffffffffffffffffffffff16600073ffffffffffffffffffffffffffffffffffffffff167fddf252ad1be2c89b69c2b068fc378daa952ba7f163c4a11628f55a4df523b3ef60405160405180910390a461235160008383611efd565b5050565b6000808273ffffffffffffffffffffffffffffffffffffffff163b119050919050565b82805461238490612b34565b90600052602060002090601f0160209004810192826123a657600085556123ed565b82601f106123bf57805160ff19168380011785556123ed565b828001600101855582156123ed579182015b828111156123ec5782518255916020019190600101906123d1565b5b5090506123fa919061243b565b5090565b6040518060c001604052806060815260200160608152602001600061ffff168152602001600060ff16815260200160008152602001600081525090565b5b8082111561245457600081600090555060010161243c565b5090565b6000604051905090565b600080fd5b600080fd5b60007fffffffff0000000000000000000000000000000000000000000000000000000082169050919050565b6124a18161246c565b81146124ac57600080fd5b50565b6000813590506124be81612498565b92915050565b6000602082840312156124da576124d9612462565b5b60006124e8848285016124af565b91505092915050565b60008115159050919050565b612506816124f1565b82525050565b600060208201905061252160008301846124fd565b92915050565b600081519050919050565b600082825260208201905092915050565b60005b83811015612561578082015181840152602081019050612546565b83811115612570576000848401525b50505050565b6000601f19601f8301169050919050565b600061259282612527565b61259c8185612532565b93506125ac818560208601612543565b6125b581612576565b840191505092915050565b600060208201905081810360008301526125da8184612587565b905092915050565b6000819050919050565b6125f5816125e2565b811461260057600080fd5b50565b600081359050612612816125ec565b92915050565b60006020828403121561262e5761262d612462565b5b600061263c84828501612603565b91505092915050565b600073ffffffffffffffffffffffffffffffffffffffff82169050919050565b600061267082612645565b9050919050565b61268081612665565b82525050565b600060208201905061269b6000830184612677565b92915050565b6126aa81612665565b81146126b557600080fd5b50565b6000813590506126c7816126a1565b92915050565b600080604083850312156126e4576126e3612462565b5b60006126f2858286016126b8565b925050602061270385828601612603565b9150509250929050565b60008060006060848603121561272657612725612462565b5b6000612734868287016126b8565b9350506020612745868287016126b8565b925050604061275686828701612603565b9150509250925092565b600080fd5b600080fd5b7f4e487b7100000000000000000000000000000000000000000000000000000000600052604160045260246000fd5b6127a282612576565b810181811067ffffffffffffffff821117156127c1576127c061276a565b5b80604052505050565b60006127d4612458565b90506127e08282612799565b919050565b600067ffffffffffffffff821115612800576127ff61276a565b5b61280982612576565b9050602081019050919050565b82818337600083830152505050565b6000612838612833846127e5565b6127ca565b90508281526020810184848401111561285457612853612765565b5b61285f848285612816565b509392505050565b600082601f83011261287c5761287b612760565b5b813561288c848260208601612825565b91505092915050565b6000602082840312156128ab576128aa612462565b5b600082013567ffffffffffffffff8111156128c9576128c8612467565b5b6128d584828501612867565b91505092915050565b6128e7816125e2565b82525050565b600060208201905061290260008301846128de565b92915050565b60006020828403121561291e5761291d612462565b5b600061292c848285016126b8565b91505092915050565b61293e816124f1565b811461294957600080fd5b50565b60008135905061295b81612935565b92915050565b6000806040838503121561297857612977612462565b5b6000612986858286016126b8565b92505060206129978582860161294c565b9150509250929050565b600067ffffffffffffffff8211156129bc576129bb61276a565b5b6129c582612576565b9050602081019050919050565b60006129e56129e0846129a1565b6127ca565b905082815260208101848484011115612a0157612a00612765565b5b612a0c848285612816565b509392505050565b600082601f830112612a2957612a28612760565b5b8135612a398482602086016129d2565b91505092915050565b60008060008060808587031215612a5c57612a5b612462565b5b6000612a6a878288016126b8565b9450506020612a7b878288016126b8565b9350506040612a8c87828801612603565b925050606085013567ffffffffffffffff811115612aad57612aac612467565b5b612ab987828801612a14565b91505092959194509250565b60008060408385031215612adc57612adb612462565b5b6000612aea858286016126b8565b9250506020612afb858286016126b8565b9150509250929050565b7f4e487b7100000000000000000000000000000000000000000000000000000000600052602260045260246000fd5b60006002820490506001821680612b4c57607f821691505b602082108103612b5f57612b5e612b05565b5b50919050565b7f4552433732313a20617070726f76656420717565727920666f72206e6f6e657860008201527f697374656e7420746f6b656e0000000000000000000000000000000000000000602082015250565b6000612bc1602c83612532565b9150612bcc82612b65565b604082019050919050565b60006020820190508181036000830152612bf081612bb4565b9050919050565b7f4552433732313a20617070726f76616c20746f2063757272656e74206f776e6560008201527f7200000000000000000000000000000000000000000000000000000000000000602082015250565b6000612c53602183612532565b9150612c5e82612bf7565b604082019050919050565b60006020820190508181036000830152612c8281612c46565b9050919050565b7f4552433732313a20617070726f76652063616c6c6572206973206e6f74206f7760008201527f6e6572206e6f7220617070726f76656420666f7220616c6c0000000000000000602082015250565b6000612ce5603883612532565b9150612cf082612c89565b604082019050919050565b60006020820190508181036000830152612d1481612cd8565b9050919050565b7f4552433732313a207472616e736665722063616c6c6572206973206e6f74206f60008201527f776e6572206e6f7220617070726f766564000000000000000000000000000000602082015250565b6000612d77603183612532565b9150612d8282612d1b565b604082019050919050565b60006020820190508181036000830152612da681612d6a565b9050919050565b7f4f776e61626c653a2063616c6c6572206973206e6f7420746865206f776e6572600082015250565b6000612de3602083612532565b9150612dee82612dad565b602082019050919050565b60006020820190508181036000830152612e1281612dd6565b9050919050565b7f4552433732313a206f776e657220717565727920666f72206e6f6e657869737460008201527f656e7420746f6b656e0000000000000000000000000000000000000000000000602082015250565b6000612e75602983612532565b9150612e8082612e19565b604082019050919050565b60006020820190508181036000830152612ea481612e68565b9050919050565b7f4552433732313a2062616c616e636520717565727920666f7220746865207a6560008201527f726f206164647265737300000000000000000000000000000000000000000000602082015250565b6000612f07602a83612532565b9150612f1282612eab565b604082019050919050565b60006020820190508181036000830152612f3681612efa565b9050919050565b7f4e6f7420656e6f756768204554482073656e743b20636865636b20707269636560008201527f2100000000000000000000000000000000000000000000000000000000000000602082015250565b6000612f99602183612532565b9150612fa482612f3d565b604082019050919050565b60006020820190508181036000830152612fc881612f8c565b9050919050565b7f4552433732314d657461646174613a2055524920717565727920666f72206e6f60008201527f6e6578697374656e7420746f6b656e0000000000000000000000000000000000602082015250565b600061302b602f83612532565b915061303682612fcf565b604082019050919050565b6000602082019050818103600083015261305a8161301e565b9050919050565b600081905092915050565b600061307782612527565b6130818185613061565b9350613091818560208601612543565b80840191505092915050565b60006130a9828561306c565b91506130b5828461306c565b91508190509392505050565b7f4f776e61626c653a206e6577206f776e657220697320746865207a65726f206160008201527f6464726573730000000000000000000000000000000000000000000000000000602082015250565b600061311d602683612532565b9150613128826130c1565b604082019050919050565b6000602082019050818103600083015261314c81613110565b9050919050565b7f4552433732313a206f70657261746f7220717565727920666f72206e6f6e657860008201527f697374656e7420746f6b656e0000000000000000000000000000000000000000602082015250565b60006131af602c83612532565b91506131ba82613153565b604082019050919050565b600060208201905081810360008301526131de816131a2565b9050919050565b7f4552433732313a207472616e736665722066726f6d20696e636f72726563742060008201527f6f776e6572000000000000000000000000000000000000000000000000000000602082015250565b6000613241602583612532565b915061324c826131e5565b604082019050919050565b6000602082019050818103600083015261327081613234565b9050919050565b7f4552433732313a207472616e7366657220746f20746865207a65726f2061646460008201527f7265737300000000000000000000000000000000000000000000000000000000602082015250565b60006132d3602483612532565b91506132de82613277565b604082019050919050565b60006020820190508181036000830152613302816132c6565b9050919050565b7f4e487b7100000000000000000000000000000000000000000000000000000000600052601160045260246000fd5b6000613343826125e2565b915061334e836125e2565b92508282101561336157613360613309565b5b828203905092915050565b6000613377826125e2565b9150613382836125e2565b9250827fffffffffffffffffffffffffffffffffffffffffffffffffffffffffffffffff038211156133b7576133b6613309565b5b828201905092915050565b60006040820190506133d760008301856128de565b81810360208301526133e98184612587565b90509392505050565b7f4552433732313a20617070726f766520746f2063616c6c657200000000000000600082015250565b6000613428601983612532565b9150613433826133f2565b602082019050919050565b600060208201905081810360008301526134578161341b565b9050919050565b7f4552433732313a207472616e7366657220746f206e6f6e20455243373231526560008201527f63656976657220696d706c656d656e7465720000000000000000000000000000602082015250565b60006134ba603283612532565b91506134c58261345e565b604082019050919050565b600060208201905081810360008301526134e9816134ad565b9050919050565b60006134fb826125e2565b91507fffffffffffffffffffffffffffffffffffffffffffffffffffffffffffffffff820361352d5761352c613309565b5b600182019050919050565b7f4e487b7100000000000000000000000000000000000000000000000000000000600052601260045260246000fd5b6000613572826125e2565b915061357d836125e2565b92508261358d5761358c613538565b5b828204905092915050565b60006135a3826125e2565b91506135ae836125e2565b9250826135be576135bd613538565b5b828206905092915050565b7f4e487b7100000000000000000000000000000000000000000000000000000000600052603260045260246000fd5b600081519050919050565b600082825260208201905092915050565b600061361f826135f8565b6136298185613603565b9350613639818560208601612543565b61364281612576565b840191505092915050565b60006080820190506136626000830187612677565b61366f6020830186612677565b61367c60408301856128de565b818103606083015261368e8184613614565b905095945050505050565b6000815190506136a881612498565b92915050565b6000602082840312156136c4576136c3612462565b5b60006136d284828501613699565b91505092915050565b7f4552433732313a206d696e7420746f20746865207a65726f2061646472657373600082015250565b6000613711602083612532565b915061371c826136db565b602082019050919050565b6000602082019050818103600083015261374081613704565b9050919050565b7f4552433732313a20746f6b656e20616c7265616479206d696e74656400000000600082015250565b600061377d601c83612532565b915061378882613747565b602082019050919050565b600060208201905081810360008301526137ac81613770565b905091905056fea264697066735822122015cfab876848df8a9819880124d89c45934468a241959f1d7cce3f05d5f6dac464736f6c634300080d0033",
  "immutableReferences": {},
  "source": "\n// SPDX-License-Identifier: MIT\npragma solidity ^0.8.0;\n\nimport \"@openzeppelin/contracts/access/Ownable.sol\";\nimport \"@openzeppelin/contracts/token/ERC721/ERC721.sol\";\nimport \"@openzeppelin/contracts/utils/math/SafeMath.sol\";\nimport \"@openzeppelin/contracts/utils/Counters.sol\";\nimport '@openzeppelin/contracts/token/ERC1155/utils/ERC1155Holder.sol';\n\n\ncontract ScinionFactoryTest1 is Ownable, ERC721 {\n\n  using Counters for Counters.Counter;\n  Counters.Counter private _tokenIds;\n  string private _baseURIextended;\n\n  uint minPrice = 0.001 ether;\n\n  using SafeMath for uint256;\n\n  event NewScinion(uint scinionId, string name);\n\n  event MoneyTransfer(uint money, address from);\n\n  address payable gameOwner;\n\n  function getOwner() public view returns (address) {\n        return gameOwner;\n  }\n\n  struct Scinion {\n    string name;\n    string scinionType;\n    uint16 level;\n    uint8 energia;\n    uint dna;\n    uint habilities;\n  }\n\n   constructor() ERC721(\"ScinionNFT\", \"SCTK\") {\n        gameOwner = payable(msg.sender);\n        _baseURIextended = \"\";\n    }\n\n\n  Scinion[] internal scinions;\n\n  mapping (uint => address) internal scinionToOwner;\n  mapping (address => uint) internal ownerScinionCount;\n\n  modifier onlyOwnerOf(uint _scinionId) {\n    require(msg.sender == scinionToOwner[_scinionId]);\n    _;\n  }\n\n  function rand(uint8 _min, uint8 _max, string memory _name) private pure returns (uint8){\n    return uint8(uint(keccak256(abi.encodePacked(_name)))%(_min+_max)-_min);\n  }\n\n  function setMinPrice(uint _fee) external onlyOwner {\n    minPrice = _fee;\n  }\n\n  function setBaseURI(string memory baseURI_) external onlyOwner() {\n     _baseURIextended = baseURI_;\n  }\n\n  function _baseURI() internal view virtual override returns (string memory) {\n    return _baseURIextended;\n  }\n\n  /*\n    Dejamos la funcion \n  */\n\n  function createScinion(string memory _name) private returns(uint tokenId) {\n    _tokenIds.increment();\n    uint256 id = _tokenIds.current();\n    Scinion memory newScinion;\n    newScinion.name = _name;\n    newScinion.scinionType = _setScinionType();\n    newScinion.dna = _setDna();\n    newScinion.energia = 10;\n    newScinion.level = 1;\n    newScinion.habilities = _setPerfectHabilities();\n    scinions.push(newScinion);\n    emit NewScinion(id, _name);\n    return id;\n  }\n\n  function _setPerfectHabilities() pure private returns (uint habilities) {\n    return 100100100100100100100100100100;\n  }\n\n  function _setScinionType() pure private returns (string memory scinionType) {\n    return \"Scinion\";\n  }\n\n  function _setDna() pure private returns (uint dna) {\n    return 101030401;\n  }\n\n  function _transferScinion(address _from, address _to, uint256 _tokenId) private {\n    ownerScinionCount[_to] = ownerScinionCount[_to].add(1);\n    ownerScinionCount[_from] = ownerScinionCount[_from].sub(1);\n    scinionToOwner[_tokenId] = _to;\n    emit Transfer(_from, _to, _tokenId);\n  }\n\n  function transferScinion(address _from, address _to, uint256 _tokenId) external  payable onlyOwnerOf(_tokenId) {\n      require(msg.value >= minPrice, \"Not enough ETH sent; check price!\"); \n      _transferScinion(_from, _to, _tokenId);\n      transferFrom(_from, _to, _tokenId);\n   } \n\n  function claimScinion(string memory _name) external payable returns(uint id) {\n    uint tokenId = createScinion(_name);\n   // require(msg.value >= minPrice, \"Not enough ETH sent; check price!\"); \n    ownerScinionCount[msg.sender] = ownerScinionCount[msg.sender].add(1);\n    scinionToOwner[tokenId] = msg.sender;\n    emit Transfer(msg.sender, gameOwner, minPrice);\n    _safeMint(msg.sender, tokenId);\n    return tokenId;\n  }\n\n  function balanceOfScinions(address owner) external view returns (uint balance) {\n    return ownerScinionCount[owner];\n  }\n\n\n /* function kill() public onlyOwner {\n      selfdestruct(owner());\n  } */\n\n}\n",
  "sourcePath": "/Users/albateixidovillanueva/Desktop/scinions/contracts/scinionfactory.sol",
  "compiler": {
    "name": "solc",
    "version": "0.8.13+commit.abaa5c0e.Emscripten.clang"
  },
  "schemaVersion": "3.4.6",
  "updatedAt": "2022-04-16T17:34:41.194Z",
  "devdoc": {
    "kind": "dev",
    "methods": {
      "approve(address,uint256)": {
        "details": "See {IERC721-approve}."
      },
      "balanceOf(address)": {
        "details": "See {IERC721-balanceOf}."
      },
      "getApproved(uint256)": {
        "details": "See {IERC721-getApproved}."
      },
      "isApprovedForAll(address,address)": {
        "details": "See {IERC721-isApprovedForAll}."
      },
      "name()": {
        "details": "See {IERC721Metadata-name}."
      },
      "owner()": {
        "details": "Returns the address of the current owner."
      },
      "ownerOf(uint256)": {
        "details": "See {IERC721-ownerOf}."
      },
      "renounceOwnership()": {
        "details": "Leaves the contract without owner. It will not be possible to call `onlyOwner` functions anymore. Can only be called by the current owner. NOTE: Renouncing ownership will leave the contract without an owner, thereby removing any functionality that is only available to the owner."
      },
      "safeTransferFrom(address,address,uint256)": {
        "details": "See {IERC721-safeTransferFrom}."
      },
      "safeTransferFrom(address,address,uint256,bytes)": {
        "details": "See {IERC721-safeTransferFrom}."
      },
      "setApprovalForAll(address,bool)": {
        "details": "See {IERC721-setApprovalForAll}."
      },
      "supportsInterface(bytes4)": {
        "details": "See {IERC165-supportsInterface}."
      },
      "symbol()": {
        "details": "See {IERC721Metadata-symbol}."
      },
      "tokenURI(uint256)": {
        "details": "See {IERC721Metadata-tokenURI}."
      },
      "transferFrom(address,address,uint256)": {
        "details": "See {IERC721-transferFrom}."
      },
      "transferOwnership(address)": {
        "details": "Transfers ownership of the contract to a new account (`newOwner`). Can only be called by the current owner."
      }
    },
    "version": 1
  },
  "userdoc": {
    "kind": "user",
    "methods": {},
    "version": 1
  }
}