{
  "contractName": "ScinionFactoryTest1",
  "abi": [
    {
      "inputs": [],
      "stateMutability": "nonpayable",
      "type": "constructor"
    },
    {
      "anonymous": false,
      "inputs": [
        {
          "indexed": true,
          "internalType": "address",
          "name": "owner",
          "type": "address"
        },
        {
          "indexed": true,
          "internalType": "address",
          "name": "approved",
          "type": "address"
        },
        {
          "indexed": true,
          "internalType": "uint256",
          "name": "tokenId",
          "type": "uint256"
        }
      ],
      "name": "Approval",
      "type": "event"
    },
    {
      "anonymous": false,
      "inputs": [
        {
          "indexed": true,
          "internalType": "address",
          "name": "owner",
          "type": "address"
        },
        {
          "indexed": true,
          "internalType": "address",
          "name": "operator",
          "type": "address"
        },
        {
          "indexed": false,
          "internalType": "bool",
          "name": "approved",
          "type": "bool"
        }
      ],
      "name": "ApprovalForAll",
      "type": "event"
    },
    {
      "anonymous": false,
      "inputs": [
        {
          "indexed": false,
          "internalType": "uint256",
          "name": "money",
          "type": "uint256"
        },
        {
          "indexed": false,
          "internalType": "address",
          "name": "from",
          "type": "address"
        }
      ],
      "name": "MoneyTransfer",
      "type": "event"
    },
    {
      "anonymous": false,
      "inputs": [
        {
          "indexed": false,
          "internalType": "uint256",
          "name": "scinionId",
          "type": "uint256"
        },
        {
          "indexed": false,
          "internalType": "string",
          "name": "name",
          "type": "string"
        }
      ],
      "name": "NewScinion",
      "type": "event"
    },
    {
      "anonymous": false,
      "inputs": [
        {
          "indexed": true,
          "internalType": "address",
          "name": "previousOwner",
          "type": "address"
        },
        {
          "indexed": true,
          "internalType": "address",
          "name": "newOwner",
          "type": "address"
        }
      ],
      "name": "OwnershipTransferred",
      "type": "event"
    },
    {
      "anonymous": false,
      "inputs": [
        {
          "indexed": true,
          "internalType": "address",
          "name": "from",
          "type": "address"
        },
        {
          "indexed": true,
          "internalType": "address",
          "name": "to",
          "type": "address"
        },
        {
          "indexed": true,
          "internalType": "uint256",
          "name": "tokenId",
          "type": "uint256"
        }
      ],
      "name": "Transfer",
      "type": "event"
    },
    {
      "inputs": [
        {
          "internalType": "address",
          "name": "to",
          "type": "address"
        },
        {
          "internalType": "uint256",
          "name": "tokenId",
          "type": "uint256"
        }
      ],
      "name": "approve",
      "outputs": [],
      "stateMutability": "nonpayable",
      "type": "function"
    },
    {
      "inputs": [
        {
          "internalType": "address",
          "name": "owner",
          "type": "address"
        }
      ],
      "name": "balanceOf",
      "outputs": [
        {
          "internalType": "uint256",
          "name": "",
          "type": "uint256"
        }
      ],
      "stateMutability": "view",
      "type": "function"
    },
    {
      "inputs": [
        {
          "internalType": "uint256",
          "name": "tokenId",
          "type": "uint256"
        }
      ],
      "name": "getApproved",
      "outputs": [
        {
          "internalType": "address",
          "name": "",
          "type": "address"
        }
      ],
      "stateMutability": "view",
      "type": "function"
    },
    {
      "inputs": [
        {
          "internalType": "address",
          "name": "owner",
          "type": "address"
        },
        {
          "internalType": "address",
          "name": "operator",
          "type": "address"
        }
      ],
      "name": "isApprovedForAll",
      "outputs": [
        {
          "internalType": "bool",
          "name": "",
          "type": "bool"
        }
      ],
      "stateMutability": "view",
      "type": "function"
    },
    {
      "inputs": [],
      "name": "name",
      "outputs": [
        {
          "internalType": "string",
          "name": "",
          "type": "string"
        }
      ],
      "stateMutability": "view",
      "type": "function"
    },
    {
      "inputs": [],
      "name": "owner",
      "outputs": [
        {
          "internalType": "address",
          "name": "",
          "type": "address"
        }
      ],
      "stateMutability": "view",
      "type": "function"
    },
    {
      "inputs": [
        {
          "internalType": "uint256",
          "name": "tokenId",
          "type": "uint256"
        }
      ],
      "name": "ownerOf",
      "outputs": [
        {
          "internalType": "address",
          "name": "",
          "type": "address"
        }
      ],
      "stateMutability": "view",
      "type": "function"
    },
    {
      "inputs": [],
      "name": "renounceOwnership",
      "outputs": [],
      "stateMutability": "nonpayable",
      "type": "function"
    },
    {
      "inputs": [
        {
          "internalType": "address",
          "name": "from",
          "type": "address"
        },
        {
          "internalType": "address",
          "name": "to",
          "type": "address"
        },
        {
          "internalType": "uint256",
          "name": "tokenId",
          "type": "uint256"
        }
      ],
      "name": "safeTransferFrom",
      "outputs": [],
      "stateMutability": "nonpayable",
      "type": "function"
    },
    {
      "inputs": [
        {
          "internalType": "address",
          "name": "from",
          "type": "address"
        },
        {
          "internalType": "address",
          "name": "to",
          "type": "address"
        },
        {
          "internalType": "uint256",
          "name": "tokenId",
          "type": "uint256"
        },
        {
          "internalType": "bytes",
          "name": "_data",
          "type": "bytes"
        }
      ],
      "name": "safeTransferFrom",
      "outputs": [],
      "stateMutability": "nonpayable",
      "type": "function"
    },
    {
      "inputs": [
        {
          "internalType": "address",
          "name": "operator",
          "type": "address"
        },
        {
          "internalType": "bool",
          "name": "approved",
          "type": "bool"
        }
      ],
      "name": "setApprovalForAll",
      "outputs": [],
      "stateMutability": "nonpayable",
      "type": "function"
    },
    {
      "inputs": [
        {
          "internalType": "bytes4",
          "name": "interfaceId",
          "type": "bytes4"
        }
      ],
      "name": "supportsInterface",
      "outputs": [
        {
          "internalType": "bool",
          "name": "",
          "type": "bool"
        }
      ],
      "stateMutability": "view",
      "type": "function"
    },
    {
      "inputs": [],
      "name": "symbol",
      "outputs": [
        {
          "internalType": "string",
          "name": "",
          "type": "string"
        }
      ],
      "stateMutability": "view",
      "type": "function"
    },
    {
      "inputs": [
        {
          "internalType": "uint256",
          "name": "tokenId",
          "type": "uint256"
        }
      ],
      "name": "tokenURI",
      "outputs": [
        {
          "internalType": "string",
          "name": "",
          "type": "string"
        }
      ],
      "stateMutability": "view",
      "type": "function"
    },
    {
      "inputs": [
        {
          "internalType": "address",
          "name": "from",
          "type": "address"
        },
        {
          "internalType": "address",
          "name": "to",
          "type": "address"
        },
        {
          "internalType": "uint256",
          "name": "tokenId",
          "type": "uint256"
        }
      ],
      "name": "transferFrom",
      "outputs": [],
      "stateMutability": "nonpayable",
      "type": "function"
    },
    {
      "inputs": [
        {
          "internalType": "address",
          "name": "newOwner",
          "type": "address"
        }
      ],
      "name": "transferOwnership",
      "outputs": [],
      "stateMutability": "nonpayable",
      "type": "function"
    },
    {
      "inputs": [],
      "name": "getOwner",
      "outputs": [
        {
          "internalType": "address",
          "name": "",
          "type": "address"
        }
      ],
      "stateMutability": "view",
      "type": "function"
    },
    {
      "inputs": [
        {
          "internalType": "uint256",
          "name": "_fee",
          "type": "uint256"
        }
      ],
      "name": "setMinPrice",
      "outputs": [],
      "stateMutability": "nonpayable",
      "type": "function"
    },
    {
      "inputs": [
        {
          "internalType": "string",
          "name": "baseURI_",
          "type": "string"
        }
      ],
      "name": "setBaseURI",
      "outputs": [],
      "stateMutability": "nonpayable",
      "type": "function"
    },
    {
      "inputs": [
        {
          "internalType": "string",
          "name": "_name",
          "type": "string"
        },
        {
          "internalType": "string",
          "name": "_scinionType",
          "type": "string"
        },
        {
          "internalType": "uint256",
          "name": "_dna",
          "type": "uint256"
        },
        {
          "internalType": "uint256",
          "name": "_habilities",
          "type": "uint256"
        }
      ],
      "name": "createScinion",
      "outputs": [],
      "stateMutability": "nonpayable",
      "type": "function"
    },
    {
      "inputs": [
        {
          "internalType": "address",
          "name": "_from",
          "type": "address"
        },
        {
          "internalType": "address",
          "name": "_to",
          "type": "address"
        },
        {
          "internalType": "uint256",
          "name": "_tokenId",
          "type": "uint256"
        }
      ],
      "name": "transferScinion",
      "outputs": [],
      "stateMutability": "payable",
      "type": "function"
    },
    {
      "inputs": [
        {
          "internalType": "uint256",
          "name": "_tokenId",
          "type": "uint256"
        }
      ],
      "name": "claimScinion",
      "outputs": [],
      "stateMutability": "payable",
      "type": "function"
    },
    {
      "inputs": [
        {
          "internalType": "address",
          "name": "owner",
          "type": "address"
        }
      ],
      "name": "balanceOfScinions",
      "outputs": [
        {
          "internalType": "uint256",
          "name": "balance",
          "type": "uint256"
        }
      ],
      "stateMutability": "view",
      "type": "function"
    }
  ],
  "bytecode": "0x608060405266038d7ea4c680006009553480156200001c57600080fd5b506040518060400160405280600a81526020017f5363696e696f6e4e4654000000000000000000000000000000000000000000008152506040518060400160405280600481526020017f5343544b00000000000000000000000000000000000000000000000000000000815250620000a96200009d6200012460201b60201c565b6200012c60201b60201c565b8160019080519060200190620000c1929190620001f0565b508060029080519060200190620000da929190620001f0565b50505033600a60006101000a81548173ffffffffffffffffffffffffffffffffffffffff021916908373ffffffffffffffffffffffffffffffffffffffff16021790555062000304565b600033905090565b60008060009054906101000a900473ffffffffffffffffffffffffffffffffffffffff169050816000806101000a81548173ffffffffffffffffffffffffffffffffffffffff021916908373ffffffffffffffffffffffffffffffffffffffff1602179055508173ffffffffffffffffffffffffffffffffffffffff168173ffffffffffffffffffffffffffffffffffffffff167f8be0079c531659141344cd1fd0a4f28419497f9722a3daafe3b4186f6b6457e060405160405180910390a35050565b828054620001fe90620002cf565b90600052602060002090601f0160209004810192826200022257600085556200026e565b82601f106200023d57805160ff19168380011785556200026e565b828001600101855582156200026e579182015b828111156200026d57825182559160200191906001019062000250565b5b5090506200027d919062000281565b5090565b5b808211156200029c57600081600090555060010162000282565b5090565b7f4e487b7100000000000000000000000000000000000000000000000000000000600052602260045260246000fd5b60006002820490506001821680620002e857607f821691505b602082108103620002fe57620002fd620002a0565b5b50919050565b61394f80620003146000396000f3fe6080604052600436106101405760003560e01c8063715018a6116100b6578063af3ba19e1161006f578063af3ba19e1461044b578063b88d4fde14610474578063b8edb6221461049d578063c87b56dd146104b9578063e985e9c5146104f6578063f2fde38b1461053357610140565b8063715018a61461036e578063893d20e8146103855780638da5cb5b146103b057806395d89b41146103db578063a22cb46514610406578063a612c71a1461042f57610140565b806342842e0e1161010857806342842e0e1461023c57806355f804b3146102655780635ea8cd121461028e5780636352211e146102b75780636fa9174e146102f457806370a082311461033157610140565b806301ffc9a71461014557806306fdde0314610182578063081812fc146101ad578063095ea7b3146101ea57806323b872dd14610213575b600080fd5b34801561015157600080fd5b5061016c60048036038101906101679190612562565b61055c565b60405161017991906125aa565b60405180910390f35b34801561018e57600080fd5b5061019761063e565b6040516101a4919061265e565b60405180910390f35b3480156101b957600080fd5b506101d460048036038101906101cf91906126b6565b6106d0565b6040516101e19190612724565b60405180910390f35b3480156101f657600080fd5b50610211600480360381019061020c919061276b565b610755565b005b34801561021f57600080fd5b5061023a600480360381019061023591906127ab565b61086c565b005b34801561024857600080fd5b50610263600480360381019061025e91906127ab565b6108cc565b005b34801561027157600080fd5b5061028c60048036038101906102879190612933565b6108ec565b005b34801561029a57600080fd5b506102b560048036038101906102b091906126b6565b610982565b005b3480156102c357600080fd5b506102de60048036038101906102d991906126b6565b610a08565b6040516102eb9190612724565b60405180910390f35b34801561030057600080fd5b5061031b6004803603810190610316919061297c565b610ab9565b60405161032891906129b8565b60405180910390f35b34801561033d57600080fd5b506103586004803603810190610353919061297c565b610b02565b60405161036591906129b8565b60405180910390f35b34801561037a57600080fd5b50610383610bb9565b005b34801561039157600080fd5b5061039a610c41565b6040516103a79190612724565b60405180910390f35b3480156103bc57600080fd5b506103c5610c6b565b6040516103d29190612724565b60405180910390f35b3480156103e757600080fd5b506103f0610c94565b6040516103fd919061265e565b60405180910390f35b34801561041257600080fd5b5061042d600480360381019061042891906129ff565b610d26565b005b610449600480360381019061044491906127ab565b610d3c565b005b34801561045757600080fd5b50610472600480360381019061046d9190612a3f565b610e18565b005b34801561048057600080fd5b5061049b60048036038101906104969190612b7f565b611003565b005b6104b760048036038101906104b291906126b6565b611065565b005b3480156104c557600080fd5b506104e060048036038101906104db91906126b6565b611257565b6040516104ed919061265e565b60405180910390f35b34801561050257600080fd5b5061051d60048036038101906105189190612c02565b6112fe565b60405161052a91906125aa565b60405180910390f35b34801561053f57600080fd5b5061055a6004803603810190610555919061297c565b611392565b005b60007f80ac58cd000000000000000000000000000000000000000000000000000000007bffffffffffffffffffffffffffffffffffffffffffffffffffffffff1916827bffffffffffffffffffffffffffffffffffffffffffffffffffffffff1916148061062757507f5b5e139f000000000000000000000000000000000000000000000000000000007bffffffffffffffffffffffffffffffffffffffffffffffffffffffff1916827bffffffffffffffffffffffffffffffffffffffffffffffffffffffff1916145b80610637575061063682611489565b5b9050919050565b60606001805461064d90612c71565b80601f016020809104026020016040519081016040528092919081815260200182805461067990612c71565b80156106c65780601f1061069b576101008083540402835291602001916106c6565b820191906000526020600020905b8154815290600101906020018083116106a957829003601f168201915b5050505050905090565b60006106db826114f3565b61071a576040517f08c379a000000000000000000000000000000000000000000000000000000000815260040161071190612d14565b60405180910390fd5b6005600083815260200190815260200160002060009054906101000a900473ffffffffffffffffffffffffffffffffffffffff169050919050565b600061076082610a08565b90508073ffffffffffffffffffffffffffffffffffffffff168373ffffffffffffffffffffffffffffffffffffffff16036107d0576040517f08c379a00000000000000000000000000000000000000000000000000000000081526004016107c790612da6565b60405180910390fd5b8073ffffffffffffffffffffffffffffffffffffffff166107ef61155f565b73ffffffffffffffffffffffffffffffffffffffff16148061081e575061081d8161081861155f565b6112fe565b5b61085d576040517f08c379a000000000000000000000000000000000000000000000000000000000815260040161085490612e38565b60405180910390fd5b6108678383611567565b505050565b61087d61087761155f565b82611620565b6108bc576040517f08c379a00000000000000000000000000000000000000000000000000000000081526004016108b390612eca565b60405180910390fd5b6108c78383836116fe565b505050565b6108e783838360405180602001604052806000815250611003565b505050565b6108f461155f565b73ffffffffffffffffffffffffffffffffffffffff16610912610c6b565b73ffffffffffffffffffffffffffffffffffffffff1614610968576040517f08c379a000000000000000000000000000000000000000000000000000000000815260040161095f90612f36565b60405180910390fd5b806008908051906020019061097e929190612416565b5050565b61098a61155f565b73ffffffffffffffffffffffffffffffffffffffff166109a8610c6b565b73ffffffffffffffffffffffffffffffffffffffff16146109fe576040517f08c379a00000000000000000000000000000000000000000000000000000000081526004016109f590612f36565b60405180910390fd5b8060098190555050565b6000806003600084815260200190815260200160002060009054906101000a900473ffffffffffffffffffffffffffffffffffffffff169050600073ffffffffffffffffffffffffffffffffffffffff168173ffffffffffffffffffffffffffffffffffffffff1603610ab0576040517f08c379a0000000000000000000000000000000000000000000000000000000008152600401610aa790612fc8565b60405180910390fd5b80915050919050565b6000600d60008373ffffffffffffffffffffffffffffffffffffffff1673ffffffffffffffffffffffffffffffffffffffff168152602001908152602001600020549050919050565b60008073ffffffffffffffffffffffffffffffffffffffff168273ffffffffffffffffffffffffffffffffffffffff1603610b72576040517f08c379a0000000000000000000000000000000000000000000000000000000008152600401610b699061305a565b60405180910390fd5b600460008373ffffffffffffffffffffffffffffffffffffffff1673ffffffffffffffffffffffffffffffffffffffff168152602001908152602001600020549050919050565b610bc161155f565b73ffffffffffffffffffffffffffffffffffffffff16610bdf610c6b565b73ffffffffffffffffffffffffffffffffffffffff1614610c35576040517f08c379a0000000000000000000000000000000000000000000000000000000008152600401610c2c90612f36565b60405180910390fd5b610c3f6000611964565b565b6000600a60009054906101000a900473ffffffffffffffffffffffffffffffffffffffff16905090565b60008060009054906101000a900473ffffffffffffffffffffffffffffffffffffffff16905090565b606060028054610ca390612c71565b80601f0160208091040260200160405190810160405280929190818152602001828054610ccf90612c71565b8015610d1c5780601f10610cf157610100808354040283529160200191610d1c565b820191906000526020600020905b815481529060010190602001808311610cff57829003601f168201915b5050505050905090565b610d38610d3161155f565b8383611a28565b5050565b610d4461155f565b73ffffffffffffffffffffffffffffffffffffffff16610d62610c6b565b73ffffffffffffffffffffffffffffffffffffffff1614610db8576040517f08c379a0000000000000000000000000000000000000000000000000000000008152600401610daf90612f36565b60405180910390fd5b600954341015610dfd576040517f08c379a0000000000000000000000000000000000000000000000000000000008152600401610df4906130ec565b60405180910390fd5b610e08838383611b94565b610e1383838361086c565b505050565b610e2061155f565b73ffffffffffffffffffffffffffffffffffffffff16610e3e610c6b565b73ffffffffffffffffffffffffffffffffffffffff1614610e94576040517f08c379a0000000000000000000000000000000000000000000000000000000008152600401610e8b90612f36565b60405180910390fd5b610e9e6007611d72565b6000610eaa6007611d88565b9050610eb461249c565b85816000018190525084816020018190525083816080018181525050600a816060019060ff16908160ff16815250506001816040019061ffff16908161ffff1681525050828160a0018181525050600b8190806001815401808255809150506001900390600052602060002090600502016000909190919091506000820151816000019080519060200190610f4a929190612416565b506020820151816001019080519060200190610f67929190612416565b5060408201518160020160006101000a81548161ffff021916908361ffff16021790555060608201518160020160026101000a81548160ff021916908360ff1602179055506080820151816003015560a0820151816004015550507f806638a1fc90cec1d905c742ef32e76004dcce146ea274170b3018708eec5b2f8287604051610ff392919061310c565b60405180910390a1505050505050565b61101461100e61155f565b83611620565b611053576040517f08c379a000000000000000000000000000000000000000000000000000000000815260040161104a90612eca565b60405180910390fd5b61105f84848484611d96565b50505050565b7fdfbaa62b9ff4d1b5cc6b5b99191bd38ffb58ceada996df4844b33e1091e97829343360405161109692919061313c565b60405180910390a16009543410156110e3576040517f08c379a00000000000000000000000000000000000000000000000000000000081526004016110da906130ec565b60405180910390fd5b6111366001600d60003373ffffffffffffffffffffffffffffffffffffffff1673ffffffffffffffffffffffffffffffffffffffff16815260200190815260200160002054611df290919063ffffffff16565b600d60003373ffffffffffffffffffffffffffffffffffffffff1673ffffffffffffffffffffffffffffffffffffffff1681526020019081526020016000208190555033600c600083815260200190815260200160002060006101000a81548173ffffffffffffffffffffffffffffffffffffffff021916908373ffffffffffffffffffffffffffffffffffffffff160217905550600954600a60009054906101000a900473ffffffffffffffffffffffffffffffffffffffff1673ffffffffffffffffffffffffffffffffffffffff163373ffffffffffffffffffffffffffffffffffffffff167fddf252ad1be2c89b69c2b068fc378daa952ba7f163c4a11628f55a4df523b3ef60405160405180910390a46112543382611e08565b50565b6060611262826114f3565b6112a1576040517f08c379a0000000000000000000000000000000000000000000000000000000008152600401611298906131d7565b60405180910390fd5b60006112ab611e26565b905060008151116112cb57604051806020016040528060008152506112f6565b806112d584611eb8565b6040516020016112e6929190613233565b6040516020818303038152906040525b915050919050565b6000600660008473ffffffffffffffffffffffffffffffffffffffff1673ffffffffffffffffffffffffffffffffffffffff16815260200190815260200160002060008373ffffffffffffffffffffffffffffffffffffffff1673ffffffffffffffffffffffffffffffffffffffff16815260200190815260200160002060009054906101000a900460ff16905092915050565b61139a61155f565b73ffffffffffffffffffffffffffffffffffffffff166113b8610c6b565b73ffffffffffffffffffffffffffffffffffffffff161461140e576040517f08c379a000000000000000000000000000000000000000000000000000000000815260040161140590612f36565b60405180910390fd5b600073ffffffffffffffffffffffffffffffffffffffff168173ffffffffffffffffffffffffffffffffffffffff160361147d576040517f08c379a0000000000000000000000000000000000000000000000000000000008152600401611474906132c9565b60405180910390fd5b61148681611964565b50565b60007f01ffc9a7000000000000000000000000000000000000000000000000000000007bffffffffffffffffffffffffffffffffffffffffffffffffffffffff1916827bffffffffffffffffffffffffffffffffffffffffffffffffffffffff1916149050919050565b60008073ffffffffffffffffffffffffffffffffffffffff166003600084815260200190815260200160002060009054906101000a900473ffffffffffffffffffffffffffffffffffffffff1673ffffffffffffffffffffffffffffffffffffffff1614159050919050565b600033905090565b816005600083815260200190815260200160002060006101000a81548173ffffffffffffffffffffffffffffffffffffffff021916908373ffffffffffffffffffffffffffffffffffffffff160217905550808273ffffffffffffffffffffffffffffffffffffffff166115da83610a08565b73ffffffffffffffffffffffffffffffffffffffff167f8c5be1e5ebec7d5bd14f71427d1e84f3dd0314c0f7b2291e5b200ac8c7c3b92560405160405180910390a45050565b600061162b826114f3565b61166a576040517f08c379a00000000000000000000000000000000000000000000000000000000081526004016116619061335b565b60405180910390fd5b600061167583610a08565b90508073ffffffffffffffffffffffffffffffffffffffff168473ffffffffffffffffffffffffffffffffffffffff1614806116e457508373ffffffffffffffffffffffffffffffffffffffff166116cc846106d0565b73ffffffffffffffffffffffffffffffffffffffff16145b806116f557506116f481856112fe565b5b91505092915050565b8273ffffffffffffffffffffffffffffffffffffffff1661171e82610a08565b73ffffffffffffffffffffffffffffffffffffffff1614611774576040517f08c379a000000000000000000000000000000000000000000000000000000000815260040161176b906133ed565b60405180910390fd5b600073ffffffffffffffffffffffffffffffffffffffff168273ffffffffffffffffffffffffffffffffffffffff16036117e3576040517f08c379a00000000000000000000000000000000000000000000000000000000081526004016117da9061347f565b60405180910390fd5b6117ee838383612018565b6117f9600082611567565b6001600460008573ffffffffffffffffffffffffffffffffffffffff1673ffffffffffffffffffffffffffffffffffffffff168152602001908152602001600020600082825461184991906134ce565b925050819055506001600460008473ffffffffffffffffffffffffffffffffffffffff1673ffffffffffffffffffffffffffffffffffffffff16815260200190815260200160002060008282546118a09190613502565b92505081905550816003600083815260200190815260200160002060006101000a81548173ffffffffffffffffffffffffffffffffffffffff021916908373ffffffffffffffffffffffffffffffffffffffff160217905550808273ffffffffffffffffffffffffffffffffffffffff168473ffffffffffffffffffffffffffffffffffffffff167fddf252ad1be2c89b69c2b068fc378daa952ba7f163c4a11628f55a4df523b3ef60405160405180910390a461195f83838361201d565b505050565b60008060009054906101000a900473ffffffffffffffffffffffffffffffffffffffff169050816000806101000a81548173ffffffffffffffffffffffffffffffffffffffff021916908373ffffffffffffffffffffffffffffffffffffffff1602179055508173ffffffffffffffffffffffffffffffffffffffff168173ffffffffffffffffffffffffffffffffffffffff167f8be0079c531659141344cd1fd0a4f28419497f9722a3daafe3b4186f6b6457e060405160405180910390a35050565b8173ffffffffffffffffffffffffffffffffffffffff168373ffffffffffffffffffffffffffffffffffffffff1603611a96576040517f08c379a0000000000000000000000000000000000000000000000000000000008152600401611a8d906135a4565b60405180910390fd5b80600660008573ffffffffffffffffffffffffffffffffffffffff1673ffffffffffffffffffffffffffffffffffffffff16815260200190815260200160002060008473ffffffffffffffffffffffffffffffffffffffff1673ffffffffffffffffffffffffffffffffffffffff16815260200190815260200160002060006101000a81548160ff0219169083151502179055508173ffffffffffffffffffffffffffffffffffffffff168373ffffffffffffffffffffffffffffffffffffffff167f17307eab39ab6107e8899845ad3d59bd9653f200f220920489ca2b5937696c3183604051611b8791906125aa565b60405180910390a3505050565b611be76001600d60008573ffffffffffffffffffffffffffffffffffffffff1673ffffffffffffffffffffffffffffffffffffffff16815260200190815260200160002054611df290919063ffffffff16565b600d60008473ffffffffffffffffffffffffffffffffffffffff1673ffffffffffffffffffffffffffffffffffffffff16815260200190815260200160002081905550611c7d6001600d60008673ffffffffffffffffffffffffffffffffffffffff1673ffffffffffffffffffffffffffffffffffffffff1681526020019081526020016000205461202290919063ffffffff16565b600d60008573ffffffffffffffffffffffffffffffffffffffff1673ffffffffffffffffffffffffffffffffffffffff1681526020019081526020016000208190555081600c600083815260200190815260200160002060006101000a81548173ffffffffffffffffffffffffffffffffffffffff021916908373ffffffffffffffffffffffffffffffffffffffff160217905550808273ffffffffffffffffffffffffffffffffffffffff168473ffffffffffffffffffffffffffffffffffffffff167fddf252ad1be2c89b69c2b068fc378daa952ba7f163c4a11628f55a4df523b3ef60405160405180910390a4505050565b6001816000016000828254019250508190555050565b600081600001549050919050565b611da18484846116fe565b611dad84848484612038565b611dec576040517f08c379a0000000000000000000000000000000000000000000000000000000008152600401611de390613636565b60405180910390fd5b50505050565b60008183611e009190613502565b905092915050565b611e228282604051806020016040528060008152506121bf565b5050565b606060088054611e3590612c71565b80601f0160208091040260200160405190810160405280929190818152602001828054611e6190612c71565b8015611eae5780601f10611e8357610100808354040283529160200191611eae565b820191906000526020600020905b815481529060010190602001808311611e9157829003601f168201915b5050505050905090565b606060008203611eff576040518060400160405280600181526020017f30000000000000000000000000000000000000000000000000000000000000008152509050612013565b600082905060005b60008214611f31578080611f1a90613656565b915050600a82611f2a91906136cd565b9150611f07565b60008167ffffffffffffffff811115611f4d57611f4c612808565b5b6040519080825280601f01601f191660200182016040528015611f7f5781602001600182028036833780820191505090505b5090505b6000851461200c57600182611f9891906134ce565b9150600a85611fa791906136fe565b6030611fb39190613502565b60f81b818381518110611fc957611fc861372f565b5b60200101907effffffffffffffffffffffffffffffffffffffffffffffffffffffffffffff1916908160001a905350600a8561200591906136cd565b9450611f83565b8093505050505b919050565b505050565b505050565b6000818361203091906134ce565b905092915050565b60006120598473ffffffffffffffffffffffffffffffffffffffff1661221a565b156121b2578373ffffffffffffffffffffffffffffffffffffffff1663150b7a0261208261155f565b8786866040518563ffffffff1660e01b81526004016120a494939291906137b3565b6020604051808303816000875af19250505080156120e057506040513d601f19601f820116820180604052508101906120dd9190613814565b60015b612162573d8060008114612110576040519150601f19603f3d011682016040523d82523d6000602084013e612115565b606091505b50600081510361215a576040517f08c379a000000000000000000000000000000000000000000000000000000000815260040161215190613636565b60405180910390fd5b805181602001fd5b63150b7a0260e01b7bffffffffffffffffffffffffffffffffffffffffffffffffffffffff1916817bffffffffffffffffffffffffffffffffffffffffffffffffffffffff1916149150506121b7565b600190505b949350505050565b6121c9838361223d565b6121d66000848484612038565b612215576040517f08c379a000000000000000000000000000000000000000000000000000000000815260040161220c90613636565b60405180910390fd5b505050565b6000808273ffffffffffffffffffffffffffffffffffffffff163b119050919050565b600073ffffffffffffffffffffffffffffffffffffffff168273ffffffffffffffffffffffffffffffffffffffff16036122ac576040517f08c379a00000000000000000000000000000000000000000000000000000000081526004016122a39061388d565b60405180910390fd5b6122b5816114f3565b156122f5576040517f08c379a00000000000000000000000000000000000000000000000000000000081526004016122ec906138f9565b60405180910390fd5b61230160008383612018565b6001600460008473ffffffffffffffffffffffffffffffffffffffff1673ffffffffffffffffffffffffffffffffffffffff16815260200190815260200160002060008282546123519190613502565b92505081905550816003600083815260200190815260200160002060006101000a81548173ffffffffffffffffffffffffffffffffffffffff021916908373ffffffffffffffffffffffffffffffffffffffff160217905550808273ffffffffffffffffffffffffffffffffffffffff16600073ffffffffffffffffffffffffffffffffffffffff167fddf252ad1be2c89b69c2b068fc378daa952ba7f163c4a11628f55a4df523b3ef60405160405180910390a46124126000838361201d565b5050565b82805461242290612c71565b90600052602060002090601f016020900481019282612444576000855561248b565b82601f1061245d57805160ff191683800117855561248b565b8280016001018555821561248b579182015b8281111561248a57825182559160200191906001019061246f565b5b50905061249891906124d9565b5090565b6040518060c001604052806060815260200160608152602001600061ffff168152602001600060ff16815260200160008152602001600081525090565b5b808211156124f25760008160009055506001016124da565b5090565b6000604051905090565b600080fd5b600080fd5b60007fffffffff0000000000000000000000000000000000000000000000000000000082169050919050565b61253f8161250a565b811461254a57600080fd5b50565b60008135905061255c81612536565b92915050565b60006020828403121561257857612577612500565b5b60006125868482850161254d565b91505092915050565b60008115159050919050565b6125a48161258f565b82525050565b60006020820190506125bf600083018461259b565b92915050565b600081519050919050565b600082825260208201905092915050565b60005b838110156125ff5780820151818401526020810190506125e4565b8381111561260e576000848401525b50505050565b6000601f19601f8301169050919050565b6000612630826125c5565b61263a81856125d0565b935061264a8185602086016125e1565b61265381612614565b840191505092915050565b600060208201905081810360008301526126788184612625565b905092915050565b6000819050919050565b61269381612680565b811461269e57600080fd5b50565b6000813590506126b08161268a565b92915050565b6000602082840312156126cc576126cb612500565b5b60006126da848285016126a1565b91505092915050565b600073ffffffffffffffffffffffffffffffffffffffff82169050919050565b600061270e826126e3565b9050919050565b61271e81612703565b82525050565b60006020820190506127396000830184612715565b92915050565b61274881612703565b811461275357600080fd5b50565b6000813590506127658161273f565b92915050565b6000806040838503121561278257612781612500565b5b600061279085828601612756565b92505060206127a1858286016126a1565b9150509250929050565b6000806000606084860312156127c4576127c3612500565b5b60006127d286828701612756565b93505060206127e386828701612756565b92505060406127f4868287016126a1565b9150509250925092565b600080fd5b600080fd5b7f4e487b7100000000000000000000000000000000000000000000000000000000600052604160045260246000fd5b61284082612614565b810181811067ffffffffffffffff8211171561285f5761285e612808565b5b80604052505050565b60006128726124f6565b905061287e8282612837565b919050565b600067ffffffffffffffff82111561289e5761289d612808565b5b6128a782612614565b9050602081019050919050565b82818337600083830152505050565b60006128d66128d184612883565b612868565b9050828152602081018484840111156128f2576128f1612803565b5b6128fd8482856128b4565b509392505050565b600082601f83011261291a576129196127fe565b5b813561292a8482602086016128c3565b91505092915050565b60006020828403121561294957612948612500565b5b600082013567ffffffffffffffff81111561296757612966612505565b5b61297384828501612905565b91505092915050565b60006020828403121561299257612991612500565b5b60006129a084828501612756565b91505092915050565b6129b281612680565b82525050565b60006020820190506129cd60008301846129a9565b92915050565b6129dc8161258f565b81146129e757600080fd5b50565b6000813590506129f9816129d3565b92915050565b60008060408385031215612a1657612a15612500565b5b6000612a2485828601612756565b9250506020612a35858286016129ea565b9150509250929050565b60008060008060808587031215612a5957612a58612500565b5b600085013567ffffffffffffffff811115612a7757612a76612505565b5b612a8387828801612905565b945050602085013567ffffffffffffffff811115612aa457612aa3612505565b5b612ab087828801612905565b9350506040612ac1878288016126a1565b9250506060612ad2878288016126a1565b91505092959194509250565b600067ffffffffffffffff821115612af957612af8612808565b5b612b0282612614565b9050602081019050919050565b6000612b22612b1d84612ade565b612868565b905082815260208101848484011115612b3e57612b3d612803565b5b612b498482856128b4565b509392505050565b600082601f830112612b6657612b656127fe565b5b8135612b76848260208601612b0f565b91505092915050565b60008060008060808587031215612b9957612b98612500565b5b6000612ba787828801612756565b9450506020612bb887828801612756565b9350506040612bc9878288016126a1565b925050606085013567ffffffffffffffff811115612bea57612be9612505565b5b612bf687828801612b51565b91505092959194509250565b60008060408385031215612c1957612c18612500565b5b6000612c2785828601612756565b9250506020612c3885828601612756565b9150509250929050565b7f4e487b7100000000000000000000000000000000000000000000000000000000600052602260045260246000fd5b60006002820490506001821680612c8957607f821691505b602082108103612c9c57612c9b612c42565b5b50919050565b7f4552433732313a20617070726f76656420717565727920666f72206e6f6e657860008201527f697374656e7420746f6b656e0000000000000000000000000000000000000000602082015250565b6000612cfe602c836125d0565b9150612d0982612ca2565b604082019050919050565b60006020820190508181036000830152612d2d81612cf1565b9050919050565b7f4552433732313a20617070726f76616c20746f2063757272656e74206f776e6560008201527f7200000000000000000000000000000000000000000000000000000000000000602082015250565b6000612d906021836125d0565b9150612d9b82612d34565b604082019050919050565b60006020820190508181036000830152612dbf81612d83565b9050919050565b7f4552433732313a20617070726f76652063616c6c6572206973206e6f74206f7760008201527f6e6572206e6f7220617070726f76656420666f7220616c6c0000000000000000602082015250565b6000612e226038836125d0565b9150612e2d82612dc6565b604082019050919050565b60006020820190508181036000830152612e5181612e15565b9050919050565b7f4552433732313a207472616e736665722063616c6c6572206973206e6f74206f60008201527f776e6572206e6f7220617070726f766564000000000000000000000000000000602082015250565b6000612eb46031836125d0565b9150612ebf82612e58565b604082019050919050565b60006020820190508181036000830152612ee381612ea7565b9050919050565b7f4f776e61626c653a2063616c6c6572206973206e6f7420746865206f776e6572600082015250565b6000612f206020836125d0565b9150612f2b82612eea565b602082019050919050565b60006020820190508181036000830152612f4f81612f13565b9050919050565b7f4552433732313a206f776e657220717565727920666f72206e6f6e657869737460008201527f656e7420746f6b656e0000000000000000000000000000000000000000000000602082015250565b6000612fb26029836125d0565b9150612fbd82612f56565b604082019050919050565b60006020820190508181036000830152612fe181612fa5565b9050919050565b7f4552433732313a2062616c616e636520717565727920666f7220746865207a6560008201527f726f206164647265737300000000000000000000000000000000000000000000602082015250565b6000613044602a836125d0565b915061304f82612fe8565b604082019050919050565b6000602082019050818103600083015261307381613037565b9050919050565b7f4e6f7420656e6f756768204554482073656e743b20636865636b20707269636560008201527f2100000000000000000000000000000000000000000000000000000000000000602082015250565b60006130d66021836125d0565b91506130e18261307a565b604082019050919050565b60006020820190508181036000830152613105816130c9565b9050919050565b600060408201905061312160008301856129a9565b81810360208301526131338184612625565b90509392505050565b600060408201905061315160008301856129a9565b61315e6020830184612715565b9392505050565b7f4552433732314d657461646174613a2055524920717565727920666f72206e6f60008201527f6e6578697374656e7420746f6b656e0000000000000000000000000000000000602082015250565b60006131c1602f836125d0565b91506131cc82613165565b604082019050919050565b600060208201905081810360008301526131f0816131b4565b9050919050565b600081905092915050565b600061320d826125c5565b61321781856131f7565b93506132278185602086016125e1565b80840191505092915050565b600061323f8285613202565b915061324b8284613202565b91508190509392505050565b7f4f776e61626c653a206e6577206f776e657220697320746865207a65726f206160008201527f6464726573730000000000000000000000000000000000000000000000000000602082015250565b60006132b36026836125d0565b91506132be82613257565b604082019050919050565b600060208201905081810360008301526132e2816132a6565b9050919050565b7f4552433732313a206f70657261746f7220717565727920666f72206e6f6e657860008201527f697374656e7420746f6b656e0000000000000000000000000000000000000000602082015250565b6000613345602c836125d0565b9150613350826132e9565b604082019050919050565b6000602082019050818103600083015261337481613338565b9050919050565b7f4552433732313a207472616e736665722066726f6d20696e636f72726563742060008201527f6f776e6572000000000000000000000000000000000000000000000000000000602082015250565b60006133d76025836125d0565b91506133e28261337b565b604082019050919050565b60006020820190508181036000830152613406816133ca565b9050919050565b7f4552433732313a207472616e7366657220746f20746865207a65726f2061646460008201527f7265737300000000000000000000000000000000000000000000000000000000602082015250565b60006134696024836125d0565b91506134748261340d565b604082019050919050565b600060208201905081810360008301526134988161345c565b9050919050565b7f4e487b7100000000000000000000000000000000000000000000000000000000600052601160045260246000fd5b60006134d982612680565b91506134e483612680565b9250828210156134f7576134f661349f565b5b828203905092915050565b600061350d82612680565b915061351883612680565b9250827fffffffffffffffffffffffffffffffffffffffffffffffffffffffffffffffff0382111561354d5761354c61349f565b5b828201905092915050565b7f4552433732313a20617070726f766520746f2063616c6c657200000000000000600082015250565b600061358e6019836125d0565b915061359982613558565b602082019050919050565b600060208201905081810360008301526135bd81613581565b9050919050565b7f4552433732313a207472616e7366657220746f206e6f6e20455243373231526560008201527f63656976657220696d706c656d656e7465720000000000000000000000000000602082015250565b60006136206032836125d0565b915061362b826135c4565b604082019050919050565b6000602082019050818103600083015261364f81613613565b9050919050565b600061366182612680565b91507fffffffffffffffffffffffffffffffffffffffffffffffffffffffffffffffff82036136935761369261349f565b5b600182019050919050565b7f4e487b7100000000000000000000000000000000000000000000000000000000600052601260045260246000fd5b60006136d882612680565b91506136e383612680565b9250826136f3576136f261369e565b5b828204905092915050565b600061370982612680565b915061371483612680565b9250826137245761372361369e565b5b828206905092915050565b7f4e487b7100000000000000000000000000000000000000000000000000000000600052603260045260246000fd5b600081519050919050565b600082825260208201905092915050565b60006137858261375e565b61378f8185613769565b935061379f8185602086016125e1565b6137a881612614565b840191505092915050565b60006080820190506137c86000830187612715565b6137d56020830186612715565b6137e260408301856129a9565b81810360608301526137f4818461377a565b905095945050505050565b60008151905061380e81612536565b92915050565b60006020828403121561382a57613829612500565b5b6000613838848285016137ff565b91505092915050565b7f4552433732313a206d696e7420746f20746865207a65726f2061646472657373600082015250565b60006138776020836125d0565b915061388282613841565b602082019050919050565b600060208201905081810360008301526138a68161386a565b9050919050565b7f4552433732313a20746f6b656e20616c7265616479206d696e74656400000000600082015250565b60006138e3601c836125d0565b91506138ee826138ad565b602082019050919050565b60006020820190508181036000830152613912816138d6565b905091905056fea2646970667358221220d4ffee5f1fca0669b3a38e07c7d6dfeb0abde44fd22cf884822c2beceea89e2f64736f6c634300080d0033",
  "immutableReferences": {},
  "source": "\n// SPDX-License-Identifier: MIT\npragma solidity ^0.8.0;\n\nimport \"@openzeppelin/contracts/access/Ownable.sol\";\nimport \"@openzeppelin/contracts/token/ERC721/ERC721.sol\";\nimport \"@openzeppelin/contracts/utils/math/SafeMath.sol\";\nimport \"@openzeppelin/contracts/utils/Counters.sol\";\nimport '@openzeppelin/contracts/token/ERC1155/utils/ERC1155Holder.sol';\n\n\ncontract ScinionFactoryTest1 is Ownable, ERC721 {\n\n  using Counters for Counters.Counter;\n  Counters.Counter private _tokenIds;\n  string private _baseURIextended;\n\n  uint minPrice = 0.001 ether;\n\n  using SafeMath for uint256;\n\n  event NewScinion(uint scinionId, string name);\n\n  event MoneyTransfer(uint money, address from);\n\n  address payable gameOwner;\n\n  function getOwner() public view returns (address) {\n        return gameOwner;\n  }\n\n  struct Scinion {\n    string name;\n    string scinionType;\n    uint16 level;\n    uint8 energia;\n    uint dna;\n    uint habilities;\n  }\n\n   constructor() ERC721(\"ScinionNFT\", \"SCTK\") {\n        gameOwner = payable(msg.sender);\n    }\n\n\n  Scinion[] internal scinions;\n\n  mapping (uint => address) internal scinionToOwner;\n  mapping (address => uint) internal ownerScinionCount;\n\n  modifier onlyOwnerOf(uint _scinionId) {\n    require(msg.sender == scinionToOwner[_scinionId]);\n    _;\n  }\n\n  function rand(uint8 _min, uint8 _max, string memory _name) private pure returns (uint8){\n    return uint8(uint(keccak256(abi.encodePacked(_name)))%(_min+_max)-_min);\n  }\n\n  function setMinPrice(uint _fee) external onlyOwner {\n    minPrice = _fee;\n  }\n\n  function setBaseURI(string memory baseURI_) external onlyOwner() {\n     _baseURIextended = baseURI_;\n  }\n\n  function _baseURI() internal view virtual override returns (string memory) {\n    return _baseURIextended;\n  }\n\n  function createScinion(string memory _name, string memory _scinionType, uint _dna, uint _habilities) external onlyOwner {\n    _tokenIds.increment();\n    uint256 id = _tokenIds.current();\n    Scinion memory newScinion;\n    newScinion.name = _name;\n    newScinion.scinionType = _scinionType;\n    newScinion.dna = _dna;\n    newScinion.energia = 10;\n    newScinion.level = 1;\n    newScinion.habilities = _habilities;\n    scinions.push(newScinion);\n    emit NewScinion(id, _name);\n  }\n\n  function _setPerfectHabilities() pure private returns (uint habilities) {\n    return 100100100100100100100100100100;\n  }\n\n\n  function _transferScinion(address _from, address _to, uint256 _tokenId) private {\n    ownerScinionCount[_to] = ownerScinionCount[_to].add(1);\n    ownerScinionCount[_from] = ownerScinionCount[_from].sub(1);\n    scinionToOwner[_tokenId] = _to;\n    emit Transfer(_from, _to, _tokenId);\n  }\n\n  function transferScinion(address _from, address _to, uint256 _tokenId) external payable onlyOwner {\n      require(msg.value >= minPrice, \"Not enough ETH sent; check price!\"); \n      _transferScinion(_from, _to, _tokenId);\n      transferFrom(_from, _to, _tokenId);\n   } \n\n  function claimScinion(uint256 _tokenId) external payable {\n    emit MoneyTransfer(msg.value, msg.sender);\n    require(msg.value >= minPrice, \"Not enough ETH sent; check price!\"); \n    ownerScinionCount[msg.sender] = ownerScinionCount[msg.sender].add(1);\n    scinionToOwner[_tokenId] = msg.sender;\n    emit Transfer(msg.sender, gameOwner, minPrice);\n    _safeMint(msg.sender, _tokenId);\n  }\n\n  function balanceOfScinions(address owner) external view returns (uint balance) {\n    return ownerScinionCount[owner];\n  }\n\n\n /* function kill() public onlyOwner {\n      selfdestruct(owner());\n  } */\n\n}\n",
  "sourcePath": "/Users/albateixidovillanueva/Desktop/scinions/contracts/scinionfactory.sol",
  "compiler": {
    "name": "solc",
    "version": "0.8.13+commit.abaa5c0e.Emscripten.clang"
  },
  "schemaVersion": "3.4.6",
  "updatedAt": "2022-04-15T13:55:49.197Z",
  "devdoc": {
    "kind": "dev",
    "methods": {
      "approve(address,uint256)": {
        "details": "See {IERC721-approve}."
      },
      "balanceOf(address)": {
        "details": "See {IERC721-balanceOf}."
      },
      "getApproved(uint256)": {
        "details": "See {IERC721-getApproved}."
      },
      "isApprovedForAll(address,address)": {
        "details": "See {IERC721-isApprovedForAll}."
      },
      "name()": {
        "details": "See {IERC721Metadata-name}."
      },
      "owner()": {
        "details": "Returns the address of the current owner."
      },
      "ownerOf(uint256)": {
        "details": "See {IERC721-ownerOf}."
      },
      "renounceOwnership()": {
        "details": "Leaves the contract without owner. It will not be possible to call `onlyOwner` functions anymore. Can only be called by the current owner. NOTE: Renouncing ownership will leave the contract without an owner, thereby removing any functionality that is only available to the owner."
      },
      "safeTransferFrom(address,address,uint256)": {
        "details": "See {IERC721-safeTransferFrom}."
      },
      "safeTransferFrom(address,address,uint256,bytes)": {
        "details": "See {IERC721-safeTransferFrom}."
      },
      "setApprovalForAll(address,bool)": {
        "details": "See {IERC721-setApprovalForAll}."
      },
      "supportsInterface(bytes4)": {
        "details": "See {IERC165-supportsInterface}."
      },
      "symbol()": {
        "details": "See {IERC721Metadata-symbol}."
      },
      "tokenURI(uint256)": {
        "details": "See {IERC721Metadata-tokenURI}."
      },
      "transferFrom(address,address,uint256)": {
        "details": "See {IERC721-transferFrom}."
      },
      "transferOwnership(address)": {
        "details": "Transfers ownership of the contract to a new account (`newOwner`). Can only be called by the current owner."
      }
    },
    "version": 1
  },
  "userdoc": {
    "kind": "user",
    "methods": {},
    "version": 1
  }
}