{
  "contractName": "ScinionHelper",
  "abi": [
    {
      "anonymous": false,
      "inputs": [
        {
          "indexed": true,
          "internalType": "address",
          "name": "owner",
          "type": "address"
        },
        {
          "indexed": true,
          "internalType": "address",
          "name": "approved",
          "type": "address"
        },
        {
          "indexed": true,
          "internalType": "uint256",
          "name": "tokenId",
          "type": "uint256"
        }
      ],
      "name": "Approval",
      "type": "event"
    },
    {
      "anonymous": false,
      "inputs": [
        {
          "indexed": true,
          "internalType": "address",
          "name": "owner",
          "type": "address"
        },
        {
          "indexed": true,
          "internalType": "address",
          "name": "operator",
          "type": "address"
        },
        {
          "indexed": false,
          "internalType": "bool",
          "name": "approved",
          "type": "bool"
        }
      ],
      "name": "ApprovalForAll",
      "type": "event"
    },
    {
      "anonymous": false,
      "inputs": [
        {
          "indexed": false,
          "internalType": "uint256",
          "name": "money",
          "type": "uint256"
        },
        {
          "indexed": false,
          "internalType": "address",
          "name": "from",
          "type": "address"
        }
      ],
      "name": "MoneyAccount",
      "type": "event"
    },
    {
      "anonymous": false,
      "inputs": [
        {
          "indexed": false,
          "internalType": "uint256",
          "name": "scinionId",
          "type": "uint256"
        },
        {
          "indexed": false,
          "internalType": "string",
          "name": "name",
          "type": "string"
        }
      ],
      "name": "NewScinion",
      "type": "event"
    },
    {
      "anonymous": false,
      "inputs": [
        {
          "indexed": true,
          "internalType": "address",
          "name": "previousOwner",
          "type": "address"
        },
        {
          "indexed": true,
          "internalType": "address",
          "name": "newOwner",
          "type": "address"
        }
      ],
      "name": "OwnershipTransferred",
      "type": "event"
    },
    {
      "anonymous": false,
      "inputs": [
        {
          "indexed": true,
          "internalType": "address",
          "name": "from",
          "type": "address"
        },
        {
          "indexed": true,
          "internalType": "address",
          "name": "to",
          "type": "address"
        },
        {
          "indexed": true,
          "internalType": "uint256",
          "name": "tokenId",
          "type": "uint256"
        }
      ],
      "name": "Transfer",
      "type": "event"
    },
    {
      "inputs": [
        {
          "internalType": "address",
          "name": "to",
          "type": "address"
        },
        {
          "internalType": "uint256",
          "name": "tokenId",
          "type": "uint256"
        }
      ],
      "name": "approve",
      "outputs": [],
      "stateMutability": "nonpayable",
      "type": "function"
    },
    {
      "inputs": [
        {
          "internalType": "address",
          "name": "owner",
          "type": "address"
        }
      ],
      "name": "balanceOf",
      "outputs": [
        {
          "internalType": "uint256",
          "name": "",
          "type": "uint256"
        }
      ],
      "stateMutability": "view",
      "type": "function",
      "constant": true
    },
    {
      "inputs": [
        {
          "internalType": "address",
          "name": "owner",
          "type": "address"
        }
      ],
      "name": "balanceOfScinions",
      "outputs": [
        {
          "internalType": "uint256",
          "name": "balance",
          "type": "uint256"
        }
      ],
      "stateMutability": "view",
      "type": "function",
      "constant": true
    },
    {
      "inputs": [
        {
          "internalType": "string",
          "name": "_name",
          "type": "string"
        },
        {
          "internalType": "string",
          "name": "_scinionType",
          "type": "string"
        },
        {
          "internalType": "uint256",
          "name": "_dna",
          "type": "uint256"
        }
      ],
      "name": "createScinion",
      "outputs": [],
      "stateMutability": "nonpayable",
      "type": "function"
    },
    {
      "inputs": [
        {
          "internalType": "uint256",
          "name": "tokenId",
          "type": "uint256"
        }
      ],
      "name": "getApproved",
      "outputs": [
        {
          "internalType": "address",
          "name": "",
          "type": "address"
        }
      ],
      "stateMutability": "view",
      "type": "function",
      "constant": true
    },
    {
      "inputs": [],
      "name": "getOwner",
      "outputs": [
        {
          "internalType": "address",
          "name": "",
          "type": "address"
        }
      ],
      "stateMutability": "view",
      "type": "function",
      "constant": true
    },
    {
      "inputs": [
        {
          "internalType": "address",
          "name": "owner",
          "type": "address"
        },
        {
          "internalType": "address",
          "name": "operator",
          "type": "address"
        }
      ],
      "name": "isApprovedForAll",
      "outputs": [
        {
          "internalType": "bool",
          "name": "",
          "type": "bool"
        }
      ],
      "stateMutability": "view",
      "type": "function",
      "constant": true
    },
    {
      "inputs": [
        {
          "internalType": "uint256",
          "name": "_tokenId",
          "type": "uint256"
        }
      ],
      "name": "mintScinion",
      "outputs": [],
      "stateMutability": "payable",
      "type": "function",
      "payable": true
    },
    {
      "inputs": [],
      "name": "name",
      "outputs": [
        {
          "internalType": "string",
          "name": "",
          "type": "string"
        }
      ],
      "stateMutability": "view",
      "type": "function",
      "constant": true
    },
    {
      "inputs": [],
      "name": "owner",
      "outputs": [
        {
          "internalType": "address",
          "name": "",
          "type": "address"
        }
      ],
      "stateMutability": "view",
      "type": "function",
      "constant": true
    },
    {
      "inputs": [
        {
          "internalType": "uint256",
          "name": "tokenId",
          "type": "uint256"
        }
      ],
      "name": "ownerOf",
      "outputs": [
        {
          "internalType": "address",
          "name": "",
          "type": "address"
        }
      ],
      "stateMutability": "view",
      "type": "function",
      "constant": true
    },
    {
      "inputs": [],
      "name": "renounceOwnership",
      "outputs": [],
      "stateMutability": "nonpayable",
      "type": "function"
    },
    {
      "inputs": [
        {
          "internalType": "address",
          "name": "from",
          "type": "address"
        },
        {
          "internalType": "address",
          "name": "to",
          "type": "address"
        },
        {
          "internalType": "uint256",
          "name": "tokenId",
          "type": "uint256"
        }
      ],
      "name": "safeTransferFrom",
      "outputs": [],
      "stateMutability": "nonpayable",
      "type": "function"
    },
    {
      "inputs": [
        {
          "internalType": "address",
          "name": "from",
          "type": "address"
        },
        {
          "internalType": "address",
          "name": "to",
          "type": "address"
        },
        {
          "internalType": "uint256",
          "name": "tokenId",
          "type": "uint256"
        },
        {
          "internalType": "bytes",
          "name": "_data",
          "type": "bytes"
        }
      ],
      "name": "safeTransferFrom",
      "outputs": [],
      "stateMutability": "nonpayable",
      "type": "function"
    },
    {
      "inputs": [
        {
          "internalType": "address",
          "name": "operator",
          "type": "address"
        },
        {
          "internalType": "bool",
          "name": "approved",
          "type": "bool"
        }
      ],
      "name": "setApprovalForAll",
      "outputs": [],
      "stateMutability": "nonpayable",
      "type": "function"
    },
    {
      "inputs": [
        {
          "internalType": "uint256",
          "name": "_fee",
          "type": "uint256"
        }
      ],
      "name": "setMinPrice",
      "outputs": [],
      "stateMutability": "nonpayable",
      "type": "function"
    },
    {
      "inputs": [
        {
          "internalType": "bytes4",
          "name": "interfaceId",
          "type": "bytes4"
        }
      ],
      "name": "supportsInterface",
      "outputs": [
        {
          "internalType": "bool",
          "name": "",
          "type": "bool"
        }
      ],
      "stateMutability": "view",
      "type": "function",
      "constant": true
    },
    {
      "inputs": [],
      "name": "symbol",
      "outputs": [
        {
          "internalType": "string",
          "name": "",
          "type": "string"
        }
      ],
      "stateMutability": "view",
      "type": "function",
      "constant": true
    },
    {
      "inputs": [
        {
          "internalType": "uint256",
          "name": "tokenId",
          "type": "uint256"
        }
      ],
      "name": "tokenURI",
      "outputs": [
        {
          "internalType": "string",
          "name": "",
          "type": "string"
        }
      ],
      "stateMutability": "view",
      "type": "function",
      "constant": true
    },
    {
      "inputs": [
        {
          "internalType": "address",
          "name": "from",
          "type": "address"
        },
        {
          "internalType": "address",
          "name": "to",
          "type": "address"
        },
        {
          "internalType": "uint256",
          "name": "tokenId",
          "type": "uint256"
        }
      ],
      "name": "transferFrom",
      "outputs": [],
      "stateMutability": "nonpayable",
      "type": "function"
    },
    {
      "inputs": [
        {
          "internalType": "address",
          "name": "newOwner",
          "type": "address"
        }
      ],
      "name": "transferOwnership",
      "outputs": [],
      "stateMutability": "nonpayable",
      "type": "function"
    },
    {
      "inputs": [
        {
          "internalType": "address",
          "name": "_from",
          "type": "address"
        },
        {
          "internalType": "address",
          "name": "_to",
          "type": "address"
        },
        {
          "internalType": "uint256",
          "name": "_tokenId",
          "type": "uint256"
        }
      ],
      "name": "transferScinion",
      "outputs": [],
      "stateMutability": "payable",
      "type": "function",
      "payable": true
    },
    {
      "inputs": [
        {
          "internalType": "uint256",
          "name": "_fee",
          "type": "uint256"
        }
      ],
      "name": "setLevelUpFee",
      "outputs": [],
      "stateMutability": "nonpayable",
      "type": "function"
    },
    {
      "inputs": [
        {
          "internalType": "uint256",
          "name": "_scinionId",
          "type": "uint256"
        },
        {
          "internalType": "string",
          "name": "_newName",
          "type": "string"
        }
      ],
      "name": "changeName",
      "outputs": [],
      "stateMutability": "payable",
      "type": "function",
      "payable": true
    },
    {
      "inputs": [
        {
          "internalType": "uint256",
          "name": "_scinionId",
          "type": "uint256"
        },
        {
          "internalType": "uint256",
          "name": "_newDna",
          "type": "uint256"
        }
      ],
      "name": "changeDna",
      "outputs": [],
      "stateMutability": "payable",
      "type": "function",
      "payable": true
    },
    {
      "inputs": [
        {
          "internalType": "address",
          "name": "_owner",
          "type": "address"
        }
      ],
      "name": "getScinionsByOwner",
      "outputs": [
        {
          "components": [
            {
              "internalType": "string",
              "name": "name",
              "type": "string"
            },
            {
              "internalType": "string",
              "name": "scinionType",
              "type": "string"
            },
            {
              "internalType": "uint16",
              "name": "level",
              "type": "uint16"
            },
            {
              "internalType": "uint8",
              "name": "energia",
              "type": "uint8"
            },
            {
              "internalType": "uint256",
              "name": "dna",
              "type": "uint256"
            },
            {
              "components": [
                {
                  "internalType": "uint8",
                  "name": "capacidadDeAprendizaje",
                  "type": "uint8"
                },
                {
                  "internalType": "uint8",
                  "name": "destreza",
                  "type": "uint8"
                },
                {
                  "internalType": "uint8",
                  "name": "etica",
                  "type": "uint8"
                },
                {
                  "internalType": "uint8",
                  "name": "suerte",
                  "type": "uint8"
                },
                {
                  "internalType": "uint8",
                  "name": "controlDeEmociones",
                  "type": "uint8"
                },
                {
                  "internalType": "uint8",
                  "name": "planificacion",
                  "type": "uint8"
                },
                {
                  "internalType": "uint8",
                  "name": "limpieza",
                  "type": "uint8"
                },
                {
                  "internalType": "uint8",
                  "name": "trabajoEnEquipo",
                  "type": "uint8"
                },
                {
                  "internalType": "uint8",
                  "name": "discrecion",
                  "type": "uint8"
                },
                {
                  "internalType": "uint8",
                  "name": "lealtad",
                  "type": "uint8"
                }
              ],
              "internalType": "struct ScinionFactory.Habilities",
              "name": "habilities",
              "type": "tuple"
            }
          ],
          "internalType": "struct ScinionFactory.Scinion[]",
          "name": "",
          "type": "tuple[]"
        }
      ],
      "stateMutability": "view",
      "type": "function",
      "constant": true
    },
    {
      "inputs": [
        {
          "internalType": "uint256",
          "name": "_scinionId",
          "type": "uint256"
        }
      ],
      "name": "completarInvestigacion",
      "outputs": [],
      "stateMutability": "nonpayable",
      "type": "function"
    },
    {
      "inputs": [
        {
          "internalType": "uint256",
          "name": "_scinionId",
          "type": "uint256"
        }
      ],
      "name": "dormir",
      "outputs": [],
      "stateMutability": "nonpayable",
      "type": "function"
    }
  ],
  "bytecode": "0x608060405266038d7ea4c6800060085566038d7ea4c68000600d553480156200002757600080fd5b506040518060400160405280600a81526020017f5363696e696f6e4e4654000000000000000000000000000000000000000000008152506040518060400160405280600481526020017f5343544b00000000000000000000000000000000000000000000000000000000815250620000b4620000a86200012f60201b60201c565b6200013760201b60201c565b8160019080519060200190620000cc929190620001fb565b508060029080519060200190620000e5929190620001fb565b50505033600960006101000a81548173ffffffffffffffffffffffffffffffffffffffff021916908373ffffffffffffffffffffffffffffffffffffffff1602179055506200030f565b600033905090565b60008060009054906101000a900473ffffffffffffffffffffffffffffffffffffffff169050816000806101000a81548173ffffffffffffffffffffffffffffffffffffffff021916908373ffffffffffffffffffffffffffffffffffffffff1602179055508173ffffffffffffffffffffffffffffffffffffffff168173ffffffffffffffffffffffffffffffffffffffff167f8be0079c531659141344cd1fd0a4f28419497f9722a3daafe3b4186f6b6457e060405160405180910390a35050565b8280546200020990620002da565b90600052602060002090601f0160209004810192826200022d576000855562000279565b82601f106200024857805160ff191683800117855562000279565b8280016001018555821562000279579182015b82811115620002785782518255916020019190600101906200025b565b5b5090506200028891906200028c565b5090565b5b80821115620002a75760008160009055506001016200028d565b5090565b7f4e487b7100000000000000000000000000000000000000000000000000000000600052602260045260246000fd5b60006002820490506001821680620002f357607f821691505b602082108103620003095762000308620002ab565b5b50919050565b6148ec806200031f6000396000f3fe6080604052600436106101b75760003560e01c80638da5cb5b116100ec578063c8b485761161008a578063e9dcd0db11610064578063e9dcd0db14610603578063ea0e6aeb1461062c578063f2fde38b14610655578063facc74091461067e576101b7565b8063c8b4857614610560578063ccf670f81461059d578063e985e9c5146105c6576101b7565b8063a612c71a116100c6578063a612c71a146104c2578063b88d4fde146104de578063c39cbef114610507578063c87b56dd14610523576101b7565b80638da5cb5b1461044357806395d89b411461046e578063a22cb46514610499576101b7565b80635faf2880116101595780636fa9174e116101335780636fa9174e1461038757806370a08231146103c4578063715018a614610401578063893d20e814610418576101b7565b80635faf288014610305578063628104d6146103215780636352211e1461034a576101b7565b8063095ea7b311610195578063095ea7b31461026157806323b872dd1461028a57806342842e0e146102b35780635ea8cd12146102dc576101b7565b806301ffc9a7146101bc57806306fdde03146101f9578063081812fc14610224575b600080fd5b3480156101c857600080fd5b506101e360048036038101906101de9190613103565b61069a565b6040516101f0919061314b565b60405180910390f35b34801561020557600080fd5b5061020e61077c565b60405161021b91906131ff565b60405180910390f35b34801561023057600080fd5b5061024b60048036038101906102469190613257565b61080e565b60405161025891906132c5565b60405180910390f35b34801561026d57600080fd5b506102886004803603810190610283919061330c565b610893565b005b34801561029657600080fd5b506102b160048036038101906102ac919061334c565b6109aa565b005b3480156102bf57600080fd5b506102da60048036038101906102d5919061334c565b610a0a565b005b3480156102e857600080fd5b5061030360048036038101906102fe9190613257565b610a2a565b005b61031f600480360381019061031a919061339f565b610ab0565b005b34801561032d57600080fd5b5061034860048036038101906103439190613257565b610ba2565b005b34801561035657600080fd5b50610371600480360381019061036c9190613257565b610c76565b60405161037e91906132c5565b60405180910390f35b34801561039357600080fd5b506103ae60048036038101906103a991906133df565b610d27565b6040516103bb919061341b565b60405180910390f35b3480156103d057600080fd5b506103eb60048036038101906103e691906133df565b610d70565b6040516103f8919061341b565b60405180910390f35b34801561040d57600080fd5b50610416610e27565b005b34801561042457600080fd5b5061042d610eaf565b60405161043a91906132c5565b60405180910390f35b34801561044f57600080fd5b50610458610ed9565b60405161046591906132c5565b60405180910390f35b34801561047a57600080fd5b50610483610f02565b60405161049091906131ff565b60405180910390f35b3480156104a557600080fd5b506104c060048036038101906104bb9190613462565b610f94565b005b6104dc60048036038101906104d7919061334c565b610faa565b005b3480156104ea57600080fd5b50610505600480360381019061050091906135d7565b611086565b005b610521600480360381019061051c91906136ba565b6110e8565b005b34801561052f57600080fd5b5061054a60048036038101906105459190613257565b6111e6565b60405161055791906131ff565b60405180910390f35b34801561056c57600080fd5b50610587600480360381019061058291906133df565b61128d565b60405161059491906139cb565b60405180910390f35b3480156105a957600080fd5b506105c460048036038101906105bf9190613257565b611611565b005b3480156105d257600080fd5b506105ed60048036038101906105e891906139ed565b611697565b6040516105fa919061314b565b60405180910390f35b34801561060f57600080fd5b5061062a60048036038101906106259190613257565b61172b565b005b34801561063857600080fd5b50610653600480360381019061064e9190613ace565b6117e0565b005b34801561066157600080fd5b5061067c600480360381019061067791906133df565b611c63565b005b61069860048036038101906106939190613257565b611d5a565b005b60007f80ac58cd000000000000000000000000000000000000000000000000000000007bffffffffffffffffffffffffffffffffffffffffffffffffffffffff1916827bffffffffffffffffffffffffffffffffffffffffffffffffffffffff1916148061076557507f5b5e139f000000000000000000000000000000000000000000000000000000007bffffffffffffffffffffffffffffffffffffffffffffffffffffffff1916827bffffffffffffffffffffffffffffffffffffffffffffffffffffffff1916145b80610775575061077482611f4c565b5b9050919050565b60606001805461078b90613b88565b80601f01602080910402602001604051908101604052809291908181526020018280546107b790613b88565b80156108045780601f106107d957610100808354040283529160200191610804565b820191906000526020600020905b8154815290600101906020018083116107e757829003601f168201915b5050505050905090565b600061081982611fb6565b610858576040517f08c379a000000000000000000000000000000000000000000000000000000000815260040161084f90613c2b565b60405180910390fd5b6005600083815260200190815260200160002060009054906101000a900473ffffffffffffffffffffffffffffffffffffffff169050919050565b600061089e82610c76565b90508073ffffffffffffffffffffffffffffffffffffffff168373ffffffffffffffffffffffffffffffffffffffff160361090e576040517f08c379a000000000000000000000000000000000000000000000000000000000815260040161090590613cbd565b60405180910390fd5b8073ffffffffffffffffffffffffffffffffffffffff1661092d612022565b73ffffffffffffffffffffffffffffffffffffffff16148061095c575061095b81610956612022565b611697565b5b61099b576040517f08c379a000000000000000000000000000000000000000000000000000000000815260040161099290613d4f565b60405180910390fd5b6109a5838361202a565b505050565b6109bb6109b5612022565b826120e3565b6109fa576040517f08c379a00000000000000000000000000000000000000000000000000000000081526004016109f190613de1565b60405180910390fd5b610a058383836121c1565b505050565b610a2583838360405180602001604052806000815250611086565b505050565b610a32612022565b73ffffffffffffffffffffffffffffffffffffffff16610a50610ed9565b73ffffffffffffffffffffffffffffffffffffffff1614610aa6576040517f08c379a0000000000000000000000000000000000000000000000000000000008152600401610a9d90613e4d565b60405180910390fd5b8060088190555050565b60148281600a8281548110610ac857610ac7613e6d565b5b906000526020600020906005020160020160009054906101000a900461ffff1661ffff161015610af757600080fd5b83600b600082815260200190815260200160002060009054906101000a900473ffffffffffffffffffffffffffffffffffffffff1673ffffffffffffffffffffffffffffffffffffffff163373ffffffffffffffffffffffffffffffffffffffff1614610b6357600080fd5b600d543414610b7157600080fd5b83600a8681548110610b8657610b85613e6d565b5b9060005260206000209060050201600301819055505050505050565b80600b600082815260200190815260200160002060009054906101000a900473ffffffffffffffffffffffffffffffffffffffff1673ffffffffffffffffffffffffffffffffffffffff163373ffffffffffffffffffffffffffffffffffffffff1614610c0e57600080fd5b6000600a8381548110610c2457610c23613e6d565b5b9060005260206000209060050201905060018160020160009054906101000a900461ffff16610c539190613ecb565b8160020160006101000a81548161ffff021916908361ffff160217905550505050565b6000806003600084815260200190815260200160002060009054906101000a900473ffffffffffffffffffffffffffffffffffffffff169050600073ffffffffffffffffffffffffffffffffffffffff168173ffffffffffffffffffffffffffffffffffffffff1603610d1e576040517f08c379a0000000000000000000000000000000000000000000000000000000008152600401610d1590613f75565b60405180910390fd5b80915050919050565b6000600c60008373ffffffffffffffffffffffffffffffffffffffff1673ffffffffffffffffffffffffffffffffffffffff168152602001908152602001600020549050919050565b60008073ffffffffffffffffffffffffffffffffffffffff168273ffffffffffffffffffffffffffffffffffffffff1603610de0576040517f08c379a0000000000000000000000000000000000000000000000000000000008152600401610dd790614007565b60405180910390fd5b600460008373ffffffffffffffffffffffffffffffffffffffff1673ffffffffffffffffffffffffffffffffffffffff168152602001908152602001600020549050919050565b610e2f612022565b73ffffffffffffffffffffffffffffffffffffffff16610e4d610ed9565b73ffffffffffffffffffffffffffffffffffffffff1614610ea3576040517f08c379a0000000000000000000000000000000000000000000000000000000008152600401610e9a90613e4d565b60405180910390fd5b610ead6000612427565b565b6000600960009054906101000a900473ffffffffffffffffffffffffffffffffffffffff16905090565b60008060009054906101000a900473ffffffffffffffffffffffffffffffffffffffff16905090565b606060028054610f1190613b88565b80601f0160208091040260200160405190810160405280929190818152602001828054610f3d90613b88565b8015610f8a5780601f10610f5f57610100808354040283529160200191610f8a565b820191906000526020600020905b815481529060010190602001808311610f6d57829003601f168201915b5050505050905090565b610fa6610f9f612022565b83836124eb565b5050565b610fb2612022565b73ffffffffffffffffffffffffffffffffffffffff16610fd0610ed9565b73ffffffffffffffffffffffffffffffffffffffff1614611026576040517f08c379a000000000000000000000000000000000000000000000000000000000815260040161101d90613e4d565b60405180910390fd5b60085434101561106b576040517f08c379a000000000000000000000000000000000000000000000000000000000815260040161106290614099565b60405180910390fd5b611076838383612657565b6110818383836109aa565b505050565b611097611091612022565b836120e3565b6110d6576040517f08c379a00000000000000000000000000000000000000000000000000000000081526004016110cd90613de1565b60405180910390fd5b6110e284848484612835565b50505050565b60028381600a8281548110611100576110ff613e6d565b5b906000526020600020906005020160020160009054906101000a900461ffff1661ffff16101561112f57600080fd5b84600b600082815260200190815260200160002060009054906101000a900473ffffffffffffffffffffffffffffffffffffffff1673ffffffffffffffffffffffffffffffffffffffff163373ffffffffffffffffffffffffffffffffffffffff161461119b57600080fd5b600d5434146111a957600080fd5b8484600a88815481106111bf576111be613e6d565b5b906000526020600020906005020160000191906111dd929190612eba565b50505050505050565b60606111f182611fb6565b611230576040517f08c379a00000000000000000000000000000000000000000000000000000000081526004016112279061412b565b60405180910390fd5b600061123a612891565b9050600081511161125a5760405180602001604052806000815250611285565b80611264846128a8565b604051602001611275929190614187565b6040516020818303038152906040525b915050919050565b60608060005b600a80549050811015611607578373ffffffffffffffffffffffffffffffffffffffff16600b600083815260200190815260200160002060009054906101000a900473ffffffffffffffffffffffffffffffffffffffff1673ffffffffffffffffffffffffffffffffffffffff16036115f457600a818154811061131a57611319613e6d565b5b90600052602060002090600502016040518060c001604052908160008201805461134390613b88565b80601f016020809104026020016040519081016040528092919081815260200182805461136f90613b88565b80156113bc5780601f10611391576101008083540402835291602001916113bc565b820191906000526020600020905b81548152906001019060200180831161139f57829003601f168201915b505050505081526020016001820180546113d590613b88565b80601f016020809104026020016040519081016040528092919081815260200182805461140190613b88565b801561144e5780601f106114235761010080835404028352916020019161144e565b820191906000526020600020905b81548152906001019060200180831161143157829003601f168201915b505050505081526020016002820160009054906101000a900461ffff1661ffff1661ffff1681526020016002820160029054906101000a900460ff1660ff1660ff1681526020016003820154815260200160048201604051806101400160405290816000820160009054906101000a900460ff1660ff1660ff1681526020016000820160019054906101000a900460ff1660ff1660ff1681526020016000820160029054906101000a900460ff1660ff1660ff1681526020016000820160039054906101000a900460ff1660ff1660ff1681526020016000820160049054906101000a900460ff1660ff1660ff1681526020016000820160059054906101000a900460ff1660ff1660ff1681526020016000820160069054906101000a900460ff1660ff1660ff1681526020016000820160079054906101000a900460ff1660ff1660ff1681526020016000820160089054906101000a900460ff1660ff1660ff1681526020016000820160099054906101000a900460ff1660ff1660ff1681525050815250508282815181106115e8576115e7613e6d565b5b60200260200101819052505b80806115ff906141ab565b915050611293565b5080915050919050565b611619612022565b73ffffffffffffffffffffffffffffffffffffffff16611637610ed9565b73ffffffffffffffffffffffffffffffffffffffff161461168d576040517f08c379a000000000000000000000000000000000000000000000000000000000815260040161168490613e4d565b60405180910390fd5b80600d8190555050565b6000600660008473ffffffffffffffffffffffffffffffffffffffff1673ffffffffffffffffffffffffffffffffffffffff16815260200190815260200160002060008373ffffffffffffffffffffffffffffffffffffffff1673ffffffffffffffffffffffffffffffffffffffff16815260200190815260200160002060009054906101000a900460ff16905092915050565b80600b600082815260200190815260200160002060009054906101000a900473ffffffffffffffffffffffffffffffffffffffff1673ffffffffffffffffffffffffffffffffffffffff163373ffffffffffffffffffffffffffffffffffffffff161461179757600080fd5b6000600a83815481106117ad576117ac613e6d565b5b90600052602060002090600502019050600a8160020160026101000a81548160ff021916908360ff160217905550505050565b6117e8612022565b73ffffffffffffffffffffffffffffffffffffffff16611806610ed9565b73ffffffffffffffffffffffffffffffffffffffff161461185c576040517f08c379a000000000000000000000000000000000000000000000000000000000815260040161185390613e4d565b60405180910390fd5b6118666007612a08565b60006118726007612a1e565b905061187c612f40565b84816000018190525083816020018190525082816080018181525050600a816060019060ff16908160ff16815250506001816040019061ffff16908161ffff16815250506118cd6001606487612a2c565b8160a001516000019060ff16908160ff16815250506118ef6001606487612a2c565b8160a001516020019060ff16908160ff16815250506119116001606487612a2c565b8160a001516040019060ff16908160ff16815250506119336001606487612a2c565b8160a001516060019060ff16908160ff16815250506119556001606487612a2c565b8160a001516080019060ff16908160ff16815250506119776001606487612a2c565b8160a0015160a0019060ff16908160ff16815250506119996001606487612a2c565b8160a0015160c0019060ff16908160ff16815250506119bb6001606487612a2c565b8160a0015160e0019060ff16908160ff16815250506119dd6001606487612a2c565b8160a00151610100019060ff16908160ff1681525050611a006001606487612a2c565b8160a00151610120019060ff16908160ff1681525050600a8190806001815401808255809150506001900390600052602060002090600502016000909190919091506000820151816000019080519060200190611a5e929190612f83565b506020820151816001019080519060200190611a7b929190612f83565b5060408201518160020160006101000a81548161ffff021916908361ffff16021790555060608201518160020160026101000a81548160ff021916908360ff1602179055506080820151816003015560a08201518160040160008201518160000160006101000a81548160ff021916908360ff16021790555060208201518160000160016101000a81548160ff021916908360ff16021790555060408201518160000160026101000a81548160ff021916908360ff16021790555060608201518160000160036101000a81548160ff021916908360ff16021790555060808201518160000160046101000a81548160ff021916908360ff16021790555060a08201518160000160056101000a81548160ff021916908360ff16021790555060c08201518160000160066101000a81548160ff021916908360ff16021790555060e08201518160000160076101000a81548160ff021916908360ff1602179055506101008201518160000160086101000a81548160ff021916908360ff1602179055506101208201518160000160096101000a81548160ff021916908360ff160217905550505050507f806638a1fc90cec1d905c742ef32e76004dcce146ea274170b3018708eec5b2f8286604051611c549291906141f3565b60405180910390a15050505050565b611c6b612022565b73ffffffffffffffffffffffffffffffffffffffff16611c89610ed9565b73ffffffffffffffffffffffffffffffffffffffff1614611cdf576040517f08c379a0000000000000000000000000000000000000000000000000000000008152600401611cd690613e4d565b60405180910390fd5b600073ffffffffffffffffffffffffffffffffffffffff168173ffffffffffffffffffffffffffffffffffffffff1603611d4e576040517f08c379a0000000000000000000000000000000000000000000000000000000008152600401611d4590614295565b60405180910390fd5b611d5781612427565b50565b7fe56f18e374bb8dce430723c1947f905723fc716825356be61589a5de9ff2855f3433604051611d8b9291906142b5565b60405180910390a1600854341015611dd8576040517f08c379a0000000000000000000000000000000000000000000000000000000008152600401611dcf90614099565b60405180910390fd5b611e2b6001600c60003373ffffffffffffffffffffffffffffffffffffffff1673ffffffffffffffffffffffffffffffffffffffff16815260200190815260200160002054612a8890919063ffffffff16565b600c60003373ffffffffffffffffffffffffffffffffffffffff1673ffffffffffffffffffffffffffffffffffffffff1681526020019081526020016000208190555033600b600083815260200190815260200160002060006101000a81548173ffffffffffffffffffffffffffffffffffffffff021916908373ffffffffffffffffffffffffffffffffffffffff160217905550600854600960009054906101000a900473ffffffffffffffffffffffffffffffffffffffff1673ffffffffffffffffffffffffffffffffffffffff163373ffffffffffffffffffffffffffffffffffffffff167fddf252ad1be2c89b69c2b068fc378daa952ba7f163c4a11628f55a4df523b3ef60405160405180910390a4611f493382612a9e565b50565b60007f01ffc9a7000000000000000000000000000000000000000000000000000000007bffffffffffffffffffffffffffffffffffffffffffffffffffffffff1916827bffffffffffffffffffffffffffffffffffffffffffffffffffffffff1916149050919050565b60008073ffffffffffffffffffffffffffffffffffffffff166003600084815260200190815260200160002060009054906101000a900473ffffffffffffffffffffffffffffffffffffffff1673ffffffffffffffffffffffffffffffffffffffff1614159050919050565b600033905090565b816005600083815260200190815260200160002060006101000a81548173ffffffffffffffffffffffffffffffffffffffff021916908373ffffffffffffffffffffffffffffffffffffffff160217905550808273ffffffffffffffffffffffffffffffffffffffff1661209d83610c76565b73ffffffffffffffffffffffffffffffffffffffff167f8c5be1e5ebec7d5bd14f71427d1e84f3dd0314c0f7b2291e5b200ac8c7c3b92560405160405180910390a45050565b60006120ee82611fb6565b61212d576040517f08c379a000000000000000000000000000000000000000000000000000000000815260040161212490614350565b60405180910390fd5b600061213883610c76565b90508073ffffffffffffffffffffffffffffffffffffffff168473ffffffffffffffffffffffffffffffffffffffff1614806121a757508373ffffffffffffffffffffffffffffffffffffffff1661218f8461080e565b73ffffffffffffffffffffffffffffffffffffffff16145b806121b857506121b78185611697565b5b91505092915050565b8273ffffffffffffffffffffffffffffffffffffffff166121e182610c76565b73ffffffffffffffffffffffffffffffffffffffff1614612237576040517f08c379a000000000000000000000000000000000000000000000000000000000815260040161222e906143e2565b60405180910390fd5b600073ffffffffffffffffffffffffffffffffffffffff168273ffffffffffffffffffffffffffffffffffffffff16036122a6576040517f08c379a000000000000000000000000000000000000000000000000000000000815260040161229d90614474565b60405180910390fd5b6122b1838383612abc565b6122bc60008261202a565b6001600460008573ffffffffffffffffffffffffffffffffffffffff1673ffffffffffffffffffffffffffffffffffffffff168152602001908152602001600020600082825461230c9190614494565b925050819055506001600460008473ffffffffffffffffffffffffffffffffffffffff1673ffffffffffffffffffffffffffffffffffffffff168152602001908152602001600020600082825461236391906144c8565b92505081905550816003600083815260200190815260200160002060006101000a81548173ffffffffffffffffffffffffffffffffffffffff021916908373ffffffffffffffffffffffffffffffffffffffff160217905550808273ffffffffffffffffffffffffffffffffffffffff168473ffffffffffffffffffffffffffffffffffffffff167fddf252ad1be2c89b69c2b068fc378daa952ba7f163c4a11628f55a4df523b3ef60405160405180910390a4612422838383612ac1565b505050565b60008060009054906101000a900473ffffffffffffffffffffffffffffffffffffffff169050816000806101000a81548173ffffffffffffffffffffffffffffffffffffffff021916908373ffffffffffffffffffffffffffffffffffffffff1602179055508173ffffffffffffffffffffffffffffffffffffffff168173ffffffffffffffffffffffffffffffffffffffff167f8be0079c531659141344cd1fd0a4f28419497f9722a3daafe3b4186f6b6457e060405160405180910390a35050565b8173ffffffffffffffffffffffffffffffffffffffff168373ffffffffffffffffffffffffffffffffffffffff1603612559576040517f08c379a00000000000000000000000000000000000000000000000000000000081526004016125509061456a565b60405180910390fd5b80600660008573ffffffffffffffffffffffffffffffffffffffff1673ffffffffffffffffffffffffffffffffffffffff16815260200190815260200160002060008473ffffffffffffffffffffffffffffffffffffffff1673ffffffffffffffffffffffffffffffffffffffff16815260200190815260200160002060006101000a81548160ff0219169083151502179055508173ffffffffffffffffffffffffffffffffffffffff168373ffffffffffffffffffffffffffffffffffffffff167f17307eab39ab6107e8899845ad3d59bd9653f200f220920489ca2b5937696c318360405161264a919061314b565b60405180910390a3505050565b6126aa6001600c60008573ffffffffffffffffffffffffffffffffffffffff1673ffffffffffffffffffffffffffffffffffffffff16815260200190815260200160002054612a8890919063ffffffff16565b600c60008473ffffffffffffffffffffffffffffffffffffffff1673ffffffffffffffffffffffffffffffffffffffff168152602001908152602001600020819055506127406001600c60008673ffffffffffffffffffffffffffffffffffffffff1673ffffffffffffffffffffffffffffffffffffffff16815260200190815260200160002054612ac690919063ffffffff16565b600c60008573ffffffffffffffffffffffffffffffffffffffff1673ffffffffffffffffffffffffffffffffffffffff1681526020019081526020016000208190555081600b600083815260200190815260200160002060006101000a81548173ffffffffffffffffffffffffffffffffffffffff021916908373ffffffffffffffffffffffffffffffffffffffff160217905550808273ffffffffffffffffffffffffffffffffffffffff168473ffffffffffffffffffffffffffffffffffffffff167fddf252ad1be2c89b69c2b068fc378daa952ba7f163c4a11628f55a4df523b3ef60405160405180910390a4505050565b6128408484846121c1565b61284c84848484612adc565b61288b576040517f08c379a0000000000000000000000000000000000000000000000000000000008152600401612882906145fc565b60405180910390fd5b50505050565b606060405180602001604052806000815250905090565b6060600082036128ef576040518060400160405280600181526020017f30000000000000000000000000000000000000000000000000000000000000008152509050612a03565b600082905060005b6000821461292157808061290a906141ab565b915050600a8261291a919061464b565b91506128f7565b60008167ffffffffffffffff81111561293d5761293c6134ac565b5b6040519080825280601f01601f19166020018201604052801561296f5781602001600182028036833780820191505090505b5090505b600085146129fc576001826129889190614494565b9150600a85612997919061467c565b60306129a391906144c8565b60f81b8183815181106129b9576129b8613e6d565b5b60200101907effffffffffffffffffffffffffffffffffffffffffffffffffffffffffffff1916908160001a905350600a856129f5919061464b565b9450612973565b8093505050505b919050565b6001816000016000828254019250508190555050565b600081600001549050919050565b60008360ff168385612a3e91906146ad565b60ff1683604051602001612a5291906146e4565b6040516020818303038152906040528051906020012060001c612a75919061467c565b612a7f9190614494565b90509392505050565b60008183612a9691906144c8565b905092915050565b612ab8828260405180602001604052806000815250612c63565b5050565b505050565b505050565b60008183612ad49190614494565b905092915050565b6000612afd8473ffffffffffffffffffffffffffffffffffffffff16612cbe565b15612c56578373ffffffffffffffffffffffffffffffffffffffff1663150b7a02612b26612022565b8786866040518563ffffffff1660e01b8152600401612b489493929190614750565b6020604051808303816000875af1925050508015612b8457506040513d601f19601f82011682018060405250810190612b8191906147b1565b60015b612c06573d8060008114612bb4576040519150601f19603f3d011682016040523d82523d6000602084013e612bb9565b606091505b506000815103612bfe576040517f08c379a0000000000000000000000000000000000000000000000000000000008152600401612bf5906145fc565b60405180910390fd5b805181602001fd5b63150b7a0260e01b7bffffffffffffffffffffffffffffffffffffffffffffffffffffffff1916817bffffffffffffffffffffffffffffffffffffffffffffffffffffffff191614915050612c5b565b600190505b949350505050565b612c6d8383612ce1565b612c7a6000848484612adc565b612cb9576040517f08c379a0000000000000000000000000000000000000000000000000000000008152600401612cb0906145fc565b60405180910390fd5b505050565b6000808273ffffffffffffffffffffffffffffffffffffffff163b119050919050565b600073ffffffffffffffffffffffffffffffffffffffff168273ffffffffffffffffffffffffffffffffffffffff1603612d50576040517f08c379a0000000000000000000000000000000000000000000000000000000008152600401612d479061482a565b60405180910390fd5b612d5981611fb6565b15612d99576040517f08c379a0000000000000000000000000000000000000000000000000000000008152600401612d9090614896565b60405180910390fd5b612da560008383612abc565b6001600460008473ffffffffffffffffffffffffffffffffffffffff1673ffffffffffffffffffffffffffffffffffffffff1681526020019081526020016000206000828254612df591906144c8565b92505081905550816003600083815260200190815260200160002060006101000a81548173ffffffffffffffffffffffffffffffffffffffff021916908373ffffffffffffffffffffffffffffffffffffffff160217905550808273ffffffffffffffffffffffffffffffffffffffff16600073ffffffffffffffffffffffffffffffffffffffff167fddf252ad1be2c89b69c2b068fc378daa952ba7f163c4a11628f55a4df523b3ef60405160405180910390a4612eb660008383612ac1565b5050565b828054612ec690613b88565b90600052602060002090601f016020900481019282612ee85760008555612f2f565b82601f10612f0157803560ff1916838001178555612f2f565b82800160010185558215612f2f579182015b82811115612f2e578235825591602001919060010190612f13565b5b509050612f3c9190613009565b5090565b6040518060c001604052806060815260200160608152602001600061ffff168152602001600060ff16815260200160008152602001612f7d613026565b81525090565b828054612f8f90613b88565b90600052602060002090601f016020900481019282612fb15760008555612ff8565b82601f10612fca57805160ff1916838001178555612ff8565b82800160010185558215612ff8579182015b82811115612ff7578251825591602001919060010190612fdc565b5b5090506130059190613009565b5090565b5b8082111561302257600081600090555060010161300a565b5090565b604051806101400160405280600060ff168152602001600060ff168152602001600060ff168152602001600060ff168152602001600060ff168152602001600060ff168152602001600060ff168152602001600060ff168152602001600060ff168152602001600060ff1681525090565b6000604051905090565b600080fd5b600080fd5b60007fffffffff0000000000000000000000000000000000000000000000000000000082169050919050565b6130e0816130ab565b81146130eb57600080fd5b50565b6000813590506130fd816130d7565b92915050565b600060208284031215613119576131186130a1565b5b6000613127848285016130ee565b91505092915050565b60008115159050919050565b61314581613130565b82525050565b6000602082019050613160600083018461313c565b92915050565b600081519050919050565b600082825260208201905092915050565b60005b838110156131a0578082015181840152602081019050613185565b838111156131af576000848401525b50505050565b6000601f19601f8301169050919050565b60006131d182613166565b6131db8185613171565b93506131eb818560208601613182565b6131f4816131b5565b840191505092915050565b6000602082019050818103600083015261321981846131c6565b905092915050565b6000819050919050565b61323481613221565b811461323f57600080fd5b50565b6000813590506132518161322b565b92915050565b60006020828403121561326d5761326c6130a1565b5b600061327b84828501613242565b91505092915050565b600073ffffffffffffffffffffffffffffffffffffffff82169050919050565b60006132af82613284565b9050919050565b6132bf816132a4565b82525050565b60006020820190506132da60008301846132b6565b92915050565b6132e9816132a4565b81146132f457600080fd5b50565b600081359050613306816132e0565b92915050565b60008060408385031215613323576133226130a1565b5b6000613331858286016132f7565b925050602061334285828601613242565b9150509250929050565b600080600060608486031215613365576133646130a1565b5b6000613373868287016132f7565b9350506020613384868287016132f7565b925050604061339586828701613242565b9150509250925092565b600080604083850312156133b6576133b56130a1565b5b60006133c485828601613242565b92505060206133d585828601613242565b9150509250929050565b6000602082840312156133f5576133f46130a1565b5b6000613403848285016132f7565b91505092915050565b61341581613221565b82525050565b6000602082019050613430600083018461340c565b92915050565b61343f81613130565b811461344a57600080fd5b50565b60008135905061345c81613436565b92915050565b60008060408385031215613479576134786130a1565b5b6000613487858286016132f7565b92505060206134988582860161344d565b9150509250929050565b600080fd5b600080fd5b7f4e487b7100000000000000000000000000000000000000000000000000000000600052604160045260246000fd5b6134e4826131b5565b810181811067ffffffffffffffff82111715613503576135026134ac565b5b80604052505050565b6000613516613097565b905061352282826134db565b919050565b600067ffffffffffffffff821115613542576135416134ac565b5b61354b826131b5565b9050602081019050919050565b82818337600083830152505050565b600061357a61357584613527565b61350c565b905082815260208101848484011115613596576135956134a7565b5b6135a1848285613558565b509392505050565b600082601f8301126135be576135bd6134a2565b5b81356135ce848260208601613567565b91505092915050565b600080600080608085870312156135f1576135f06130a1565b5b60006135ff878288016132f7565b9450506020613610878288016132f7565b935050604061362187828801613242565b925050606085013567ffffffffffffffff811115613642576136416130a6565b5b61364e878288016135a9565b91505092959194509250565b600080fd5b600080fd5b60008083601f84011261367a576136796134a2565b5b8235905067ffffffffffffffff8111156136975761369661365a565b5b6020830191508360018202830111156136b3576136b261365f565b5b9250929050565b6000806000604084860312156136d3576136d26130a1565b5b60006136e186828701613242565b935050602084013567ffffffffffffffff811115613702576137016130a6565b5b61370e86828701613664565b92509250509250925092565b600081519050919050565b600082825260208201905092915050565b6000819050602082019050919050565b600082825260208201905092915050565b600061376282613166565b61376c8185613746565b935061377c818560208601613182565b613785816131b5565b840191505092915050565b600061ffff82169050919050565b6137a781613790565b82525050565b600060ff82169050919050565b6137c3816137ad565b82525050565b6137d281613221565b82525050565b610140820160008201516137ef60008501826137ba565b50602082015161380260208501826137ba565b50604082015161381560408501826137ba565b50606082015161382860608501826137ba565b50608082015161383b60808501826137ba565b5060a082015161384e60a08501826137ba565b5060c082015161386160c08501826137ba565b5060e082015161387460e08501826137ba565b506101008201516138896101008501826137ba565b5061012082015161389e6101208501826137ba565b50505050565b60006101e08301600083015184820360008601526138c28282613757565b915050602083015184820360208601526138dc8282613757565b91505060408301516138f1604086018261379e565b50606083015161390460608601826137ba565b50608083015161391760808601826137c9565b5060a083015161392a60a08601826137d8565b508091505092915050565b600061394183836138a4565b905092915050565b6000602082019050919050565b60006139618261371a565b61396b8185613725565b93508360208202850161397d85613736565b8060005b858110156139b9578484038952815161399a8582613935565b94506139a583613949565b925060208a01995050600181019050613981565b50829750879550505050505092915050565b600060208201905081810360008301526139e58184613956565b905092915050565b60008060408385031215613a0457613a036130a1565b5b6000613a12858286016132f7565b9250506020613a23858286016132f7565b9150509250929050565b600067ffffffffffffffff821115613a4857613a476134ac565b5b613a51826131b5565b9050602081019050919050565b6000613a71613a6c84613a2d565b61350c565b905082815260208101848484011115613a8d57613a8c6134a7565b5b613a98848285613558565b509392505050565b600082601f830112613ab557613ab46134a2565b5b8135613ac5848260208601613a5e565b91505092915050565b600080600060608486031215613ae757613ae66130a1565b5b600084013567ffffffffffffffff811115613b0557613b046130a6565b5b613b1186828701613aa0565b935050602084013567ffffffffffffffff811115613b3257613b316130a6565b5b613b3e86828701613aa0565b9250506040613b4f86828701613242565b9150509250925092565b7f4e487b7100000000000000000000000000000000000000000000000000000000600052602260045260246000fd5b60006002820490506001821680613ba057607f821691505b602082108103613bb357613bb2613b59565b5b50919050565b7f4552433732313a20617070726f76656420717565727920666f72206e6f6e657860008201527f697374656e7420746f6b656e0000000000000000000000000000000000000000602082015250565b6000613c15602c83613171565b9150613c2082613bb9565b604082019050919050565b60006020820190508181036000830152613c4481613c08565b9050919050565b7f4552433732313a20617070726f76616c20746f2063757272656e74206f776e6560008201527f7200000000000000000000000000000000000000000000000000000000000000602082015250565b6000613ca7602183613171565b9150613cb282613c4b565b604082019050919050565b60006020820190508181036000830152613cd681613c9a565b9050919050565b7f4552433732313a20617070726f76652063616c6c6572206973206e6f74206f7760008201527f6e6572206e6f7220617070726f76656420666f7220616c6c0000000000000000602082015250565b6000613d39603883613171565b9150613d4482613cdd565b604082019050919050565b60006020820190508181036000830152613d6881613d2c565b9050919050565b7f4552433732313a207472616e736665722063616c6c6572206973206e6f74206f60008201527f776e6572206e6f7220617070726f766564000000000000000000000000000000602082015250565b6000613dcb603183613171565b9150613dd682613d6f565b604082019050919050565b60006020820190508181036000830152613dfa81613dbe565b9050919050565b7f4f776e61626c653a2063616c6c6572206973206e6f7420746865206f776e6572600082015250565b6000613e37602083613171565b9150613e4282613e01565b602082019050919050565b60006020820190508181036000830152613e6681613e2a565b9050919050565b7f4e487b7100000000000000000000000000000000000000000000000000000000600052603260045260246000fd5b7f4e487b7100000000000000000000000000000000000000000000000000000000600052601160045260246000fd5b6000613ed682613790565b9150613ee183613790565b92508261ffff03821115613ef857613ef7613e9c565b5b828201905092915050565b7f4552433732313a206f776e657220717565727920666f72206e6f6e657869737460008201527f656e7420746f6b656e0000000000000000000000000000000000000000000000602082015250565b6000613f5f602983613171565b9150613f6a82613f03565b604082019050919050565b60006020820190508181036000830152613f8e81613f52565b9050919050565b7f4552433732313a2062616c616e636520717565727920666f7220746865207a6560008201527f726f206164647265737300000000000000000000000000000000000000000000602082015250565b6000613ff1602a83613171565b9150613ffc82613f95565b604082019050919050565b6000602082019050818103600083015261402081613fe4565b9050919050565b7f4e6f7420656e6f756768204554482073656e743b20636865636b20707269636560008201527f2100000000000000000000000000000000000000000000000000000000000000602082015250565b6000614083602183613171565b915061408e82614027565b604082019050919050565b600060208201905081810360008301526140b281614076565b9050919050565b7f4552433732314d657461646174613a2055524920717565727920666f72206e6f60008201527f6e6578697374656e7420746f6b656e0000000000000000000000000000000000602082015250565b6000614115602f83613171565b9150614120826140b9565b604082019050919050565b6000602082019050818103600083015261414481614108565b9050919050565b600081905092915050565b600061416182613166565b61416b818561414b565b935061417b818560208601613182565b80840191505092915050565b60006141938285614156565b915061419f8284614156565b91508190509392505050565b60006141b682613221565b91507fffffffffffffffffffffffffffffffffffffffffffffffffffffffffffffffff82036141e8576141e7613e9c565b5b600182019050919050565b6000604082019050614208600083018561340c565b818103602083015261421a81846131c6565b90509392505050565b7f4f776e61626c653a206e6577206f776e657220697320746865207a65726f206160008201527f6464726573730000000000000000000000000000000000000000000000000000602082015250565b600061427f602683613171565b915061428a82614223565b604082019050919050565b600060208201905081810360008301526142ae81614272565b9050919050565b60006040820190506142ca600083018561340c565b6142d760208301846132b6565b9392505050565b7f4552433732313a206f70657261746f7220717565727920666f72206e6f6e657860008201527f697374656e7420746f6b656e0000000000000000000000000000000000000000602082015250565b600061433a602c83613171565b9150614345826142de565b604082019050919050565b600060208201905081810360008301526143698161432d565b9050919050565b7f4552433732313a207472616e736665722066726f6d20696e636f72726563742060008201527f6f776e6572000000000000000000000000000000000000000000000000000000602082015250565b60006143cc602583613171565b91506143d782614370565b604082019050919050565b600060208201905081810360008301526143fb816143bf565b9050919050565b7f4552433732313a207472616e7366657220746f20746865207a65726f2061646460008201527f7265737300000000000000000000000000000000000000000000000000000000602082015250565b600061445e602483613171565b915061446982614402565b604082019050919050565b6000602082019050818103600083015261448d81614451565b9050919050565b600061449f82613221565b91506144aa83613221565b9250828210156144bd576144bc613e9c565b5b828203905092915050565b60006144d382613221565b91506144de83613221565b9250827fffffffffffffffffffffffffffffffffffffffffffffffffffffffffffffffff0382111561451357614512613e9c565b5b828201905092915050565b7f4552433732313a20617070726f766520746f2063616c6c657200000000000000600082015250565b6000614554601983613171565b915061455f8261451e565b602082019050919050565b6000602082019050818103600083015261458381614547565b9050919050565b7f4552433732313a207472616e7366657220746f206e6f6e20455243373231526560008201527f63656976657220696d706c656d656e7465720000000000000000000000000000602082015250565b60006145e6603283613171565b91506145f18261458a565b604082019050919050565b60006020820190508181036000830152614615816145d9565b9050919050565b7f4e487b7100000000000000000000000000000000000000000000000000000000600052601260045260246000fd5b600061465682613221565b915061466183613221565b9250826146715761467061461c565b5b828204905092915050565b600061468782613221565b915061469283613221565b9250826146a2576146a161461c565b5b828206905092915050565b60006146b8826137ad565b91506146c3836137ad565b92508260ff038211156146d9576146d8613e9c565b5b828201905092915050565b60006146f08284614156565b915081905092915050565b600081519050919050565b600082825260208201905092915050565b6000614722826146fb565b61472c8185614706565b935061473c818560208601613182565b614745816131b5565b840191505092915050565b600060808201905061476560008301876132b6565b61477260208301866132b6565b61477f604083018561340c565b81810360608301526147918184614717565b905095945050505050565b6000815190506147ab816130d7565b92915050565b6000602082840312156147c7576147c66130a1565b5b60006147d58482850161479c565b91505092915050565b7f4552433732313a206d696e7420746f20746865207a65726f2061646472657373600082015250565b6000614814602083613171565b915061481f826147de565b602082019050919050565b6000602082019050818103600083015261484381614807565b9050919050565b7f4552433732313a20746f6b656e20616c7265616479206d696e74656400000000600082015250565b6000614880601c83613171565b915061488b8261484a565b602082019050919050565b600060208201905081810360008301526148af81614873565b905091905056fea2646970667358221220d55b4de1a236e2a56d4082308869067a0a2901d8d8afb49b902014e0b3f1daf364736f6c634300080d0033",
  "immutableReferences": {},
  "source": "pragma solidity ^0.8.0;\n\nimport \"./scinionfactory.sol\";\n\n\ncontract ScinionHelper is ScinionFactory {\n\n     uint levelUpFee = 0.001 ether;\n\n\n    function setLevelUpFee(uint _fee) external onlyOwner {\n        levelUpFee = _fee;\n    }\n\n    modifier aboveLevel(uint _level, uint _scinionId) {\n        require(scinions[_scinionId].level >= _level);\n         _;\n    }\n      \n    \n    function changeName(uint _scinionId, string calldata _newName) external payable aboveLevel(2, _scinionId) onlyOwnerOf(_scinionId) {\n        require(msg.value == levelUpFee);\n        scinions[_scinionId].name = _newName;\n    }\n\n    function changeDna(uint _scinionId, uint _newDna) external payable aboveLevel(20, _scinionId) onlyOwnerOf(_scinionId) {\n        require(msg.value == levelUpFee);\n        scinions[_scinionId].dna = _newDna;\n    }\n\n    function getScinionsByOwner(address _owner) external view returns(Scinion[] memory) {\n        Scinion[] memory scinionsByOwner;\n        for (uint i = 0; i < scinions.length; i++) {\n            if (scinionToOwner[i] == _owner) {\n                scinionsByOwner[i]= scinions[i];\n            }\n        }    \n        /*\n        uint[] memory result = new uint[](ownerScinionCount[_owner]);\n        uint counter = 0;\n        for (uint i = 0; i < scinions.length; i++) {\n            if (scinionToOwner[i] == _owner) {\n                result[counter] = i;\n                counter++;\n            }\n        }\n        return result;\n\n\n        */\n        return scinionsByOwner;\n    }\n\n\n    function completarInvestigacion(uint _scinionId) public onlyOwnerOf(_scinionId) {\n        Scinion storage scinionSelected = scinions[_scinionId];\n        scinionSelected.level = scinionSelected.level+1;\n    }\n\n\n    function dormir(uint _scinionId) public onlyOwnerOf(_scinionId) {\n        Scinion storage scinionSelected = scinions[_scinionId];\n        scinionSelected.energia = 10;\n    }\n\n\n}",
  "sourcePath": "/Users/albateixidovillanueva/Desktop/scinions/contracts/scinionhelper.sol",
  "compiler": {
    "name": "solc",
    "version": "0.8.13+commit.abaa5c0e.Emscripten.clang"
  },
  "schemaVersion": "3.4.6",
  "updatedAt": "2022-04-13T14:58:56.921Z",
  "networkType": "ethereum",
  "devdoc": {
    "kind": "dev",
    "methods": {
      "approve(address,uint256)": {
        "details": "See {IERC721-approve}."
      },
      "balanceOf(address)": {
        "details": "See {IERC721-balanceOf}."
      },
      "getApproved(uint256)": {
        "details": "See {IERC721-getApproved}."
      },
      "isApprovedForAll(address,address)": {
        "details": "See {IERC721-isApprovedForAll}."
      },
      "name()": {
        "details": "See {IERC721Metadata-name}."
      },
      "owner()": {
        "details": "Returns the address of the current owner."
      },
      "ownerOf(uint256)": {
        "details": "See {IERC721-ownerOf}."
      },
      "renounceOwnership()": {
        "details": "Leaves the contract without owner. It will not be possible to call `onlyOwner` functions anymore. Can only be called by the current owner. NOTE: Renouncing ownership will leave the contract without an owner, thereby removing any functionality that is only available to the owner."
      },
      "safeTransferFrom(address,address,uint256)": {
        "details": "See {IERC721-safeTransferFrom}."
      },
      "safeTransferFrom(address,address,uint256,bytes)": {
        "details": "See {IERC721-safeTransferFrom}."
      },
      "setApprovalForAll(address,bool)": {
        "details": "See {IERC721-setApprovalForAll}."
      },
      "supportsInterface(bytes4)": {
        "details": "See {IERC165-supportsInterface}."
      },
      "symbol()": {
        "details": "See {IERC721Metadata-symbol}."
      },
      "tokenURI(uint256)": {
        "details": "See {IERC721Metadata-tokenURI}."
      },
      "transferFrom(address,address,uint256)": {
        "details": "See {IERC721-transferFrom}."
      },
      "transferOwnership(address)": {
        "details": "Transfers ownership of the contract to a new account (`newOwner`). Can only be called by the current owner."
      }
    },
    "version": 1
  },
  "userdoc": {
    "kind": "user",
    "methods": {},
    "version": 1
  }
}