{
  "contractName": "ScinionHelper",
  "abi": [
    {
      "anonymous": false,
      "inputs": [
        {
          "indexed": true,
          "internalType": "address",
          "name": "owner",
          "type": "address"
        },
        {
          "indexed": true,
          "internalType": "address",
          "name": "approved",
          "type": "address"
        },
        {
          "indexed": true,
          "internalType": "uint256",
          "name": "tokenId",
          "type": "uint256"
        }
      ],
      "name": "Approval",
      "type": "event"
    },
    {
      "anonymous": false,
      "inputs": [
        {
          "indexed": true,
          "internalType": "address",
          "name": "owner",
          "type": "address"
        },
        {
          "indexed": true,
          "internalType": "address",
          "name": "operator",
          "type": "address"
        },
        {
          "indexed": false,
          "internalType": "bool",
          "name": "approved",
          "type": "bool"
        }
      ],
      "name": "ApprovalForAll",
      "type": "event"
    },
    {
      "anonymous": false,
      "inputs": [
        {
          "indexed": false,
          "internalType": "uint256",
          "name": "scinionId",
          "type": "uint256"
        },
        {
          "indexed": false,
          "internalType": "string",
          "name": "name",
          "type": "string"
        }
      ],
      "name": "NewScinion",
      "type": "event"
    },
    {
      "anonymous": false,
      "inputs": [
        {
          "indexed": true,
          "internalType": "address",
          "name": "previousOwner",
          "type": "address"
        },
        {
          "indexed": true,
          "internalType": "address",
          "name": "newOwner",
          "type": "address"
        }
      ],
      "name": "OwnershipTransferred",
      "type": "event"
    },
    {
      "anonymous": false,
      "inputs": [
        {
          "indexed": true,
          "internalType": "address",
          "name": "from",
          "type": "address"
        },
        {
          "indexed": true,
          "internalType": "address",
          "name": "to",
          "type": "address"
        },
        {
          "indexed": true,
          "internalType": "uint256",
          "name": "tokenId",
          "type": "uint256"
        }
      ],
      "name": "Transfer",
      "type": "event"
    },
    {
      "inputs": [
        {
          "internalType": "address",
          "name": "to",
          "type": "address"
        },
        {
          "internalType": "uint256",
          "name": "tokenId",
          "type": "uint256"
        }
      ],
      "name": "approve",
      "outputs": [],
      "stateMutability": "nonpayable",
      "type": "function"
    },
    {
      "inputs": [
        {
          "internalType": "address",
          "name": "owner",
          "type": "address"
        }
      ],
      "name": "balanceOf",
      "outputs": [
        {
          "internalType": "uint256",
          "name": "",
          "type": "uint256"
        }
      ],
      "stateMutability": "view",
      "type": "function"
    },
    {
      "inputs": [
        {
          "internalType": "uint256",
          "name": "tokenId",
          "type": "uint256"
        }
      ],
      "name": "getApproved",
      "outputs": [
        {
          "internalType": "address",
          "name": "",
          "type": "address"
        }
      ],
      "stateMutability": "view",
      "type": "function"
    },
    {
      "inputs": [],
      "name": "getOwner",
      "outputs": [
        {
          "internalType": "address",
          "name": "",
          "type": "address"
        }
      ],
      "stateMutability": "view",
      "type": "function"
    },
    {
      "inputs": [
        {
          "internalType": "address",
          "name": "owner",
          "type": "address"
        },
        {
          "internalType": "address",
          "name": "operator",
          "type": "address"
        }
      ],
      "name": "isApprovedForAll",
      "outputs": [
        {
          "internalType": "bool",
          "name": "",
          "type": "bool"
        }
      ],
      "stateMutability": "view",
      "type": "function"
    },
    {
      "inputs": [
        {
          "internalType": "string",
          "name": "_name",
          "type": "string"
        },
        {
          "internalType": "string",
          "name": "tokenURI_",
          "type": "string"
        }
      ],
      "name": "mintScinion",
      "outputs": [
        {
          "internalType": "uint256",
          "name": "id",
          "type": "uint256"
        }
      ],
      "stateMutability": "payable",
      "type": "function"
    },
    {
      "inputs": [],
      "name": "name",
      "outputs": [
        {
          "internalType": "string",
          "name": "",
          "type": "string"
        }
      ],
      "stateMutability": "view",
      "type": "function"
    },
    {
      "inputs": [],
      "name": "owner",
      "outputs": [
        {
          "internalType": "address",
          "name": "",
          "type": "address"
        }
      ],
      "stateMutability": "view",
      "type": "function"
    },
    {
      "inputs": [
        {
          "internalType": "uint256",
          "name": "tokenId",
          "type": "uint256"
        }
      ],
      "name": "ownerOf",
      "outputs": [
        {
          "internalType": "address",
          "name": "",
          "type": "address"
        }
      ],
      "stateMutability": "view",
      "type": "function"
    },
    {
      "inputs": [],
      "name": "renounceOwnership",
      "outputs": [],
      "stateMutability": "nonpayable",
      "type": "function"
    },
    {
      "inputs": [
        {
          "internalType": "address",
          "name": "from",
          "type": "address"
        },
        {
          "internalType": "address",
          "name": "to",
          "type": "address"
        },
        {
          "internalType": "uint256",
          "name": "tokenId",
          "type": "uint256"
        }
      ],
      "name": "safeTransferFrom",
      "outputs": [],
      "stateMutability": "nonpayable",
      "type": "function"
    },
    {
      "inputs": [
        {
          "internalType": "address",
          "name": "from",
          "type": "address"
        },
        {
          "internalType": "address",
          "name": "to",
          "type": "address"
        },
        {
          "internalType": "uint256",
          "name": "tokenId",
          "type": "uint256"
        },
        {
          "internalType": "bytes",
          "name": "_data",
          "type": "bytes"
        }
      ],
      "name": "safeTransferFrom",
      "outputs": [],
      "stateMutability": "nonpayable",
      "type": "function"
    },
    {
      "inputs": [
        {
          "internalType": "uint256",
          "name": "",
          "type": "uint256"
        }
      ],
      "name": "scinions",
      "outputs": [
        {
          "internalType": "string",
          "name": "name",
          "type": "string"
        },
        {
          "internalType": "string",
          "name": "scinionType",
          "type": "string"
        },
        {
          "internalType": "uint16",
          "name": "level",
          "type": "uint16"
        },
        {
          "internalType": "uint8",
          "name": "energia",
          "type": "uint8"
        },
        {
          "internalType": "uint256",
          "name": "dna",
          "type": "uint256"
        },
        {
          "internalType": "uint256",
          "name": "habilities",
          "type": "uint256"
        }
      ],
      "stateMutability": "view",
      "type": "function"
    },
    {
      "inputs": [
        {
          "internalType": "address",
          "name": "operator",
          "type": "address"
        },
        {
          "internalType": "bool",
          "name": "approved",
          "type": "bool"
        }
      ],
      "name": "setApprovalForAll",
      "outputs": [],
      "stateMutability": "nonpayable",
      "type": "function"
    },
    {
      "inputs": [
        {
          "internalType": "string",
          "name": "baseURI_",
          "type": "string"
        }
      ],
      "name": "setBaseURI",
      "outputs": [],
      "stateMutability": "nonpayable",
      "type": "function"
    },
    {
      "inputs": [
        {
          "internalType": "uint256",
          "name": "_fee",
          "type": "uint256"
        }
      ],
      "name": "setMinPrice",
      "outputs": [],
      "stateMutability": "nonpayable",
      "type": "function"
    },
    {
      "inputs": [
        {
          "internalType": "bytes4",
          "name": "interfaceId",
          "type": "bytes4"
        }
      ],
      "name": "supportsInterface",
      "outputs": [
        {
          "internalType": "bool",
          "name": "",
          "type": "bool"
        }
      ],
      "stateMutability": "view",
      "type": "function"
    },
    {
      "inputs": [],
      "name": "symbol",
      "outputs": [
        {
          "internalType": "string",
          "name": "",
          "type": "string"
        }
      ],
      "stateMutability": "view",
      "type": "function"
    },
    {
      "inputs": [
        {
          "internalType": "uint256",
          "name": "tokenId",
          "type": "uint256"
        }
      ],
      "name": "tokenURI",
      "outputs": [
        {
          "internalType": "string",
          "name": "",
          "type": "string"
        }
      ],
      "stateMutability": "view",
      "type": "function"
    },
    {
      "inputs": [
        {
          "internalType": "address",
          "name": "from",
          "type": "address"
        },
        {
          "internalType": "address",
          "name": "to",
          "type": "address"
        },
        {
          "internalType": "uint256",
          "name": "tokenId",
          "type": "uint256"
        }
      ],
      "name": "transferFrom",
      "outputs": [],
      "stateMutability": "nonpayable",
      "type": "function"
    },
    {
      "inputs": [
        {
          "internalType": "address",
          "name": "newOwner",
          "type": "address"
        }
      ],
      "name": "transferOwnership",
      "outputs": [],
      "stateMutability": "nonpayable",
      "type": "function"
    },
    {
      "inputs": [
        {
          "internalType": "uint256",
          "name": "_fee",
          "type": "uint256"
        }
      ],
      "name": "setLevelUpFee",
      "outputs": [],
      "stateMutability": "nonpayable",
      "type": "function"
    },
    {
      "inputs": [
        {
          "internalType": "uint256",
          "name": "_scinionId",
          "type": "uint256"
        },
        {
          "internalType": "string",
          "name": "_newName",
          "type": "string"
        }
      ],
      "name": "changeName",
      "outputs": [],
      "stateMutability": "payable",
      "type": "function"
    },
    {
      "inputs": [
        {
          "internalType": "uint256",
          "name": "_scinionId",
          "type": "uint256"
        },
        {
          "internalType": "uint256",
          "name": "_newDna",
          "type": "uint256"
        }
      ],
      "name": "changeDna",
      "outputs": [],
      "stateMutability": "payable",
      "type": "function"
    },
    {
      "inputs": [],
      "name": "getScinionsByOwner",
      "outputs": [
        {
          "components": [
            {
              "internalType": "string",
              "name": "name",
              "type": "string"
            },
            {
              "internalType": "string",
              "name": "scinionType",
              "type": "string"
            },
            {
              "internalType": "uint16",
              "name": "level",
              "type": "uint16"
            },
            {
              "internalType": "uint8",
              "name": "energia",
              "type": "uint8"
            },
            {
              "internalType": "uint256",
              "name": "dna",
              "type": "uint256"
            },
            {
              "internalType": "uint256",
              "name": "habilities",
              "type": "uint256"
            }
          ],
          "internalType": "struct ScinionFactory.Scinion[]",
          "name": "",
          "type": "tuple[]"
        }
      ],
      "stateMutability": "view",
      "type": "function"
    },
    {
      "inputs": [
        {
          "internalType": "uint256",
          "name": "_scinionId",
          "type": "uint256"
        }
      ],
      "name": "completarInvestigacion",
      "outputs": [],
      "stateMutability": "nonpayable",
      "type": "function"
    },
    {
      "inputs": [
        {
          "internalType": "uint256",
          "name": "_scinionId",
          "type": "uint256"
        }
      ],
      "name": "dormir",
      "outputs": [],
      "stateMutability": "nonpayable",
      "type": "function"
    },
    {
      "inputs": [],
      "name": "getDummyeScinionData",
      "outputs": [
        {
          "internalType": "string",
          "name": "name",
          "type": "string"
        },
        {
          "internalType": "uint16",
          "name": "level",
          "type": "uint16"
        },
        {
          "internalType": "uint8",
          "name": "energia",
          "type": "uint8"
        }
      ],
      "stateMutability": "pure",
      "type": "function"
    }
  ],
  "bytecode": "0x6080604052662386f26fc10000600a5566038d7ea4c68000600d553480156200002757600080fd5b506040518060400160405280600a81526020017f5363696e696f6e4e4654000000000000000000000000000000000000000000008152506040518060400160405280600481526020017f5343544b00000000000000000000000000000000000000000000000000000000815250620000b4620000a86200017d60201b60201c565b6200018560201b60201c565b8160019080519060200190620000cc92919062000249565b508060029080519060200190620000e592919062000249565b50505033600b60006101000a81548173ffffffffffffffffffffffffffffffffffffffff021916908373ffffffffffffffffffffffffffffffffffffffff1602179055506040518060400160405280601581526020017f68747470733a2f2f697066732e696f2f697066732f0000000000000000000000815250600890805190602001906200017692919062000249565b506200035d565b600033905090565b60008060009054906101000a900473ffffffffffffffffffffffffffffffffffffffff169050816000806101000a81548173ffffffffffffffffffffffffffffffffffffffff021916908373ffffffffffffffffffffffffffffffffffffffff1602179055508173ffffffffffffffffffffffffffffffffffffffff168173ffffffffffffffffffffffffffffffffffffffff167f8be0079c531659141344cd1fd0a4f28419497f9722a3daafe3b4186f6b6457e060405160405180910390a35050565b828054620002579062000328565b90600052602060002090601f0160209004810192826200027b5760008555620002c7565b82601f106200029657805160ff1916838001178555620002c7565b82800160010185558215620002c7579182015b82811115620002c6578251825591602001919060010190620002a9565b5b509050620002d69190620002da565b5090565b5b80821115620002f5576000816000905550600101620002db565b5090565b7f4e487b7100000000000000000000000000000000000000000000000000000000600052602260045260246000fd5b600060028204905060018216806200034157607f821691505b602082108103620003575762000356620002f9565b5b50919050565b6141bf806200036d6000396000f3fe6080604052600436106101b75760003560e01c8063715018a6116100ec578063c87b56dd1161008a578063e9dcd0db11610064578063e9dcd0db14610605578063edc0db641461062e578063f2fde38b1461065e578063f6280b5914610687576101b7565b8063c87b56dd14610562578063ccf670f81461059f578063e985e9c5146105c8576101b7565b806395d89b41116100c657806395d89b41146104c9578063a22cb465146104f4578063b88d4fde1461051d578063c39cbef114610546576101b7565b8063715018a61461045c578063893d20e8146104735780638da5cb5b1461049e576101b7565b806355f804b311610159578063628104d611610133578063628104d6146103775780636352211e146103a05780636da50160146103dd57806370a082311461041f576101b7565b806355f804b3146103095780635ea8cd12146103325780635faf28801461035b576101b7565b8063081812fc11610195578063081812fc14610251578063095ea7b31461028e57806323b872dd146102b757806342842e0e146102e0576101b7565b806301ffc9a7146101bc5780630212e69c146101f957806306fdde0314610226575b600080fd5b3480156101c857600080fd5b506101e360048036038101906101de9190612a61565b6106b2565b6040516101f09190612aa9565b60405180910390f35b34801561020557600080fd5b5061020e610794565b60405161021d93929190612b96565b60405180910390f35b34801561023257600080fd5b5061023b610880565b6040516102489190612bd4565b60405180910390f35b34801561025d57600080fd5b5061027860048036038101906102739190612c2c565b610912565b6040516102859190612c9a565b60405180910390f35b34801561029a57600080fd5b506102b560048036038101906102b09190612ce1565b610997565b005b3480156102c357600080fd5b506102de60048036038101906102d99190612d21565b610aae565b005b3480156102ec57600080fd5b5061030760048036038101906103029190612d21565b610b0e565b005b34801561031557600080fd5b50610330600480360381019061032b9190612ea9565b610b2e565b005b34801561033e57600080fd5b5061035960048036038101906103549190612c2c565b610bc4565b005b61037560048036038101906103709190612ef2565b610c4a565b005b34801561038357600080fd5b5061039e60048036038101906103999190612c2c565b610d11565b005b3480156103ac57600080fd5b506103c760048036038101906103c29190612c2c565b610dba565b6040516103d49190612c9a565b60405180910390f35b3480156103e957600080fd5b5061040460048036038101906103ff9190612c2c565b610e6b565b60405161041696959493929190612f41565b60405180910390f35b34801561042b57600080fd5b5061044660048036038101906104419190612fb0565b610fe2565b6040516104539190612fdd565b60405180910390f35b34801561046857600080fd5b50610471611099565b005b34801561047f57600080fd5b50610488611121565b6040516104959190612c9a565b60405180910390f35b3480156104aa57600080fd5b506104b361114b565b6040516104c09190612c9a565b60405180910390f35b3480156104d557600080fd5b506104de611174565b6040516104eb9190612bd4565b60405180910390f35b34801561050057600080fd5b5061051b60048036038101906105169190613024565b611206565b005b34801561052957600080fd5b50610544600480360381019061053f9190613105565b61121c565b005b610560600480360381019061055b91906131e8565b61127e565b005b34801561056e57600080fd5b5061058960048036038101906105849190612c2c565b611351565b6040516105969190612bd4565b60405180910390f35b3480156105ab57600080fd5b506105c660048036038101906105c19190612c2c565b6114bb565b005b3480156105d457600080fd5b506105ef60048036038101906105ea9190613248565b611541565b6040516105fc9190612aa9565b60405180910390f35b34801561061157600080fd5b5061062c60048036038101906106279190612c2c565b6115d5565b005b61064860048036038101906106439190613288565b61165f565b6040516106559190612fdd565b60405180910390f35b34801561066a57600080fd5b5061068560048036038101906106809190612fb0565b6116f1565b005b34801561069357600080fd5b5061069c6117e8565b6040516106a991906134c9565b60405180910390f35b60007f80ac58cd000000000000000000000000000000000000000000000000000000007bffffffffffffffffffffffffffffffffffffffffffffffffffffffff1916827bffffffffffffffffffffffffffffffffffffffffffffffffffffffff1916148061077d57507f5b5e139f000000000000000000000000000000000000000000000000000000007bffffffffffffffffffffffffffffffffffffffffffffffffffffffff1916827bffffffffffffffffffffffffffffffffffffffffffffffffffffffff1916145b8061078d575061078c82611a12565b5b9050919050565b60606000806107a161288f565b6040518060400160405280600481526020017f416c62610000000000000000000000000000000000000000000000000000000081525081600001819052506040518060400160405280600c81526020017f4275656e6173206d616e6f73000000000000000000000000000000000000000081525081602001819052506212d688816080018181525050600a816060019060ff16908160ff16815250506001816040019061ffff16908161ffff168152505068056d2afeb01f8290048160a001818152505080600001518160400151826060015193509350935050909192565b60606001805461088f9061351a565b80601f01602080910402602001604051908101604052809291908181526020018280546108bb9061351a565b80156109085780601f106108dd57610100808354040283529160200191610908565b820191906000526020600020905b8154815290600101906020018083116108eb57829003601f168201915b5050505050905090565b600061091d82611a7c565b61095c576040517f08c379a0000000000000000000000000000000000000000000000000000000008152600401610953906135bd565b60405180910390fd5b6005600083815260200190815260200160002060009054906101000a900473ffffffffffffffffffffffffffffffffffffffff169050919050565b60006109a282610dba565b90508073ffffffffffffffffffffffffffffffffffffffff168373ffffffffffffffffffffffffffffffffffffffff1603610a12576040517f08c379a0000000000000000000000000000000000000000000000000000000008152600401610a099061364f565b60405180910390fd5b8073ffffffffffffffffffffffffffffffffffffffff16610a31611ae8565b73ffffffffffffffffffffffffffffffffffffffff161480610a605750610a5f81610a5a611ae8565b611541565b5b610a9f576040517f08c379a0000000000000000000000000000000000000000000000000000000008152600401610a96906136e1565b60405180910390fd5b610aa98383611af0565b505050565b610abf610ab9611ae8565b82611ba9565b610afe576040517f08c379a0000000000000000000000000000000000000000000000000000000008152600401610af590613773565b60405180910390fd5b610b09838383611c87565b505050565b610b298383836040518060200160405280600081525061121c565b505050565b610b36611ae8565b73ffffffffffffffffffffffffffffffffffffffff16610b5461114b565b73ffffffffffffffffffffffffffffffffffffffff1614610baa576040517f08c379a0000000000000000000000000000000000000000000000000000000008152600401610ba1906137df565b60405180910390fd5b8060089080519060200190610bc09291906128cc565b5050565b610bcc611ae8565b73ffffffffffffffffffffffffffffffffffffffff16610bea61114b565b73ffffffffffffffffffffffffffffffffffffffff1614610c40576040517f08c379a0000000000000000000000000000000000000000000000000000000008152600401610c37906137df565b60405180910390fd5b80600a8190555050565b60148281600c8281548110610c6257610c616137ff565b5b906000526020600020906005020160020160009054906101000a900461ffff1661ffff161015610c9157600080fd5b83610c9b81610dba565b73ffffffffffffffffffffffffffffffffffffffff163373ffffffffffffffffffffffffffffffffffffffff1614610cd257600080fd5b600d543414610ce057600080fd5b83600c8681548110610cf557610cf46137ff565b5b9060005260206000209060050201600301819055505050505050565b80610d1b81610dba565b73ffffffffffffffffffffffffffffffffffffffff163373ffffffffffffffffffffffffffffffffffffffff1614610d5257600080fd5b6000600c8381548110610d6857610d676137ff565b5b9060005260206000209060050201905060018160020160009054906101000a900461ffff16610d97919061385d565b8160020160006101000a81548161ffff021916908361ffff160217905550505050565b6000806003600084815260200190815260200160002060009054906101000a900473ffffffffffffffffffffffffffffffffffffffff169050600073ffffffffffffffffffffffffffffffffffffffff168173ffffffffffffffffffffffffffffffffffffffff1603610e62576040517f08c379a0000000000000000000000000000000000000000000000000000000008152600401610e5990613907565b60405180910390fd5b80915050919050565b600c8181548110610e7b57600080fd5b9060005260206000209060050201600091509050806000018054610e9e9061351a565b80601f0160208091040260200160405190810160405280929190818152602001828054610eca9061351a565b8015610f175780601f10610eec57610100808354040283529160200191610f17565b820191906000526020600020905b815481529060010190602001808311610efa57829003601f168201915b505050505090806001018054610f2c9061351a565b80601f0160208091040260200160405190810160405280929190818152602001828054610f589061351a565b8015610fa55780601f10610f7a57610100808354040283529160200191610fa5565b820191906000526020600020905b815481529060010190602001808311610f8857829003601f168201915b5050505050908060020160009054906101000a900461ffff16908060020160029054906101000a900460ff16908060030154908060040154905086565b60008073ffffffffffffffffffffffffffffffffffffffff168273ffffffffffffffffffffffffffffffffffffffff1603611052576040517f08c379a000000000000000000000000000000000000000000000000000000000815260040161104990613999565b60405180910390fd5b600460008373ffffffffffffffffffffffffffffffffffffffff1673ffffffffffffffffffffffffffffffffffffffff168152602001908152602001600020549050919050565b6110a1611ae8565b73ffffffffffffffffffffffffffffffffffffffff166110bf61114b565b73ffffffffffffffffffffffffffffffffffffffff1614611115576040517f08c379a000000000000000000000000000000000000000000000000000000000815260040161110c906137df565b60405180910390fd5b61111f6000611eed565b565b6000600b60009054906101000a900473ffffffffffffffffffffffffffffffffffffffff16905090565b60008060009054906101000a900473ffffffffffffffffffffffffffffffffffffffff16905090565b6060600280546111839061351a565b80601f01602080910402602001604051908101604052809291908181526020018280546111af9061351a565b80156111fc5780601f106111d1576101008083540402835291602001916111fc565b820191906000526020600020905b8154815290600101906020018083116111df57829003601f168201915b5050505050905090565b611218611211611ae8565b8383611fb1565b5050565b61122d611227611ae8565b83611ba9565b61126c576040517f08c379a000000000000000000000000000000000000000000000000000000000815260040161126390613773565b60405180910390fd5b6112788484848461211d565b50505050565b60028381600c8281548110611296576112956137ff565b5b906000526020600020906005020160020160009054906101000a900461ffff1661ffff1610156112c557600080fd5b846112cf81610dba565b73ffffffffffffffffffffffffffffffffffffffff163373ffffffffffffffffffffffffffffffffffffffff161461130657600080fd5b600d54341461131457600080fd5b8484600c888154811061132a576113296137ff565b5b90600052602060002090600502016000019190611348929190612952565b50505050505050565b606061135c82611a7c565b61139b576040517f08c379a000000000000000000000000000000000000000000000000000000000815260040161139290613a2b565b60405180910390fd5b60006009600084815260200190815260200160002080546113bb9061351a565b80601f01602080910402602001604051908101604052809291908181526020018280546113e79061351a565b80156114345780601f1061140957610100808354040283529160200191611434565b820191906000526020600020905b81548152906001019060200180831161141757829003601f168201915b505050505090506000611445612179565b9050600081510361145a5781925050506114b6565b60008251111561148f578082604051602001611477929190613a87565b604051602081830303815290604052925050506114b6565b80846040516020016114a2929190613acc565b604051602081830303815290604052925050505b919050565b6114c3611ae8565b73ffffffffffffffffffffffffffffffffffffffff166114e161114b565b73ffffffffffffffffffffffffffffffffffffffff1614611537576040517f08c379a000000000000000000000000000000000000000000000000000000000815260040161152e906137df565b60405180910390fd5b80600d8190555050565b6000600660008473ffffffffffffffffffffffffffffffffffffffff1673ffffffffffffffffffffffffffffffffffffffff16815260200190815260200160002060008373ffffffffffffffffffffffffffffffffffffffff1673ffffffffffffffffffffffffffffffffffffffff16815260200190815260200160002060009054906101000a900460ff16905092915050565b806115df81610dba565b73ffffffffffffffffffffffffffffffffffffffff163373ffffffffffffffffffffffffffffffffffffffff161461161657600080fd5b6000600c838154811061162c5761162b6137ff565b5b90600052602060002090600502019050600a8160020160026101000a81548160ff021916908360ff160217905550505050565b60008061166b8461220b565b9050803373ffffffffffffffffffffffffffffffffffffffff16600073ffffffffffffffffffffffffffffffffffffffff167fddf252ad1be2c89b69c2b068fc378daa952ba7f163c4a11628f55a4df523b3ef60405160405180910390a46116d33382612393565b6116dd81846123b1565b6116e681611351565b508091505092915050565b6116f9611ae8565b73ffffffffffffffffffffffffffffffffffffffff1661171761114b565b73ffffffffffffffffffffffffffffffffffffffff161461176d576040517f08c379a0000000000000000000000000000000000000000000000000000000008152600401611764906137df565b60405180910390fd5b600073ffffffffffffffffffffffffffffffffffffffff168173ffffffffffffffffffffffffffffffffffffffff16036117dc576040517f08c379a00000000000000000000000000000000000000000000000000000000081526004016117d390613b66565b60405180910390fd5b6117e581611eed565b50565b60608060005b600c80549050811015611a0a573373ffffffffffffffffffffffffffffffffffffffff1661181b82610dba565b73ffffffffffffffffffffffffffffffffffffffff16036119f757600c818154811061184a576118496137ff565b5b90600052602060002090600502016040518060c00160405290816000820180546118739061351a565b80601f016020809104026020016040519081016040528092919081815260200182805461189f9061351a565b80156118ec5780601f106118c1576101008083540402835291602001916118ec565b820191906000526020600020905b8154815290600101906020018083116118cf57829003601f168201915b505050505081526020016001820180546119059061351a565b80601f01602080910402602001604051908101604052809291908181526020018280546119319061351a565b801561197e5780601f106119535761010080835404028352916020019161197e565b820191906000526020600020905b81548152906001019060200180831161196157829003601f168201915b505050505081526020016002820160009054906101000a900461ffff1661ffff1661ffff1681526020016002820160029054906101000a900460ff1660ff1660ff168152602001600382015481526020016004820154815250508282815181106119eb576119ea6137ff565b5b60200260200101819052505b8080611a0290613b86565b9150506117ee565b508091505090565b60007f01ffc9a7000000000000000000000000000000000000000000000000000000007bffffffffffffffffffffffffffffffffffffffffffffffffffffffff1916827bffffffffffffffffffffffffffffffffffffffffffffffffffffffff1916149050919050565b60008073ffffffffffffffffffffffffffffffffffffffff166003600084815260200190815260200160002060009054906101000a900473ffffffffffffffffffffffffffffffffffffffff1673ffffffffffffffffffffffffffffffffffffffff1614159050919050565b600033905090565b816005600083815260200190815260200160002060006101000a81548173ffffffffffffffffffffffffffffffffffffffff021916908373ffffffffffffffffffffffffffffffffffffffff160217905550808273ffffffffffffffffffffffffffffffffffffffff16611b6383610dba565b73ffffffffffffffffffffffffffffffffffffffff167f8c5be1e5ebec7d5bd14f71427d1e84f3dd0314c0f7b2291e5b200ac8c7c3b92560405160405180910390a45050565b6000611bb482611a7c565b611bf3576040517f08c379a0000000000000000000000000000000000000000000000000000000008152600401611bea90613c40565b60405180910390fd5b6000611bfe83610dba565b90508073ffffffffffffffffffffffffffffffffffffffff168473ffffffffffffffffffffffffffffffffffffffff161480611c6d57508373ffffffffffffffffffffffffffffffffffffffff16611c5584610912565b73ffffffffffffffffffffffffffffffffffffffff16145b80611c7e5750611c7d8185611541565b5b91505092915050565b8273ffffffffffffffffffffffffffffffffffffffff16611ca782610dba565b73ffffffffffffffffffffffffffffffffffffffff1614611cfd576040517f08c379a0000000000000000000000000000000000000000000000000000000008152600401611cf490613cd2565b60405180910390fd5b600073ffffffffffffffffffffffffffffffffffffffff168273ffffffffffffffffffffffffffffffffffffffff1603611d6c576040517f08c379a0000000000000000000000000000000000000000000000000000000008152600401611d6390613d64565b60405180910390fd5b611d77838383612425565b611d82600082611af0565b6001600460008573ffffffffffffffffffffffffffffffffffffffff1673ffffffffffffffffffffffffffffffffffffffff1681526020019081526020016000206000828254611dd29190613d84565b925050819055506001600460008473ffffffffffffffffffffffffffffffffffffffff1673ffffffffffffffffffffffffffffffffffffffff1681526020019081526020016000206000828254611e299190613db8565b92505081905550816003600083815260200190815260200160002060006101000a81548173ffffffffffffffffffffffffffffffffffffffff021916908373ffffffffffffffffffffffffffffffffffffffff160217905550808273ffffffffffffffffffffffffffffffffffffffff168473ffffffffffffffffffffffffffffffffffffffff167fddf252ad1be2c89b69c2b068fc378daa952ba7f163c4a11628f55a4df523b3ef60405160405180910390a4611ee883838361242a565b505050565b60008060009054906101000a900473ffffffffffffffffffffffffffffffffffffffff169050816000806101000a81548173ffffffffffffffffffffffffffffffffffffffff021916908373ffffffffffffffffffffffffffffffffffffffff1602179055508173ffffffffffffffffffffffffffffffffffffffff168173ffffffffffffffffffffffffffffffffffffffff167f8be0079c531659141344cd1fd0a4f28419497f9722a3daafe3b4186f6b6457e060405160405180910390a35050565b8173ffffffffffffffffffffffffffffffffffffffff168373ffffffffffffffffffffffffffffffffffffffff160361201f576040517f08c379a000000000000000000000000000000000000000000000000000000000815260040161201690613e5a565b60405180910390fd5b80600660008573ffffffffffffffffffffffffffffffffffffffff1673ffffffffffffffffffffffffffffffffffffffff16815260200190815260200160002060008473ffffffffffffffffffffffffffffffffffffffff1673ffffffffffffffffffffffffffffffffffffffff16815260200190815260200160002060006101000a81548160ff0219169083151502179055508173ffffffffffffffffffffffffffffffffffffffff168373ffffffffffffffffffffffffffffffffffffffff167f17307eab39ab6107e8899845ad3d59bd9653f200f220920489ca2b5937696c31836040516121109190612aa9565b60405180910390a3505050565b612128848484611c87565b6121348484848461242f565b612173576040517f08c379a000000000000000000000000000000000000000000000000000000000815260040161216a90613eec565b60405180910390fd5b50505050565b6060600880546121889061351a565b80601f01602080910402602001604051908101604052809291908181526020018280546121b49061351a565b80156122015780601f106121d657610100808354040283529160200191612201565b820191906000526020600020905b8154815290600101906020018083116121e457829003601f168201915b5050505050905090565b600061221760076125b6565b600061222360076125cc565b905061222d61288f565b83816000018190525061223e6125da565b816020018190525061224e612617565b816080018181525050600a816060019060ff16908160ff16815250506001816040019061ffff16908161ffff1681525050612287612623565b8160a0018181525050600c81908060018154018082558091505060019003906000526020600020906005020160009091909190915060008201518160000190805190602001906122d89291906128cc565b5060208201518160010190805190602001906122f59291906128cc565b5060408201518160020160006101000a81548161ffff021916908361ffff16021790555060608201518160020160026101000a81548160ff021916908360ff1602179055506080820151816003015560a0820151816004015550507f806638a1fc90cec1d905c742ef32e76004dcce146ea274170b3018708eec5b2f8285604051612381929190613f0c565b60405180910390a18192505050919050565b6123ad828260405180602001604052806000815250612638565b5050565b6123ba82611a7c565b6123f9576040517f08c379a00000000000000000000000000000000000000000000000000000000081526004016123f090613fae565b60405180910390fd5b806009600084815260200190815260200160002090805190602001906124209291906128cc565b505050565b505050565b505050565b60006124508473ffffffffffffffffffffffffffffffffffffffff16612693565b156125a9578373ffffffffffffffffffffffffffffffffffffffff1663150b7a02612479611ae8565b8786866040518563ffffffff1660e01b815260040161249b9493929190614023565b6020604051808303816000875af19250505080156124d757506040513d601f19601f820116820180604052508101906124d49190614084565b60015b612559573d8060008114612507576040519150601f19603f3d011682016040523d82523d6000602084013e61250c565b606091505b506000815103612551576040517f08c379a000000000000000000000000000000000000000000000000000000000815260040161254890613eec565b60405180910390fd5b805181602001fd5b63150b7a0260e01b7bffffffffffffffffffffffffffffffffffffffffffffffffffffffff1916817bffffffffffffffffffffffffffffffffffffffffffffffffffffffff1916149150506125ae565b600190505b949350505050565b6001816000016000828254019250508190555050565b600081600001549050919050565b60606040518060400160405280600781526020017f5363696e696f6e00000000000000000000000000000000000000000000000000815250905090565b60006306059a01905090565b60006c014370dcb3ba2d04989a029004905090565b61264283836126b6565b61264f600084848461242f565b61268e576040517f08c379a000000000000000000000000000000000000000000000000000000000815260040161268590613eec565b60405180910390fd5b505050565b6000808273ffffffffffffffffffffffffffffffffffffffff163b119050919050565b600073ffffffffffffffffffffffffffffffffffffffff168273ffffffffffffffffffffffffffffffffffffffff1603612725576040517f08c379a000000000000000000000000000000000000000000000000000000000815260040161271c906140fd565b60405180910390fd5b61272e81611a7c565b1561276e576040517f08c379a000000000000000000000000000000000000000000000000000000000815260040161276590614169565b60405180910390fd5b61277a60008383612425565b6001600460008473ffffffffffffffffffffffffffffffffffffffff1673ffffffffffffffffffffffffffffffffffffffff16815260200190815260200160002060008282546127ca9190613db8565b92505081905550816003600083815260200190815260200160002060006101000a81548173ffffffffffffffffffffffffffffffffffffffff021916908373ffffffffffffffffffffffffffffffffffffffff160217905550808273ffffffffffffffffffffffffffffffffffffffff16600073ffffffffffffffffffffffffffffffffffffffff167fddf252ad1be2c89b69c2b068fc378daa952ba7f163c4a11628f55a4df523b3ef60405160405180910390a461288b6000838361242a565b5050565b6040518060c001604052806060815260200160608152602001600061ffff168152602001600060ff16815260200160008152602001600081525090565b8280546128d89061351a565b90600052602060002090601f0160209004810192826128fa5760008555612941565b82601f1061291357805160ff1916838001178555612941565b82800160010185558215612941579182015b82811115612940578251825591602001919060010190612925565b5b50905061294e91906129d8565b5090565b82805461295e9061351a565b90600052602060002090601f01602090048101928261298057600085556129c7565b82601f1061299957803560ff19168380011785556129c7565b828001600101855582156129c7579182015b828111156129c65782358255916020019190600101906129ab565b5b5090506129d491906129d8565b5090565b5b808211156129f15760008160009055506001016129d9565b5090565b6000604051905090565b600080fd5b600080fd5b60007fffffffff0000000000000000000000000000000000000000000000000000000082169050919050565b612a3e81612a09565b8114612a4957600080fd5b50565b600081359050612a5b81612a35565b92915050565b600060208284031215612a7757612a766129ff565b5b6000612a8584828501612a4c565b91505092915050565b60008115159050919050565b612aa381612a8e565b82525050565b6000602082019050612abe6000830184612a9a565b92915050565b600081519050919050565b600082825260208201905092915050565b60005b83811015612afe578082015181840152602081019050612ae3565b83811115612b0d576000848401525b50505050565b6000601f19601f8301169050919050565b6000612b2f82612ac4565b612b398185612acf565b9350612b49818560208601612ae0565b612b5281612b13565b840191505092915050565b600061ffff82169050919050565b612b7481612b5d565b82525050565b600060ff82169050919050565b612b9081612b7a565b82525050565b60006060820190508181036000830152612bb08186612b24565b9050612bbf6020830185612b6b565b612bcc6040830184612b87565b949350505050565b60006020820190508181036000830152612bee8184612b24565b905092915050565b6000819050919050565b612c0981612bf6565b8114612c1457600080fd5b50565b600081359050612c2681612c00565b92915050565b600060208284031215612c4257612c416129ff565b5b6000612c5084828501612c17565b91505092915050565b600073ffffffffffffffffffffffffffffffffffffffff82169050919050565b6000612c8482612c59565b9050919050565b612c9481612c79565b82525050565b6000602082019050612caf6000830184612c8b565b92915050565b612cbe81612c79565b8114612cc957600080fd5b50565b600081359050612cdb81612cb5565b92915050565b60008060408385031215612cf857612cf76129ff565b5b6000612d0685828601612ccc565b9250506020612d1785828601612c17565b9150509250929050565b600080600060608486031215612d3a57612d396129ff565b5b6000612d4886828701612ccc565b9350506020612d5986828701612ccc565b9250506040612d6a86828701612c17565b9150509250925092565b600080fd5b600080fd5b7f4e487b7100000000000000000000000000000000000000000000000000000000600052604160045260246000fd5b612db682612b13565b810181811067ffffffffffffffff82111715612dd557612dd4612d7e565b5b80604052505050565b6000612de86129f5565b9050612df48282612dad565b919050565b600067ffffffffffffffff821115612e1457612e13612d7e565b5b612e1d82612b13565b9050602081019050919050565b82818337600083830152505050565b6000612e4c612e4784612df9565b612dde565b905082815260208101848484011115612e6857612e67612d79565b5b612e73848285612e2a565b509392505050565b600082601f830112612e9057612e8f612d74565b5b8135612ea0848260208601612e39565b91505092915050565b600060208284031215612ebf57612ebe6129ff565b5b600082013567ffffffffffffffff811115612edd57612edc612a04565b5b612ee984828501612e7b565b91505092915050565b60008060408385031215612f0957612f086129ff565b5b6000612f1785828601612c17565b9250506020612f2885828601612c17565b9150509250929050565b612f3b81612bf6565b82525050565b600060c0820190508181036000830152612f5b8189612b24565b90508181036020830152612f6f8188612b24565b9050612f7e6040830187612b6b565b612f8b6060830186612b87565b612f986080830185612f32565b612fa560a0830184612f32565b979650505050505050565b600060208284031215612fc657612fc56129ff565b5b6000612fd484828501612ccc565b91505092915050565b6000602082019050612ff26000830184612f32565b92915050565b61300181612a8e565b811461300c57600080fd5b50565b60008135905061301e81612ff8565b92915050565b6000806040838503121561303b5761303a6129ff565b5b600061304985828601612ccc565b925050602061305a8582860161300f565b9150509250929050565b600067ffffffffffffffff82111561307f5761307e612d7e565b5b61308882612b13565b9050602081019050919050565b60006130a86130a384613064565b612dde565b9050828152602081018484840111156130c4576130c3612d79565b5b6130cf848285612e2a565b509392505050565b600082601f8301126130ec576130eb612d74565b5b81356130fc848260208601613095565b91505092915050565b6000806000806080858703121561311f5761311e6129ff565b5b600061312d87828801612ccc565b945050602061313e87828801612ccc565b935050604061314f87828801612c17565b925050606085013567ffffffffffffffff8111156131705761316f612a04565b5b61317c878288016130d7565b91505092959194509250565b600080fd5b600080fd5b60008083601f8401126131a8576131a7612d74565b5b8235905067ffffffffffffffff8111156131c5576131c4613188565b5b6020830191508360018202830111156131e1576131e061318d565b5b9250929050565b600080600060408486031215613201576132006129ff565b5b600061320f86828701612c17565b935050602084013567ffffffffffffffff8111156132305761322f612a04565b5b61323c86828701613192565b92509250509250925092565b6000806040838503121561325f5761325e6129ff565b5b600061326d85828601612ccc565b925050602061327e85828601612ccc565b9150509250929050565b6000806040838503121561329f5761329e6129ff565b5b600083013567ffffffffffffffff8111156132bd576132bc612a04565b5b6132c985828601612e7b565b925050602083013567ffffffffffffffff8111156132ea576132e9612a04565b5b6132f685828601612e7b565b9150509250929050565b600081519050919050565b600082825260208201905092915050565b6000819050602082019050919050565b600082825260208201905092915050565b600061334882612ac4565b613352818561332c565b9350613362818560208601612ae0565b61336b81612b13565b840191505092915050565b61337f81612b5d565b82525050565b61338e81612b7a565b82525050565b61339d81612bf6565b82525050565b600060c08301600083015184820360008601526133c0828261333d565b915050602083015184820360208601526133da828261333d565b91505060408301516133ef6040860182613376565b5060608301516134026060860182613385565b5060808301516134156080860182613394565b5060a083015161342860a0860182613394565b508091505092915050565b600061343f83836133a3565b905092915050565b6000602082019050919050565b600061345f82613300565b613469818561330b565b93508360208202850161347b8561331c565b8060005b858110156134b757848403895281516134988582613433565b94506134a383613447565b925060208a0199505060018101905061347f565b50829750879550505050505092915050565b600060208201905081810360008301526134e38184613454565b905092915050565b7f4e487b7100000000000000000000000000000000000000000000000000000000600052602260045260246000fd5b6000600282049050600182168061353257607f821691505b602082108103613545576135446134eb565b5b50919050565b7f4552433732313a20617070726f76656420717565727920666f72206e6f6e657860008201527f697374656e7420746f6b656e0000000000000000000000000000000000000000602082015250565b60006135a7602c83612acf565b91506135b28261354b565b604082019050919050565b600060208201905081810360008301526135d68161359a565b9050919050565b7f4552433732313a20617070726f76616c20746f2063757272656e74206f776e6560008201527f7200000000000000000000000000000000000000000000000000000000000000602082015250565b6000613639602183612acf565b9150613644826135dd565b604082019050919050565b600060208201905081810360008301526136688161362c565b9050919050565b7f4552433732313a20617070726f76652063616c6c6572206973206e6f74206f7760008201527f6e6572206e6f7220617070726f76656420666f7220616c6c0000000000000000602082015250565b60006136cb603883612acf565b91506136d68261366f565b604082019050919050565b600060208201905081810360008301526136fa816136be565b9050919050565b7f4552433732313a207472616e736665722063616c6c6572206973206e6f74206f60008201527f776e6572206e6f7220617070726f766564000000000000000000000000000000602082015250565b600061375d603183612acf565b915061376882613701565b604082019050919050565b6000602082019050818103600083015261378c81613750565b9050919050565b7f4f776e61626c653a2063616c6c6572206973206e6f7420746865206f776e6572600082015250565b60006137c9602083612acf565b91506137d482613793565b602082019050919050565b600060208201905081810360008301526137f8816137bc565b9050919050565b7f4e487b7100000000000000000000000000000000000000000000000000000000600052603260045260246000fd5b7f4e487b7100000000000000000000000000000000000000000000000000000000600052601160045260246000fd5b600061386882612b5d565b915061387383612b5d565b92508261ffff0382111561388a5761388961382e565b5b828201905092915050565b7f4552433732313a206f776e657220717565727920666f72206e6f6e657869737460008201527f656e7420746f6b656e0000000000000000000000000000000000000000000000602082015250565b60006138f1602983612acf565b91506138fc82613895565b604082019050919050565b60006020820190508181036000830152613920816138e4565b9050919050565b7f4552433732313a2062616c616e636520717565727920666f7220746865207a6560008201527f726f206164647265737300000000000000000000000000000000000000000000602082015250565b6000613983602a83612acf565b915061398e82613927565b604082019050919050565b600060208201905081810360008301526139b281613976565b9050919050565b7f4552433732314d657461646174613a2055524920717565727920666f72206e6f60008201527f6e6578697374656e7420746f6b656e0000000000000000000000000000000000602082015250565b6000613a15602f83612acf565b9150613a20826139b9565b604082019050919050565b60006020820190508181036000830152613a4481613a08565b9050919050565b600081905092915050565b6000613a6182612ac4565b613a6b8185613a4b565b9350613a7b818560208601612ae0565b80840191505092915050565b6000613a938285613a56565b9150613a9f8284613a56565b91508190509392505050565b6000819050919050565b613ac6613ac182612bf6565b613aab565b82525050565b6000613ad88285613a56565b9150613ae48284613ab5565b6020820191508190509392505050565b7f4f776e61626c653a206e6577206f776e657220697320746865207a65726f206160008201527f6464726573730000000000000000000000000000000000000000000000000000602082015250565b6000613b50602683612acf565b9150613b5b82613af4565b604082019050919050565b60006020820190508181036000830152613b7f81613b43565b9050919050565b6000613b9182612bf6565b91507fffffffffffffffffffffffffffffffffffffffffffffffffffffffffffffffff8203613bc357613bc261382e565b5b600182019050919050565b7f4552433732313a206f70657261746f7220717565727920666f72206e6f6e657860008201527f697374656e7420746f6b656e0000000000000000000000000000000000000000602082015250565b6000613c2a602c83612acf565b9150613c3582613bce565b604082019050919050565b60006020820190508181036000830152613c5981613c1d565b9050919050565b7f4552433732313a207472616e736665722066726f6d20696e636f72726563742060008201527f6f776e6572000000000000000000000000000000000000000000000000000000602082015250565b6000613cbc602583612acf565b9150613cc782613c60565b604082019050919050565b60006020820190508181036000830152613ceb81613caf565b9050919050565b7f4552433732313a207472616e7366657220746f20746865207a65726f2061646460008201527f7265737300000000000000000000000000000000000000000000000000000000602082015250565b6000613d4e602483612acf565b9150613d5982613cf2565b604082019050919050565b60006020820190508181036000830152613d7d81613d41565b9050919050565b6000613d8f82612bf6565b9150613d9a83612bf6565b925082821015613dad57613dac61382e565b5b828203905092915050565b6000613dc382612bf6565b9150613dce83612bf6565b9250827fffffffffffffffffffffffffffffffffffffffffffffffffffffffffffffffff03821115613e0357613e0261382e565b5b828201905092915050565b7f4552433732313a20617070726f766520746f2063616c6c657200000000000000600082015250565b6000613e44601983612acf565b9150613e4f82613e0e565b602082019050919050565b60006020820190508181036000830152613e7381613e37565b9050919050565b7f4552433732313a207472616e7366657220746f206e6f6e20455243373231526560008201527f63656976657220696d706c656d656e7465720000000000000000000000000000602082015250565b6000613ed6603283612acf565b9150613ee182613e7a565b604082019050919050565b60006020820190508181036000830152613f0581613ec9565b9050919050565b6000604082019050613f216000830185612f32565b8181036020830152613f338184612b24565b90509392505050565b7f4552433732314d657461646174613a2055524920736574206f66206e6f6e657860008201527f697374656e7420746f6b656e0000000000000000000000000000000000000000602082015250565b6000613f98602c83612acf565b9150613fa382613f3c565b604082019050919050565b60006020820190508181036000830152613fc781613f8b565b9050919050565b600081519050919050565b600082825260208201905092915050565b6000613ff582613fce565b613fff8185613fd9565b935061400f818560208601612ae0565b61401881612b13565b840191505092915050565b60006080820190506140386000830187612c8b565b6140456020830186612c8b565b6140526040830185612f32565b81810360608301526140648184613fea565b905095945050505050565b60008151905061407e81612a35565b92915050565b60006020828403121561409a576140996129ff565b5b60006140a88482850161406f565b91505092915050565b7f4552433732313a206d696e7420746f20746865207a65726f2061646472657373600082015250565b60006140e7602083612acf565b91506140f2826140b1565b602082019050919050565b60006020820190508181036000830152614116816140da565b9050919050565b7f4552433732313a20746f6b656e20616c7265616479206d696e74656400000000600082015250565b6000614153601c83612acf565b915061415e8261411d565b602082019050919050565b6000602082019050818103600083015261418281614146565b905091905056fea26469706673582212205333a16dde4fcf26ea48e29c93dd74085a0599880f61419f011b21a75551035a64736f6c634300080d0033",
  "immutableReferences": {},
  "source": "pragma solidity ^0.8.0;\n\nimport \"./scinionfactory.sol\";\n\n\ncontract ScinionHelper is ScinionFactory {\n\n     uint levelUpFee = 0.001 ether;\n\n\n    function setLevelUpFee(uint _fee) external onlyOwner {\n        levelUpFee = _fee;\n    }\n\n    modifier aboveLevel(uint _level, uint _scinionId) {\n        require(scinions[_scinionId].level >= _level);\n         _;\n    }\n      \n    \n    function changeName(uint _scinionId, string calldata _newName) external payable aboveLevel(2, _scinionId) onlyOwnerOf(_scinionId) {\n        require(msg.value == levelUpFee);\n        scinions[_scinionId].name = _newName;\n    }\n\n    function changeDna(uint _scinionId, uint _newDna) external payable aboveLevel(20, _scinionId) onlyOwnerOf(_scinionId) {\n        require(msg.value == levelUpFee);\n        scinions[_scinionId].dna = _newDna;\n    }\n\n    function getScinionsByOwner() public view returns(Scinion[] memory) {\n        Scinion[] memory scinionsByOwner;\n        for (uint i = 0; i < scinions.length; i++) {\n            if (ownerOf(i)==msg.sender) {\n                scinionsByOwner[i]=scinions[i];\n            }\n        }    \n        return scinionsByOwner;\n    }\n\n    // TODO: develop functionality\n    function completarInvestigacion(uint _scinionId) public onlyOwnerOf(_scinionId) {\n        Scinion storage scinionSelected = scinions[_scinionId];\n        scinionSelected.level = scinionSelected.level+1;\n    }\n\n\n    function dormir(uint _scinionId) public onlyOwnerOf(_scinionId) {\n        Scinion storage scinionSelected = scinions[_scinionId];\n        scinionSelected.energia = 10;\n    }\n\n    function getDummyeScinionData() external pure returns(string memory name, uint16 level, uint8 energia){\n        Scinion memory newScinion;\n        newScinion.name = \"Alba\";\n        newScinion.scinionType = \"Buenas manos\";\n        newScinion.dna = 1234568;\n        newScinion.energia = 10;\n        newScinion.level = 1;\n        newScinion.habilities = 100100100100100100100;\n        return (newScinion.name, newScinion.level, newScinion.energia);\n\n    }\n\n}",
  "sourcePath": "/Users/albateixidovillanueva/Desktop/scinions/contracts/scinionhelper.sol",
  "compiler": {
    "name": "solc",
    "version": "0.8.13+commit.abaa5c0e.Emscripten.clang"
  },
  "schemaVersion": "3.4.6",
  "updatedAt": "2022-04-29T13:30:53.745Z",
  "devdoc": {
    "kind": "dev",
    "methods": {
      "approve(address,uint256)": {
        "details": "See {IERC721-approve}."
      },
      "balanceOf(address)": {
        "details": "See {IERC721-balanceOf}."
      },
      "getApproved(uint256)": {
        "details": "See {IERC721-getApproved}."
      },
      "isApprovedForAll(address,address)": {
        "details": "See {IERC721-isApprovedForAll}."
      },
      "name()": {
        "details": "See {IERC721Metadata-name}."
      },
      "owner()": {
        "details": "Returns the address of the current owner."
      },
      "ownerOf(uint256)": {
        "details": "See {IERC721-ownerOf}."
      },
      "renounceOwnership()": {
        "details": "Leaves the contract without owner. It will not be possible to call `onlyOwner` functions anymore. Can only be called by the current owner. NOTE: Renouncing ownership will leave the contract without an owner, thereby removing any functionality that is only available to the owner."
      },
      "safeTransferFrom(address,address,uint256)": {
        "details": "See {IERC721-safeTransferFrom}."
      },
      "safeTransferFrom(address,address,uint256,bytes)": {
        "details": "See {IERC721-safeTransferFrom}."
      },
      "setApprovalForAll(address,bool)": {
        "details": "See {IERC721-setApprovalForAll}."
      },
      "supportsInterface(bytes4)": {
        "details": "See {IERC165-supportsInterface}."
      },
      "symbol()": {
        "details": "See {IERC721Metadata-symbol}."
      },
      "tokenURI(uint256)": {
        "details": "See {IERC721Metadata-tokenURI}."
      },
      "transferFrom(address,address,uint256)": {
        "details": "See {IERC721-transferFrom}."
      },
      "transferOwnership(address)": {
        "details": "Transfers ownership of the contract to a new account (`newOwner`). Can only be called by the current owner."
      }
    },
    "version": 1
  },
  "userdoc": {
    "kind": "user",
    "methods": {},
    "version": 1
  }
}