{
  "contractName": "ScinionHelper",
  "abi": [
    {
      "anonymous": false,
      "inputs": [
        {
          "indexed": true,
          "internalType": "address",
          "name": "owner",
          "type": "address"
        },
        {
          "indexed": true,
          "internalType": "address",
          "name": "approved",
          "type": "address"
        },
        {
          "indexed": true,
          "internalType": "uint256",
          "name": "tokenId",
          "type": "uint256"
        }
      ],
      "name": "Approval",
      "type": "event"
    },
    {
      "anonymous": false,
      "inputs": [
        {
          "indexed": true,
          "internalType": "address",
          "name": "owner",
          "type": "address"
        },
        {
          "indexed": true,
          "internalType": "address",
          "name": "operator",
          "type": "address"
        },
        {
          "indexed": false,
          "internalType": "bool",
          "name": "approved",
          "type": "bool"
        }
      ],
      "name": "ApprovalForAll",
      "type": "event"
    },
    {
      "anonymous": false,
      "inputs": [
        {
          "indexed": false,
          "internalType": "uint256",
          "name": "scinionId",
          "type": "uint256"
        },
        {
          "indexed": false,
          "internalType": "string",
          "name": "name",
          "type": "string"
        },
        {
          "indexed": false,
          "internalType": "string",
          "name": "uri",
          "type": "string"
        }
      ],
      "name": "NewScinion",
      "type": "event"
    },
    {
      "anonymous": false,
      "inputs": [
        {
          "indexed": true,
          "internalType": "address",
          "name": "previousOwner",
          "type": "address"
        },
        {
          "indexed": true,
          "internalType": "address",
          "name": "newOwner",
          "type": "address"
        }
      ],
      "name": "OwnershipTransferred",
      "type": "event"
    },
    {
      "anonymous": false,
      "inputs": [
        {
          "indexed": true,
          "internalType": "address",
          "name": "from",
          "type": "address"
        },
        {
          "indexed": true,
          "internalType": "address",
          "name": "to",
          "type": "address"
        },
        {
          "indexed": true,
          "internalType": "uint256",
          "name": "tokenId",
          "type": "uint256"
        }
      ],
      "name": "Transfer",
      "type": "event"
    },
    {
      "inputs": [
        {
          "internalType": "address",
          "name": "to",
          "type": "address"
        },
        {
          "internalType": "uint256",
          "name": "tokenId",
          "type": "uint256"
        }
      ],
      "name": "approve",
      "outputs": [],
      "stateMutability": "nonpayable",
      "type": "function"
    },
    {
      "inputs": [
        {
          "internalType": "address",
          "name": "owner",
          "type": "address"
        }
      ],
      "name": "balanceOf",
      "outputs": [
        {
          "internalType": "uint256",
          "name": "",
          "type": "uint256"
        }
      ],
      "stateMutability": "view",
      "type": "function",
      "constant": true
    },
    {
      "inputs": [],
      "name": "getAllScinions",
      "outputs": [
        {
          "components": [
            {
              "internalType": "string",
              "name": "name",
              "type": "string"
            },
            {
              "internalType": "string",
              "name": "scinionType",
              "type": "string"
            },
            {
              "internalType": "uint16",
              "name": "level",
              "type": "uint16"
            },
            {
              "internalType": "uint8",
              "name": "energia",
              "type": "uint8"
            },
            {
              "internalType": "uint256",
              "name": "dna",
              "type": "uint256"
            },
            {
              "internalType": "uint256",
              "name": "habilities",
              "type": "uint256"
            }
          ],
          "internalType": "struct ScinionFactory.Scinion[]",
          "name": "",
          "type": "tuple[]"
        }
      ],
      "stateMutability": "view",
      "type": "function",
      "constant": true
    },
    {
      "inputs": [
        {
          "internalType": "uint256",
          "name": "tokenId",
          "type": "uint256"
        }
      ],
      "name": "getApproved",
      "outputs": [
        {
          "internalType": "address",
          "name": "",
          "type": "address"
        }
      ],
      "stateMutability": "view",
      "type": "function",
      "constant": true
    },
    {
      "inputs": [],
      "name": "getBalanceOfOwner",
      "outputs": [
        {
          "internalType": "uint256",
          "name": "numberOfScinions",
          "type": "uint256"
        }
      ],
      "stateMutability": "view",
      "type": "function",
      "constant": true
    },
    {
      "inputs": [],
      "name": "getOwner",
      "outputs": [
        {
          "internalType": "address",
          "name": "",
          "type": "address"
        }
      ],
      "stateMutability": "view",
      "type": "function",
      "constant": true
    },
    {
      "inputs": [],
      "name": "getScinionsByOwner",
      "outputs": [
        {
          "components": [
            {
              "internalType": "string",
              "name": "name",
              "type": "string"
            },
            {
              "internalType": "string",
              "name": "scinionType",
              "type": "string"
            },
            {
              "internalType": "uint16",
              "name": "level",
              "type": "uint16"
            },
            {
              "internalType": "uint8",
              "name": "energia",
              "type": "uint8"
            },
            {
              "internalType": "uint256",
              "name": "dna",
              "type": "uint256"
            },
            {
              "internalType": "uint256",
              "name": "habilities",
              "type": "uint256"
            }
          ],
          "internalType": "struct ScinionFactory.Scinion[]",
          "name": "",
          "type": "tuple[]"
        }
      ],
      "stateMutability": "view",
      "type": "function",
      "constant": true
    },
    {
      "inputs": [
        {
          "internalType": "address",
          "name": "owner",
          "type": "address"
        },
        {
          "internalType": "address",
          "name": "operator",
          "type": "address"
        }
      ],
      "name": "isApprovedForAll",
      "outputs": [
        {
          "internalType": "bool",
          "name": "",
          "type": "bool"
        }
      ],
      "stateMutability": "view",
      "type": "function",
      "constant": true
    },
    {
      "inputs": [
        {
          "internalType": "string",
          "name": "_name",
          "type": "string"
        }
      ],
      "name": "mintScinion",
      "outputs": [
        {
          "internalType": "uint256",
          "name": "id",
          "type": "uint256"
        }
      ],
      "stateMutability": "payable",
      "type": "function",
      "payable": true
    },
    {
      "inputs": [],
      "name": "name",
      "outputs": [
        {
          "internalType": "string",
          "name": "",
          "type": "string"
        }
      ],
      "stateMutability": "view",
      "type": "function",
      "constant": true
    },
    {
      "inputs": [],
      "name": "owner",
      "outputs": [
        {
          "internalType": "address",
          "name": "",
          "type": "address"
        }
      ],
      "stateMutability": "view",
      "type": "function",
      "constant": true
    },
    {
      "inputs": [
        {
          "internalType": "uint256",
          "name": "tokenId",
          "type": "uint256"
        }
      ],
      "name": "ownerOf",
      "outputs": [
        {
          "internalType": "address",
          "name": "",
          "type": "address"
        }
      ],
      "stateMutability": "view",
      "type": "function",
      "constant": true
    },
    {
      "inputs": [],
      "name": "renounceOwnership",
      "outputs": [],
      "stateMutability": "nonpayable",
      "type": "function"
    },
    {
      "inputs": [
        {
          "internalType": "address",
          "name": "from",
          "type": "address"
        },
        {
          "internalType": "address",
          "name": "to",
          "type": "address"
        },
        {
          "internalType": "uint256",
          "name": "tokenId",
          "type": "uint256"
        }
      ],
      "name": "safeTransferFrom",
      "outputs": [],
      "stateMutability": "nonpayable",
      "type": "function"
    },
    {
      "inputs": [
        {
          "internalType": "address",
          "name": "from",
          "type": "address"
        },
        {
          "internalType": "address",
          "name": "to",
          "type": "address"
        },
        {
          "internalType": "uint256",
          "name": "tokenId",
          "type": "uint256"
        },
        {
          "internalType": "bytes",
          "name": "_data",
          "type": "bytes"
        }
      ],
      "name": "safeTransferFrom",
      "outputs": [],
      "stateMutability": "nonpayable",
      "type": "function"
    },
    {
      "inputs": [
        {
          "internalType": "uint256",
          "name": "",
          "type": "uint256"
        }
      ],
      "name": "scinions",
      "outputs": [
        {
          "internalType": "string",
          "name": "name",
          "type": "string"
        },
        {
          "internalType": "string",
          "name": "scinionType",
          "type": "string"
        },
        {
          "internalType": "uint16",
          "name": "level",
          "type": "uint16"
        },
        {
          "internalType": "uint8",
          "name": "energia",
          "type": "uint8"
        },
        {
          "internalType": "uint256",
          "name": "dna",
          "type": "uint256"
        },
        {
          "internalType": "uint256",
          "name": "habilities",
          "type": "uint256"
        }
      ],
      "stateMutability": "view",
      "type": "function",
      "constant": true
    },
    {
      "inputs": [
        {
          "internalType": "address",
          "name": "operator",
          "type": "address"
        },
        {
          "internalType": "bool",
          "name": "approved",
          "type": "bool"
        }
      ],
      "name": "setApprovalForAll",
      "outputs": [],
      "stateMutability": "nonpayable",
      "type": "function"
    },
    {
      "inputs": [
        {
          "internalType": "string",
          "name": "baseURI_",
          "type": "string"
        }
      ],
      "name": "setBaseURI",
      "outputs": [],
      "stateMutability": "nonpayable",
      "type": "function"
    },
    {
      "inputs": [
        {
          "internalType": "uint256",
          "name": "_fee",
          "type": "uint256"
        }
      ],
      "name": "setMinPrice",
      "outputs": [],
      "stateMutability": "nonpayable",
      "type": "function"
    },
    {
      "inputs": [
        {
          "internalType": "bytes4",
          "name": "interfaceId",
          "type": "bytes4"
        }
      ],
      "name": "supportsInterface",
      "outputs": [
        {
          "internalType": "bool",
          "name": "",
          "type": "bool"
        }
      ],
      "stateMutability": "view",
      "type": "function",
      "constant": true
    },
    {
      "inputs": [],
      "name": "symbol",
      "outputs": [
        {
          "internalType": "string",
          "name": "",
          "type": "string"
        }
      ],
      "stateMutability": "view",
      "type": "function",
      "constant": true
    },
    {
      "inputs": [
        {
          "internalType": "uint256",
          "name": "tokenId",
          "type": "uint256"
        }
      ],
      "name": "tokenURI",
      "outputs": [
        {
          "internalType": "string",
          "name": "",
          "type": "string"
        }
      ],
      "stateMutability": "view",
      "type": "function",
      "constant": true
    },
    {
      "inputs": [
        {
          "internalType": "address",
          "name": "from",
          "type": "address"
        },
        {
          "internalType": "address",
          "name": "to",
          "type": "address"
        },
        {
          "internalType": "uint256",
          "name": "tokenId",
          "type": "uint256"
        }
      ],
      "name": "transferFrom",
      "outputs": [],
      "stateMutability": "nonpayable",
      "type": "function"
    },
    {
      "inputs": [
        {
          "internalType": "address",
          "name": "newOwner",
          "type": "address"
        }
      ],
      "name": "transferOwnership",
      "outputs": [],
      "stateMutability": "nonpayable",
      "type": "function"
    },
    {
      "inputs": [
        {
          "internalType": "uint256",
          "name": "_fee",
          "type": "uint256"
        }
      ],
      "name": "setLevelUpFee",
      "outputs": [],
      "stateMutability": "nonpayable",
      "type": "function"
    },
    {
      "inputs": [
        {
          "internalType": "uint256",
          "name": "_scinionId",
          "type": "uint256"
        },
        {
          "internalType": "string",
          "name": "_newName",
          "type": "string"
        }
      ],
      "name": "changeName",
      "outputs": [],
      "stateMutability": "payable",
      "type": "function",
      "payable": true
    },
    {
      "inputs": [
        {
          "internalType": "uint256",
          "name": "_scinionId",
          "type": "uint256"
        },
        {
          "internalType": "uint256",
          "name": "_newDna",
          "type": "uint256"
        }
      ],
      "name": "changeDna",
      "outputs": [],
      "stateMutability": "payable",
      "type": "function",
      "payable": true
    },
    {
      "inputs": [
        {
          "internalType": "uint256",
          "name": "_scinionId",
          "type": "uint256"
        }
      ],
      "name": "completeInvestigation",
      "outputs": [],
      "stateMutability": "nonpayable",
      "type": "function"
    },
    {
      "inputs": [
        {
          "internalType": "uint256",
          "name": "_scinionId",
          "type": "uint256"
        }
      ],
      "name": "sleep",
      "outputs": [],
      "stateMutability": "nonpayable",
      "type": "function"
    }
  ],
  "bytecode": "0x60806040526010600960006101000a81548160ff021916908360ff160217905550662386f26fc10000600b5566038d7ea4c68000600d553480156200004357600080fd5b506040518060400160405280600a81526020017f5363696e696f6e4e4654000000000000000000000000000000000000000000008152506040518060400160405280600481526020017f5343544b00000000000000000000000000000000000000000000000000000000815250620000d0620000c46200017d60201b60201c565b6200018560201b60201c565b8160019080519060200190620000e892919062000249565b5080600290805190602001906200010192919062000249565b50505033600c60006101000a81548173ffffffffffffffffffffffffffffffffffffffff021916908373ffffffffffffffffffffffffffffffffffffffff1602179055506040518060600160405280603581526020016200482660359139600890805190602001906200017692919062000249565b506200035d565b600033905090565b60008060009054906101000a900473ffffffffffffffffffffffffffffffffffffffff169050816000806101000a81548173ffffffffffffffffffffffffffffffffffffffff021916908373ffffffffffffffffffffffffffffffffffffffff1602179055508173ffffffffffffffffffffffffffffffffffffffff168173ffffffffffffffffffffffffffffffffffffffff167f8be0079c531659141344cd1fd0a4f28419497f9722a3daafe3b4186f6b6457e060405160405180910390a35050565b828054620002579062000328565b90600052602060002090601f0160209004810192826200027b5760008555620002c7565b82601f106200029657805160ff1916838001178555620002c7565b82800160010185558215620002c7579182015b82811115620002c6578251825591602001919060010190620002a9565b5b509050620002d69190620002da565b5090565b5b80821115620002f5576000816000905550600101620002db565b5090565b7f4e487b7100000000000000000000000000000000000000000000000000000000600052602260045260246000fd5b600060028204905060018216806200034157607f821691505b602082108103620003575762000356620002f9565b5b50919050565b6144b9806200036d6000396000f3fe6080604052600436106101c25760003560e01c80637903ad59116100f7578063c87b56dd11610095578063e985e9c511610064578063e985e9c51461062c578063f2fde38b14610669578063f6280b5914610692578063fa9d8713146106bd576101c2565b8063c87b56dd14610570578063cb830dd3146105ad578063ccf670f8146105d8578063d8c2454114610601576101c2565b806395d89b41116100d157806395d89b41146104d7578063a22cb46514610502578063b88d4fde1461052b578063c39cbef114610554576101c2565b80637903ad5914610451578063893d20e8146104815780638da5cb5b146104ac576101c2565b80635ea8cd12116101645780636352211e1161013e5780636352211e1461037e5780636da50160146103bb57806370a08231146103fd578063715018a61461043a576101c2565b80635ea8cd12146103105780635faf2880146103395780636139e8bc14610355576101c2565b8063095ea7b3116101a0578063095ea7b31461026c57806323b872dd1461029557806342842e0e146102be57806355f804b3146102e7576101c2565b806301ffc9a7146101c757806306fdde0314610204578063081812fc1461022f575b600080fd5b3480156101d357600080fd5b506101ee60048036038101906101e99190612c33565b6106e6565b6040516101fb9190612c7b565b60405180910390f35b34801561021057600080fd5b506102196107c8565b6040516102269190612d2f565b60405180910390f35b34801561023b57600080fd5b5061025660048036038101906102519190612d87565b61085a565b6040516102639190612df5565b60405180910390f35b34801561027857600080fd5b50610293600480360381019061028e9190612e3c565b6108df565b005b3480156102a157600080fd5b506102bc60048036038101906102b79190612e7c565b6109f6565b005b3480156102ca57600080fd5b506102e560048036038101906102e09190612e7c565b610a56565b005b3480156102f357600080fd5b5061030e60048036038101906103099190613004565b610a76565b005b34801561031c57600080fd5b5061033760048036038101906103329190612d87565b610b0c565b005b610353600480360381019061034e919061304d565b610b92565b005b34801561036157600080fd5b5061037c60048036038101906103779190612d87565b610c59565b005b34801561038a57600080fd5b506103a560048036038101906103a09190612d87565b610d02565b6040516103b29190612df5565b60405180910390f35b3480156103c757600080fd5b506103e260048036038101906103dd9190612d87565b610db3565b6040516103f4969594939291906130d5565b60405180910390f35b34801561040957600080fd5b50610424600480360381019061041f9190613144565b610f2a565b6040516104319190613171565b60405180910390f35b34801561044657600080fd5b5061044f610fe1565b005b61046b60048036038101906104669190613004565b611069565b6040516104789190613171565b60405180910390f35b34801561048d57600080fd5b506104966111b1565b6040516104a39190612df5565b60405180910390f35b3480156104b857600080fd5b506104c16111db565b6040516104ce9190612df5565b60405180910390f35b3480156104e357600080fd5b506104ec611204565b6040516104f99190612d2f565b60405180910390f35b34801561050e57600080fd5b50610529600480360381019061052491906131b8565b611296565b005b34801561053757600080fd5b50610552600480360381019061054d9190613299565b6112ac565b005b61056e6004803603810190610569919061337c565b61130e565b005b34801561057c57600080fd5b5061059760048036038101906105929190612d87565b6113e1565b6040516105a49190612d2f565b60405180910390f35b3480156105b957600080fd5b506105c2611488565b6040516105cf91906135a5565b60405180910390f35b3480156105e457600080fd5b506105ff60048036038101906105fa9190612d87565b61165c565b005b34801561060d57600080fd5b506106166116e2565b6040516106239190613171565b60405180910390f35b34801561063857600080fd5b50610653600480360381019061064e91906135c7565b6116f2565b6040516106609190612c7b565b60405180910390f35b34801561067557600080fd5b50610690600480360381019061068b9190613144565b611786565b005b34801561069e57600080fd5b506106a761187d565b6040516106b491906135a5565b60405180910390f35b3480156106c957600080fd5b506106e460048036038101906106df9190612d87565b611b16565b005b60007f80ac58cd000000000000000000000000000000000000000000000000000000007bffffffffffffffffffffffffffffffffffffffffffffffffffffffff1916827bffffffffffffffffffffffffffffffffffffffffffffffffffffffff191614806107b157507f5b5e139f000000000000000000000000000000000000000000000000000000007bffffffffffffffffffffffffffffffffffffffffffffffffffffffff1916827bffffffffffffffffffffffffffffffffffffffffffffffffffffffff1916145b806107c157506107c082611ba0565b5b9050919050565b6060600180546107d790613636565b80601f016020809104026020016040519081016040528092919081815260200182805461080390613636565b80156108505780601f1061082557610100808354040283529160200191610850565b820191906000526020600020905b81548152906001019060200180831161083357829003601f168201915b5050505050905090565b600061086582611c0a565b6108a4576040517f08c379a000000000000000000000000000000000000000000000000000000000815260040161089b906136d9565b60405180910390fd5b6005600083815260200190815260200160002060009054906101000a900473ffffffffffffffffffffffffffffffffffffffff169050919050565b60006108ea82610d02565b90508073ffffffffffffffffffffffffffffffffffffffff168373ffffffffffffffffffffffffffffffffffffffff160361095a576040517f08c379a00000000000000000000000000000000000000000000000000000000081526004016109519061376b565b60405180910390fd5b8073ffffffffffffffffffffffffffffffffffffffff16610979611c76565b73ffffffffffffffffffffffffffffffffffffffff1614806109a857506109a7816109a2611c76565b6116f2565b5b6109e7576040517f08c379a00000000000000000000000000000000000000000000000000000000081526004016109de906137fd565b60405180910390fd5b6109f18383611c7e565b505050565b610a07610a01611c76565b82611d37565b610a46576040517f08c379a0000000000000000000000000000000000000000000000000000000008152600401610a3d9061388f565b60405180910390fd5b610a51838383611e15565b505050565b610a71838383604051806020016040528060008152506112ac565b505050565b610a7e611c76565b73ffffffffffffffffffffffffffffffffffffffff16610a9c6111db565b73ffffffffffffffffffffffffffffffffffffffff1614610af2576040517f08c379a0000000000000000000000000000000000000000000000000000000008152600401610ae9906138fb565b60405180910390fd5b8060089080519060200190610b08929190612a61565b5050565b610b14611c76565b73ffffffffffffffffffffffffffffffffffffffff16610b326111db565b73ffffffffffffffffffffffffffffffffffffffff1614610b88576040517f08c379a0000000000000000000000000000000000000000000000000000000008152600401610b7f906138fb565b60405180910390fd5b80600b8190555050565b60148281600a8281548110610baa57610ba961391b565b5b906000526020600020906005020160020160009054906101000a900461ffff1661ffff161015610bd957600080fd5b83610be381610d02565b73ffffffffffffffffffffffffffffffffffffffff163373ffffffffffffffffffffffffffffffffffffffff1614610c1a57600080fd5b600d543414610c2857600080fd5b83600a8681548110610c3d57610c3c61391b565b5b9060005260206000209060050201600301819055505050505050565b80610c6381610d02565b73ffffffffffffffffffffffffffffffffffffffff163373ffffffffffffffffffffffffffffffffffffffff1614610c9a57600080fd5b6000600a8381548110610cb057610caf61391b565b5b9060005260206000209060050201905060018160020160009054906101000a900461ffff16610cdf9190613979565b8160020160006101000a81548161ffff021916908361ffff160217905550505050565b6000806003600084815260200190815260200160002060009054906101000a900473ffffffffffffffffffffffffffffffffffffffff169050600073ffffffffffffffffffffffffffffffffffffffff168173ffffffffffffffffffffffffffffffffffffffff1603610daa576040517f08c379a0000000000000000000000000000000000000000000000000000000008152600401610da190613a23565b60405180910390fd5b80915050919050565b600a8181548110610dc357600080fd5b9060005260206000209060050201600091509050806000018054610de690613636565b80601f0160208091040260200160405190810160405280929190818152602001828054610e1290613636565b8015610e5f5780601f10610e3457610100808354040283529160200191610e5f565b820191906000526020600020905b815481529060010190602001808311610e4257829003601f168201915b505050505090806001018054610e7490613636565b80601f0160208091040260200160405190810160405280929190818152602001828054610ea090613636565b8015610eed5780601f10610ec257610100808354040283529160200191610eed565b820191906000526020600020905b815481529060010190602001808311610ed057829003601f168201915b5050505050908060020160009054906101000a900461ffff16908060020160029054906101000a900460ff16908060030154908060040154905086565b60008073ffffffffffffffffffffffffffffffffffffffff168273ffffffffffffffffffffffffffffffffffffffff1603610f9a576040517f08c379a0000000000000000000000000000000000000000000000000000000008152600401610f9190613ab5565b60405180910390fd5b600460008373ffffffffffffffffffffffffffffffffffffffff1673ffffffffffffffffffffffffffffffffffffffff168152602001908152602001600020549050919050565b610fe9611c76565b73ffffffffffffffffffffffffffffffffffffffff166110076111db565b73ffffffffffffffffffffffffffffffffffffffff161461105d576040517f08c379a0000000000000000000000000000000000000000000000000000000008152600401611054906138fb565b60405180910390fd5b611067600061207b565b565b6000611075600761213f565b60006110816007612155565b9050600061108e84612163565b905061109a33836121df565b6110a3826113e1565b50600a81908060018154018082558091505060019003906000526020600020906005020160009091909190915060008201518160000190805190602001906110ec929190612a61565b506020820151816001019080519060200190611109929190612a61565b5060408201518160020160006101000a81548161ffff021916908361ffff16021790555060608201518160020160026101000a81548160ff021916908360ff1602179055506080820151816003015560a0820151816004015550507f412a5e547e3bca4f0dee37451eb50c3a0e17b32f72b1c6aed64c52a9008ab9018385611190856113e1565b60405161119f93929190613ad5565b60405180910390a18192505050919050565b6000600c60009054906101000a900473ffffffffffffffffffffffffffffffffffffffff16905090565b60008060009054906101000a900473ffffffffffffffffffffffffffffffffffffffff16905090565b60606002805461121390613636565b80601f016020809104026020016040519081016040528092919081815260200182805461123f90613636565b801561128c5780601f106112615761010080835404028352916020019161128c565b820191906000526020600020905b81548152906001019060200180831161126f57829003601f168201915b5050505050905090565b6112a86112a1611c76565b83836121fd565b5050565b6112bd6112b7611c76565b83611d37565b6112fc576040517f08c379a00000000000000000000000000000000000000000000000000000000081526004016112f39061388f565b60405180910390fd5b61130884848484612369565b50505050565b60028381600a82815481106113265761132561391b565b5b906000526020600020906005020160020160009054906101000a900461ffff1661ffff16101561135557600080fd5b8461135f81610d02565b73ffffffffffffffffffffffffffffffffffffffff163373ffffffffffffffffffffffffffffffffffffffff161461139657600080fd5b600d5434146113a457600080fd5b8484600a88815481106113ba576113b961391b565b5b906000526020600020906005020160000191906113d8929190612ae7565b50505050505050565b60606113ec82611c0a565b61142b576040517f08c379a000000000000000000000000000000000000000000000000000000000815260040161142290613b8c565b60405180910390fd5b60006114356123c5565b905060008151116114555760405180602001604052806000815250611480565b8061145f84612457565b604051602001611470929190613be8565b6040516020818303038152906040525b915050919050565b6060600a805480602002602001604051908101604052809291908181526020016000905b8282101561165357838290600052602060002090600502016040518060c00160405290816000820180546114df90613636565b80601f016020809104026020016040519081016040528092919081815260200182805461150b90613636565b80156115585780601f1061152d57610100808354040283529160200191611558565b820191906000526020600020905b81548152906001019060200180831161153b57829003601f168201915b5050505050815260200160018201805461157190613636565b80601f016020809104026020016040519081016040528092919081815260200182805461159d90613636565b80156115ea5780601f106115bf576101008083540402835291602001916115ea565b820191906000526020600020905b8154815290600101906020018083116115cd57829003601f168201915b505050505081526020016002820160009054906101000a900461ffff1661ffff1661ffff1681526020016002820160029054906101000a900460ff1660ff1660ff16815260200160038201548152602001600482015481525050815260200190600101906114ac565b50505050905090565b611664611c76565b73ffffffffffffffffffffffffffffffffffffffff166116826111db565b73ffffffffffffffffffffffffffffffffffffffff16146116d8576040517f08c379a00000000000000000000000000000000000000000000000000000000081526004016116cf906138fb565b60405180910390fd5b80600d8190555050565b60006116ed33610f2a565b905090565b6000600660008473ffffffffffffffffffffffffffffffffffffffff1673ffffffffffffffffffffffffffffffffffffffff16815260200190815260200160002060008373ffffffffffffffffffffffffffffffffffffffff1673ffffffffffffffffffffffffffffffffffffffff16815260200190815260200160002060009054906101000a900460ff16905092915050565b61178e611c76565b73ffffffffffffffffffffffffffffffffffffffff166117ac6111db565b73ffffffffffffffffffffffffffffffffffffffff1614611802576040517f08c379a00000000000000000000000000000000000000000000000000000000081526004016117f9906138fb565b60405180910390fd5b600073ffffffffffffffffffffffffffffffffffffffff168173ffffffffffffffffffffffffffffffffffffffff1603611871576040517f08c379a000000000000000000000000000000000000000000000000000000000815260040161186890613c7e565b60405180910390fd5b61187a8161207b565b50565b6060600061188a33610f2a565b67ffffffffffffffff8111156118a3576118a2612ed9565b5b6040519080825280602002602001820160405280156118dc57816020015b6118c9612b6d565b8152602001906001900390816118c15790505b5090506000805b600a80549050811015611b0d573373ffffffffffffffffffffffffffffffffffffffff1661191082610d02565b73ffffffffffffffffffffffffffffffffffffffff1603611afa57600a818154811061193f5761193e61391b565b5b90600052602060002090600502016040518060c001604052908160008201805461196890613636565b80601f016020809104026020016040519081016040528092919081815260200182805461199490613636565b80156119e15780601f106119b6576101008083540402835291602001916119e1565b820191906000526020600020905b8154815290600101906020018083116119c457829003601f168201915b505050505081526020016001820180546119fa90613636565b80601f0160208091040260200160405190810160405280929190818152602001828054611a2690613636565b8015611a735780601f10611a4857610100808354040283529160200191611a73565b820191906000526020600020905b815481529060010190602001808311611a5657829003601f168201915b505050505081526020016002820160009054906101000a900461ffff1661ffff1661ffff1681526020016002820160029054906101000a900460ff1660ff1660ff16815260200160038201548152602001600482015481525050838381518110611ae057611adf61391b565b5b60200260200101819052508180611af690613c9e565b9250505b8080611b0590613c9e565b9150506118e3565b50819250505090565b80611b2081610d02565b73ffffffffffffffffffffffffffffffffffffffff163373ffffffffffffffffffffffffffffffffffffffff1614611b5757600080fd5b6000600a8381548110611b6d57611b6c61391b565b5b90600052602060002090600502019050600a8160020160026101000a81548160ff021916908360ff160217905550505050565b60007f01ffc9a7000000000000000000000000000000000000000000000000000000007bffffffffffffffffffffffffffffffffffffffffffffffffffffffff1916827bffffffffffffffffffffffffffffffffffffffffffffffffffffffff1916149050919050565b60008073ffffffffffffffffffffffffffffffffffffffff166003600084815260200190815260200160002060009054906101000a900473ffffffffffffffffffffffffffffffffffffffff1673ffffffffffffffffffffffffffffffffffffffff1614159050919050565b600033905090565b816005600083815260200190815260200160002060006101000a81548173ffffffffffffffffffffffffffffffffffffffff021916908373ffffffffffffffffffffffffffffffffffffffff160217905550808273ffffffffffffffffffffffffffffffffffffffff16611cf183610d02565b73ffffffffffffffffffffffffffffffffffffffff167f8c5be1e5ebec7d5bd14f71427d1e84f3dd0314c0f7b2291e5b200ac8c7c3b92560405160405180910390a45050565b6000611d4282611c0a565b611d81576040517f08c379a0000000000000000000000000000000000000000000000000000000008152600401611d7890613d58565b60405180910390fd5b6000611d8c83610d02565b90508073ffffffffffffffffffffffffffffffffffffffff168473ffffffffffffffffffffffffffffffffffffffff161480611dfb57508373ffffffffffffffffffffffffffffffffffffffff16611de38461085a565b73ffffffffffffffffffffffffffffffffffffffff16145b80611e0c5750611e0b81856116f2565b5b91505092915050565b8273ffffffffffffffffffffffffffffffffffffffff16611e3582610d02565b73ffffffffffffffffffffffffffffffffffffffff1614611e8b576040517f08c379a0000000000000000000000000000000000000000000000000000000008152600401611e8290613dea565b60405180910390fd5b600073ffffffffffffffffffffffffffffffffffffffff168273ffffffffffffffffffffffffffffffffffffffff1603611efa576040517f08c379a0000000000000000000000000000000000000000000000000000000008152600401611ef190613e7c565b60405180910390fd5b611f058383836125b7565b611f10600082611c7e565b6001600460008573ffffffffffffffffffffffffffffffffffffffff1673ffffffffffffffffffffffffffffffffffffffff1681526020019081526020016000206000828254611f609190613e9c565b925050819055506001600460008473ffffffffffffffffffffffffffffffffffffffff1673ffffffffffffffffffffffffffffffffffffffff1681526020019081526020016000206000828254611fb79190613ed0565b92505081905550816003600083815260200190815260200160002060006101000a81548173ffffffffffffffffffffffffffffffffffffffff021916908373ffffffffffffffffffffffffffffffffffffffff160217905550808273ffffffffffffffffffffffffffffffffffffffff168473ffffffffffffffffffffffffffffffffffffffff167fddf252ad1be2c89b69c2b068fc378daa952ba7f163c4a11628f55a4df523b3ef60405160405180910390a46120768383836125bc565b505050565b60008060009054906101000a900473ffffffffffffffffffffffffffffffffffffffff169050816000806101000a81548173ffffffffffffffffffffffffffffffffffffffff021916908373ffffffffffffffffffffffffffffffffffffffff1602179055508173ffffffffffffffffffffffffffffffffffffffff168173ffffffffffffffffffffffffffffffffffffffff167f8be0079c531659141344cd1fd0a4f28419497f9722a3daafe3b4186f6b6457e060405160405180910390a35050565b6001816000016000828254019250508190555050565b600081600001549050919050565b61216b612b6d565b612173612b6d565b8281600001819052506121846125c1565b81602001819052506121946125fe565b816080018181525050600a816060019060ff16908160ff16815250506001816040019061ffff16908161ffff16815250506121cd612629565b8160a001818152505080915050919050565b6121f982826040518060200160405280600081525061263e565b5050565b8173ffffffffffffffffffffffffffffffffffffffff168373ffffffffffffffffffffffffffffffffffffffff160361226b576040517f08c379a000000000000000000000000000000000000000000000000000000000815260040161226290613f72565b60405180910390fd5b80600660008573ffffffffffffffffffffffffffffffffffffffff1673ffffffffffffffffffffffffffffffffffffffff16815260200190815260200160002060008473ffffffffffffffffffffffffffffffffffffffff1673ffffffffffffffffffffffffffffffffffffffff16815260200190815260200160002060006101000a81548160ff0219169083151502179055508173ffffffffffffffffffffffffffffffffffffffff168373ffffffffffffffffffffffffffffffffffffffff167f17307eab39ab6107e8899845ad3d59bd9653f200f220920489ca2b5937696c318360405161235c9190612c7b565b60405180910390a3505050565b612374848484611e15565b61238084848484612699565b6123bf576040517f08c379a00000000000000000000000000000000000000000000000000000000081526004016123b690614004565b60405180910390fd5b50505050565b6060600880546123d490613636565b80601f016020809104026020016040519081016040528092919081815260200182805461240090613636565b801561244d5780601f106124225761010080835404028352916020019161244d565b820191906000526020600020905b81548152906001019060200180831161243057829003601f168201915b5050505050905090565b60606000820361249e576040518060400160405280600181526020017f300000000000000000000000000000000000000000000000000000000000000081525090506125b2565b600082905060005b600082146124d05780806124b990613c9e565b915050600a826124c99190614053565b91506124a6565b60008167ffffffffffffffff8111156124ec576124eb612ed9565b5b6040519080825280601f01601f19166020018201604052801561251e5781602001600182028036833780820191505090505b5090505b600085146125ab576001826125379190613e9c565b9150600a856125469190614084565b60306125529190613ed0565b60f81b8183815181106125685761256761391b565b5b60200101907effffffffffffffffffffffffffffffffffffffffffffffffffffffffffffff1916908160001a905350600a856125a49190614053565b9450612522565b8093505050505b919050565b505050565b505050565b60606040518060400160405280600781526020017f5363696e696f6e00000000000000000000000000000000000000000000000000815250905090565b6000612624600960009054906101000a900460ff16600a61261f91906141e8565b612820565b905090565b60006c014370dcb3ba2d04989a029004905090565b6126488383612865565b6126556000848484612699565b612694576040517f08c379a000000000000000000000000000000000000000000000000000000000815260040161268b90614004565b60405180910390fd5b505050565b60006126ba8473ffffffffffffffffffffffffffffffffffffffff16612a3e565b15612813578373ffffffffffffffffffffffffffffffffffffffff1663150b7a026126e3611c76565b8786866040518563ffffffff1660e01b81526004016127059493929190614288565b6020604051808303816000875af192505050801561274157506040513d601f19601f8201168201806040525081019061273e91906142e9565b60015b6127c3573d8060008114612771576040519150601f19603f3d011682016040523d82523d6000602084013e612776565b606091505b5060008151036127bb576040517f08c379a00000000000000000000000000000000000000000000000000000000081526004016127b290614004565b60405180910390fd5b805181602001fd5b63150b7a0260e01b7bffffffffffffffffffffffffffffffffffffffffffffffffffffffff1916817bffffffffffffffffffffffffffffffffffffffffffffffffffffffff191614915050612818565b600190505b949350505050565b600080423360405160200161283692919061437f565b6040516020818303038152906040528051906020012060001c9050828161285d9190614084565b915050919050565b600073ffffffffffffffffffffffffffffffffffffffff168273ffffffffffffffffffffffffffffffffffffffff16036128d4576040517f08c379a00000000000000000000000000000000000000000000000000000000081526004016128cb906143f7565b60405180910390fd5b6128dd81611c0a565b1561291d576040517f08c379a000000000000000000000000000000000000000000000000000000000815260040161291490614463565b60405180910390fd5b612929600083836125b7565b6001600460008473ffffffffffffffffffffffffffffffffffffffff1673ffffffffffffffffffffffffffffffffffffffff16815260200190815260200160002060008282546129799190613ed0565b92505081905550816003600083815260200190815260200160002060006101000a81548173ffffffffffffffffffffffffffffffffffffffff021916908373ffffffffffffffffffffffffffffffffffffffff160217905550808273ffffffffffffffffffffffffffffffffffffffff16600073ffffffffffffffffffffffffffffffffffffffff167fddf252ad1be2c89b69c2b068fc378daa952ba7f163c4a11628f55a4df523b3ef60405160405180910390a4612a3a600083836125bc565b5050565b6000808273ffffffffffffffffffffffffffffffffffffffff163b119050919050565b828054612a6d90613636565b90600052602060002090601f016020900481019282612a8f5760008555612ad6565b82601f10612aa857805160ff1916838001178555612ad6565b82800160010185558215612ad6579182015b82811115612ad5578251825591602001919060010190612aba565b5b509050612ae39190612baa565b5090565b828054612af390613636565b90600052602060002090601f016020900481019282612b155760008555612b5c565b82601f10612b2e57803560ff1916838001178555612b5c565b82800160010185558215612b5c579182015b82811115612b5b578235825591602001919060010190612b40565b5b509050612b699190612baa565b5090565b6040518060c001604052806060815260200160608152602001600061ffff168152602001600060ff16815260200160008152602001600081525090565b5b80821115612bc3576000816000905550600101612bab565b5090565b6000604051905090565b600080fd5b600080fd5b60007fffffffff0000000000000000000000000000000000000000000000000000000082169050919050565b612c1081612bdb565b8114612c1b57600080fd5b50565b600081359050612c2d81612c07565b92915050565b600060208284031215612c4957612c48612bd1565b5b6000612c5784828501612c1e565b91505092915050565b60008115159050919050565b612c7581612c60565b82525050565b6000602082019050612c906000830184612c6c565b92915050565b600081519050919050565b600082825260208201905092915050565b60005b83811015612cd0578082015181840152602081019050612cb5565b83811115612cdf576000848401525b50505050565b6000601f19601f8301169050919050565b6000612d0182612c96565b612d0b8185612ca1565b9350612d1b818560208601612cb2565b612d2481612ce5565b840191505092915050565b60006020820190508181036000830152612d498184612cf6565b905092915050565b6000819050919050565b612d6481612d51565b8114612d6f57600080fd5b50565b600081359050612d8181612d5b565b92915050565b600060208284031215612d9d57612d9c612bd1565b5b6000612dab84828501612d72565b91505092915050565b600073ffffffffffffffffffffffffffffffffffffffff82169050919050565b6000612ddf82612db4565b9050919050565b612def81612dd4565b82525050565b6000602082019050612e0a6000830184612de6565b92915050565b612e1981612dd4565b8114612e2457600080fd5b50565b600081359050612e3681612e10565b92915050565b60008060408385031215612e5357612e52612bd1565b5b6000612e6185828601612e27565b9250506020612e7285828601612d72565b9150509250929050565b600080600060608486031215612e9557612e94612bd1565b5b6000612ea386828701612e27565b9350506020612eb486828701612e27565b9250506040612ec586828701612d72565b9150509250925092565b600080fd5b600080fd5b7f4e487b7100000000000000000000000000000000000000000000000000000000600052604160045260246000fd5b612f1182612ce5565b810181811067ffffffffffffffff82111715612f3057612f2f612ed9565b5b80604052505050565b6000612f43612bc7565b9050612f4f8282612f08565b919050565b600067ffffffffffffffff821115612f6f57612f6e612ed9565b5b612f7882612ce5565b9050602081019050919050565b82818337600083830152505050565b6000612fa7612fa284612f54565b612f39565b905082815260208101848484011115612fc357612fc2612ed4565b5b612fce848285612f85565b509392505050565b600082601f830112612feb57612fea612ecf565b5b8135612ffb848260208601612f94565b91505092915050565b60006020828403121561301a57613019612bd1565b5b600082013567ffffffffffffffff81111561303857613037612bd6565b5b61304484828501612fd6565b91505092915050565b6000806040838503121561306457613063612bd1565b5b600061307285828601612d72565b925050602061308385828601612d72565b9150509250929050565b600061ffff82169050919050565b6130a48161308d565b82525050565b600060ff82169050919050565b6130c0816130aa565b82525050565b6130cf81612d51565b82525050565b600060c08201905081810360008301526130ef8189612cf6565b905081810360208301526131038188612cf6565b9050613112604083018761309b565b61311f60608301866130b7565b61312c60808301856130c6565b61313960a08301846130c6565b979650505050505050565b60006020828403121561315a57613159612bd1565b5b600061316884828501612e27565b91505092915050565b600060208201905061318660008301846130c6565b92915050565b61319581612c60565b81146131a057600080fd5b50565b6000813590506131b28161318c565b92915050565b600080604083850312156131cf576131ce612bd1565b5b60006131dd85828601612e27565b92505060206131ee858286016131a3565b9150509250929050565b600067ffffffffffffffff82111561321357613212612ed9565b5b61321c82612ce5565b9050602081019050919050565b600061323c613237846131f8565b612f39565b90508281526020810184848401111561325857613257612ed4565b5b613263848285612f85565b509392505050565b600082601f8301126132805761327f612ecf565b5b8135613290848260208601613229565b91505092915050565b600080600080608085870312156132b3576132b2612bd1565b5b60006132c187828801612e27565b94505060206132d287828801612e27565b93505060406132e387828801612d72565b925050606085013567ffffffffffffffff81111561330457613303612bd6565b5b6133108782880161326b565b91505092959194509250565b600080fd5b600080fd5b60008083601f84011261333c5761333b612ecf565b5b8235905067ffffffffffffffff8111156133595761335861331c565b5b60208301915083600182028301111561337557613374613321565b5b9250929050565b60008060006040848603121561339557613394612bd1565b5b60006133a386828701612d72565b935050602084013567ffffffffffffffff8111156133c4576133c3612bd6565b5b6133d086828701613326565b92509250509250925092565b600081519050919050565b600082825260208201905092915050565b6000819050602082019050919050565b600082825260208201905092915050565b600061342482612c96565b61342e8185613408565b935061343e818560208601612cb2565b61344781612ce5565b840191505092915050565b61345b8161308d565b82525050565b61346a816130aa565b82525050565b61347981612d51565b82525050565b600060c083016000830151848203600086015261349c8282613419565b915050602083015184820360208601526134b68282613419565b91505060408301516134cb6040860182613452565b5060608301516134de6060860182613461565b5060808301516134f16080860182613470565b5060a083015161350460a0860182613470565b508091505092915050565b600061351b838361347f565b905092915050565b6000602082019050919050565b600061353b826133dc565b61354581856133e7565b935083602082028501613557856133f8565b8060005b858110156135935784840389528151613574858261350f565b945061357f83613523565b925060208a0199505060018101905061355b565b50829750879550505050505092915050565b600060208201905081810360008301526135bf8184613530565b905092915050565b600080604083850312156135de576135dd612bd1565b5b60006135ec85828601612e27565b92505060206135fd85828601612e27565b9150509250929050565b7f4e487b7100000000000000000000000000000000000000000000000000000000600052602260045260246000fd5b6000600282049050600182168061364e57607f821691505b60208210810361366157613660613607565b5b50919050565b7f4552433732313a20617070726f76656420717565727920666f72206e6f6e657860008201527f697374656e7420746f6b656e0000000000000000000000000000000000000000602082015250565b60006136c3602c83612ca1565b91506136ce82613667565b604082019050919050565b600060208201905081810360008301526136f2816136b6565b9050919050565b7f4552433732313a20617070726f76616c20746f2063757272656e74206f776e6560008201527f7200000000000000000000000000000000000000000000000000000000000000602082015250565b6000613755602183612ca1565b9150613760826136f9565b604082019050919050565b6000602082019050818103600083015261378481613748565b9050919050565b7f4552433732313a20617070726f76652063616c6c6572206973206e6f74206f7760008201527f6e6572206e6f7220617070726f76656420666f7220616c6c0000000000000000602082015250565b60006137e7603883612ca1565b91506137f28261378b565b604082019050919050565b60006020820190508181036000830152613816816137da565b9050919050565b7f4552433732313a207472616e736665722063616c6c6572206973206e6f74206f60008201527f776e6572206e6f7220617070726f766564000000000000000000000000000000602082015250565b6000613879603183612ca1565b91506138848261381d565b604082019050919050565b600060208201905081810360008301526138a88161386c565b9050919050565b7f4f776e61626c653a2063616c6c6572206973206e6f7420746865206f776e6572600082015250565b60006138e5602083612ca1565b91506138f0826138af565b602082019050919050565b60006020820190508181036000830152613914816138d8565b9050919050565b7f4e487b7100000000000000000000000000000000000000000000000000000000600052603260045260246000fd5b7f4e487b7100000000000000000000000000000000000000000000000000000000600052601160045260246000fd5b60006139848261308d565b915061398f8361308d565b92508261ffff038211156139a6576139a561394a565b5b828201905092915050565b7f4552433732313a206f776e657220717565727920666f72206e6f6e657869737460008201527f656e7420746f6b656e0000000000000000000000000000000000000000000000602082015250565b6000613a0d602983612ca1565b9150613a18826139b1565b604082019050919050565b60006020820190508181036000830152613a3c81613a00565b9050919050565b7f4552433732313a2062616c616e636520717565727920666f7220746865207a6560008201527f726f206164647265737300000000000000000000000000000000000000000000602082015250565b6000613a9f602a83612ca1565b9150613aaa82613a43565b604082019050919050565b60006020820190508181036000830152613ace81613a92565b9050919050565b6000606082019050613aea60008301866130c6565b8181036020830152613afc8185612cf6565b90508181036040830152613b108184612cf6565b9050949350505050565b7f4552433732314d657461646174613a2055524920717565727920666f72206e6f60008201527f6e6578697374656e7420746f6b656e0000000000000000000000000000000000602082015250565b6000613b76602f83612ca1565b9150613b8182613b1a565b604082019050919050565b60006020820190508181036000830152613ba581613b69565b9050919050565b600081905092915050565b6000613bc282612c96565b613bcc8185613bac565b9350613bdc818560208601612cb2565b80840191505092915050565b6000613bf48285613bb7565b9150613c008284613bb7565b91508190509392505050565b7f4f776e61626c653a206e6577206f776e657220697320746865207a65726f206160008201527f6464726573730000000000000000000000000000000000000000000000000000602082015250565b6000613c68602683612ca1565b9150613c7382613c0c565b604082019050919050565b60006020820190508181036000830152613c9781613c5b565b9050919050565b6000613ca982612d51565b91507fffffffffffffffffffffffffffffffffffffffffffffffffffffffffffffffff8203613cdb57613cda61394a565b5b600182019050919050565b7f4552433732313a206f70657261746f7220717565727920666f72206e6f6e657860008201527f697374656e7420746f6b656e0000000000000000000000000000000000000000602082015250565b6000613d42602c83612ca1565b9150613d4d82613ce6565b604082019050919050565b60006020820190508181036000830152613d7181613d35565b9050919050565b7f4552433732313a207472616e736665722066726f6d20696e636f72726563742060008201527f6f776e6572000000000000000000000000000000000000000000000000000000602082015250565b6000613dd4602583612ca1565b9150613ddf82613d78565b604082019050919050565b60006020820190508181036000830152613e0381613dc7565b9050919050565b7f4552433732313a207472616e7366657220746f20746865207a65726f2061646460008201527f7265737300000000000000000000000000000000000000000000000000000000602082015250565b6000613e66602483612ca1565b9150613e7182613e0a565b604082019050919050565b60006020820190508181036000830152613e9581613e59565b9050919050565b6000613ea782612d51565b9150613eb283612d51565b925082821015613ec557613ec461394a565b5b828203905092915050565b6000613edb82612d51565b9150613ee683612d51565b9250827fffffffffffffffffffffffffffffffffffffffffffffffffffffffffffffffff03821115613f1b57613f1a61394a565b5b828201905092915050565b7f4552433732313a20617070726f766520746f2063616c6c657200000000000000600082015250565b6000613f5c601983612ca1565b9150613f6782613f26565b602082019050919050565b60006020820190508181036000830152613f8b81613f4f565b9050919050565b7f4552433732313a207472616e7366657220746f206e6f6e20455243373231526560008201527f63656976657220696d706c656d656e7465720000000000000000000000000000602082015250565b6000613fee603283612ca1565b9150613ff982613f92565b604082019050919050565b6000602082019050818103600083015261401d81613fe1565b9050919050565b7f4e487b7100000000000000000000000000000000000000000000000000000000600052601260045260246000fd5b600061405e82612d51565b915061406983612d51565b92508261407957614078614024565b5b828204905092915050565b600061408f82612d51565b915061409a83612d51565b9250826140aa576140a9614024565b5b828206905092915050565b60008160011c9050919050565b6000808291508390505b600185111561410c578086048111156140e8576140e761394a565b5b60018516156140f75780820291505b8081029050614105856140b5565b94506140cc565b94509492505050565b60008261412557600190506141e1565b8161413357600090506141e1565b8160018114614149576002811461415357614182565b60019150506141e1565b60ff8411156141655761416461394a565b5b8360020a91508482111561417c5761417b61394a565b5b506141e1565b5060208310610133831016604e8410600b84101617156141b75782820a9050838111156141b2576141b161394a565b5b6141e1565b6141c484848460016140c2565b925090508184048111156141db576141da61394a565b5b81810290505b9392505050565b60006141f382612d51565b91506141fe836130aa565b925061422b7fffffffffffffffffffffffffffffffffffffffffffffffffffffffffffffffff8484614115565b905092915050565b600081519050919050565b600082825260208201905092915050565b600061425a82614233565b614264818561423e565b9350614274818560208601612cb2565b61427d81612ce5565b840191505092915050565b600060808201905061429d6000830187612de6565b6142aa6020830186612de6565b6142b760408301856130c6565b81810360608301526142c9818461424f565b905095945050505050565b6000815190506142e381612c07565b92915050565b6000602082840312156142ff576142fe612bd1565b5b600061430d848285016142d4565b91505092915050565b6000819050919050565b61433161432c82612d51565b614316565b82525050565b60008160601b9050919050565b600061434f82614337565b9050919050565b600061436182614344565b9050919050565b61437961437482612dd4565b614356565b82525050565b600061438b8285614320565b60208201915061439b8284614368565b6014820191508190509392505050565b7f4552433732313a206d696e7420746f20746865207a65726f2061646472657373600082015250565b60006143e1602083612ca1565b91506143ec826143ab565b602082019050919050565b60006020820190508181036000830152614410816143d4565b9050919050565b7f4552433732313a20746f6b656e20616c7265616479206d696e74656400000000600082015250565b600061444d601c83612ca1565b915061445882614417565b602082019050919050565b6000602082019050818103600083015261447c81614440565b905091905056fea26469706673582212209b6a03b070381f1b9cd1734970de1dfefe502fedd40e29c1dd761c20b2cfbbe764736f6c634300080d0033697066733a2f2f516d584571454239464345486333345a736e79434172394b4466787168764c7170735a553359347334736d317067",
  "immutableReferences": {},
  "source": "pragma solidity ^0.8.0;\n\nimport \"./scinionfactory.sol\";\n\n\ncontract ScinionHelper is ScinionFactory {\n\n     uint levelUpFee = 0.001 ether;\n\n\n    function setLevelUpFee(uint _fee) external onlyOwner {\n        levelUpFee = _fee;\n    }\n\n    modifier aboveLevel(uint _level, uint _scinionId) {\n        require(scinions[_scinionId].level >= _level);\n         _;\n    }\n      \n    \n    function changeName(uint _scinionId, string calldata _newName) external payable aboveLevel(2, _scinionId) onlyOwnerOf(_scinionId) {\n        require(msg.value == levelUpFee);\n        scinions[_scinionId].name = _newName;\n    }\n\n    function changeDna(uint _scinionId, uint _newDna) external payable aboveLevel(20, _scinionId) onlyOwnerOf(_scinionId) {\n        require(msg.value == levelUpFee);\n        scinions[_scinionId].dna = _newDna;\n    }\n\n    // TODO: develop functionality\n    function completeInvestigation(uint _scinionId) public onlyOwnerOf(_scinionId) {\n        Scinion storage scinionSelected = scinions[_scinionId];\n        scinionSelected.level = scinionSelected.level+1;\n    }\n\n    function sleep(uint _scinionId) public onlyOwnerOf(_scinionId) {\n        Scinion storage scinionSelected = scinions[_scinionId];\n        scinionSelected.energia = 10;\n    }\n\n}",
  "sourcePath": "/Users/albateixidovillanueva/Desktop/scinions/contracts/scinionhelper.sol",
  "compiler": {
    "name": "solc",
    "version": "0.8.13+commit.abaa5c0e.Emscripten.clang"
  },
  "schemaVersion": "3.4.6",
  "updatedAt": "2022-05-08T15:43:01.840Z",
  "networkType": "ethereum",
  "devdoc": {
    "kind": "dev",
    "methods": {
      "approve(address,uint256)": {
        "details": "See {IERC721-approve}."
      },
      "balanceOf(address)": {
        "details": "See {IERC721-balanceOf}."
      },
      "getApproved(uint256)": {
        "details": "See {IERC721-getApproved}."
      },
      "isApprovedForAll(address,address)": {
        "details": "See {IERC721-isApprovedForAll}."
      },
      "name()": {
        "details": "See {IERC721Metadata-name}."
      },
      "owner()": {
        "details": "Returns the address of the current owner."
      },
      "ownerOf(uint256)": {
        "details": "See {IERC721-ownerOf}."
      },
      "renounceOwnership()": {
        "details": "Leaves the contract without owner. It will not be possible to call `onlyOwner` functions anymore. Can only be called by the current owner. NOTE: Renouncing ownership will leave the contract without an owner, thereby removing any functionality that is only available to the owner."
      },
      "safeTransferFrom(address,address,uint256)": {
        "details": "See {IERC721-safeTransferFrom}."
      },
      "safeTransferFrom(address,address,uint256,bytes)": {
        "details": "See {IERC721-safeTransferFrom}."
      },
      "setApprovalForAll(address,bool)": {
        "details": "See {IERC721-setApprovalForAll}."
      },
      "supportsInterface(bytes4)": {
        "details": "See {IERC165-supportsInterface}."
      },
      "symbol()": {
        "details": "See {IERC721Metadata-symbol}."
      },
      "tokenURI(uint256)": {
        "details": "See {IERC721Metadata-tokenURI}."
      },
      "transferFrom(address,address,uint256)": {
        "details": "See {IERC721-transferFrom}."
      },
      "transferOwnership(address)": {
        "details": "Transfers ownership of the contract to a new account (`newOwner`). Can only be called by the current owner."
      }
    },
    "version": 1
  },
  "userdoc": {
    "kind": "user",
    "methods": {},
    "version": 1
  }
}