{
  "contractName": "ScinionHelper",
  "abi": [
    {
      "anonymous": false,
      "inputs": [
        {
          "indexed": true,
          "internalType": "address",
          "name": "owner",
          "type": "address"
        },
        {
          "indexed": true,
          "internalType": "address",
          "name": "approved",
          "type": "address"
        },
        {
          "indexed": true,
          "internalType": "uint256",
          "name": "tokenId",
          "type": "uint256"
        }
      ],
      "name": "Approval",
      "type": "event"
    },
    {
      "anonymous": false,
      "inputs": [
        {
          "indexed": true,
          "internalType": "address",
          "name": "owner",
          "type": "address"
        },
        {
          "indexed": true,
          "internalType": "address",
          "name": "operator",
          "type": "address"
        },
        {
          "indexed": false,
          "internalType": "bool",
          "name": "approved",
          "type": "bool"
        }
      ],
      "name": "ApprovalForAll",
      "type": "event"
    },
    {
      "anonymous": false,
      "inputs": [
        {
          "indexed": false,
          "internalType": "uint256",
          "name": "scinionId",
          "type": "uint256"
        },
        {
          "indexed": false,
          "internalType": "string",
          "name": "name",
          "type": "string"
        }
      ],
      "name": "NewScinion",
      "type": "event"
    },
    {
      "anonymous": false,
      "inputs": [
        {
          "indexed": true,
          "internalType": "address",
          "name": "previousOwner",
          "type": "address"
        },
        {
          "indexed": true,
          "internalType": "address",
          "name": "newOwner",
          "type": "address"
        }
      ],
      "name": "OwnershipTransferred",
      "type": "event"
    },
    {
      "anonymous": false,
      "inputs": [
        {
          "indexed": true,
          "internalType": "address",
          "name": "from",
          "type": "address"
        },
        {
          "indexed": true,
          "internalType": "address",
          "name": "to",
          "type": "address"
        },
        {
          "indexed": true,
          "internalType": "uint256",
          "name": "tokenId",
          "type": "uint256"
        }
      ],
      "name": "Transfer",
      "type": "event"
    },
    {
      "inputs": [
        {
          "internalType": "address",
          "name": "to",
          "type": "address"
        },
        {
          "internalType": "uint256",
          "name": "tokenId",
          "type": "uint256"
        }
      ],
      "name": "approve",
      "outputs": [],
      "stateMutability": "nonpayable",
      "type": "function"
    },
    {
      "inputs": [
        {
          "internalType": "address",
          "name": "owner",
          "type": "address"
        }
      ],
      "name": "balanceOf",
      "outputs": [
        {
          "internalType": "uint256",
          "name": "",
          "type": "uint256"
        }
      ],
      "stateMutability": "view",
      "type": "function",
      "constant": true
    },
    {
      "inputs": [
        {
          "internalType": "string",
          "name": "_name",
          "type": "string"
        },
        {
          "internalType": "uint256",
          "name": "_dna",
          "type": "uint256"
        },
        {
          "internalType": "uint256",
          "name": "_habilities",
          "type": "uint256"
        }
      ],
      "name": "createScinion",
      "outputs": [],
      "stateMutability": "nonpayable",
      "type": "function"
    },
    {
      "inputs": [
        {
          "internalType": "uint256",
          "name": "tokenId",
          "type": "uint256"
        }
      ],
      "name": "getApproved",
      "outputs": [
        {
          "internalType": "address",
          "name": "",
          "type": "address"
        }
      ],
      "stateMutability": "view",
      "type": "function",
      "constant": true
    },
    {
      "inputs": [
        {
          "internalType": "address",
          "name": "owner",
          "type": "address"
        },
        {
          "internalType": "address",
          "name": "operator",
          "type": "address"
        }
      ],
      "name": "isApprovedForAll",
      "outputs": [
        {
          "internalType": "bool",
          "name": "",
          "type": "bool"
        }
      ],
      "stateMutability": "view",
      "type": "function",
      "constant": true
    },
    {
      "inputs": [
        {
          "internalType": "address",
          "name": "_to",
          "type": "address"
        },
        {
          "internalType": "uint256",
          "name": "_tokenId",
          "type": "uint256"
        }
      ],
      "name": "mintScinion",
      "outputs": [],
      "stateMutability": "nonpayable",
      "type": "function"
    },
    {
      "inputs": [],
      "name": "name",
      "outputs": [
        {
          "internalType": "string",
          "name": "",
          "type": "string"
        }
      ],
      "stateMutability": "view",
      "type": "function",
      "constant": true
    },
    {
      "inputs": [],
      "name": "owner",
      "outputs": [
        {
          "internalType": "address",
          "name": "",
          "type": "address"
        }
      ],
      "stateMutability": "view",
      "type": "function",
      "constant": true
    },
    {
      "inputs": [
        {
          "internalType": "uint256",
          "name": "tokenId",
          "type": "uint256"
        }
      ],
      "name": "ownerOf",
      "outputs": [
        {
          "internalType": "address",
          "name": "",
          "type": "address"
        }
      ],
      "stateMutability": "view",
      "type": "function",
      "constant": true
    },
    {
      "inputs": [],
      "name": "renounceOwnership",
      "outputs": [],
      "stateMutability": "nonpayable",
      "type": "function"
    },
    {
      "inputs": [
        {
          "internalType": "address",
          "name": "from",
          "type": "address"
        },
        {
          "internalType": "address",
          "name": "to",
          "type": "address"
        },
        {
          "internalType": "uint256",
          "name": "tokenId",
          "type": "uint256"
        }
      ],
      "name": "safeTransferFrom",
      "outputs": [],
      "stateMutability": "nonpayable",
      "type": "function"
    },
    {
      "inputs": [
        {
          "internalType": "address",
          "name": "from",
          "type": "address"
        },
        {
          "internalType": "address",
          "name": "to",
          "type": "address"
        },
        {
          "internalType": "uint256",
          "name": "tokenId",
          "type": "uint256"
        },
        {
          "internalType": "bytes",
          "name": "_data",
          "type": "bytes"
        }
      ],
      "name": "safeTransferFrom",
      "outputs": [],
      "stateMutability": "nonpayable",
      "type": "function"
    },
    {
      "inputs": [
        {
          "internalType": "uint256",
          "name": "",
          "type": "uint256"
        }
      ],
      "name": "scinionToOwner",
      "outputs": [
        {
          "internalType": "address",
          "name": "",
          "type": "address"
        }
      ],
      "stateMutability": "view",
      "type": "function",
      "constant": true
    },
    {
      "inputs": [
        {
          "internalType": "address",
          "name": "operator",
          "type": "address"
        },
        {
          "internalType": "bool",
          "name": "approved",
          "type": "bool"
        }
      ],
      "name": "setApprovalForAll",
      "outputs": [],
      "stateMutability": "nonpayable",
      "type": "function"
    },
    {
      "inputs": [
        {
          "internalType": "bytes4",
          "name": "interfaceId",
          "type": "bytes4"
        }
      ],
      "name": "supportsInterface",
      "outputs": [
        {
          "internalType": "bool",
          "name": "",
          "type": "bool"
        }
      ],
      "stateMutability": "view",
      "type": "function",
      "constant": true
    },
    {
      "inputs": [],
      "name": "symbol",
      "outputs": [
        {
          "internalType": "string",
          "name": "",
          "type": "string"
        }
      ],
      "stateMutability": "view",
      "type": "function",
      "constant": true
    },
    {
      "inputs": [
        {
          "internalType": "uint256",
          "name": "tokenId",
          "type": "uint256"
        }
      ],
      "name": "tokenURI",
      "outputs": [
        {
          "internalType": "string",
          "name": "",
          "type": "string"
        }
      ],
      "stateMutability": "view",
      "type": "function",
      "constant": true
    },
    {
      "inputs": [
        {
          "internalType": "address",
          "name": "from",
          "type": "address"
        },
        {
          "internalType": "address",
          "name": "to",
          "type": "address"
        },
        {
          "internalType": "uint256",
          "name": "tokenId",
          "type": "uint256"
        }
      ],
      "name": "transferFrom",
      "outputs": [],
      "stateMutability": "nonpayable",
      "type": "function"
    },
    {
      "inputs": [
        {
          "internalType": "address",
          "name": "newOwner",
          "type": "address"
        }
      ],
      "name": "transferOwnership",
      "outputs": [],
      "stateMutability": "nonpayable",
      "type": "function"
    },
    {
      "inputs": [
        {
          "internalType": "address",
          "name": "_from",
          "type": "address"
        },
        {
          "internalType": "address",
          "name": "_to",
          "type": "address"
        },
        {
          "internalType": "uint256",
          "name": "_tokenId",
          "type": "uint256"
        }
      ],
      "name": "transferScinion",
      "outputs": [],
      "stateMutability": "payable",
      "type": "function",
      "payable": true
    },
    {
      "inputs": [
        {
          "internalType": "uint256",
          "name": "_fee",
          "type": "uint256"
        }
      ],
      "name": "setLevelUpFee",
      "outputs": [],
      "stateMutability": "nonpayable",
      "type": "function"
    },
    {
      "inputs": [
        {
          "internalType": "uint256",
          "name": "_scinionId",
          "type": "uint256"
        },
        {
          "internalType": "string",
          "name": "_newName",
          "type": "string"
        }
      ],
      "name": "changeName",
      "outputs": [],
      "stateMutability": "payable",
      "type": "function",
      "payable": true
    },
    {
      "inputs": [
        {
          "internalType": "uint256",
          "name": "_scinionId",
          "type": "uint256"
        },
        {
          "internalType": "uint256",
          "name": "_newDna",
          "type": "uint256"
        }
      ],
      "name": "changeDna",
      "outputs": [],
      "stateMutability": "payable",
      "type": "function",
      "payable": true
    },
    {
      "inputs": [
        {
          "internalType": "address",
          "name": "_owner",
          "type": "address"
        }
      ],
      "name": "getScinionsByOwner",
      "outputs": [
        {
          "internalType": "uint256[]",
          "name": "",
          "type": "uint256[]"
        }
      ],
      "stateMutability": "view",
      "type": "function",
      "constant": true
    },
    {
      "inputs": [
        {
          "internalType": "uint256",
          "name": "_scinionId",
          "type": "uint256"
        }
      ],
      "name": "completarInvestigacion",
      "outputs": [],
      "stateMutability": "nonpayable",
      "type": "function"
    },
    {
      "inputs": [
        {
          "internalType": "uint256",
          "name": "_scinionId",
          "type": "uint256"
        }
      ],
      "name": "dormir",
      "outputs": [],
      "stateMutability": "nonpayable",
      "type": "function"
    }
  ],
  "bytecode": "0x60806040526201518060075566038d7ea4c68000600c553480156200002357600080fd5b506040518060400160405280600a81526020017f5363696e696f6e4e4654000000000000000000000000000000000000000000008152506040518060400160405280600481526020017f5343544b00000000000000000000000000000000000000000000000000000000815250620000b0620000a46200012b60201b60201c565b6200013360201b60201c565b8160019080519060200190620000c8929190620001f7565b508060029080519060200190620000e1929190620001f7565b50505033600860006101000a81548173ffffffffffffffffffffffffffffffffffffffff021916908373ffffffffffffffffffffffffffffffffffffffff1602179055506200030b565b600033905090565b60008060009054906101000a900473ffffffffffffffffffffffffffffffffffffffff169050816000806101000a81548173ffffffffffffffffffffffffffffffffffffffff021916908373ffffffffffffffffffffffffffffffffffffffff1602179055508173ffffffffffffffffffffffffffffffffffffffff168173ffffffffffffffffffffffffffffffffffffffff167f8be0079c531659141344cd1fd0a4f28419497f9722a3daafe3b4186f6b6457e060405160405180910390a35050565b8280546200020590620002d6565b90600052602060002090601f01602090048101928262000229576000855562000275565b82601f106200024457805160ff191683800117855562000275565b8280016001018555821562000275579182015b828111156200027457825182559160200191906001019062000257565b5b50905062000284919062000288565b5090565b5b80821115620002a357600081600090555060010162000289565b5090565b7f4e487b7100000000000000000000000000000000000000000000000000000000600052602260045260246000fd5b60006002820490506001821680620002ef57607f821691505b602082108103620003055762000304620002a7565b5b50919050565b613cea806200031b6000396000f3fe6080604052600436106101815760003560e01c8063715018a6116100d1578063c39cbef11161008a578063ccf670f811610064578063ccf670f814610565578063e985e9c51461058e578063e9dcd0db146105cb578063f2fde38b146105f457610181565b8063c39cbef1146104cf578063c87b56dd146104eb578063c8b485761461052857610181565b8063715018a6146103f45780638da5cb5b1461040b57806395d89b4114610436578063a22cb46514610461578063a612c71a1461048a578063b88d4fde146104a657610181565b806323b872dd1161013e578063628104d611610118578063628104d6146103285780636352211e146103515780636d0973901461038e57806370a08231146103b757610181565b806323b872dd146102ba57806342842e0e146102e35780635faf28801461030c57610181565b806301ffc9a71461018657806306fdde03146101c3578063081812fc146101ee578063095ea7b31461022b5780630a8ccd1314610254578063167271b61461027d575b600080fd5b34801561019257600080fd5b506101ad60048036038101906101a8919061280b565b61061d565b6040516101ba9190612853565b60405180910390f35b3480156101cf57600080fd5b506101d86106ff565b6040516101e59190612907565b60405180910390f35b3480156101fa57600080fd5b506102156004803603810190610210919061295f565b610791565b60405161022291906129cd565b60405180910390f35b34801561023757600080fd5b50610252600480360381019061024d9190612a14565b610816565b005b34801561026057600080fd5b5061027b60048036038101906102769190612b89565b61092d565b005b34801561028957600080fd5b506102a4600480360381019061029f919061295f565b610b8a565b6040516102b191906129cd565b60405180910390f35b3480156102c657600080fd5b506102e160048036038101906102dc9190612bf8565b610bbd565b005b3480156102ef57600080fd5b5061030a60048036038101906103059190612bf8565b610c1d565b005b61032660048036038101906103219190612c4b565b610c3d565b005b34801561033457600080fd5b5061034f600480360381019061034a919061295f565b610d2f565b005b34801561035d57600080fd5b506103786004803603810190610373919061295f565b610e03565b60405161038591906129cd565b60405180910390f35b34801561039a57600080fd5b506103b560048036038101906103b09190612a14565b610eb4565b005b3480156103c357600080fd5b506103de60048036038101906103d99190612c8b565b610ec2565b6040516103eb9190612cc7565b60405180910390f35b34801561040057600080fd5b50610409610f79565b005b34801561041757600080fd5b50610420611001565b60405161042d91906129cd565b60405180910390f35b34801561044257600080fd5b5061044b61102a565b6040516104589190612907565b60405180910390f35b34801561046d57600080fd5b5061048860048036038101906104839190612d0e565b6110bc565b005b6104a4600480360381019061049f9190612bf8565b6110d2565b005b3480156104b257600080fd5b506104cd60048036038101906104c89190612def565b611169565b005b6104e960048036038101906104e49190612ed2565b6111cb565b005b3480156104f757600080fd5b50610512600480360381019061050d919061295f565b6112c9565b60405161051f9190612907565b60405180910390f35b34801561053457600080fd5b5061054f600480360381019061054a9190612c8b565b611370565b60405161055c9190612ff0565b60405180910390f35b34801561057157600080fd5b5061058c6004803603810190610587919061295f565b6114c2565b005b34801561059a57600080fd5b506105b560048036038101906105b09190613012565b611548565b6040516105c29190612853565b60405180910390f35b3480156105d757600080fd5b506105f260048036038101906105ed919061295f565b6115dc565b005b34801561060057600080fd5b5061061b60048036038101906106169190612c8b565b611691565b005b60007f80ac58cd000000000000000000000000000000000000000000000000000000007bffffffffffffffffffffffffffffffffffffffffffffffffffffffff1916827bffffffffffffffffffffffffffffffffffffffffffffffffffffffff191614806106e857507f5b5e139f000000000000000000000000000000000000000000000000000000007bffffffffffffffffffffffffffffffffffffffffffffffffffffffff1916827bffffffffffffffffffffffffffffffffffffffffffffffffffffffff1916145b806106f857506106f782611788565b5b9050919050565b60606001805461070e90613081565b80601f016020809104026020016040519081016040528092919081815260200182805461073a90613081565b80156107875780601f1061075c57610100808354040283529160200191610787565b820191906000526020600020905b81548152906001019060200180831161076a57829003601f168201915b5050505050905090565b600061079c826117f2565b6107db576040517f08c379a00000000000000000000000000000000000000000000000000000000081526004016107d290613124565b60405180910390fd5b6005600083815260200190815260200160002060009054906101000a900473ffffffffffffffffffffffffffffffffffffffff169050919050565b600061082182610e03565b90508073ffffffffffffffffffffffffffffffffffffffff168373ffffffffffffffffffffffffffffffffffffffff1603610891576040517f08c379a0000000000000000000000000000000000000000000000000000000008152600401610888906131b6565b60405180910390fd5b8073ffffffffffffffffffffffffffffffffffffffff166108b061185e565b73ffffffffffffffffffffffffffffffffffffffff1614806108df57506108de816108d961185e565b611548565b5b61091e576040517f08c379a000000000000000000000000000000000000000000000000000000000815260040161091590613248565b60405180910390fd5b6109288383611866565b505050565b600860009054906101000a900473ffffffffffffffffffffffffffffffffffffffff1673ffffffffffffffffffffffffffffffffffffffff163373ffffffffffffffffffffffffffffffffffffffff161461098757600080fd5b6000600980549050905060096040518060a00160405280868152602001858152602001600161ffff168152602001600a60ff1681526020018481525090806001815401808255809150506001900390600052602060002090600402016000909190919091506000820151816000019080519060200190610a08929190612676565b506020820151816001015560408201518160020160006101000a81548161ffff021916908361ffff16021790555060608201518160020160026101000a81548160ff021916908360ff16021790555060808201518160030155505033600a600083815260200190815260200160002060006101000a81548173ffffffffffffffffffffffffffffffffffffffff021916908373ffffffffffffffffffffffffffffffffffffffff160217905550610b086001600b60003373ffffffffffffffffffffffffffffffffffffffff1673ffffffffffffffffffffffffffffffffffffffff1681526020019081526020016000205461191f90919063ffffffff16565b600b60003373ffffffffffffffffffffffffffffffffffffffff1673ffffffffffffffffffffffffffffffffffffffff168152602001908152602001600020819055507f806638a1fc90cec1d905c742ef32e76004dcce146ea274170b3018708eec5b2f8185604051610b7c929190613268565b60405180910390a150505050565b600a6020528060005260406000206000915054906101000a900473ffffffffffffffffffffffffffffffffffffffff1681565b610bce610bc861185e565b82611935565b610c0d576040517f08c379a0000000000000000000000000000000000000000000000000000000008152600401610c049061330a565b60405180910390fd5b610c18838383611a13565b505050565b610c3883838360405180602001604052806000815250611169565b505050565b6014828160098281548110610c5557610c5461332a565b5b906000526020600020906004020160020160009054906101000a900461ffff1661ffff161015610c8457600080fd5b83600a600082815260200190815260200160002060009054906101000a900473ffffffffffffffffffffffffffffffffffffffff1673ffffffffffffffffffffffffffffffffffffffff163373ffffffffffffffffffffffffffffffffffffffff1614610cf057600080fd5b600c543414610cfe57600080fd5b8360098681548110610d1357610d1261332a565b5b9060005260206000209060040201600101819055505050505050565b80600a600082815260200190815260200160002060009054906101000a900473ffffffffffffffffffffffffffffffffffffffff1673ffffffffffffffffffffffffffffffffffffffff163373ffffffffffffffffffffffffffffffffffffffff1614610d9b57600080fd5b600060098381548110610db157610db061332a565b5b9060005260206000209060040201905060018160020160009054906101000a900461ffff16610de09190613396565b8160020160006101000a81548161ffff021916908361ffff160217905550505050565b6000806003600084815260200190815260200160002060009054906101000a900473ffffffffffffffffffffffffffffffffffffffff169050600073ffffffffffffffffffffffffffffffffffffffff168173ffffffffffffffffffffffffffffffffffffffff1603610eab576040517f08c379a0000000000000000000000000000000000000000000000000000000008152600401610ea290613440565b60405180910390fd5b80915050919050565b610ebe8282611c79565b5050565b60008073ffffffffffffffffffffffffffffffffffffffff168273ffffffffffffffffffffffffffffffffffffffff1603610f32576040517f08c379a0000000000000000000000000000000000000000000000000000000008152600401610f29906134d2565b60405180910390fd5b600460008373ffffffffffffffffffffffffffffffffffffffff1673ffffffffffffffffffffffffffffffffffffffff168152602001908152602001600020549050919050565b610f8161185e565b73ffffffffffffffffffffffffffffffffffffffff16610f9f611001565b73ffffffffffffffffffffffffffffffffffffffff1614610ff5576040517f08c379a0000000000000000000000000000000000000000000000000000000008152600401610fec9061353e565b60405180910390fd5b610fff6000611c97565b565b60008060009054906101000a900473ffffffffffffffffffffffffffffffffffffffff16905090565b60606002805461103990613081565b80601f016020809104026020016040519081016040528092919081815260200182805461106590613081565b80156110b25780601f10611087576101008083540402835291602001916110b2565b820191906000526020600020905b81548152906001019060200180831161109557829003601f168201915b5050505050905090565b6110ce6110c761185e565b8383611d5b565b5050565b6110da61185e565b73ffffffffffffffffffffffffffffffffffffffff166110f8611001565b73ffffffffffffffffffffffffffffffffffffffff161461114e576040517f08c379a00000000000000000000000000000000000000000000000000000000081526004016111459061353e565b60405180910390fd5b611159838383611ec7565b611164838383610bbd565b505050565b61117a61117461185e565b83611935565b6111b9576040517f08c379a00000000000000000000000000000000000000000000000000000000081526004016111b09061330a565b60405180910390fd5b6111c5848484846120a5565b50505050565b60028381600982815481106111e3576111e261332a565b5b906000526020600020906004020160020160009054906101000a900461ffff1661ffff16101561121257600080fd5b84600a600082815260200190815260200160002060009054906101000a900473ffffffffffffffffffffffffffffffffffffffff1673ffffffffffffffffffffffffffffffffffffffff163373ffffffffffffffffffffffffffffffffffffffff161461127e57600080fd5b600c54341461128c57600080fd5b8484600988815481106112a2576112a161332a565b5b906000526020600020906004020160000191906112c09291906126fc565b50505050505050565b60606112d4826117f2565b611313576040517f08c379a000000000000000000000000000000000000000000000000000000000815260040161130a906135d0565b60405180910390fd5b600061131d612101565b9050600081511161133d5760405180602001604052806000815250611368565b8061134784612118565b60405160200161135892919061362c565b6040516020818303038152906040525b915050919050565b60606000600b60008473ffffffffffffffffffffffffffffffffffffffff1673ffffffffffffffffffffffffffffffffffffffff1681526020019081526020016000205467ffffffffffffffff8111156113cd576113cc612a5e565b5b6040519080825280602002602001820160405280156113fb5781602001602082028036833780820191505090505b5090506000805b6009805490508110156114b7578473ffffffffffffffffffffffffffffffffffffffff16600a600083815260200190815260200160002060009054906101000a900473ffffffffffffffffffffffffffffffffffffffff1673ffffffffffffffffffffffffffffffffffffffff16036114a457808383815181106114895761148861332a565b5b60200260200101818152505081806114a090613650565b9250505b80806114af90613650565b915050611402565b508192505050919050565b6114ca61185e565b73ffffffffffffffffffffffffffffffffffffffff166114e8611001565b73ffffffffffffffffffffffffffffffffffffffff161461153e576040517f08c379a00000000000000000000000000000000000000000000000000000000081526004016115359061353e565b60405180910390fd5b80600c8190555050565b6000600660008473ffffffffffffffffffffffffffffffffffffffff1673ffffffffffffffffffffffffffffffffffffffff16815260200190815260200160002060008373ffffffffffffffffffffffffffffffffffffffff1673ffffffffffffffffffffffffffffffffffffffff16815260200190815260200160002060009054906101000a900460ff16905092915050565b80600a600082815260200190815260200160002060009054906101000a900473ffffffffffffffffffffffffffffffffffffffff1673ffffffffffffffffffffffffffffffffffffffff163373ffffffffffffffffffffffffffffffffffffffff161461164857600080fd5b60006009838154811061165e5761165d61332a565b5b90600052602060002090600402019050600a8160020160026101000a81548160ff021916908360ff160217905550505050565b61169961185e565b73ffffffffffffffffffffffffffffffffffffffff166116b7611001565b73ffffffffffffffffffffffffffffffffffffffff161461170d576040517f08c379a00000000000000000000000000000000000000000000000000000000081526004016117049061353e565b60405180910390fd5b600073ffffffffffffffffffffffffffffffffffffffff168173ffffffffffffffffffffffffffffffffffffffff160361177c576040517f08c379a00000000000000000000000000000000000000000000000000000000081526004016117739061370a565b60405180910390fd5b61178581611c97565b50565b60007f01ffc9a7000000000000000000000000000000000000000000000000000000007bffffffffffffffffffffffffffffffffffffffffffffffffffffffff1916827bffffffffffffffffffffffffffffffffffffffffffffffffffffffff1916149050919050565b60008073ffffffffffffffffffffffffffffffffffffffff166003600084815260200190815260200160002060009054906101000a900473ffffffffffffffffffffffffffffffffffffffff1673ffffffffffffffffffffffffffffffffffffffff1614159050919050565b600033905090565b816005600083815260200190815260200160002060006101000a81548173ffffffffffffffffffffffffffffffffffffffff021916908373ffffffffffffffffffffffffffffffffffffffff160217905550808273ffffffffffffffffffffffffffffffffffffffff166118d983610e03565b73ffffffffffffffffffffffffffffffffffffffff167f8c5be1e5ebec7d5bd14f71427d1e84f3dd0314c0f7b2291e5b200ac8c7c3b92560405160405180910390a45050565b6000818361192d919061372a565b905092915050565b6000611940826117f2565b61197f576040517f08c379a0000000000000000000000000000000000000000000000000000000008152600401611976906137f2565b60405180910390fd5b600061198a83610e03565b90508073ffffffffffffffffffffffffffffffffffffffff168473ffffffffffffffffffffffffffffffffffffffff1614806119f957508373ffffffffffffffffffffffffffffffffffffffff166119e184610791565b73ffffffffffffffffffffffffffffffffffffffff16145b80611a0a5750611a098185611548565b5b91505092915050565b8273ffffffffffffffffffffffffffffffffffffffff16611a3382610e03565b73ffffffffffffffffffffffffffffffffffffffff1614611a89576040517f08c379a0000000000000000000000000000000000000000000000000000000008152600401611a8090613884565b60405180910390fd5b600073ffffffffffffffffffffffffffffffffffffffff168273ffffffffffffffffffffffffffffffffffffffff1603611af8576040517f08c379a0000000000000000000000000000000000000000000000000000000008152600401611aef90613916565b60405180910390fd5b611b03838383612278565b611b0e600082611866565b6001600460008573ffffffffffffffffffffffffffffffffffffffff1673ffffffffffffffffffffffffffffffffffffffff1681526020019081526020016000206000828254611b5e9190613936565b925050819055506001600460008473ffffffffffffffffffffffffffffffffffffffff1673ffffffffffffffffffffffffffffffffffffffff1681526020019081526020016000206000828254611bb5919061372a565b92505081905550816003600083815260200190815260200160002060006101000a81548173ffffffffffffffffffffffffffffffffffffffff021916908373ffffffffffffffffffffffffffffffffffffffff160217905550808273ffffffffffffffffffffffffffffffffffffffff168473ffffffffffffffffffffffffffffffffffffffff167fddf252ad1be2c89b69c2b068fc378daa952ba7f163c4a11628f55a4df523b3ef60405160405180910390a4611c7483838361227d565b505050565b611c93828260405180602001604052806000815250612282565b5050565b60008060009054906101000a900473ffffffffffffffffffffffffffffffffffffffff169050816000806101000a81548173ffffffffffffffffffffffffffffffffffffffff021916908373ffffffffffffffffffffffffffffffffffffffff1602179055508173ffffffffffffffffffffffffffffffffffffffff168173ffffffffffffffffffffffffffffffffffffffff167f8be0079c531659141344cd1fd0a4f28419497f9722a3daafe3b4186f6b6457e060405160405180910390a35050565b8173ffffffffffffffffffffffffffffffffffffffff168373ffffffffffffffffffffffffffffffffffffffff1603611dc9576040517f08c379a0000000000000000000000000000000000000000000000000000000008152600401611dc0906139b6565b60405180910390fd5b80600660008573ffffffffffffffffffffffffffffffffffffffff1673ffffffffffffffffffffffffffffffffffffffff16815260200190815260200160002060008473ffffffffffffffffffffffffffffffffffffffff1673ffffffffffffffffffffffffffffffffffffffff16815260200190815260200160002060006101000a81548160ff0219169083151502179055508173ffffffffffffffffffffffffffffffffffffffff168373ffffffffffffffffffffffffffffffffffffffff167f17307eab39ab6107e8899845ad3d59bd9653f200f220920489ca2b5937696c3183604051611eba9190612853565b60405180910390a3505050565b611f1a6001600b60008573ffffffffffffffffffffffffffffffffffffffff1673ffffffffffffffffffffffffffffffffffffffff1681526020019081526020016000205461191f90919063ffffffff16565b600b60008473ffffffffffffffffffffffffffffffffffffffff1673ffffffffffffffffffffffffffffffffffffffff16815260200190815260200160002081905550611fb06001600b60003373ffffffffffffffffffffffffffffffffffffffff1673ffffffffffffffffffffffffffffffffffffffff168152602001908152602001600020546122dd90919063ffffffff16565b600b60003373ffffffffffffffffffffffffffffffffffffffff1673ffffffffffffffffffffffffffffffffffffffff1681526020019081526020016000208190555081600a600083815260200190815260200160002060006101000a81548173ffffffffffffffffffffffffffffffffffffffff021916908373ffffffffffffffffffffffffffffffffffffffff160217905550808273ffffffffffffffffffffffffffffffffffffffff168473ffffffffffffffffffffffffffffffffffffffff167fddf252ad1be2c89b69c2b068fc378daa952ba7f163c4a11628f55a4df523b3ef60405160405180910390a4505050565b6120b0848484611a13565b6120bc848484846122f3565b6120fb576040517f08c379a00000000000000000000000000000000000000000000000000000000081526004016120f290613a48565b60405180910390fd5b50505050565b606060405180602001604052806000815250905090565b60606000820361215f576040518060400160405280600181526020017f30000000000000000000000000000000000000000000000000000000000000008152509050612273565b600082905060005b6000821461219157808061217a90613650565b915050600a8261218a9190613a97565b9150612167565b60008167ffffffffffffffff8111156121ad576121ac612a5e565b5b6040519080825280601f01601f1916602001820160405280156121df5781602001600182028036833780820191505090505b5090505b6000851461226c576001826121f89190613936565b9150600a856122079190613ac8565b6030612213919061372a565b60f81b8183815181106122295761222861332a565b5b60200101907effffffffffffffffffffffffffffffffffffffffffffffffffffffffffffff1916908160001a905350600a856122659190613a97565b94506121e3565b8093505050505b919050565b505050565b505050565b61228c838361247a565b61229960008484846122f3565b6122d8576040517f08c379a00000000000000000000000000000000000000000000000000000000081526004016122cf90613a48565b60405180910390fd5b505050565b600081836122eb9190613936565b905092915050565b60006123148473ffffffffffffffffffffffffffffffffffffffff16612653565b1561246d578373ffffffffffffffffffffffffffffffffffffffff1663150b7a0261233d61185e565b8786866040518563ffffffff1660e01b815260040161235f9493929190613b4e565b6020604051808303816000875af192505050801561239b57506040513d601f19601f820116820180604052508101906123989190613baf565b60015b61241d573d80600081146123cb576040519150601f19603f3d011682016040523d82523d6000602084013e6123d0565b606091505b506000815103612415576040517f08c379a000000000000000000000000000000000000000000000000000000000815260040161240c90613a48565b60405180910390fd5b805181602001fd5b63150b7a0260e01b7bffffffffffffffffffffffffffffffffffffffffffffffffffffffff1916817bffffffffffffffffffffffffffffffffffffffffffffffffffffffff191614915050612472565b600190505b949350505050565b600073ffffffffffffffffffffffffffffffffffffffff168273ffffffffffffffffffffffffffffffffffffffff16036124e9576040517f08c379a00000000000000000000000000000000000000000000000000000000081526004016124e090613c28565b60405180910390fd5b6124f2816117f2565b15612532576040517f08c379a000000000000000000000000000000000000000000000000000000000815260040161252990613c94565b60405180910390fd5b61253e60008383612278565b6001600460008473ffffffffffffffffffffffffffffffffffffffff1673ffffffffffffffffffffffffffffffffffffffff168152602001908152602001600020600082825461258e919061372a565b92505081905550816003600083815260200190815260200160002060006101000a81548173ffffffffffffffffffffffffffffffffffffffff021916908373ffffffffffffffffffffffffffffffffffffffff160217905550808273ffffffffffffffffffffffffffffffffffffffff16600073ffffffffffffffffffffffffffffffffffffffff167fddf252ad1be2c89b69c2b068fc378daa952ba7f163c4a11628f55a4df523b3ef60405160405180910390a461264f6000838361227d565b5050565b6000808273ffffffffffffffffffffffffffffffffffffffff163b119050919050565b82805461268290613081565b90600052602060002090601f0160209004810192826126a457600085556126eb565b82601f106126bd57805160ff19168380011785556126eb565b828001600101855582156126eb579182015b828111156126ea5782518255916020019190600101906126cf565b5b5090506126f89190612782565b5090565b82805461270890613081565b90600052602060002090601f01602090048101928261272a5760008555612771565b82601f1061274357803560ff1916838001178555612771565b82800160010185558215612771579182015b82811115612770578235825591602001919060010190612755565b5b50905061277e9190612782565b5090565b5b8082111561279b576000816000905550600101612783565b5090565b6000604051905090565b600080fd5b600080fd5b60007fffffffff0000000000000000000000000000000000000000000000000000000082169050919050565b6127e8816127b3565b81146127f357600080fd5b50565b600081359050612805816127df565b92915050565b600060208284031215612821576128206127a9565b5b600061282f848285016127f6565b91505092915050565b60008115159050919050565b61284d81612838565b82525050565b60006020820190506128686000830184612844565b92915050565b600081519050919050565b600082825260208201905092915050565b60005b838110156128a857808201518184015260208101905061288d565b838111156128b7576000848401525b50505050565b6000601f19601f8301169050919050565b60006128d98261286e565b6128e38185612879565b93506128f381856020860161288a565b6128fc816128bd565b840191505092915050565b6000602082019050818103600083015261292181846128ce565b905092915050565b6000819050919050565b61293c81612929565b811461294757600080fd5b50565b60008135905061295981612933565b92915050565b600060208284031215612975576129746127a9565b5b60006129838482850161294a565b91505092915050565b600073ffffffffffffffffffffffffffffffffffffffff82169050919050565b60006129b78261298c565b9050919050565b6129c7816129ac565b82525050565b60006020820190506129e260008301846129be565b92915050565b6129f1816129ac565b81146129fc57600080fd5b50565b600081359050612a0e816129e8565b92915050565b60008060408385031215612a2b57612a2a6127a9565b5b6000612a39858286016129ff565b9250506020612a4a8582860161294a565b9150509250929050565b600080fd5b600080fd5b7f4e487b7100000000000000000000000000000000000000000000000000000000600052604160045260246000fd5b612a96826128bd565b810181811067ffffffffffffffff82111715612ab557612ab4612a5e565b5b80604052505050565b6000612ac861279f565b9050612ad48282612a8d565b919050565b600067ffffffffffffffff821115612af457612af3612a5e565b5b612afd826128bd565b9050602081019050919050565b82818337600083830152505050565b6000612b2c612b2784612ad9565b612abe565b905082815260208101848484011115612b4857612b47612a59565b5b612b53848285612b0a565b509392505050565b600082601f830112612b7057612b6f612a54565b5b8135612b80848260208601612b19565b91505092915050565b600080600060608486031215612ba257612ba16127a9565b5b600084013567ffffffffffffffff811115612bc057612bbf6127ae565b5b612bcc86828701612b5b565b9350506020612bdd8682870161294a565b9250506040612bee8682870161294a565b9150509250925092565b600080600060608486031215612c1157612c106127a9565b5b6000612c1f868287016129ff565b9350506020612c30868287016129ff565b9250506040612c418682870161294a565b9150509250925092565b60008060408385031215612c6257612c616127a9565b5b6000612c708582860161294a565b9250506020612c818582860161294a565b9150509250929050565b600060208284031215612ca157612ca06127a9565b5b6000612caf848285016129ff565b91505092915050565b612cc181612929565b82525050565b6000602082019050612cdc6000830184612cb8565b92915050565b612ceb81612838565b8114612cf657600080fd5b50565b600081359050612d0881612ce2565b92915050565b60008060408385031215612d2557612d246127a9565b5b6000612d33858286016129ff565b9250506020612d4485828601612cf9565b9150509250929050565b600067ffffffffffffffff821115612d6957612d68612a5e565b5b612d72826128bd565b9050602081019050919050565b6000612d92612d8d84612d4e565b612abe565b905082815260208101848484011115612dae57612dad612a59565b5b612db9848285612b0a565b509392505050565b600082601f830112612dd657612dd5612a54565b5b8135612de6848260208601612d7f565b91505092915050565b60008060008060808587031215612e0957612e086127a9565b5b6000612e17878288016129ff565b9450506020612e28878288016129ff565b9350506040612e398782880161294a565b925050606085013567ffffffffffffffff811115612e5a57612e596127ae565b5b612e6687828801612dc1565b91505092959194509250565b600080fd5b600080fd5b60008083601f840112612e9257612e91612a54565b5b8235905067ffffffffffffffff811115612eaf57612eae612e72565b5b602083019150836001820283011115612ecb57612eca612e77565b5b9250929050565b600080600060408486031215612eeb57612eea6127a9565b5b6000612ef98682870161294a565b935050602084013567ffffffffffffffff811115612f1a57612f196127ae565b5b612f2686828701612e7c565b92509250509250925092565b600081519050919050565b600082825260208201905092915050565b6000819050602082019050919050565b612f6781612929565b82525050565b6000612f798383612f5e565b60208301905092915050565b6000602082019050919050565b6000612f9d82612f32565b612fa78185612f3d565b9350612fb283612f4e565b8060005b83811015612fe3578151612fca8882612f6d565b9750612fd583612f85565b925050600181019050612fb6565b5085935050505092915050565b6000602082019050818103600083015261300a8184612f92565b905092915050565b60008060408385031215613029576130286127a9565b5b6000613037858286016129ff565b9250506020613048858286016129ff565b9150509250929050565b7f4e487b7100000000000000000000000000000000000000000000000000000000600052602260045260246000fd5b6000600282049050600182168061309957607f821691505b6020821081036130ac576130ab613052565b5b50919050565b7f4552433732313a20617070726f76656420717565727920666f72206e6f6e657860008201527f697374656e7420746f6b656e0000000000000000000000000000000000000000602082015250565b600061310e602c83612879565b9150613119826130b2565b604082019050919050565b6000602082019050818103600083015261313d81613101565b9050919050565b7f4552433732313a20617070726f76616c20746f2063757272656e74206f776e6560008201527f7200000000000000000000000000000000000000000000000000000000000000602082015250565b60006131a0602183612879565b91506131ab82613144565b604082019050919050565b600060208201905081810360008301526131cf81613193565b9050919050565b7f4552433732313a20617070726f76652063616c6c6572206973206e6f74206f7760008201527f6e6572206e6f7220617070726f76656420666f7220616c6c0000000000000000602082015250565b6000613232603883612879565b915061323d826131d6565b604082019050919050565b6000602082019050818103600083015261326181613225565b9050919050565b600060408201905061327d6000830185612cb8565b818103602083015261328f81846128ce565b90509392505050565b7f4552433732313a207472616e736665722063616c6c6572206973206e6f74206f60008201527f776e6572206e6f7220617070726f766564000000000000000000000000000000602082015250565b60006132f4603183612879565b91506132ff82613298565b604082019050919050565b60006020820190508181036000830152613323816132e7565b9050919050565b7f4e487b7100000000000000000000000000000000000000000000000000000000600052603260045260246000fd5b600061ffff82169050919050565b7f4e487b7100000000000000000000000000000000000000000000000000000000600052601160045260246000fd5b60006133a182613359565b91506133ac83613359565b92508261ffff038211156133c3576133c2613367565b5b828201905092915050565b7f4552433732313a206f776e657220717565727920666f72206e6f6e657869737460008201527f656e7420746f6b656e0000000000000000000000000000000000000000000000602082015250565b600061342a602983612879565b9150613435826133ce565b604082019050919050565b600060208201905081810360008301526134598161341d565b9050919050565b7f4552433732313a2062616c616e636520717565727920666f7220746865207a6560008201527f726f206164647265737300000000000000000000000000000000000000000000602082015250565b60006134bc602a83612879565b91506134c782613460565b604082019050919050565b600060208201905081810360008301526134eb816134af565b9050919050565b7f4f776e61626c653a2063616c6c6572206973206e6f7420746865206f776e6572600082015250565b6000613528602083612879565b9150613533826134f2565b602082019050919050565b600060208201905081810360008301526135578161351b565b9050919050565b7f4552433732314d657461646174613a2055524920717565727920666f72206e6f60008201527f6e6578697374656e7420746f6b656e0000000000000000000000000000000000602082015250565b60006135ba602f83612879565b91506135c58261355e565b604082019050919050565b600060208201905081810360008301526135e9816135ad565b9050919050565b600081905092915050565b60006136068261286e565b61361081856135f0565b935061362081856020860161288a565b80840191505092915050565b600061363882856135fb565b915061364482846135fb565b91508190509392505050565b600061365b82612929565b91507fffffffffffffffffffffffffffffffffffffffffffffffffffffffffffffffff820361368d5761368c613367565b5b600182019050919050565b7f4f776e61626c653a206e6577206f776e657220697320746865207a65726f206160008201527f6464726573730000000000000000000000000000000000000000000000000000602082015250565b60006136f4602683612879565b91506136ff82613698565b604082019050919050565b60006020820190508181036000830152613723816136e7565b9050919050565b600061373582612929565b915061374083612929565b9250827fffffffffffffffffffffffffffffffffffffffffffffffffffffffffffffffff0382111561377557613774613367565b5b828201905092915050565b7f4552433732313a206f70657261746f7220717565727920666f72206e6f6e657860008201527f697374656e7420746f6b656e0000000000000000000000000000000000000000602082015250565b60006137dc602c83612879565b91506137e782613780565b604082019050919050565b6000602082019050818103600083015261380b816137cf565b9050919050565b7f4552433732313a207472616e736665722066726f6d20696e636f72726563742060008201527f6f776e6572000000000000000000000000000000000000000000000000000000602082015250565b600061386e602583612879565b915061387982613812565b604082019050919050565b6000602082019050818103600083015261389d81613861565b9050919050565b7f4552433732313a207472616e7366657220746f20746865207a65726f2061646460008201527f7265737300000000000000000000000000000000000000000000000000000000602082015250565b6000613900602483612879565b915061390b826138a4565b604082019050919050565b6000602082019050818103600083015261392f816138f3565b9050919050565b600061394182612929565b915061394c83612929565b92508282101561395f5761395e613367565b5b828203905092915050565b7f4552433732313a20617070726f766520746f2063616c6c657200000000000000600082015250565b60006139a0601983612879565b91506139ab8261396a565b602082019050919050565b600060208201905081810360008301526139cf81613993565b9050919050565b7f4552433732313a207472616e7366657220746f206e6f6e20455243373231526560008201527f63656976657220696d706c656d656e7465720000000000000000000000000000602082015250565b6000613a32603283612879565b9150613a3d826139d6565b604082019050919050565b60006020820190508181036000830152613a6181613a25565b9050919050565b7f4e487b7100000000000000000000000000000000000000000000000000000000600052601260045260246000fd5b6000613aa282612929565b9150613aad83612929565b925082613abd57613abc613a68565b5b828204905092915050565b6000613ad382612929565b9150613ade83612929565b925082613aee57613aed613a68565b5b828206905092915050565b600081519050919050565b600082825260208201905092915050565b6000613b2082613af9565b613b2a8185613b04565b9350613b3a81856020860161288a565b613b43816128bd565b840191505092915050565b6000608082019050613b6360008301876129be565b613b7060208301866129be565b613b7d6040830185612cb8565b8181036060830152613b8f8184613b15565b905095945050505050565b600081519050613ba9816127df565b92915050565b600060208284031215613bc557613bc46127a9565b5b6000613bd384828501613b9a565b91505092915050565b7f4552433732313a206d696e7420746f20746865207a65726f2061646472657373600082015250565b6000613c12602083612879565b9150613c1d82613bdc565b602082019050919050565b60006020820190508181036000830152613c4181613c05565b9050919050565b7f4552433732313a20746f6b656e20616c7265616479206d696e74656400000000600082015250565b6000613c7e601c83612879565b9150613c8982613c48565b602082019050919050565b60006020820190508181036000830152613cad81613c71565b905091905056fea26469706673582212204a616fd78c2af817bb6a61ca3e05b77df7aba75e300dba5199d8a0ff0d25e36f64736f6c634300080d0033",
  "immutableReferences": {},
  "source": "pragma solidity ^0.8.0;\n\nimport \"./scinionfactory.sol\";\n\n\ncontract ScinionHelper is ScinionFactory {\n\n     uint levelUpFee = 0.001 ether;\n\n\n    function setLevelUpFee(uint _fee) external onlyOwner {\n        levelUpFee = _fee;\n    }\n\n    modifier aboveLevel(uint _level, uint _scinionId) {\n        require(scinions[_scinionId].level >= _level);\n         _;\n    }\n      \n    \n    function changeName(uint _scinionId, string calldata _newName) external payable aboveLevel(2, _scinionId) onlyOwnerOf(_scinionId) {\n        require(msg.value == levelUpFee);\n        scinions[_scinionId].name = _newName;\n    }\n\n    function changeDna(uint _scinionId, uint _newDna) external payable aboveLevel(20, _scinionId) onlyOwnerOf(_scinionId) {\n        require(msg.value == levelUpFee);\n        scinions[_scinionId].dna = _newDna;\n    }\n\n    function getScinionsByOwner(address _owner) external view returns(uint[] memory) {\n        uint[] memory result = new uint[](ownerScinionCount[_owner]);\n        uint counter = 0;\n        for (uint i = 0; i < scinions.length; i++) {\n            if (scinionToOwner[i] == _owner) {\n                result[counter] = i;\n                counter++;\n            }\n        }\n        return result;\n    }\n\n\n    function completarInvestigacion(uint _scinionId) public onlyOwnerOf(_scinionId) {\n        Scinion storage scinionSelected = scinions[_scinionId];\n        scinionSelected.level = scinionSelected.level+1;\n    }\n\n\n    function dormir(uint _scinionId) public onlyOwnerOf(_scinionId) {\n        Scinion storage scinionSelected = scinions[_scinionId];\n        scinionSelected.energia = 10;\n    }\n\n\n}",
  "sourcePath": "/Users/albateixidovillanueva/Desktop/scinions/contracts/scinionhelper.sol",
  "compiler": {
    "name": "solc",
    "version": "0.8.13+commit.abaa5c0e.Emscripten.clang"
  },
  "schemaVersion": "3.4.6",
  "updatedAt": "2022-03-30T17:35:08.588Z",
  "networkType": "ethereum",
  "devdoc": {
    "kind": "dev",
    "methods": {
      "approve(address,uint256)": {
        "details": "See {IERC721-approve}."
      },
      "balanceOf(address)": {
        "details": "See {IERC721-balanceOf}."
      },
      "getApproved(uint256)": {
        "details": "See {IERC721-getApproved}."
      },
      "isApprovedForAll(address,address)": {
        "details": "See {IERC721-isApprovedForAll}."
      },
      "name()": {
        "details": "See {IERC721Metadata-name}."
      },
      "owner()": {
        "details": "Returns the address of the current owner."
      },
      "ownerOf(uint256)": {
        "details": "See {IERC721-ownerOf}."
      },
      "renounceOwnership()": {
        "details": "Leaves the contract without owner. It will not be possible to call `onlyOwner` functions anymore. Can only be called by the current owner. NOTE: Renouncing ownership will leave the contract without an owner, thereby removing any functionality that is only available to the owner."
      },
      "safeTransferFrom(address,address,uint256)": {
        "details": "See {IERC721-safeTransferFrom}."
      },
      "safeTransferFrom(address,address,uint256,bytes)": {
        "details": "See {IERC721-safeTransferFrom}."
      },
      "setApprovalForAll(address,bool)": {
        "details": "See {IERC721-setApprovalForAll}."
      },
      "supportsInterface(bytes4)": {
        "details": "See {IERC165-supportsInterface}."
      },
      "symbol()": {
        "details": "See {IERC721Metadata-symbol}."
      },
      "tokenURI(uint256)": {
        "details": "See {IERC721Metadata-tokenURI}."
      },
      "transferFrom(address,address,uint256)": {
        "details": "See {IERC721-transferFrom}."
      },
      "transferOwnership(address)": {
        "details": "Transfers ownership of the contract to a new account (`newOwner`). Can only be called by the current owner."
      }
    },
    "version": 1
  },
  "userdoc": {
    "kind": "user",
    "methods": {},
    "version": 1
  }
}