{
  "contractName": "ScinionFactory",
  "abi": [
    {
      "inputs": [],
      "stateMutability": "nonpayable",
      "type": "constructor"
    },
    {
      "anonymous": false,
      "inputs": [
        {
          "indexed": true,
          "internalType": "address",
          "name": "owner",
          "type": "address"
        },
        {
          "indexed": true,
          "internalType": "address",
          "name": "approved",
          "type": "address"
        },
        {
          "indexed": true,
          "internalType": "uint256",
          "name": "tokenId",
          "type": "uint256"
        }
      ],
      "name": "Approval",
      "type": "event"
    },
    {
      "anonymous": false,
      "inputs": [
        {
          "indexed": true,
          "internalType": "address",
          "name": "owner",
          "type": "address"
        },
        {
          "indexed": true,
          "internalType": "address",
          "name": "operator",
          "type": "address"
        },
        {
          "indexed": false,
          "internalType": "bool",
          "name": "approved",
          "type": "bool"
        }
      ],
      "name": "ApprovalForAll",
      "type": "event"
    },
    {
      "anonymous": false,
      "inputs": [
        {
          "indexed": false,
          "internalType": "uint256",
          "name": "scinionId",
          "type": "uint256"
        },
        {
          "indexed": false,
          "internalType": "string",
          "name": "name",
          "type": "string"
        }
      ],
      "name": "NewScinion",
      "type": "event"
    },
    {
      "anonymous": false,
      "inputs": [
        {
          "indexed": true,
          "internalType": "address",
          "name": "previousOwner",
          "type": "address"
        },
        {
          "indexed": true,
          "internalType": "address",
          "name": "newOwner",
          "type": "address"
        }
      ],
      "name": "OwnershipTransferred",
      "type": "event"
    },
    {
      "anonymous": false,
      "inputs": [
        {
          "indexed": true,
          "internalType": "address",
          "name": "from",
          "type": "address"
        },
        {
          "indexed": true,
          "internalType": "address",
          "name": "to",
          "type": "address"
        },
        {
          "indexed": true,
          "internalType": "uint256",
          "name": "tokenId",
          "type": "uint256"
        }
      ],
      "name": "Transfer",
      "type": "event"
    },
    {
      "inputs": [
        {
          "internalType": "address",
          "name": "to",
          "type": "address"
        },
        {
          "internalType": "uint256",
          "name": "tokenId",
          "type": "uint256"
        }
      ],
      "name": "approve",
      "outputs": [],
      "stateMutability": "nonpayable",
      "type": "function"
    },
    {
      "inputs": [
        {
          "internalType": "address",
          "name": "owner",
          "type": "address"
        }
      ],
      "name": "balanceOf",
      "outputs": [
        {
          "internalType": "uint256",
          "name": "",
          "type": "uint256"
        }
      ],
      "stateMutability": "view",
      "type": "function"
    },
    {
      "inputs": [
        {
          "internalType": "uint256",
          "name": "tokenId",
          "type": "uint256"
        }
      ],
      "name": "getApproved",
      "outputs": [
        {
          "internalType": "address",
          "name": "",
          "type": "address"
        }
      ],
      "stateMutability": "view",
      "type": "function"
    },
    {
      "inputs": [
        {
          "internalType": "address",
          "name": "owner",
          "type": "address"
        },
        {
          "internalType": "address",
          "name": "operator",
          "type": "address"
        }
      ],
      "name": "isApprovedForAll",
      "outputs": [
        {
          "internalType": "bool",
          "name": "",
          "type": "bool"
        }
      ],
      "stateMutability": "view",
      "type": "function"
    },
    {
      "inputs": [],
      "name": "name",
      "outputs": [
        {
          "internalType": "string",
          "name": "",
          "type": "string"
        }
      ],
      "stateMutability": "view",
      "type": "function"
    },
    {
      "inputs": [],
      "name": "owner",
      "outputs": [
        {
          "internalType": "address",
          "name": "",
          "type": "address"
        }
      ],
      "stateMutability": "view",
      "type": "function"
    },
    {
      "inputs": [
        {
          "internalType": "uint256",
          "name": "tokenId",
          "type": "uint256"
        }
      ],
      "name": "ownerOf",
      "outputs": [
        {
          "internalType": "address",
          "name": "",
          "type": "address"
        }
      ],
      "stateMutability": "view",
      "type": "function"
    },
    {
      "inputs": [],
      "name": "renounceOwnership",
      "outputs": [],
      "stateMutability": "nonpayable",
      "type": "function"
    },
    {
      "inputs": [
        {
          "internalType": "address",
          "name": "from",
          "type": "address"
        },
        {
          "internalType": "address",
          "name": "to",
          "type": "address"
        },
        {
          "internalType": "uint256",
          "name": "tokenId",
          "type": "uint256"
        }
      ],
      "name": "safeTransferFrom",
      "outputs": [],
      "stateMutability": "nonpayable",
      "type": "function"
    },
    {
      "inputs": [
        {
          "internalType": "address",
          "name": "from",
          "type": "address"
        },
        {
          "internalType": "address",
          "name": "to",
          "type": "address"
        },
        {
          "internalType": "uint256",
          "name": "tokenId",
          "type": "uint256"
        },
        {
          "internalType": "bytes",
          "name": "_data",
          "type": "bytes"
        }
      ],
      "name": "safeTransferFrom",
      "outputs": [],
      "stateMutability": "nonpayable",
      "type": "function"
    },
    {
      "inputs": [
        {
          "internalType": "uint256",
          "name": "",
          "type": "uint256"
        }
      ],
      "name": "scinions",
      "outputs": [
        {
          "internalType": "string",
          "name": "name",
          "type": "string"
        },
        {
          "internalType": "string",
          "name": "scinionType",
          "type": "string"
        },
        {
          "internalType": "uint16",
          "name": "level",
          "type": "uint16"
        },
        {
          "internalType": "uint8",
          "name": "energia",
          "type": "uint8"
        },
        {
          "internalType": "uint256",
          "name": "dna",
          "type": "uint256"
        },
        {
          "internalType": "uint256",
          "name": "habilities",
          "type": "uint256"
        }
      ],
      "stateMutability": "view",
      "type": "function"
    },
    {
      "inputs": [
        {
          "internalType": "address",
          "name": "operator",
          "type": "address"
        },
        {
          "internalType": "bool",
          "name": "approved",
          "type": "bool"
        }
      ],
      "name": "setApprovalForAll",
      "outputs": [],
      "stateMutability": "nonpayable",
      "type": "function"
    },
    {
      "inputs": [
        {
          "internalType": "bytes4",
          "name": "interfaceId",
          "type": "bytes4"
        }
      ],
      "name": "supportsInterface",
      "outputs": [
        {
          "internalType": "bool",
          "name": "",
          "type": "bool"
        }
      ],
      "stateMutability": "view",
      "type": "function"
    },
    {
      "inputs": [],
      "name": "symbol",
      "outputs": [
        {
          "internalType": "string",
          "name": "",
          "type": "string"
        }
      ],
      "stateMutability": "view",
      "type": "function"
    },
    {
      "inputs": [
        {
          "internalType": "address",
          "name": "from",
          "type": "address"
        },
        {
          "internalType": "address",
          "name": "to",
          "type": "address"
        },
        {
          "internalType": "uint256",
          "name": "tokenId",
          "type": "uint256"
        }
      ],
      "name": "transferFrom",
      "outputs": [],
      "stateMutability": "nonpayable",
      "type": "function"
    },
    {
      "inputs": [
        {
          "internalType": "address",
          "name": "newOwner",
          "type": "address"
        }
      ],
      "name": "transferOwnership",
      "outputs": [],
      "stateMutability": "nonpayable",
      "type": "function"
    },
    {
      "inputs": [],
      "name": "getOwner",
      "outputs": [
        {
          "internalType": "address",
          "name": "",
          "type": "address"
        }
      ],
      "stateMutability": "view",
      "type": "function"
    },
    {
      "inputs": [
        {
          "internalType": "uint256",
          "name": "_fee",
          "type": "uint256"
        }
      ],
      "name": "setMinPrice",
      "outputs": [],
      "stateMutability": "nonpayable",
      "type": "function"
    },
    {
      "inputs": [
        {
          "internalType": "string",
          "name": "baseURI_",
          "type": "string"
        }
      ],
      "name": "setBaseURI",
      "outputs": [],
      "stateMutability": "nonpayable",
      "type": "function"
    },
    {
      "inputs": [
        {
          "internalType": "uint256",
          "name": "tokenId",
          "type": "uint256"
        }
      ],
      "name": "tokenURI",
      "outputs": [
        {
          "internalType": "string",
          "name": "",
          "type": "string"
        }
      ],
      "stateMutability": "view",
      "type": "function"
    },
    {
      "inputs": [
        {
          "internalType": "string",
          "name": "_name",
          "type": "string"
        },
        {
          "internalType": "string",
          "name": "tokenURI_",
          "type": "string"
        }
      ],
      "name": "mintScinion",
      "outputs": [
        {
          "internalType": "uint256",
          "name": "id",
          "type": "uint256"
        }
      ],
      "stateMutability": "payable",
      "type": "function"
    }
  ],
  "bytecode": "0x6080604052662386f26fc10000600a553480156200001c57600080fd5b506040518060400160405280600a81526020017f5363696e696f6e4e4654000000000000000000000000000000000000000000008152506040518060400160405280600481526020017f5343544b00000000000000000000000000000000000000000000000000000000815250620000a96200009d6200017260201b60201c565b6200017a60201b60201c565b8160019080519060200190620000c19291906200023e565b508060029080519060200190620000da9291906200023e565b50505033600b60006101000a81548173ffffffffffffffffffffffffffffffffffffffff021916908373ffffffffffffffffffffffffffffffffffffffff1602179055506040518060400160405280601581526020017f68747470733a2f2f697066732e696f2f697066732f0000000000000000000000815250600890805190602001906200016b9291906200023e565b5062000352565b600033905090565b60008060009054906101000a900473ffffffffffffffffffffffffffffffffffffffff169050816000806101000a81548173ffffffffffffffffffffffffffffffffffffffff021916908373ffffffffffffffffffffffffffffffffffffffff1602179055508173ffffffffffffffffffffffffffffffffffffffff168173ffffffffffffffffffffffffffffffffffffffff167f8be0079c531659141344cd1fd0a4f28419497f9722a3daafe3b4186f6b6457e060405160405180910390a35050565b8280546200024c906200031d565b90600052602060002090601f016020900481019282620002705760008555620002bc565b82601f106200028b57805160ff1916838001178555620002bc565b82800160010185558215620002bc579182015b82811115620002bb5782518255916020019190600101906200029e565b5b509050620002cb9190620002cf565b5090565b5b80821115620002ea576000816000905550600101620002d0565b5090565b7f4e487b7100000000000000000000000000000000000000000000000000000000600052602260045260246000fd5b600060028204905060018216806200033657607f821691505b6020821081036200034c576200034b620002ee565b5b50919050565b61356080620003626000396000f3fe60806040526004361061012a5760003560e01c806370a08231116100ab578063a22cb4651161006f578063a22cb465146103f5578063b88d4fde1461041e578063c87b56dd14610447578063e985e9c514610484578063edc0db64146104c1578063f2fde38b146104f15761012a565b806370a0823114610320578063715018a61461035d578063893d20e8146103745780638da5cb5b1461039f57806395d89b41146103ca5761012a565b806342842e0e116100f257806342842e0e1461022657806355f804b31461024f5780635ea8cd12146102785780636352211e146102a15780636da50160146102de5761012a565b806301ffc9a71461012f57806306fdde031461016c578063081812fc14610197578063095ea7b3146101d457806323b872dd146101fd575b600080fd5b34801561013b57600080fd5b50610156600480360381019061015191906121da565b61051a565b6040516101639190612222565b60405180910390f35b34801561017857600080fd5b506101816105fc565b60405161018e91906122d6565b60405180910390f35b3480156101a357600080fd5b506101be60048036038101906101b9919061232e565b61068e565b6040516101cb919061239c565b60405180910390f35b3480156101e057600080fd5b506101fb60048036038101906101f691906123e3565b610713565b005b34801561020957600080fd5b50610224600480360381019061021f9190612423565b61082a565b005b34801561023257600080fd5b5061024d60048036038101906102489190612423565b61088a565b005b34801561025b57600080fd5b50610276600480360381019061027191906125ab565b6108aa565b005b34801561028457600080fd5b5061029f600480360381019061029a919061232e565b610940565b005b3480156102ad57600080fd5b506102c860048036038101906102c3919061232e565b6109c6565b6040516102d5919061239c565b60405180910390f35b3480156102ea57600080fd5b506103056004803603810190610300919061232e565b610a77565b6040516103179695949392919061263c565b60405180910390f35b34801561032c57600080fd5b50610347600480360381019061034291906126ab565b610bee565b60405161035491906126d8565b60405180910390f35b34801561036957600080fd5b50610372610ca5565b005b34801561038057600080fd5b50610389610d2d565b604051610396919061239c565b60405180910390f35b3480156103ab57600080fd5b506103b4610d57565b6040516103c1919061239c565b60405180910390f35b3480156103d657600080fd5b506103df610d80565b6040516103ec91906122d6565b60405180910390f35b34801561040157600080fd5b5061041c6004803603810190610417919061271f565b610e12565b005b34801561042a57600080fd5b5061044560048036038101906104409190612800565b610e28565b005b34801561045357600080fd5b5061046e6004803603810190610469919061232e565b610e8a565b60405161047b91906122d6565b60405180910390f35b34801561049057600080fd5b506104ab60048036038101906104a69190612883565b610ff4565b6040516104b89190612222565b60405180910390f35b6104db60048036038101906104d691906128c3565b611088565b6040516104e891906126d8565b60405180910390f35b3480156104fd57600080fd5b50610518600480360381019061051391906126ab565b61111a565b005b60007f80ac58cd000000000000000000000000000000000000000000000000000000007bffffffffffffffffffffffffffffffffffffffffffffffffffffffff1916827bffffffffffffffffffffffffffffffffffffffffffffffffffffffff191614806105e557507f5b5e139f000000000000000000000000000000000000000000000000000000007bffffffffffffffffffffffffffffffffffffffffffffffffffffffff1916827bffffffffffffffffffffffffffffffffffffffffffffffffffffffff1916145b806105f557506105f482611211565b5b9050919050565b60606001805461060b9061296a565b80601f01602080910402602001604051908101604052809291908181526020018280546106379061296a565b80156106845780601f1061065957610100808354040283529160200191610684565b820191906000526020600020905b81548152906001019060200180831161066757829003601f168201915b5050505050905090565b60006106998261127b565b6106d8576040517f08c379a00000000000000000000000000000000000000000000000000000000081526004016106cf90612a0d565b60405180910390fd5b6005600083815260200190815260200160002060009054906101000a900473ffffffffffffffffffffffffffffffffffffffff169050919050565b600061071e826109c6565b90508073ffffffffffffffffffffffffffffffffffffffff168373ffffffffffffffffffffffffffffffffffffffff160361078e576040517f08c379a000000000000000000000000000000000000000000000000000000000815260040161078590612a9f565b60405180910390fd5b8073ffffffffffffffffffffffffffffffffffffffff166107ad6112e7565b73ffffffffffffffffffffffffffffffffffffffff1614806107dc57506107db816107d66112e7565b610ff4565b5b61081b576040517f08c379a000000000000000000000000000000000000000000000000000000000815260040161081290612b31565b60405180910390fd5b61082583836112ef565b505050565b61083b6108356112e7565b826113a8565b61087a576040517f08c379a000000000000000000000000000000000000000000000000000000000815260040161087190612bc3565b60405180910390fd5b610885838383611486565b505050565b6108a583838360405180602001604052806000815250610e28565b505050565b6108b26112e7565b73ffffffffffffffffffffffffffffffffffffffff166108d0610d57565b73ffffffffffffffffffffffffffffffffffffffff1614610926576040517f08c379a000000000000000000000000000000000000000000000000000000000815260040161091d90612c2f565b60405180910390fd5b806008908051906020019061093c92919061208e565b5050565b6109486112e7565b73ffffffffffffffffffffffffffffffffffffffff16610966610d57565b73ffffffffffffffffffffffffffffffffffffffff16146109bc576040517f08c379a00000000000000000000000000000000000000000000000000000000081526004016109b390612c2f565b60405180910390fd5b80600a8190555050565b6000806003600084815260200190815260200160002060009054906101000a900473ffffffffffffffffffffffffffffffffffffffff169050600073ffffffffffffffffffffffffffffffffffffffff168173ffffffffffffffffffffffffffffffffffffffff1603610a6e576040517f08c379a0000000000000000000000000000000000000000000000000000000008152600401610a6590612cc1565b60405180910390fd5b80915050919050565b600c8181548110610a8757600080fd5b9060005260206000209060050201600091509050806000018054610aaa9061296a565b80601f0160208091040260200160405190810160405280929190818152602001828054610ad69061296a565b8015610b235780601f10610af857610100808354040283529160200191610b23565b820191906000526020600020905b815481529060010190602001808311610b0657829003601f168201915b505050505090806001018054610b389061296a565b80601f0160208091040260200160405190810160405280929190818152602001828054610b649061296a565b8015610bb15780601f10610b8657610100808354040283529160200191610bb1565b820191906000526020600020905b815481529060010190602001808311610b9457829003601f168201915b5050505050908060020160009054906101000a900461ffff16908060020160029054906101000a900460ff16908060030154908060040154905086565b60008073ffffffffffffffffffffffffffffffffffffffff168273ffffffffffffffffffffffffffffffffffffffff1603610c5e576040517f08c379a0000000000000000000000000000000000000000000000000000000008152600401610c5590612d53565b60405180910390fd5b600460008373ffffffffffffffffffffffffffffffffffffffff1673ffffffffffffffffffffffffffffffffffffffff168152602001908152602001600020549050919050565b610cad6112e7565b73ffffffffffffffffffffffffffffffffffffffff16610ccb610d57565b73ffffffffffffffffffffffffffffffffffffffff1614610d21576040517f08c379a0000000000000000000000000000000000000000000000000000000008152600401610d1890612c2f565b60405180910390fd5b610d2b60006116ec565b565b6000600b60009054906101000a900473ffffffffffffffffffffffffffffffffffffffff16905090565b60008060009054906101000a900473ffffffffffffffffffffffffffffffffffffffff16905090565b606060028054610d8f9061296a565b80601f0160208091040260200160405190810160405280929190818152602001828054610dbb9061296a565b8015610e085780601f10610ddd57610100808354040283529160200191610e08565b820191906000526020600020905b815481529060010190602001808311610deb57829003601f168201915b5050505050905090565b610e24610e1d6112e7565b83836117b0565b5050565b610e39610e336112e7565b836113a8565b610e78576040517f08c379a0000000000000000000000000000000000000000000000000000000008152600401610e6f90612bc3565b60405180910390fd5b610e848484848461191c565b50505050565b6060610e958261127b565b610ed4576040517f08c379a0000000000000000000000000000000000000000000000000000000008152600401610ecb90612de5565b60405180910390fd5b6000600960008481526020019081526020016000208054610ef49061296a565b80601f0160208091040260200160405190810160405280929190818152602001828054610f209061296a565b8015610f6d5780601f10610f4257610100808354040283529160200191610f6d565b820191906000526020600020905b815481529060010190602001808311610f5057829003601f168201915b505050505090506000610f7e611978565b90506000815103610f93578192505050610fef565b600082511115610fc8578082604051602001610fb0929190612e41565b60405160208183030381529060405292505050610fef565b8084604051602001610fdb929190612e86565b604051602081830303815290604052925050505b919050565b6000600660008473ffffffffffffffffffffffffffffffffffffffff1673ffffffffffffffffffffffffffffffffffffffff16815260200190815260200160002060008373ffffffffffffffffffffffffffffffffffffffff1673ffffffffffffffffffffffffffffffffffffffff16815260200190815260200160002060009054906101000a900460ff16905092915050565b60008061109484611a0a565b9050803373ffffffffffffffffffffffffffffffffffffffff16600073ffffffffffffffffffffffffffffffffffffffff167fddf252ad1be2c89b69c2b068fc378daa952ba7f163c4a11628f55a4df523b3ef60405160405180910390a46110fc3382611b92565b6111068184611bb0565b61110f81610e8a565b508091505092915050565b6111226112e7565b73ffffffffffffffffffffffffffffffffffffffff16611140610d57565b73ffffffffffffffffffffffffffffffffffffffff1614611196576040517f08c379a000000000000000000000000000000000000000000000000000000000815260040161118d90612c2f565b60405180910390fd5b600073ffffffffffffffffffffffffffffffffffffffff168173ffffffffffffffffffffffffffffffffffffffff1603611205576040517f08c379a00000000000000000000000000000000000000000000000000000000081526004016111fc90612f20565b60405180910390fd5b61120e816116ec565b50565b60007f01ffc9a7000000000000000000000000000000000000000000000000000000007bffffffffffffffffffffffffffffffffffffffffffffffffffffffff1916827bffffffffffffffffffffffffffffffffffffffffffffffffffffffff1916149050919050565b60008073ffffffffffffffffffffffffffffffffffffffff166003600084815260200190815260200160002060009054906101000a900473ffffffffffffffffffffffffffffffffffffffff1673ffffffffffffffffffffffffffffffffffffffff1614159050919050565b600033905090565b816005600083815260200190815260200160002060006101000a81548173ffffffffffffffffffffffffffffffffffffffff021916908373ffffffffffffffffffffffffffffffffffffffff160217905550808273ffffffffffffffffffffffffffffffffffffffff16611362836109c6565b73ffffffffffffffffffffffffffffffffffffffff167f8c5be1e5ebec7d5bd14f71427d1e84f3dd0314c0f7b2291e5b200ac8c7c3b92560405160405180910390a45050565b60006113b38261127b565b6113f2576040517f08c379a00000000000000000000000000000000000000000000000000000000081526004016113e990612fb2565b60405180910390fd5b60006113fd836109c6565b90508073ffffffffffffffffffffffffffffffffffffffff168473ffffffffffffffffffffffffffffffffffffffff16148061146c57508373ffffffffffffffffffffffffffffffffffffffff166114548461068e565b73ffffffffffffffffffffffffffffffffffffffff16145b8061147d575061147c8185610ff4565b5b91505092915050565b8273ffffffffffffffffffffffffffffffffffffffff166114a6826109c6565b73ffffffffffffffffffffffffffffffffffffffff16146114fc576040517f08c379a00000000000000000000000000000000000000000000000000000000081526004016114f390613044565b60405180910390fd5b600073ffffffffffffffffffffffffffffffffffffffff168273ffffffffffffffffffffffffffffffffffffffff160361156b576040517f08c379a0000000000000000000000000000000000000000000000000000000008152600401611562906130d6565b60405180910390fd5b611576838383611c24565b6115816000826112ef565b6001600460008573ffffffffffffffffffffffffffffffffffffffff1673ffffffffffffffffffffffffffffffffffffffff16815260200190815260200160002060008282546115d19190613125565b925050819055506001600460008473ffffffffffffffffffffffffffffffffffffffff1673ffffffffffffffffffffffffffffffffffffffff16815260200190815260200160002060008282546116289190613159565b92505081905550816003600083815260200190815260200160002060006101000a81548173ffffffffffffffffffffffffffffffffffffffff021916908373ffffffffffffffffffffffffffffffffffffffff160217905550808273ffffffffffffffffffffffffffffffffffffffff168473ffffffffffffffffffffffffffffffffffffffff167fddf252ad1be2c89b69c2b068fc378daa952ba7f163c4a11628f55a4df523b3ef60405160405180910390a46116e7838383611c29565b505050565b60008060009054906101000a900473ffffffffffffffffffffffffffffffffffffffff169050816000806101000a81548173ffffffffffffffffffffffffffffffffffffffff021916908373ffffffffffffffffffffffffffffffffffffffff1602179055508173ffffffffffffffffffffffffffffffffffffffff168173ffffffffffffffffffffffffffffffffffffffff167f8be0079c531659141344cd1fd0a4f28419497f9722a3daafe3b4186f6b6457e060405160405180910390a35050565b8173ffffffffffffffffffffffffffffffffffffffff168373ffffffffffffffffffffffffffffffffffffffff160361181e576040517f08c379a0000000000000000000000000000000000000000000000000000000008152600401611815906131fb565b60405180910390fd5b80600660008573ffffffffffffffffffffffffffffffffffffffff1673ffffffffffffffffffffffffffffffffffffffff16815260200190815260200160002060008473ffffffffffffffffffffffffffffffffffffffff1673ffffffffffffffffffffffffffffffffffffffff16815260200190815260200160002060006101000a81548160ff0219169083151502179055508173ffffffffffffffffffffffffffffffffffffffff168373ffffffffffffffffffffffffffffffffffffffff167f17307eab39ab6107e8899845ad3d59bd9653f200f220920489ca2b5937696c318360405161190f9190612222565b60405180910390a3505050565b611927848484611486565b61193384848484611c2e565b611972576040517f08c379a00000000000000000000000000000000000000000000000000000000081526004016119699061328d565b60405180910390fd5b50505050565b6060600880546119879061296a565b80601f01602080910402602001604051908101604052809291908181526020018280546119b39061296a565b8015611a005780601f106119d557610100808354040283529160200191611a00565b820191906000526020600020905b8154815290600101906020018083116119e357829003601f168201915b5050505050905090565b6000611a166007611db5565b6000611a226007611dcb565b9050611a2c612114565b838160000181905250611a3d611dd9565b8160200181905250611a4d611e16565b816080018181525050600a816060019060ff16908160ff16815250506001816040019061ffff16908161ffff1681525050611a86611e22565b8160a0018181525050600c8190806001815401808255809150506001900390600052602060002090600502016000909190919091506000820151816000019080519060200190611ad792919061208e565b506020820151816001019080519060200190611af492919061208e565b5060408201518160020160006101000a81548161ffff021916908361ffff16021790555060608201518160020160026101000a81548160ff021916908360ff1602179055506080820151816003015560a0820151816004015550507f806638a1fc90cec1d905c742ef32e76004dcce146ea274170b3018708eec5b2f8285604051611b809291906132ad565b60405180910390a18192505050919050565b611bac828260405180602001604052806000815250611e37565b5050565b611bb98261127b565b611bf8576040517f08c379a0000000000000000000000000000000000000000000000000000000008152600401611bef9061334f565b60405180910390fd5b80600960008481526020019081526020016000209080519060200190611c1f92919061208e565b505050565b505050565b505050565b6000611c4f8473ffffffffffffffffffffffffffffffffffffffff16611e92565b15611da8578373ffffffffffffffffffffffffffffffffffffffff1663150b7a02611c786112e7565b8786866040518563ffffffff1660e01b8152600401611c9a94939291906133c4565b6020604051808303816000875af1925050508015611cd657506040513d601f19601f82011682018060405250810190611cd39190613425565b60015b611d58573d8060008114611d06576040519150601f19603f3d011682016040523d82523d6000602084013e611d0b565b606091505b506000815103611d50576040517f08c379a0000000000000000000000000000000000000000000000000000000008152600401611d479061328d565b60405180910390fd5b805181602001fd5b63150b7a0260e01b7bffffffffffffffffffffffffffffffffffffffffffffffffffffffff1916817bffffffffffffffffffffffffffffffffffffffffffffffffffffffff191614915050611dad565b600190505b949350505050565b6001816000016000828254019250508190555050565b600081600001549050919050565b60606040518060400160405280600781526020017f5363696e696f6e00000000000000000000000000000000000000000000000000815250905090565b60006306059a01905090565b60006c014370dcb3ba2d04989a029004905090565b611e418383611eb5565b611e4e6000848484611c2e565b611e8d576040517f08c379a0000000000000000000000000000000000000000000000000000000008152600401611e849061328d565b60405180910390fd5b505050565b6000808273ffffffffffffffffffffffffffffffffffffffff163b119050919050565b600073ffffffffffffffffffffffffffffffffffffffff168273ffffffffffffffffffffffffffffffffffffffff1603611f24576040517f08c379a0000000000000000000000000000000000000000000000000000000008152600401611f1b9061349e565b60405180910390fd5b611f2d8161127b565b15611f6d576040517f08c379a0000000000000000000000000000000000000000000000000000000008152600401611f649061350a565b60405180910390fd5b611f7960008383611c24565b6001600460008473ffffffffffffffffffffffffffffffffffffffff1673ffffffffffffffffffffffffffffffffffffffff1681526020019081526020016000206000828254611fc99190613159565b92505081905550816003600083815260200190815260200160002060006101000a81548173ffffffffffffffffffffffffffffffffffffffff021916908373ffffffffffffffffffffffffffffffffffffffff160217905550808273ffffffffffffffffffffffffffffffffffffffff16600073ffffffffffffffffffffffffffffffffffffffff167fddf252ad1be2c89b69c2b068fc378daa952ba7f163c4a11628f55a4df523b3ef60405160405180910390a461208a60008383611c29565b5050565b82805461209a9061296a565b90600052602060002090601f0160209004810192826120bc5760008555612103565b82601f106120d557805160ff1916838001178555612103565b82800160010185558215612103579182015b828111156121025782518255916020019190600101906120e7565b5b5090506121109190612151565b5090565b6040518060c001604052806060815260200160608152602001600061ffff168152602001600060ff16815260200160008152602001600081525090565b5b8082111561216a576000816000905550600101612152565b5090565b6000604051905090565b600080fd5b600080fd5b60007fffffffff0000000000000000000000000000000000000000000000000000000082169050919050565b6121b781612182565b81146121c257600080fd5b50565b6000813590506121d4816121ae565b92915050565b6000602082840312156121f0576121ef612178565b5b60006121fe848285016121c5565b91505092915050565b60008115159050919050565b61221c81612207565b82525050565b60006020820190506122376000830184612213565b92915050565b600081519050919050565b600082825260208201905092915050565b60005b8381101561227757808201518184015260208101905061225c565b83811115612286576000848401525b50505050565b6000601f19601f8301169050919050565b60006122a88261223d565b6122b28185612248565b93506122c2818560208601612259565b6122cb8161228c565b840191505092915050565b600060208201905081810360008301526122f0818461229d565b905092915050565b6000819050919050565b61230b816122f8565b811461231657600080fd5b50565b60008135905061232881612302565b92915050565b60006020828403121561234457612343612178565b5b600061235284828501612319565b91505092915050565b600073ffffffffffffffffffffffffffffffffffffffff82169050919050565b60006123868261235b565b9050919050565b6123968161237b565b82525050565b60006020820190506123b1600083018461238d565b92915050565b6123c08161237b565b81146123cb57600080fd5b50565b6000813590506123dd816123b7565b92915050565b600080604083850312156123fa576123f9612178565b5b6000612408858286016123ce565b925050602061241985828601612319565b9150509250929050565b60008060006060848603121561243c5761243b612178565b5b600061244a868287016123ce565b935050602061245b868287016123ce565b925050604061246c86828701612319565b9150509250925092565b600080fd5b600080fd5b7f4e487b7100000000000000000000000000000000000000000000000000000000600052604160045260246000fd5b6124b88261228c565b810181811067ffffffffffffffff821117156124d7576124d6612480565b5b80604052505050565b60006124ea61216e565b90506124f682826124af565b919050565b600067ffffffffffffffff82111561251657612515612480565b5b61251f8261228c565b9050602081019050919050565b82818337600083830152505050565b600061254e612549846124fb565b6124e0565b90508281526020810184848401111561256a5761256961247b565b5b61257584828561252c565b509392505050565b600082601f83011261259257612591612476565b5b81356125a284826020860161253b565b91505092915050565b6000602082840312156125c1576125c0612178565b5b600082013567ffffffffffffffff8111156125df576125de61217d565b5b6125eb8482850161257d565b91505092915050565b600061ffff82169050919050565b61260b816125f4565b82525050565b600060ff82169050919050565b61262781612611565b82525050565b612636816122f8565b82525050565b600060c0820190508181036000830152612656818961229d565b9050818103602083015261266a818861229d565b90506126796040830187612602565b612686606083018661261e565b612693608083018561262d565b6126a060a083018461262d565b979650505050505050565b6000602082840312156126c1576126c0612178565b5b60006126cf848285016123ce565b91505092915050565b60006020820190506126ed600083018461262d565b92915050565b6126fc81612207565b811461270757600080fd5b50565b600081359050612719816126f3565b92915050565b6000806040838503121561273657612735612178565b5b6000612744858286016123ce565b92505060206127558582860161270a565b9150509250929050565b600067ffffffffffffffff82111561277a57612779612480565b5b6127838261228c565b9050602081019050919050565b60006127a361279e8461275f565b6124e0565b9050828152602081018484840111156127bf576127be61247b565b5b6127ca84828561252c565b509392505050565b600082601f8301126127e7576127e6612476565b5b81356127f7848260208601612790565b91505092915050565b6000806000806080858703121561281a57612819612178565b5b6000612828878288016123ce565b9450506020612839878288016123ce565b935050604061284a87828801612319565b925050606085013567ffffffffffffffff81111561286b5761286a61217d565b5b612877878288016127d2565b91505092959194509250565b6000806040838503121561289a57612899612178565b5b60006128a8858286016123ce565b92505060206128b9858286016123ce565b9150509250929050565b600080604083850312156128da576128d9612178565b5b600083013567ffffffffffffffff8111156128f8576128f761217d565b5b6129048582860161257d565b925050602083013567ffffffffffffffff8111156129255761292461217d565b5b6129318582860161257d565b9150509250929050565b7f4e487b7100000000000000000000000000000000000000000000000000000000600052602260045260246000fd5b6000600282049050600182168061298257607f821691505b6020821081036129955761299461293b565b5b50919050565b7f4552433732313a20617070726f76656420717565727920666f72206e6f6e657860008201527f697374656e7420746f6b656e0000000000000000000000000000000000000000602082015250565b60006129f7602c83612248565b9150612a028261299b565b604082019050919050565b60006020820190508181036000830152612a26816129ea565b9050919050565b7f4552433732313a20617070726f76616c20746f2063757272656e74206f776e6560008201527f7200000000000000000000000000000000000000000000000000000000000000602082015250565b6000612a89602183612248565b9150612a9482612a2d565b604082019050919050565b60006020820190508181036000830152612ab881612a7c565b9050919050565b7f4552433732313a20617070726f76652063616c6c6572206973206e6f74206f7760008201527f6e6572206e6f7220617070726f76656420666f7220616c6c0000000000000000602082015250565b6000612b1b603883612248565b9150612b2682612abf565b604082019050919050565b60006020820190508181036000830152612b4a81612b0e565b9050919050565b7f4552433732313a207472616e736665722063616c6c6572206973206e6f74206f60008201527f776e6572206e6f7220617070726f766564000000000000000000000000000000602082015250565b6000612bad603183612248565b9150612bb882612b51565b604082019050919050565b60006020820190508181036000830152612bdc81612ba0565b9050919050565b7f4f776e61626c653a2063616c6c6572206973206e6f7420746865206f776e6572600082015250565b6000612c19602083612248565b9150612c2482612be3565b602082019050919050565b60006020820190508181036000830152612c4881612c0c565b9050919050565b7f4552433732313a206f776e657220717565727920666f72206e6f6e657869737460008201527f656e7420746f6b656e0000000000000000000000000000000000000000000000602082015250565b6000612cab602983612248565b9150612cb682612c4f565b604082019050919050565b60006020820190508181036000830152612cda81612c9e565b9050919050565b7f4552433732313a2062616c616e636520717565727920666f7220746865207a6560008201527f726f206164647265737300000000000000000000000000000000000000000000602082015250565b6000612d3d602a83612248565b9150612d4882612ce1565b604082019050919050565b60006020820190508181036000830152612d6c81612d30565b9050919050565b7f4552433732314d657461646174613a2055524920717565727920666f72206e6f60008201527f6e6578697374656e7420746f6b656e0000000000000000000000000000000000602082015250565b6000612dcf602f83612248565b9150612dda82612d73565b604082019050919050565b60006020820190508181036000830152612dfe81612dc2565b9050919050565b600081905092915050565b6000612e1b8261223d565b612e258185612e05565b9350612e35818560208601612259565b80840191505092915050565b6000612e4d8285612e10565b9150612e598284612e10565b91508190509392505050565b6000819050919050565b612e80612e7b826122f8565b612e65565b82525050565b6000612e928285612e10565b9150612e9e8284612e6f565b6020820191508190509392505050565b7f4f776e61626c653a206e6577206f776e657220697320746865207a65726f206160008201527f6464726573730000000000000000000000000000000000000000000000000000602082015250565b6000612f0a602683612248565b9150612f1582612eae565b604082019050919050565b60006020820190508181036000830152612f3981612efd565b9050919050565b7f4552433732313a206f70657261746f7220717565727920666f72206e6f6e657860008201527f697374656e7420746f6b656e0000000000000000000000000000000000000000602082015250565b6000612f9c602c83612248565b9150612fa782612f40565b604082019050919050565b60006020820190508181036000830152612fcb81612f8f565b9050919050565b7f4552433732313a207472616e736665722066726f6d20696e636f72726563742060008201527f6f776e6572000000000000000000000000000000000000000000000000000000602082015250565b600061302e602583612248565b915061303982612fd2565b604082019050919050565b6000602082019050818103600083015261305d81613021565b9050919050565b7f4552433732313a207472616e7366657220746f20746865207a65726f2061646460008201527f7265737300000000000000000000000000000000000000000000000000000000602082015250565b60006130c0602483612248565b91506130cb82613064565b604082019050919050565b600060208201905081810360008301526130ef816130b3565b9050919050565b7f4e487b7100000000000000000000000000000000000000000000000000000000600052601160045260246000fd5b6000613130826122f8565b915061313b836122f8565b92508282101561314e5761314d6130f6565b5b828203905092915050565b6000613164826122f8565b915061316f836122f8565b9250827fffffffffffffffffffffffffffffffffffffffffffffffffffffffffffffffff038211156131a4576131a36130f6565b5b828201905092915050565b7f4552433732313a20617070726f766520746f2063616c6c657200000000000000600082015250565b60006131e5601983612248565b91506131f0826131af565b602082019050919050565b60006020820190508181036000830152613214816131d8565b9050919050565b7f4552433732313a207472616e7366657220746f206e6f6e20455243373231526560008201527f63656976657220696d706c656d656e7465720000000000000000000000000000602082015250565b6000613277603283612248565b91506132828261321b565b604082019050919050565b600060208201905081810360008301526132a68161326a565b9050919050565b60006040820190506132c2600083018561262d565b81810360208301526132d4818461229d565b90509392505050565b7f4552433732314d657461646174613a2055524920736574206f66206e6f6e657860008201527f697374656e7420746f6b656e0000000000000000000000000000000000000000602082015250565b6000613339602c83612248565b9150613344826132dd565b604082019050919050565b600060208201905081810360008301526133688161332c565b9050919050565b600081519050919050565b600082825260208201905092915050565b60006133968261336f565b6133a0818561337a565b93506133b0818560208601612259565b6133b98161228c565b840191505092915050565b60006080820190506133d9600083018761238d565b6133e6602083018661238d565b6133f3604083018561262d565b8181036060830152613405818461338b565b905095945050505050565b60008151905061341f816121ae565b92915050565b60006020828403121561343b5761343a612178565b5b600061344984828501613410565b91505092915050565b7f4552433732313a206d696e7420746f20746865207a65726f2061646472657373600082015250565b6000613488602083612248565b915061349382613452565b602082019050919050565b600060208201905081810360008301526134b78161347b565b9050919050565b7f4552433732313a20746f6b656e20616c7265616479206d696e74656400000000600082015250565b60006134f4601c83612248565b91506134ff826134be565b602082019050919050565b60006020820190508181036000830152613523816134e7565b905091905056fea2646970667358221220eda5e8c44ccf6689084e6808719851c464431f9b0d31d4854f1f685c1b3d88fd64736f6c634300080d0033",
  "immutableReferences": {},
  "source": "\n// SPDX-License-Identifier: MIT\npragma solidity ^0.8.0;\n\nimport \"@openzeppelin/contracts/access/Ownable.sol\";\nimport \"@openzeppelin/contracts/token/ERC721/ERC721.sol\";\nimport \"@openzeppelin/contracts/utils/math/SafeMath.sol\";\nimport \"@openzeppelin/contracts/utils/Counters.sol\";\nimport '@openzeppelin/contracts/token/ERC1155/utils/ERC1155Holder.sol';\n\n\ncontract ScinionFactory is Ownable, ERC721 {\n\n  using Counters for Counters.Counter;\n  Counters.Counter private _tokenIds;\n  string private _baseURIextended;\n  mapping (uint256 => string) private _tokenURIs;\n\n  uint minPrice = 0.01 ether;\n\n  using SafeMath for uint256;\n\n  event NewScinion(uint scinionId, string name);\n\n  address payable gameOwner;\n\n  function getOwner() public view returns (address) {\n        return gameOwner;\n  }\n\n  modifier onlyOwnerOf(uint _scinionId) {\n    require(msg.sender == ownerOf(_scinionId));\n    _;\n  }\n\n  struct Scinion {\n    string name;\n    string scinionType;\n    uint16 level;\n    uint8 energia;\n    uint dna;\n    uint habilities;\n  }\n\n   constructor() ERC721(\"ScinionNFT\", \"SCTK\") {\n        gameOwner = payable(msg.sender);\n        _baseURIextended = \"https://ipfs.io/ipfs/\";\n    }\n\n\n  Scinion[] public scinions;\n\n  function rand(uint8 _min, uint8 _max, string memory _name) private pure returns (uint8){\n    return uint8(uint(keccak256(abi.encodePacked(_name)))%(_min+_max)-_min);\n  }\n\n  function setMinPrice(uint _fee) external onlyOwner() {\n    minPrice = _fee;\n  }\n\n  function _baseURI() internal view virtual override returns (string memory) {\n    return _baseURIextended;\n  }\n\n   function setBaseURI(string memory baseURI_) external onlyOwner() {\n     _baseURIextended = baseURI_;\n   }\n\n    function _setTokenURI(uint256 tokenId, string memory _tokenURI) internal virtual {\n      require(_exists(tokenId), \"ERC721Metadata: URI set of nonexistent token\");\n      _tokenURIs[tokenId] = _tokenURI;\n    }\n\n    function tokenURI(uint256 tokenId) public view virtual override returns (string memory) {\n      require(_exists(tokenId), \"ERC721Metadata: URI query for nonexistent token\");\n\n      string memory _tokenURI = _tokenURIs[tokenId];\n      string memory base = _baseURI();\n      \n      // If there is no base URI, return the token URI.\n      if (bytes(base).length == 0) {\n          return _tokenURI;\n      }\n      // If both are set, concatenate the baseURI and tokenURI (via abi.encodePacked).\n      if (bytes(_tokenURI).length > 0) {\n          return string(abi.encodePacked(base, _tokenURI));\n      }\n      // If there is a baseURI but no tokenURI, concatenate the tokenID to the baseURI.\n      return string(abi.encodePacked(base, tokenId));\n    }\n\n  function _createScinion(string memory _name) private returns(uint tokenId) {\n     _tokenIds.increment();\n    uint256 id = _tokenIds.current();\n    Scinion memory newScinion;\n    newScinion.name = _name;\n    newScinion.scinionType = _setScinionType();\n    newScinion.dna = _setDna();\n    newScinion.energia = 10;\n    newScinion.level = 1;\n    newScinion.habilities = _setPerfectHabilities();\n    scinions.push(newScinion);\n    emit NewScinion(id, _name);\n    return id;\n  }\n\n  function _setPerfectHabilities() pure private returns (uint habilities) {\n    return 100100100100100100100100100100;\n  }\n\n  function _setScinionType() pure private returns (string memory scinionType) {\n    return \"Scinion\";\n  }\n\n  function _setDna() pure private returns (uint dna) {\n    return 101030401;\n  }\n\n  function mintScinion(string memory _name, string memory tokenURI_) external payable returns(uint id) {\n    uint tokenId = _createScinion(_name);\n    //require(msg.value >= minPrice, \"Not enough ETH sent; check price!\"); \n    emit Transfer(address(0), msg.sender, tokenId);\n   // payable(owner()).transfer(msg.value);\n    _safeMint(msg.sender, tokenId);\n    _setTokenURI(tokenId, tokenURI_);\n    tokenURI(tokenId);\n    return tokenId;\n  }\n\n}\n",
  "sourcePath": "/Users/albateixidovillanueva/Desktop/scinions/contracts/scinionfactory.sol",
  "compiler": {
    "name": "solc",
    "version": "0.8.13+commit.abaa5c0e.Emscripten.clang"
  },
  "schemaVersion": "3.4.6",
  "updatedAt": "2022-04-29T13:30:53.724Z",
  "devdoc": {
    "kind": "dev",
    "methods": {
      "approve(address,uint256)": {
        "details": "See {IERC721-approve}."
      },
      "balanceOf(address)": {
        "details": "See {IERC721-balanceOf}."
      },
      "getApproved(uint256)": {
        "details": "See {IERC721-getApproved}."
      },
      "isApprovedForAll(address,address)": {
        "details": "See {IERC721-isApprovedForAll}."
      },
      "name()": {
        "details": "See {IERC721Metadata-name}."
      },
      "owner()": {
        "details": "Returns the address of the current owner."
      },
      "ownerOf(uint256)": {
        "details": "See {IERC721-ownerOf}."
      },
      "renounceOwnership()": {
        "details": "Leaves the contract without owner. It will not be possible to call `onlyOwner` functions anymore. Can only be called by the current owner. NOTE: Renouncing ownership will leave the contract without an owner, thereby removing any functionality that is only available to the owner."
      },
      "safeTransferFrom(address,address,uint256)": {
        "details": "See {IERC721-safeTransferFrom}."
      },
      "safeTransferFrom(address,address,uint256,bytes)": {
        "details": "See {IERC721-safeTransferFrom}."
      },
      "setApprovalForAll(address,bool)": {
        "details": "See {IERC721-setApprovalForAll}."
      },
      "supportsInterface(bytes4)": {
        "details": "See {IERC165-supportsInterface}."
      },
      "symbol()": {
        "details": "See {IERC721Metadata-symbol}."
      },
      "tokenURI(uint256)": {
        "details": "See {IERC721Metadata-tokenURI}."
      },
      "transferFrom(address,address,uint256)": {
        "details": "See {IERC721-transferFrom}."
      },
      "transferOwnership(address)": {
        "details": "Transfers ownership of the contract to a new account (`newOwner`). Can only be called by the current owner."
      }
    },
    "version": 1
  },
  "userdoc": {
    "kind": "user",
    "methods": {},
    "version": 1
  }
}