{
  "contractName": "ScinionHelper",
  "abi": [
    {
      "anonymous": false,
      "inputs": [
        {
          "indexed": true,
          "internalType": "address",
          "name": "owner",
          "type": "address"
        },
        {
          "indexed": true,
          "internalType": "address",
          "name": "approved",
          "type": "address"
        },
        {
          "indexed": true,
          "internalType": "uint256",
          "name": "tokenId",
          "type": "uint256"
        }
      ],
      "name": "Approval",
      "type": "event"
    },
    {
      "anonymous": false,
      "inputs": [
        {
          "indexed": true,
          "internalType": "address",
          "name": "owner",
          "type": "address"
        },
        {
          "indexed": true,
          "internalType": "address",
          "name": "operator",
          "type": "address"
        },
        {
          "indexed": false,
          "internalType": "bool",
          "name": "approved",
          "type": "bool"
        }
      ],
      "name": "ApprovalForAll",
      "type": "event"
    },
    {
      "anonymous": false,
      "inputs": [
        {
          "indexed": false,
          "internalType": "uint256",
          "name": "money",
          "type": "uint256"
        },
        {
          "indexed": false,
          "internalType": "address",
          "name": "from",
          "type": "address"
        }
      ],
      "name": "MoneyTransfer",
      "type": "event"
    },
    {
      "anonymous": false,
      "inputs": [
        {
          "indexed": false,
          "internalType": "uint256",
          "name": "scinionId",
          "type": "uint256"
        },
        {
          "indexed": false,
          "internalType": "string",
          "name": "name",
          "type": "string"
        }
      ],
      "name": "NewScinion",
      "type": "event"
    },
    {
      "anonymous": false,
      "inputs": [
        {
          "indexed": true,
          "internalType": "address",
          "name": "previousOwner",
          "type": "address"
        },
        {
          "indexed": true,
          "internalType": "address",
          "name": "newOwner",
          "type": "address"
        }
      ],
      "name": "OwnershipTransferred",
      "type": "event"
    },
    {
      "anonymous": false,
      "inputs": [
        {
          "indexed": true,
          "internalType": "address",
          "name": "from",
          "type": "address"
        },
        {
          "indexed": true,
          "internalType": "address",
          "name": "to",
          "type": "address"
        },
        {
          "indexed": true,
          "internalType": "uint256",
          "name": "tokenId",
          "type": "uint256"
        }
      ],
      "name": "Transfer",
      "type": "event"
    },
    {
      "inputs": [
        {
          "internalType": "address",
          "name": "to",
          "type": "address"
        },
        {
          "internalType": "uint256",
          "name": "tokenId",
          "type": "uint256"
        }
      ],
      "name": "approve",
      "outputs": [],
      "stateMutability": "nonpayable",
      "type": "function"
    },
    {
      "inputs": [
        {
          "internalType": "address",
          "name": "owner",
          "type": "address"
        }
      ],
      "name": "balanceOf",
      "outputs": [
        {
          "internalType": "uint256",
          "name": "",
          "type": "uint256"
        }
      ],
      "stateMutability": "view",
      "type": "function",
      "constant": true
    },
    {
      "inputs": [
        {
          "internalType": "address",
          "name": "owner",
          "type": "address"
        }
      ],
      "name": "balanceOfScinions",
      "outputs": [
        {
          "internalType": "uint256",
          "name": "balance",
          "type": "uint256"
        }
      ],
      "stateMutability": "view",
      "type": "function",
      "constant": true
    },
    {
      "inputs": [
        {
          "internalType": "uint256",
          "name": "_tokenId",
          "type": "uint256"
        }
      ],
      "name": "claimScinion",
      "outputs": [],
      "stateMutability": "payable",
      "type": "function",
      "payable": true
    },
    {
      "inputs": [
        {
          "internalType": "string",
          "name": "_name",
          "type": "string"
        },
        {
          "internalType": "string",
          "name": "_scinionType",
          "type": "string"
        },
        {
          "internalType": "uint256",
          "name": "_dna",
          "type": "uint256"
        },
        {
          "internalType": "uint256",
          "name": "_habilities",
          "type": "uint256"
        }
      ],
      "name": "createScinion",
      "outputs": [],
      "stateMutability": "nonpayable",
      "type": "function"
    },
    {
      "inputs": [
        {
          "internalType": "uint256",
          "name": "tokenId",
          "type": "uint256"
        }
      ],
      "name": "getApproved",
      "outputs": [
        {
          "internalType": "address",
          "name": "",
          "type": "address"
        }
      ],
      "stateMutability": "view",
      "type": "function",
      "constant": true
    },
    {
      "inputs": [],
      "name": "getOwner",
      "outputs": [
        {
          "internalType": "address",
          "name": "",
          "type": "address"
        }
      ],
      "stateMutability": "view",
      "type": "function",
      "constant": true
    },
    {
      "inputs": [
        {
          "internalType": "address",
          "name": "owner",
          "type": "address"
        },
        {
          "internalType": "address",
          "name": "operator",
          "type": "address"
        }
      ],
      "name": "isApprovedForAll",
      "outputs": [
        {
          "internalType": "bool",
          "name": "",
          "type": "bool"
        }
      ],
      "stateMutability": "view",
      "type": "function",
      "constant": true
    },
    {
      "inputs": [],
      "name": "name",
      "outputs": [
        {
          "internalType": "string",
          "name": "",
          "type": "string"
        }
      ],
      "stateMutability": "view",
      "type": "function",
      "constant": true
    },
    {
      "inputs": [],
      "name": "owner",
      "outputs": [
        {
          "internalType": "address",
          "name": "",
          "type": "address"
        }
      ],
      "stateMutability": "view",
      "type": "function",
      "constant": true
    },
    {
      "inputs": [
        {
          "internalType": "uint256",
          "name": "tokenId",
          "type": "uint256"
        }
      ],
      "name": "ownerOf",
      "outputs": [
        {
          "internalType": "address",
          "name": "",
          "type": "address"
        }
      ],
      "stateMutability": "view",
      "type": "function",
      "constant": true
    },
    {
      "inputs": [],
      "name": "renounceOwnership",
      "outputs": [],
      "stateMutability": "nonpayable",
      "type": "function"
    },
    {
      "inputs": [
        {
          "internalType": "address",
          "name": "from",
          "type": "address"
        },
        {
          "internalType": "address",
          "name": "to",
          "type": "address"
        },
        {
          "internalType": "uint256",
          "name": "tokenId",
          "type": "uint256"
        }
      ],
      "name": "safeTransferFrom",
      "outputs": [],
      "stateMutability": "nonpayable",
      "type": "function"
    },
    {
      "inputs": [
        {
          "internalType": "address",
          "name": "from",
          "type": "address"
        },
        {
          "internalType": "address",
          "name": "to",
          "type": "address"
        },
        {
          "internalType": "uint256",
          "name": "tokenId",
          "type": "uint256"
        },
        {
          "internalType": "bytes",
          "name": "_data",
          "type": "bytes"
        }
      ],
      "name": "safeTransferFrom",
      "outputs": [],
      "stateMutability": "nonpayable",
      "type": "function"
    },
    {
      "inputs": [
        {
          "internalType": "address",
          "name": "operator",
          "type": "address"
        },
        {
          "internalType": "bool",
          "name": "approved",
          "type": "bool"
        }
      ],
      "name": "setApprovalForAll",
      "outputs": [],
      "stateMutability": "nonpayable",
      "type": "function"
    },
    {
      "inputs": [
        {
          "internalType": "string",
          "name": "baseURI_",
          "type": "string"
        }
      ],
      "name": "setBaseURI",
      "outputs": [],
      "stateMutability": "nonpayable",
      "type": "function"
    },
    {
      "inputs": [
        {
          "internalType": "uint256",
          "name": "_fee",
          "type": "uint256"
        }
      ],
      "name": "setMinPrice",
      "outputs": [],
      "stateMutability": "nonpayable",
      "type": "function"
    },
    {
      "inputs": [
        {
          "internalType": "bytes4",
          "name": "interfaceId",
          "type": "bytes4"
        }
      ],
      "name": "supportsInterface",
      "outputs": [
        {
          "internalType": "bool",
          "name": "",
          "type": "bool"
        }
      ],
      "stateMutability": "view",
      "type": "function",
      "constant": true
    },
    {
      "inputs": [],
      "name": "symbol",
      "outputs": [
        {
          "internalType": "string",
          "name": "",
          "type": "string"
        }
      ],
      "stateMutability": "view",
      "type": "function",
      "constant": true
    },
    {
      "inputs": [
        {
          "internalType": "uint256",
          "name": "tokenId",
          "type": "uint256"
        }
      ],
      "name": "tokenURI",
      "outputs": [
        {
          "internalType": "string",
          "name": "",
          "type": "string"
        }
      ],
      "stateMutability": "view",
      "type": "function",
      "constant": true
    },
    {
      "inputs": [
        {
          "internalType": "address",
          "name": "from",
          "type": "address"
        },
        {
          "internalType": "address",
          "name": "to",
          "type": "address"
        },
        {
          "internalType": "uint256",
          "name": "tokenId",
          "type": "uint256"
        }
      ],
      "name": "transferFrom",
      "outputs": [],
      "stateMutability": "nonpayable",
      "type": "function"
    },
    {
      "inputs": [
        {
          "internalType": "address",
          "name": "newOwner",
          "type": "address"
        }
      ],
      "name": "transferOwnership",
      "outputs": [],
      "stateMutability": "nonpayable",
      "type": "function"
    },
    {
      "inputs": [
        {
          "internalType": "address",
          "name": "_from",
          "type": "address"
        },
        {
          "internalType": "address",
          "name": "_to",
          "type": "address"
        },
        {
          "internalType": "uint256",
          "name": "_tokenId",
          "type": "uint256"
        }
      ],
      "name": "transferScinion",
      "outputs": [],
      "stateMutability": "payable",
      "type": "function",
      "payable": true
    },
    {
      "inputs": [
        {
          "internalType": "uint256",
          "name": "_fee",
          "type": "uint256"
        }
      ],
      "name": "setLevelUpFee",
      "outputs": [],
      "stateMutability": "nonpayable",
      "type": "function"
    },
    {
      "inputs": [
        {
          "internalType": "uint256",
          "name": "_scinionId",
          "type": "uint256"
        },
        {
          "internalType": "string",
          "name": "_newName",
          "type": "string"
        }
      ],
      "name": "changeName",
      "outputs": [],
      "stateMutability": "payable",
      "type": "function",
      "payable": true
    },
    {
      "inputs": [
        {
          "internalType": "uint256",
          "name": "_scinionId",
          "type": "uint256"
        },
        {
          "internalType": "uint256",
          "name": "_newDna",
          "type": "uint256"
        }
      ],
      "name": "changeDna",
      "outputs": [],
      "stateMutability": "payable",
      "type": "function",
      "payable": true
    },
    {
      "inputs": [
        {
          "internalType": "uint256",
          "name": "_scinionId",
          "type": "uint256"
        }
      ],
      "name": "completarInvestigacion",
      "outputs": [],
      "stateMutability": "nonpayable",
      "type": "function"
    },
    {
      "inputs": [
        {
          "internalType": "uint256",
          "name": "_scinionId",
          "type": "uint256"
        }
      ],
      "name": "dormir",
      "outputs": [],
      "stateMutability": "nonpayable",
      "type": "function"
    },
    {
      "inputs": [],
      "name": "getOneScinionData",
      "outputs": [
        {
          "internalType": "string",
          "name": "name",
          "type": "string"
        },
        {
          "internalType": "uint16",
          "name": "level",
          "type": "uint16"
        },
        {
          "internalType": "uint8",
          "name": "energia",
          "type": "uint8"
        }
      ],
      "stateMutability": "pure",
      "type": "function",
      "constant": true
    }
  ],
  "bytecode": "0x608060405266038d7ea4c6800060095566038d7ea4c68000600e553480156200002757600080fd5b506040518060400160405280600a81526020017f5363696e696f6e4e4654000000000000000000000000000000000000000000008152506040518060400160405280600481526020017f5343544b00000000000000000000000000000000000000000000000000000000815250620000b4620000a86200012f60201b60201c565b6200013760201b60201c565b8160019080519060200190620000cc929190620001fb565b508060029080519060200190620000e5929190620001fb565b50505033600a60006101000a81548173ffffffffffffffffffffffffffffffffffffffff021916908373ffffffffffffffffffffffffffffffffffffffff1602179055506200030f565b600033905090565b60008060009054906101000a900473ffffffffffffffffffffffffffffffffffffffff169050816000806101000a81548173ffffffffffffffffffffffffffffffffffffffff021916908373ffffffffffffffffffffffffffffffffffffffff1602179055508173ffffffffffffffffffffffffffffffffffffffff168173ffffffffffffffffffffffffffffffffffffffff167f8be0079c531659141344cd1fd0a4f28419497f9722a3daafe3b4186f6b6457e060405160405180910390a35050565b8280546200020990620002da565b90600052602060002090601f0160209004810192826200022d576000855562000279565b82601f106200024857805160ff191683800117855562000279565b8280016001018555821562000279579182015b82811115620002785782518255916020019190600101906200025b565b5b5090506200028891906200028c565b5090565b5b80821115620002a75760008160009055506001016200028d565b5090565b7f4e487b7100000000000000000000000000000000000000000000000000000000600052602260045260246000fd5b60006002820490506001821680620002f357607f821691505b602082108103620003095762000308620002ab565b5b50919050565b6141d1806200031f6000396000f3fe6080604052600436106101c25760003560e01c8063715018a6116100f7578063b88d4fde11610095578063ccf670f811610064578063ccf670f814610606578063e985e9c51461062f578063e9dcd0db1461066c578063f2fde38b14610695576101c2565b8063b88d4fde14610568578063b8edb62214610591578063c39cbef1146105ad578063c87b56dd146105c9576101c2565b806395d89b41116100d157806395d89b41146104cf578063a22cb465146104fa578063a612c71a14610523578063af3ba19e1461053f576101c2565b8063715018a614610462578063893d20e8146104795780638da5cb5b146104a4576101c2565b806355f804b311610164578063628104d61161013e578063628104d6146103825780636352211e146103ab5780636fa9174e146103e857806370a0823114610425576101c2565b806355f804b3146103145780635ea8cd121461033d5780635faf288014610366576101c2565b8063095ea7b3116101a0578063095ea7b31461026c57806323b872dd1461029557806342842e0e146102be578063507c6427146102e7576101c2565b806301ffc9a7146101c757806306fdde0314610204578063081812fc1461022f575b600080fd5b3480156101d357600080fd5b506101ee60048036038101906101e99190612c35565b6106be565b6040516101fb9190612c7d565b60405180910390f35b34801561021057600080fd5b506102196107a0565b6040516102269190612d31565b60405180910390f35b34801561023b57600080fd5b5061025660048036038101906102519190612d89565b610832565b6040516102639190612df7565b60405180910390f35b34801561027857600080fd5b50610293600480360381019061028e9190612e3e565b6108b7565b005b3480156102a157600080fd5b506102bc60048036038101906102b79190612e7e565b6109ce565b005b3480156102ca57600080fd5b506102e560048036038101906102e09190612e7e565b610a2e565b005b3480156102f357600080fd5b506102fc610a4e565b60405161030b93929190612f0a565b60405180910390f35b34801561032057600080fd5b5061033b6004803603810190610336919061307d565b610b3a565b005b34801561034957600080fd5b50610364600480360381019061035f9190612d89565b610bd0565b005b610380600480360381019061037b91906130c6565b610c56565b005b34801561038e57600080fd5b506103a960048036038101906103a49190612d89565b610d48565b005b3480156103b757600080fd5b506103d260048036038101906103cd9190612d89565b610e1c565b6040516103df9190612df7565b60405180910390f35b3480156103f457600080fd5b5061040f600480360381019061040a9190613106565b610ecd565b60405161041c9190613142565b60405180910390f35b34801561043157600080fd5b5061044c60048036038101906104479190613106565b610f16565b6040516104599190613142565b60405180910390f35b34801561046e57600080fd5b50610477610fcd565b005b34801561048557600080fd5b5061048e611055565b60405161049b9190612df7565b60405180910390f35b3480156104b057600080fd5b506104b961107f565b6040516104c69190612df7565b60405180910390f35b3480156104db57600080fd5b506104e46110a8565b6040516104f19190612d31565b60405180910390f35b34801561050657600080fd5b50610521600480360381019061051c9190613189565b61113a565b005b61053d60048036038101906105389190612e7e565b611150565b005b34801561054b57600080fd5b50610566600480360381019061056191906131c9565b61122c565b005b34801561057457600080fd5b5061058f600480360381019061058a9190613309565b611417565b005b6105ab60048036038101906105a69190612d89565b611479565b005b6105c760048036038101906105c291906133ec565b61166b565b005b3480156105d557600080fd5b506105f060048036038101906105eb9190612d89565b611769565b6040516105fd9190612d31565b60405180910390f35b34801561061257600080fd5b5061062d60048036038101906106289190612d89565b611810565b005b34801561063b57600080fd5b506106566004803603810190610651919061344c565b611896565b6040516106639190612c7d565b60405180910390f35b34801561067857600080fd5b50610693600480360381019061068e9190612d89565b61192a565b005b3480156106a157600080fd5b506106bc60048036038101906106b79190613106565b6119df565b005b60007f80ac58cd000000000000000000000000000000000000000000000000000000007bffffffffffffffffffffffffffffffffffffffffffffffffffffffff1916827bffffffffffffffffffffffffffffffffffffffffffffffffffffffff1916148061078957507f5b5e139f000000000000000000000000000000000000000000000000000000007bffffffffffffffffffffffffffffffffffffffffffffffffffffffff1916827bffffffffffffffffffffffffffffffffffffffffffffffffffffffff1916145b80610799575061079882611ad6565b5b9050919050565b6060600180546107af906134bb565b80601f01602080910402602001604051908101604052809291908181526020018280546107db906134bb565b80156108285780601f106107fd57610100808354040283529160200191610828565b820191906000526020600020905b81548152906001019060200180831161080b57829003601f168201915b5050505050905090565b600061083d82611b40565b61087c576040517f08c379a00000000000000000000000000000000000000000000000000000000081526004016108739061355e565b60405180910390fd5b6005600083815260200190815260200160002060009054906101000a900473ffffffffffffffffffffffffffffffffffffffff169050919050565b60006108c282610e1c565b90508073ffffffffffffffffffffffffffffffffffffffff168373ffffffffffffffffffffffffffffffffffffffff1603610932576040517f08c379a0000000000000000000000000000000000000000000000000000000008152600401610929906135f0565b60405180910390fd5b8073ffffffffffffffffffffffffffffffffffffffff16610951611bac565b73ffffffffffffffffffffffffffffffffffffffff161480610980575061097f8161097a611bac565b611896565b5b6109bf576040517f08c379a00000000000000000000000000000000000000000000000000000000081526004016109b690613682565b60405180910390fd5b6109c98383611bb4565b505050565b6109df6109d9611bac565b82611c6d565b610a1e576040517f08c379a0000000000000000000000000000000000000000000000000000000008152600401610a1590613714565b60405180910390fd5b610a29838383611d4b565b505050565b610a4983838360405180602001604052806000815250611417565b505050565b6060600080610a5b612a63565b6040518060400160405280600481526020017f416c62610000000000000000000000000000000000000000000000000000000081525081600001819052506040518060400160405280600c81526020017f4275656e6173206d616e6f73000000000000000000000000000000000000000081525081602001819052506212d688816080018181525050600a816060019060ff16908160ff16815250506001816040019061ffff16908161ffff168152505068056d2afeb01f8290048160a001818152505080600001518160400151826060015193509350935050909192565b610b42611bac565b73ffffffffffffffffffffffffffffffffffffffff16610b6061107f565b73ffffffffffffffffffffffffffffffffffffffff1614610bb6576040517f08c379a0000000000000000000000000000000000000000000000000000000008152600401610bad90613780565b60405180910390fd5b8060089080519060200190610bcc929190612aa0565b5050565b610bd8611bac565b73ffffffffffffffffffffffffffffffffffffffff16610bf661107f565b73ffffffffffffffffffffffffffffffffffffffff1614610c4c576040517f08c379a0000000000000000000000000000000000000000000000000000000008152600401610c4390613780565b60405180910390fd5b8060098190555050565b60148281600b8281548110610c6e57610c6d6137a0565b5b906000526020600020906005020160020160009054906101000a900461ffff1661ffff161015610c9d57600080fd5b83600c600082815260200190815260200160002060009054906101000a900473ffffffffffffffffffffffffffffffffffffffff1673ffffffffffffffffffffffffffffffffffffffff163373ffffffffffffffffffffffffffffffffffffffff1614610d0957600080fd5b600e543414610d1757600080fd5b83600b8681548110610d2c57610d2b6137a0565b5b9060005260206000209060050201600301819055505050505050565b80600c600082815260200190815260200160002060009054906101000a900473ffffffffffffffffffffffffffffffffffffffff1673ffffffffffffffffffffffffffffffffffffffff163373ffffffffffffffffffffffffffffffffffffffff1614610db457600080fd5b6000600b8381548110610dca57610dc96137a0565b5b9060005260206000209060050201905060018160020160009054906101000a900461ffff16610df991906137fe565b8160020160006101000a81548161ffff021916908361ffff160217905550505050565b6000806003600084815260200190815260200160002060009054906101000a900473ffffffffffffffffffffffffffffffffffffffff169050600073ffffffffffffffffffffffffffffffffffffffff168173ffffffffffffffffffffffffffffffffffffffff1603610ec4576040517f08c379a0000000000000000000000000000000000000000000000000000000008152600401610ebb906138a8565b60405180910390fd5b80915050919050565b6000600d60008373ffffffffffffffffffffffffffffffffffffffff1673ffffffffffffffffffffffffffffffffffffffff168152602001908152602001600020549050919050565b60008073ffffffffffffffffffffffffffffffffffffffff168273ffffffffffffffffffffffffffffffffffffffff1603610f86576040517f08c379a0000000000000000000000000000000000000000000000000000000008152600401610f7d9061393a565b60405180910390fd5b600460008373ffffffffffffffffffffffffffffffffffffffff1673ffffffffffffffffffffffffffffffffffffffff168152602001908152602001600020549050919050565b610fd5611bac565b73ffffffffffffffffffffffffffffffffffffffff16610ff361107f565b73ffffffffffffffffffffffffffffffffffffffff1614611049576040517f08c379a000000000000000000000000000000000000000000000000000000000815260040161104090613780565b60405180910390fd5b6110536000611fb1565b565b6000600a60009054906101000a900473ffffffffffffffffffffffffffffffffffffffff16905090565b60008060009054906101000a900473ffffffffffffffffffffffffffffffffffffffff16905090565b6060600280546110b7906134bb565b80601f01602080910402602001604051908101604052809291908181526020018280546110e3906134bb565b80156111305780601f1061110557610100808354040283529160200191611130565b820191906000526020600020905b81548152906001019060200180831161111357829003601f168201915b5050505050905090565b61114c611145611bac565b8383612075565b5050565b611158611bac565b73ffffffffffffffffffffffffffffffffffffffff1661117661107f565b73ffffffffffffffffffffffffffffffffffffffff16146111cc576040517f08c379a00000000000000000000000000000000000000000000000000000000081526004016111c390613780565b60405180910390fd5b600954341015611211576040517f08c379a0000000000000000000000000000000000000000000000000000000008152600401611208906139cc565b60405180910390fd5b61121c8383836121e1565b6112278383836109ce565b505050565b611234611bac565b73ffffffffffffffffffffffffffffffffffffffff1661125261107f565b73ffffffffffffffffffffffffffffffffffffffff16146112a8576040517f08c379a000000000000000000000000000000000000000000000000000000000815260040161129f90613780565b60405180910390fd5b6112b260076123bf565b60006112be60076123d5565b90506112c8612a63565b85816000018190525084816020018190525083816080018181525050600a816060019060ff16908160ff16815250506001816040019061ffff16908161ffff1681525050828160a0018181525050600b819080600181540180825580915050600190039060005260206000209060050201600090919091909150600082015181600001908051906020019061135e929190612aa0565b50602082015181600101908051906020019061137b929190612aa0565b5060408201518160020160006101000a81548161ffff021916908361ffff16021790555060608201518160020160026101000a81548160ff021916908360ff1602179055506080820151816003015560a0820151816004015550507f806638a1fc90cec1d905c742ef32e76004dcce146ea274170b3018708eec5b2f82876040516114079291906139ec565b60405180910390a1505050505050565b611428611422611bac565b83611c6d565b611467576040517f08c379a000000000000000000000000000000000000000000000000000000000815260040161145e90613714565b60405180910390fd5b611473848484846123e3565b50505050565b7fdfbaa62b9ff4d1b5cc6b5b99191bd38ffb58ceada996df4844b33e1091e9782934336040516114aa929190613a1c565b60405180910390a16009543410156114f7576040517f08c379a00000000000000000000000000000000000000000000000000000000081526004016114ee906139cc565b60405180910390fd5b61154a6001600d60003373ffffffffffffffffffffffffffffffffffffffff1673ffffffffffffffffffffffffffffffffffffffff1681526020019081526020016000205461243f90919063ffffffff16565b600d60003373ffffffffffffffffffffffffffffffffffffffff1673ffffffffffffffffffffffffffffffffffffffff1681526020019081526020016000208190555033600c600083815260200190815260200160002060006101000a81548173ffffffffffffffffffffffffffffffffffffffff021916908373ffffffffffffffffffffffffffffffffffffffff160217905550600954600a60009054906101000a900473ffffffffffffffffffffffffffffffffffffffff1673ffffffffffffffffffffffffffffffffffffffff163373ffffffffffffffffffffffffffffffffffffffff167fddf252ad1be2c89b69c2b068fc378daa952ba7f163c4a11628f55a4df523b3ef60405160405180910390a46116683382612455565b50565b60028381600b8281548110611683576116826137a0565b5b906000526020600020906005020160020160009054906101000a900461ffff1661ffff1610156116b257600080fd5b84600c600082815260200190815260200160002060009054906101000a900473ffffffffffffffffffffffffffffffffffffffff1673ffffffffffffffffffffffffffffffffffffffff163373ffffffffffffffffffffffffffffffffffffffff161461171e57600080fd5b600e54341461172c57600080fd5b8484600b8881548110611742576117416137a0565b5b90600052602060002090600502016000019190611760929190612b26565b50505050505050565b606061177482611b40565b6117b3576040517f08c379a00000000000000000000000000000000000000000000000000000000081526004016117aa90613ab7565b60405180910390fd5b60006117bd612473565b905060008151116117dd5760405180602001604052806000815250611808565b806117e784612505565b6040516020016117f8929190613b13565b6040516020818303038152906040525b915050919050565b611818611bac565b73ffffffffffffffffffffffffffffffffffffffff1661183661107f565b73ffffffffffffffffffffffffffffffffffffffff161461188c576040517f08c379a000000000000000000000000000000000000000000000000000000000815260040161188390613780565b60405180910390fd5b80600e8190555050565b6000600660008473ffffffffffffffffffffffffffffffffffffffff1673ffffffffffffffffffffffffffffffffffffffff16815260200190815260200160002060008373ffffffffffffffffffffffffffffffffffffffff1673ffffffffffffffffffffffffffffffffffffffff16815260200190815260200160002060009054906101000a900460ff16905092915050565b80600c600082815260200190815260200160002060009054906101000a900473ffffffffffffffffffffffffffffffffffffffff1673ffffffffffffffffffffffffffffffffffffffff163373ffffffffffffffffffffffffffffffffffffffff161461199657600080fd5b6000600b83815481106119ac576119ab6137a0565b5b90600052602060002090600502019050600a8160020160026101000a81548160ff021916908360ff160217905550505050565b6119e7611bac565b73ffffffffffffffffffffffffffffffffffffffff16611a0561107f565b73ffffffffffffffffffffffffffffffffffffffff1614611a5b576040517f08c379a0000000000000000000000000000000000000000000000000000000008152600401611a5290613780565b60405180910390fd5b600073ffffffffffffffffffffffffffffffffffffffff168173ffffffffffffffffffffffffffffffffffffffff1603611aca576040517f08c379a0000000000000000000000000000000000000000000000000000000008152600401611ac190613ba9565b60405180910390fd5b611ad381611fb1565b50565b60007f01ffc9a7000000000000000000000000000000000000000000000000000000007bffffffffffffffffffffffffffffffffffffffffffffffffffffffff1916827bffffffffffffffffffffffffffffffffffffffffffffffffffffffff1916149050919050565b60008073ffffffffffffffffffffffffffffffffffffffff166003600084815260200190815260200160002060009054906101000a900473ffffffffffffffffffffffffffffffffffffffff1673ffffffffffffffffffffffffffffffffffffffff1614159050919050565b600033905090565b816005600083815260200190815260200160002060006101000a81548173ffffffffffffffffffffffffffffffffffffffff021916908373ffffffffffffffffffffffffffffffffffffffff160217905550808273ffffffffffffffffffffffffffffffffffffffff16611c2783610e1c565b73ffffffffffffffffffffffffffffffffffffffff167f8c5be1e5ebec7d5bd14f71427d1e84f3dd0314c0f7b2291e5b200ac8c7c3b92560405160405180910390a45050565b6000611c7882611b40565b611cb7576040517f08c379a0000000000000000000000000000000000000000000000000000000008152600401611cae90613c3b565b60405180910390fd5b6000611cc283610e1c565b90508073ffffffffffffffffffffffffffffffffffffffff168473ffffffffffffffffffffffffffffffffffffffff161480611d3157508373ffffffffffffffffffffffffffffffffffffffff16611d1984610832565b73ffffffffffffffffffffffffffffffffffffffff16145b80611d425750611d418185611896565b5b91505092915050565b8273ffffffffffffffffffffffffffffffffffffffff16611d6b82610e1c565b73ffffffffffffffffffffffffffffffffffffffff1614611dc1576040517f08c379a0000000000000000000000000000000000000000000000000000000008152600401611db890613ccd565b60405180910390fd5b600073ffffffffffffffffffffffffffffffffffffffff168273ffffffffffffffffffffffffffffffffffffffff1603611e30576040517f08c379a0000000000000000000000000000000000000000000000000000000008152600401611e2790613d5f565b60405180910390fd5b611e3b838383612665565b611e46600082611bb4565b6001600460008573ffffffffffffffffffffffffffffffffffffffff1673ffffffffffffffffffffffffffffffffffffffff1681526020019081526020016000206000828254611e969190613d7f565b925050819055506001600460008473ffffffffffffffffffffffffffffffffffffffff1673ffffffffffffffffffffffffffffffffffffffff1681526020019081526020016000206000828254611eed9190613db3565b92505081905550816003600083815260200190815260200160002060006101000a81548173ffffffffffffffffffffffffffffffffffffffff021916908373ffffffffffffffffffffffffffffffffffffffff160217905550808273ffffffffffffffffffffffffffffffffffffffff168473ffffffffffffffffffffffffffffffffffffffff167fddf252ad1be2c89b69c2b068fc378daa952ba7f163c4a11628f55a4df523b3ef60405160405180910390a4611fac83838361266a565b505050565b60008060009054906101000a900473ffffffffffffffffffffffffffffffffffffffff169050816000806101000a81548173ffffffffffffffffffffffffffffffffffffffff021916908373ffffffffffffffffffffffffffffffffffffffff1602179055508173ffffffffffffffffffffffffffffffffffffffff168173ffffffffffffffffffffffffffffffffffffffff167f8be0079c531659141344cd1fd0a4f28419497f9722a3daafe3b4186f6b6457e060405160405180910390a35050565b8173ffffffffffffffffffffffffffffffffffffffff168373ffffffffffffffffffffffffffffffffffffffff16036120e3576040517f08c379a00000000000000000000000000000000000000000000000000000000081526004016120da90613e55565b60405180910390fd5b80600660008573ffffffffffffffffffffffffffffffffffffffff1673ffffffffffffffffffffffffffffffffffffffff16815260200190815260200160002060008473ffffffffffffffffffffffffffffffffffffffff1673ffffffffffffffffffffffffffffffffffffffff16815260200190815260200160002060006101000a81548160ff0219169083151502179055508173ffffffffffffffffffffffffffffffffffffffff168373ffffffffffffffffffffffffffffffffffffffff167f17307eab39ab6107e8899845ad3d59bd9653f200f220920489ca2b5937696c31836040516121d49190612c7d565b60405180910390a3505050565b6122346001600d60008573ffffffffffffffffffffffffffffffffffffffff1673ffffffffffffffffffffffffffffffffffffffff1681526020019081526020016000205461243f90919063ffffffff16565b600d60008473ffffffffffffffffffffffffffffffffffffffff1673ffffffffffffffffffffffffffffffffffffffff168152602001908152602001600020819055506122ca6001600d60008673ffffffffffffffffffffffffffffffffffffffff1673ffffffffffffffffffffffffffffffffffffffff1681526020019081526020016000205461266f90919063ffffffff16565b600d60008573ffffffffffffffffffffffffffffffffffffffff1673ffffffffffffffffffffffffffffffffffffffff1681526020019081526020016000208190555081600c600083815260200190815260200160002060006101000a81548173ffffffffffffffffffffffffffffffffffffffff021916908373ffffffffffffffffffffffffffffffffffffffff160217905550808273ffffffffffffffffffffffffffffffffffffffff168473ffffffffffffffffffffffffffffffffffffffff167fddf252ad1be2c89b69c2b068fc378daa952ba7f163c4a11628f55a4df523b3ef60405160405180910390a4505050565b6001816000016000828254019250508190555050565b600081600001549050919050565b6123ee848484611d4b565b6123fa84848484612685565b612439576040517f08c379a000000000000000000000000000000000000000000000000000000000815260040161243090613ee7565b60405180910390fd5b50505050565b6000818361244d9190613db3565b905092915050565b61246f82826040518060200160405280600081525061280c565b5050565b606060088054612482906134bb565b80601f01602080910402602001604051908101604052809291908181526020018280546124ae906134bb565b80156124fb5780601f106124d0576101008083540402835291602001916124fb565b820191906000526020600020905b8154815290600101906020018083116124de57829003601f168201915b5050505050905090565b60606000820361254c576040518060400160405280600181526020017f30000000000000000000000000000000000000000000000000000000000000008152509050612660565b600082905060005b6000821461257e57808061256790613f07565b915050600a826125779190613f7e565b9150612554565b60008167ffffffffffffffff81111561259a57612599612f52565b5b6040519080825280601f01601f1916602001820160405280156125cc5781602001600182028036833780820191505090505b5090505b60008514612659576001826125e59190613d7f565b9150600a856125f49190613faf565b60306126009190613db3565b60f81b818381518110612616576126156137a0565b5b60200101907effffffffffffffffffffffffffffffffffffffffffffffffffffffffffffff1916908160001a905350600a856126529190613f7e565b94506125d0565b8093505050505b919050565b505050565b505050565b6000818361267d9190613d7f565b905092915050565b60006126a68473ffffffffffffffffffffffffffffffffffffffff16612867565b156127ff578373ffffffffffffffffffffffffffffffffffffffff1663150b7a026126cf611bac565b8786866040518563ffffffff1660e01b81526004016126f19493929190614035565b6020604051808303816000875af192505050801561272d57506040513d601f19601f8201168201806040525081019061272a9190614096565b60015b6127af573d806000811461275d576040519150601f19603f3d011682016040523d82523d6000602084013e612762565b606091505b5060008151036127a7576040517f08c379a000000000000000000000000000000000000000000000000000000000815260040161279e90613ee7565b60405180910390fd5b805181602001fd5b63150b7a0260e01b7bffffffffffffffffffffffffffffffffffffffffffffffffffffffff1916817bffffffffffffffffffffffffffffffffffffffffffffffffffffffff191614915050612804565b600190505b949350505050565b612816838361288a565b6128236000848484612685565b612862576040517f08c379a000000000000000000000000000000000000000000000000000000000815260040161285990613ee7565b60405180910390fd5b505050565b6000808273ffffffffffffffffffffffffffffffffffffffff163b119050919050565b600073ffffffffffffffffffffffffffffffffffffffff168273ffffffffffffffffffffffffffffffffffffffff16036128f9576040517f08c379a00000000000000000000000000000000000000000000000000000000081526004016128f09061410f565b60405180910390fd5b61290281611b40565b15612942576040517f08c379a00000000000000000000000000000000000000000000000000000000081526004016129399061417b565b60405180910390fd5b61294e60008383612665565b6001600460008473ffffffffffffffffffffffffffffffffffffffff1673ffffffffffffffffffffffffffffffffffffffff168152602001908152602001600020600082825461299e9190613db3565b92505081905550816003600083815260200190815260200160002060006101000a81548173ffffffffffffffffffffffffffffffffffffffff021916908373ffffffffffffffffffffffffffffffffffffffff160217905550808273ffffffffffffffffffffffffffffffffffffffff16600073ffffffffffffffffffffffffffffffffffffffff167fddf252ad1be2c89b69c2b068fc378daa952ba7f163c4a11628f55a4df523b3ef60405160405180910390a4612a5f6000838361266a565b5050565b6040518060c001604052806060815260200160608152602001600061ffff168152602001600060ff16815260200160008152602001600081525090565b828054612aac906134bb565b90600052602060002090601f016020900481019282612ace5760008555612b15565b82601f10612ae757805160ff1916838001178555612b15565b82800160010185558215612b15579182015b82811115612b14578251825591602001919060010190612af9565b5b509050612b229190612bac565b5090565b828054612b32906134bb565b90600052602060002090601f016020900481019282612b545760008555612b9b565b82601f10612b6d57803560ff1916838001178555612b9b565b82800160010185558215612b9b579182015b82811115612b9a578235825591602001919060010190612b7f565b5b509050612ba89190612bac565b5090565b5b80821115612bc5576000816000905550600101612bad565b5090565b6000604051905090565b600080fd5b600080fd5b60007fffffffff0000000000000000000000000000000000000000000000000000000082169050919050565b612c1281612bdd565b8114612c1d57600080fd5b50565b600081359050612c2f81612c09565b92915050565b600060208284031215612c4b57612c4a612bd3565b5b6000612c5984828501612c20565b91505092915050565b60008115159050919050565b612c7781612c62565b82525050565b6000602082019050612c926000830184612c6e565b92915050565b600081519050919050565b600082825260208201905092915050565b60005b83811015612cd2578082015181840152602081019050612cb7565b83811115612ce1576000848401525b50505050565b6000601f19601f8301169050919050565b6000612d0382612c98565b612d0d8185612ca3565b9350612d1d818560208601612cb4565b612d2681612ce7565b840191505092915050565b60006020820190508181036000830152612d4b8184612cf8565b905092915050565b6000819050919050565b612d6681612d53565b8114612d7157600080fd5b50565b600081359050612d8381612d5d565b92915050565b600060208284031215612d9f57612d9e612bd3565b5b6000612dad84828501612d74565b91505092915050565b600073ffffffffffffffffffffffffffffffffffffffff82169050919050565b6000612de182612db6565b9050919050565b612df181612dd6565b82525050565b6000602082019050612e0c6000830184612de8565b92915050565b612e1b81612dd6565b8114612e2657600080fd5b50565b600081359050612e3881612e12565b92915050565b60008060408385031215612e5557612e54612bd3565b5b6000612e6385828601612e29565b9250506020612e7485828601612d74565b9150509250929050565b600080600060608486031215612e9757612e96612bd3565b5b6000612ea586828701612e29565b9350506020612eb686828701612e29565b9250506040612ec786828701612d74565b9150509250925092565b600061ffff82169050919050565b612ee881612ed1565b82525050565b600060ff82169050919050565b612f0481612eee565b82525050565b60006060820190508181036000830152612f248186612cf8565b9050612f336020830185612edf565b612f406040830184612efb565b949350505050565b600080fd5b600080fd5b7f4e487b7100000000000000000000000000000000000000000000000000000000600052604160045260246000fd5b612f8a82612ce7565b810181811067ffffffffffffffff82111715612fa957612fa8612f52565b5b80604052505050565b6000612fbc612bc9565b9050612fc88282612f81565b919050565b600067ffffffffffffffff821115612fe857612fe7612f52565b5b612ff182612ce7565b9050602081019050919050565b82818337600083830152505050565b600061302061301b84612fcd565b612fb2565b90508281526020810184848401111561303c5761303b612f4d565b5b613047848285612ffe565b509392505050565b600082601f83011261306457613063612f48565b5b813561307484826020860161300d565b91505092915050565b60006020828403121561309357613092612bd3565b5b600082013567ffffffffffffffff8111156130b1576130b0612bd8565b5b6130bd8482850161304f565b91505092915050565b600080604083850312156130dd576130dc612bd3565b5b60006130eb85828601612d74565b92505060206130fc85828601612d74565b9150509250929050565b60006020828403121561311c5761311b612bd3565b5b600061312a84828501612e29565b91505092915050565b61313c81612d53565b82525050565b60006020820190506131576000830184613133565b92915050565b61316681612c62565b811461317157600080fd5b50565b6000813590506131838161315d565b92915050565b600080604083850312156131a05761319f612bd3565b5b60006131ae85828601612e29565b92505060206131bf85828601613174565b9150509250929050565b600080600080608085870312156131e3576131e2612bd3565b5b600085013567ffffffffffffffff81111561320157613200612bd8565b5b61320d8782880161304f565b945050602085013567ffffffffffffffff81111561322e5761322d612bd8565b5b61323a8782880161304f565b935050604061324b87828801612d74565b925050606061325c87828801612d74565b91505092959194509250565b600067ffffffffffffffff82111561328357613282612f52565b5b61328c82612ce7565b9050602081019050919050565b60006132ac6132a784613268565b612fb2565b9050828152602081018484840111156132c8576132c7612f4d565b5b6132d3848285612ffe565b509392505050565b600082601f8301126132f0576132ef612f48565b5b8135613300848260208601613299565b91505092915050565b6000806000806080858703121561332357613322612bd3565b5b600061333187828801612e29565b945050602061334287828801612e29565b935050604061335387828801612d74565b925050606085013567ffffffffffffffff81111561337457613373612bd8565b5b613380878288016132db565b91505092959194509250565b600080fd5b600080fd5b60008083601f8401126133ac576133ab612f48565b5b8235905067ffffffffffffffff8111156133c9576133c861338c565b5b6020830191508360018202830111156133e5576133e4613391565b5b9250929050565b60008060006040848603121561340557613404612bd3565b5b600061341386828701612d74565b935050602084013567ffffffffffffffff81111561343457613433612bd8565b5b61344086828701613396565b92509250509250925092565b6000806040838503121561346357613462612bd3565b5b600061347185828601612e29565b925050602061348285828601612e29565b9150509250929050565b7f4e487b7100000000000000000000000000000000000000000000000000000000600052602260045260246000fd5b600060028204905060018216806134d357607f821691505b6020821081036134e6576134e561348c565b5b50919050565b7f4552433732313a20617070726f76656420717565727920666f72206e6f6e657860008201527f697374656e7420746f6b656e0000000000000000000000000000000000000000602082015250565b6000613548602c83612ca3565b9150613553826134ec565b604082019050919050565b600060208201905081810360008301526135778161353b565b9050919050565b7f4552433732313a20617070726f76616c20746f2063757272656e74206f776e6560008201527f7200000000000000000000000000000000000000000000000000000000000000602082015250565b60006135da602183612ca3565b91506135e58261357e565b604082019050919050565b60006020820190508181036000830152613609816135cd565b9050919050565b7f4552433732313a20617070726f76652063616c6c6572206973206e6f74206f7760008201527f6e6572206e6f7220617070726f76656420666f7220616c6c0000000000000000602082015250565b600061366c603883612ca3565b915061367782613610565b604082019050919050565b6000602082019050818103600083015261369b8161365f565b9050919050565b7f4552433732313a207472616e736665722063616c6c6572206973206e6f74206f60008201527f776e6572206e6f7220617070726f766564000000000000000000000000000000602082015250565b60006136fe603183612ca3565b9150613709826136a2565b604082019050919050565b6000602082019050818103600083015261372d816136f1565b9050919050565b7f4f776e61626c653a2063616c6c6572206973206e6f7420746865206f776e6572600082015250565b600061376a602083612ca3565b915061377582613734565b602082019050919050565b600060208201905081810360008301526137998161375d565b9050919050565b7f4e487b7100000000000000000000000000000000000000000000000000000000600052603260045260246000fd5b7f4e487b7100000000000000000000000000000000000000000000000000000000600052601160045260246000fd5b600061380982612ed1565b915061381483612ed1565b92508261ffff0382111561382b5761382a6137cf565b5b828201905092915050565b7f4552433732313a206f776e657220717565727920666f72206e6f6e657869737460008201527f656e7420746f6b656e0000000000000000000000000000000000000000000000602082015250565b6000613892602983612ca3565b915061389d82613836565b604082019050919050565b600060208201905081810360008301526138c181613885565b9050919050565b7f4552433732313a2062616c616e636520717565727920666f7220746865207a6560008201527f726f206164647265737300000000000000000000000000000000000000000000602082015250565b6000613924602a83612ca3565b915061392f826138c8565b604082019050919050565b6000602082019050818103600083015261395381613917565b9050919050565b7f4e6f7420656e6f756768204554482073656e743b20636865636b20707269636560008201527f2100000000000000000000000000000000000000000000000000000000000000602082015250565b60006139b6602183612ca3565b91506139c18261395a565b604082019050919050565b600060208201905081810360008301526139e5816139a9565b9050919050565b6000604082019050613a016000830185613133565b8181036020830152613a138184612cf8565b90509392505050565b6000604082019050613a316000830185613133565b613a3e6020830184612de8565b9392505050565b7f4552433732314d657461646174613a2055524920717565727920666f72206e6f60008201527f6e6578697374656e7420746f6b656e0000000000000000000000000000000000602082015250565b6000613aa1602f83612ca3565b9150613aac82613a45565b604082019050919050565b60006020820190508181036000830152613ad081613a94565b9050919050565b600081905092915050565b6000613aed82612c98565b613af78185613ad7565b9350613b07818560208601612cb4565b80840191505092915050565b6000613b1f8285613ae2565b9150613b2b8284613ae2565b91508190509392505050565b7f4f776e61626c653a206e6577206f776e657220697320746865207a65726f206160008201527f6464726573730000000000000000000000000000000000000000000000000000602082015250565b6000613b93602683612ca3565b9150613b9e82613b37565b604082019050919050565b60006020820190508181036000830152613bc281613b86565b9050919050565b7f4552433732313a206f70657261746f7220717565727920666f72206e6f6e657860008201527f697374656e7420746f6b656e0000000000000000000000000000000000000000602082015250565b6000613c25602c83612ca3565b9150613c3082613bc9565b604082019050919050565b60006020820190508181036000830152613c5481613c18565b9050919050565b7f4552433732313a207472616e736665722066726f6d20696e636f72726563742060008201527f6f776e6572000000000000000000000000000000000000000000000000000000602082015250565b6000613cb7602583612ca3565b9150613cc282613c5b565b604082019050919050565b60006020820190508181036000830152613ce681613caa565b9050919050565b7f4552433732313a207472616e7366657220746f20746865207a65726f2061646460008201527f7265737300000000000000000000000000000000000000000000000000000000602082015250565b6000613d49602483612ca3565b9150613d5482613ced565b604082019050919050565b60006020820190508181036000830152613d7881613d3c565b9050919050565b6000613d8a82612d53565b9150613d9583612d53565b925082821015613da857613da76137cf565b5b828203905092915050565b6000613dbe82612d53565b9150613dc983612d53565b9250827fffffffffffffffffffffffffffffffffffffffffffffffffffffffffffffffff03821115613dfe57613dfd6137cf565b5b828201905092915050565b7f4552433732313a20617070726f766520746f2063616c6c657200000000000000600082015250565b6000613e3f601983612ca3565b9150613e4a82613e09565b602082019050919050565b60006020820190508181036000830152613e6e81613e32565b9050919050565b7f4552433732313a207472616e7366657220746f206e6f6e20455243373231526560008201527f63656976657220696d706c656d656e7465720000000000000000000000000000602082015250565b6000613ed1603283612ca3565b9150613edc82613e75565b604082019050919050565b60006020820190508181036000830152613f0081613ec4565b9050919050565b6000613f1282612d53565b91507fffffffffffffffffffffffffffffffffffffffffffffffffffffffffffffffff8203613f4457613f436137cf565b5b600182019050919050565b7f4e487b7100000000000000000000000000000000000000000000000000000000600052601260045260246000fd5b6000613f8982612d53565b9150613f9483612d53565b925082613fa457613fa3613f4f565b5b828204905092915050565b6000613fba82612d53565b9150613fc583612d53565b925082613fd557613fd4613f4f565b5b828206905092915050565b600081519050919050565b600082825260208201905092915050565b600061400782613fe0565b6140118185613feb565b9350614021818560208601612cb4565b61402a81612ce7565b840191505092915050565b600060808201905061404a6000830187612de8565b6140576020830186612de8565b6140646040830185613133565b81810360608301526140768184613ffc565b905095945050505050565b60008151905061409081612c09565b92915050565b6000602082840312156140ac576140ab612bd3565b5b60006140ba84828501614081565b91505092915050565b7f4552433732313a206d696e7420746f20746865207a65726f2061646472657373600082015250565b60006140f9602083612ca3565b9150614104826140c3565b602082019050919050565b60006020820190508181036000830152614128816140ec565b9050919050565b7f4552433732313a20746f6b656e20616c7265616479206d696e74656400000000600082015250565b6000614165601c83612ca3565b91506141708261412f565b602082019050919050565b6000602082019050818103600083015261419481614158565b905091905056fea264697066735822122041bf4742ed66c7c69dcd08bd82adbc095a2a18aa775ceb7d2d7e484641f2776964736f6c634300080d0033",
  "immutableReferences": {},
  "source": "pragma solidity ^0.8.0;\n\nimport \"./scinionfactory.sol\";\n\n\ncontract ScinionHelper is ScinionFactoryTest1 {\n\n     uint levelUpFee = 0.001 ether;\n\n\n    function setLevelUpFee(uint _fee) external onlyOwner {\n        levelUpFee = _fee;\n    }\n\n    modifier aboveLevel(uint _level, uint _scinionId) {\n        require(scinions[_scinionId].level >= _level);\n         _;\n    }\n      \n    \n    function changeName(uint _scinionId, string calldata _newName) external payable aboveLevel(2, _scinionId) onlyOwnerOf(_scinionId) {\n        require(msg.value == levelUpFee);\n        scinions[_scinionId].name = _newName;\n    }\n\n    function changeDna(uint _scinionId, uint _newDna) external payable aboveLevel(20, _scinionId) onlyOwnerOf(_scinionId) {\n        require(msg.value == levelUpFee);\n        scinions[_scinionId].dna = _newDna;\n    }\n\n    function getScinionsByOwner(address _owner) private view returns(Scinion[] memory) {\n        Scinion[] memory scinionsByOwner;\n        for (uint i = 0; i < scinions.length; i++) {\n            if (scinionToOwner[i] == _owner) {\n                scinionsByOwner[i]= scinions[i];\n            }\n        }    \n        /*\n        uint[] memory result = new uint[](ownerScinionCount[_owner]);\n        uint counter = 0;\n        for (uint i = 0; i < scinions.length; i++) {\n            if (scinionToOwner[i] == _owner) {\n                result[counter] = i;\n                counter++;\n            }\n        }\n        return result;\n\n\n        */\n        return scinionsByOwner;\n    }\n\n\n    function completarInvestigacion(uint _scinionId) public onlyOwnerOf(_scinionId) {\n        Scinion storage scinionSelected = scinions[_scinionId];\n        scinionSelected.level = scinionSelected.level+1;\n    }\n\n\n    function dormir(uint _scinionId) public onlyOwnerOf(_scinionId) {\n        Scinion storage scinionSelected = scinions[_scinionId];\n        scinionSelected.energia = 10;\n    }\n\n    function getOneScinionData() external pure returns(string memory name, uint16 level, uint8 energia){\n        Scinion memory newScinion;\n        newScinion.name = \"Alba\";\n        newScinion.scinionType = \"Buenas manos\";\n        newScinion.dna = 1234568;\n        newScinion.energia = 10;\n        newScinion.level = 1;\n        newScinion.habilities = 100100100100100100100;\n        return (newScinion.name, newScinion.level, newScinion.energia);\n\n    }\n\n}",
  "sourcePath": "/Users/albateixidovillanueva/Desktop/scinions/contracts/scinionhelper.sol",
  "compiler": {
    "name": "solc",
    "version": "0.8.13+commit.abaa5c0e.Emscripten.clang"
  },
  "schemaVersion": "3.4.6",
  "updatedAt": "2022-04-15T13:55:52.736Z",
  "networkType": "ethereum",
  "devdoc": {
    "kind": "dev",
    "methods": {
      "approve(address,uint256)": {
        "details": "See {IERC721-approve}."
      },
      "balanceOf(address)": {
        "details": "See {IERC721-balanceOf}."
      },
      "getApproved(uint256)": {
        "details": "See {IERC721-getApproved}."
      },
      "isApprovedForAll(address,address)": {
        "details": "See {IERC721-isApprovedForAll}."
      },
      "name()": {
        "details": "See {IERC721Metadata-name}."
      },
      "owner()": {
        "details": "Returns the address of the current owner."
      },
      "ownerOf(uint256)": {
        "details": "See {IERC721-ownerOf}."
      },
      "renounceOwnership()": {
        "details": "Leaves the contract without owner. It will not be possible to call `onlyOwner` functions anymore. Can only be called by the current owner. NOTE: Renouncing ownership will leave the contract without an owner, thereby removing any functionality that is only available to the owner."
      },
      "safeTransferFrom(address,address,uint256)": {
        "details": "See {IERC721-safeTransferFrom}."
      },
      "safeTransferFrom(address,address,uint256,bytes)": {
        "details": "See {IERC721-safeTransferFrom}."
      },
      "setApprovalForAll(address,bool)": {
        "details": "See {IERC721-setApprovalForAll}."
      },
      "supportsInterface(bytes4)": {
        "details": "See {IERC165-supportsInterface}."
      },
      "symbol()": {
        "details": "See {IERC721Metadata-symbol}."
      },
      "tokenURI(uint256)": {
        "details": "See {IERC721Metadata-tokenURI}."
      },
      "transferFrom(address,address,uint256)": {
        "details": "See {IERC721-transferFrom}."
      },
      "transferOwnership(address)": {
        "details": "Transfers ownership of the contract to a new account (`newOwner`). Can only be called by the current owner."
      }
    },
    "version": 1
  },
  "userdoc": {
    "kind": "user",
    "methods": {},
    "version": 1
  }
}