{
  "contractName": "ScinionFactory",
  "abi": [
    {
      "inputs": [],
      "stateMutability": "nonpayable",
      "type": "constructor"
    },
    {
      "anonymous": false,
      "inputs": [
        {
          "indexed": true,
          "internalType": "address",
          "name": "owner",
          "type": "address"
        },
        {
          "indexed": true,
          "internalType": "address",
          "name": "approved",
          "type": "address"
        },
        {
          "indexed": true,
          "internalType": "uint256",
          "name": "tokenId",
          "type": "uint256"
        }
      ],
      "name": "Approval",
      "type": "event"
    },
    {
      "anonymous": false,
      "inputs": [
        {
          "indexed": true,
          "internalType": "address",
          "name": "owner",
          "type": "address"
        },
        {
          "indexed": true,
          "internalType": "address",
          "name": "operator",
          "type": "address"
        },
        {
          "indexed": false,
          "internalType": "bool",
          "name": "approved",
          "type": "bool"
        }
      ],
      "name": "ApprovalForAll",
      "type": "event"
    },
    {
      "anonymous": false,
      "inputs": [
        {
          "indexed": false,
          "internalType": "uint256",
          "name": "scinionId",
          "type": "uint256"
        },
        {
          "indexed": false,
          "internalType": "string",
          "name": "name",
          "type": "string"
        },
        {
          "indexed": false,
          "internalType": "string",
          "name": "uri",
          "type": "string"
        }
      ],
      "name": "NewScinion",
      "type": "event"
    },
    {
      "anonymous": false,
      "inputs": [
        {
          "indexed": true,
          "internalType": "address",
          "name": "previousOwner",
          "type": "address"
        },
        {
          "indexed": true,
          "internalType": "address",
          "name": "newOwner",
          "type": "address"
        }
      ],
      "name": "OwnershipTransferred",
      "type": "event"
    },
    {
      "anonymous": false,
      "inputs": [
        {
          "indexed": true,
          "internalType": "address",
          "name": "from",
          "type": "address"
        },
        {
          "indexed": true,
          "internalType": "address",
          "name": "to",
          "type": "address"
        },
        {
          "indexed": true,
          "internalType": "uint256",
          "name": "tokenId",
          "type": "uint256"
        }
      ],
      "name": "Transfer",
      "type": "event"
    },
    {
      "inputs": [
        {
          "internalType": "address",
          "name": "to",
          "type": "address"
        },
        {
          "internalType": "uint256",
          "name": "tokenId",
          "type": "uint256"
        }
      ],
      "name": "approve",
      "outputs": [],
      "stateMutability": "nonpayable",
      "type": "function"
    },
    {
      "inputs": [
        {
          "internalType": "address",
          "name": "owner",
          "type": "address"
        }
      ],
      "name": "balanceOf",
      "outputs": [
        {
          "internalType": "uint256",
          "name": "",
          "type": "uint256"
        }
      ],
      "stateMutability": "view",
      "type": "function",
      "constant": true
    },
    {
      "inputs": [
        {
          "internalType": "uint256",
          "name": "tokenId",
          "type": "uint256"
        }
      ],
      "name": "getApproved",
      "outputs": [
        {
          "internalType": "address",
          "name": "",
          "type": "address"
        }
      ],
      "stateMutability": "view",
      "type": "function",
      "constant": true
    },
    {
      "inputs": [
        {
          "internalType": "address",
          "name": "owner",
          "type": "address"
        },
        {
          "internalType": "address",
          "name": "operator",
          "type": "address"
        }
      ],
      "name": "isApprovedForAll",
      "outputs": [
        {
          "internalType": "bool",
          "name": "",
          "type": "bool"
        }
      ],
      "stateMutability": "view",
      "type": "function",
      "constant": true
    },
    {
      "inputs": [],
      "name": "name",
      "outputs": [
        {
          "internalType": "string",
          "name": "",
          "type": "string"
        }
      ],
      "stateMutability": "view",
      "type": "function",
      "constant": true
    },
    {
      "inputs": [],
      "name": "owner",
      "outputs": [
        {
          "internalType": "address",
          "name": "",
          "type": "address"
        }
      ],
      "stateMutability": "view",
      "type": "function",
      "constant": true
    },
    {
      "inputs": [
        {
          "internalType": "uint256",
          "name": "tokenId",
          "type": "uint256"
        }
      ],
      "name": "ownerOf",
      "outputs": [
        {
          "internalType": "address",
          "name": "",
          "type": "address"
        }
      ],
      "stateMutability": "view",
      "type": "function",
      "constant": true
    },
    {
      "inputs": [],
      "name": "renounceOwnership",
      "outputs": [],
      "stateMutability": "nonpayable",
      "type": "function"
    },
    {
      "inputs": [
        {
          "internalType": "address",
          "name": "from",
          "type": "address"
        },
        {
          "internalType": "address",
          "name": "to",
          "type": "address"
        },
        {
          "internalType": "uint256",
          "name": "tokenId",
          "type": "uint256"
        }
      ],
      "name": "safeTransferFrom",
      "outputs": [],
      "stateMutability": "nonpayable",
      "type": "function"
    },
    {
      "inputs": [
        {
          "internalType": "address",
          "name": "from",
          "type": "address"
        },
        {
          "internalType": "address",
          "name": "to",
          "type": "address"
        },
        {
          "internalType": "uint256",
          "name": "tokenId",
          "type": "uint256"
        },
        {
          "internalType": "bytes",
          "name": "_data",
          "type": "bytes"
        }
      ],
      "name": "safeTransferFrom",
      "outputs": [],
      "stateMutability": "nonpayable",
      "type": "function"
    },
    {
      "inputs": [
        {
          "internalType": "uint256",
          "name": "",
          "type": "uint256"
        }
      ],
      "name": "scinions",
      "outputs": [
        {
          "internalType": "string",
          "name": "name",
          "type": "string"
        },
        {
          "internalType": "string",
          "name": "scinionType",
          "type": "string"
        },
        {
          "internalType": "uint16",
          "name": "level",
          "type": "uint16"
        },
        {
          "internalType": "uint8",
          "name": "energia",
          "type": "uint8"
        },
        {
          "internalType": "uint256",
          "name": "dna",
          "type": "uint256"
        },
        {
          "internalType": "uint256",
          "name": "habilities",
          "type": "uint256"
        }
      ],
      "stateMutability": "view",
      "type": "function",
      "constant": true
    },
    {
      "inputs": [
        {
          "internalType": "address",
          "name": "operator",
          "type": "address"
        },
        {
          "internalType": "bool",
          "name": "approved",
          "type": "bool"
        }
      ],
      "name": "setApprovalForAll",
      "outputs": [],
      "stateMutability": "nonpayable",
      "type": "function"
    },
    {
      "inputs": [
        {
          "internalType": "bytes4",
          "name": "interfaceId",
          "type": "bytes4"
        }
      ],
      "name": "supportsInterface",
      "outputs": [
        {
          "internalType": "bool",
          "name": "",
          "type": "bool"
        }
      ],
      "stateMutability": "view",
      "type": "function",
      "constant": true
    },
    {
      "inputs": [],
      "name": "symbol",
      "outputs": [
        {
          "internalType": "string",
          "name": "",
          "type": "string"
        }
      ],
      "stateMutability": "view",
      "type": "function",
      "constant": true
    },
    {
      "inputs": [
        {
          "internalType": "uint256",
          "name": "tokenId",
          "type": "uint256"
        }
      ],
      "name": "tokenURI",
      "outputs": [
        {
          "internalType": "string",
          "name": "",
          "type": "string"
        }
      ],
      "stateMutability": "view",
      "type": "function",
      "constant": true
    },
    {
      "inputs": [
        {
          "internalType": "address",
          "name": "from",
          "type": "address"
        },
        {
          "internalType": "address",
          "name": "to",
          "type": "address"
        },
        {
          "internalType": "uint256",
          "name": "tokenId",
          "type": "uint256"
        }
      ],
      "name": "transferFrom",
      "outputs": [],
      "stateMutability": "nonpayable",
      "type": "function"
    },
    {
      "inputs": [
        {
          "internalType": "address",
          "name": "newOwner",
          "type": "address"
        }
      ],
      "name": "transferOwnership",
      "outputs": [],
      "stateMutability": "nonpayable",
      "type": "function"
    },
    {
      "inputs": [],
      "name": "getOwner",
      "outputs": [
        {
          "internalType": "address",
          "name": "",
          "type": "address"
        }
      ],
      "stateMutability": "view",
      "type": "function",
      "constant": true
    },
    {
      "inputs": [
        {
          "internalType": "uint256",
          "name": "_fee",
          "type": "uint256"
        }
      ],
      "name": "setMinPrice",
      "outputs": [],
      "stateMutability": "nonpayable",
      "type": "function"
    },
    {
      "inputs": [
        {
          "internalType": "string",
          "name": "baseURI_",
          "type": "string"
        }
      ],
      "name": "setBaseURI",
      "outputs": [],
      "stateMutability": "nonpayable",
      "type": "function"
    },
    {
      "inputs": [
        {
          "internalType": "string",
          "name": "_name",
          "type": "string"
        }
      ],
      "name": "mintScinion",
      "outputs": [
        {
          "internalType": "uint256",
          "name": "id",
          "type": "uint256"
        }
      ],
      "stateMutability": "payable",
      "type": "function",
      "payable": true
    },
    {
      "inputs": [],
      "name": "getScinionsByOwner",
      "outputs": [
        {
          "components": [
            {
              "internalType": "string",
              "name": "name",
              "type": "string"
            },
            {
              "internalType": "string",
              "name": "scinionType",
              "type": "string"
            },
            {
              "internalType": "uint16",
              "name": "level",
              "type": "uint16"
            },
            {
              "internalType": "uint8",
              "name": "energia",
              "type": "uint8"
            },
            {
              "internalType": "uint256",
              "name": "dna",
              "type": "uint256"
            },
            {
              "internalType": "uint256",
              "name": "habilities",
              "type": "uint256"
            }
          ],
          "internalType": "struct ScinionFactory.Scinion[]",
          "name": "",
          "type": "tuple[]"
        }
      ],
      "stateMutability": "view",
      "type": "function",
      "constant": true
    },
    {
      "inputs": [],
      "name": "getBalanceOfOwner",
      "outputs": [
        {
          "internalType": "uint256",
          "name": "numberOfScinions",
          "type": "uint256"
        }
      ],
      "stateMutability": "view",
      "type": "function",
      "constant": true
    },
    {
      "inputs": [],
      "name": "getAllScinions",
      "outputs": [
        {
          "components": [
            {
              "internalType": "string",
              "name": "name",
              "type": "string"
            },
            {
              "internalType": "string",
              "name": "scinionType",
              "type": "string"
            },
            {
              "internalType": "uint16",
              "name": "level",
              "type": "uint16"
            },
            {
              "internalType": "uint8",
              "name": "energia",
              "type": "uint8"
            },
            {
              "internalType": "uint256",
              "name": "dna",
              "type": "uint256"
            },
            {
              "internalType": "uint256",
              "name": "habilities",
              "type": "uint256"
            }
          ],
          "internalType": "struct ScinionFactory.Scinion[]",
          "name": "",
          "type": "tuple[]"
        }
      ],
      "stateMutability": "view",
      "type": "function",
      "constant": true
    }
  ],
  "bytecode": "0x60806040526010600960006101000a81548160ff021916908360ff160217905550662386f26fc10000600b553480156200003857600080fd5b506040518060400160405280600a81526020017f5363696e696f6e4e4654000000000000000000000000000000000000000000008152506040518060400160405280600481526020017f5343544b00000000000000000000000000000000000000000000000000000000815250620000c5620000b96200017260201b60201c565b6200017a60201b60201c565b8160019080519060200190620000dd9291906200023e565b508060029080519060200190620000f69291906200023e565b50505033600c60006101000a81548173ffffffffffffffffffffffffffffffffffffffff021916908373ffffffffffffffffffffffffffffffffffffffff160217905550604051806060016040528060358152602001620041e060359139600890805190602001906200016b9291906200023e565b5062000352565b600033905090565b60008060009054906101000a900473ffffffffffffffffffffffffffffffffffffffff169050816000806101000a81548173ffffffffffffffffffffffffffffffffffffffff021916908373ffffffffffffffffffffffffffffffffffffffff1602179055508173ffffffffffffffffffffffffffffffffffffffff168173ffffffffffffffffffffffffffffffffffffffff167f8be0079c531659141344cd1fd0a4f28419497f9722a3daafe3b4186f6b6457e060405160405180910390a35050565b8280546200024c906200031d565b90600052602060002090601f016020900481019282620002705760008555620002bc565b82601f106200028b57805160ff1916838001178555620002bc565b82800160010185558215620002bc579182015b82811115620002bb5782518255916020019190600101906200029e565b5b509050620002cb9190620002cf565b5090565b5b80821115620002ea576000816000905550600101620002d0565b5090565b7f4e487b7100000000000000000000000000000000000000000000000000000000600052602260045260246000fd5b600060028204905060018216806200033657607f821691505b6020821081036200034c576200034b620002ee565b5b50919050565b613e7e80620003626000396000f3fe60806040526004361061014b5760003560e01c80637903ad59116100b6578063c87b56dd1161006f578063c87b56dd14610498578063cb830dd3146104d5578063d8c2454114610500578063e985e9c51461052b578063f2fde38b14610568578063f6280b59146105915761014b565b80637903ad5914610395578063893d20e8146103c55780638da5cb5b146103f057806395d89b411461041b578063a22cb46514610446578063b88d4fde1461046f5761014b565b806355f804b31161010857806355f804b3146102705780635ea8cd12146102995780636352211e146102c25780636da50160146102ff57806370a0823114610341578063715018a61461037e5761014b565b806301ffc9a71461015057806306fdde031461018d578063081812fc146101b8578063095ea7b3146101f557806323b872dd1461021e57806342842e0e14610247575b600080fd5b34801561015c57600080fd5b5061017760048036038101906101729190612730565b6105bc565b6040516101849190612778565b60405180910390f35b34801561019957600080fd5b506101a261069e565b6040516101af919061282c565b60405180910390f35b3480156101c457600080fd5b506101df60048036038101906101da9190612884565b610730565b6040516101ec91906128f2565b60405180910390f35b34801561020157600080fd5b5061021c60048036038101906102179190612939565b6107b5565b005b34801561022a57600080fd5b5061024560048036038101906102409190612979565b6108cc565b005b34801561025357600080fd5b5061026e60048036038101906102699190612979565b61092c565b005b34801561027c57600080fd5b5061029760048036038101906102929190612b01565b61094c565b005b3480156102a557600080fd5b506102c060048036038101906102bb9190612884565b6109e2565b005b3480156102ce57600080fd5b506102e960048036038101906102e49190612884565b610a68565b6040516102f691906128f2565b60405180910390f35b34801561030b57600080fd5b5061032660048036038101906103219190612884565b610b19565b60405161033896959493929190612b92565b60405180910390f35b34801561034d57600080fd5b5061036860048036038101906103639190612c01565b610c90565b6040516103759190612c2e565b60405180910390f35b34801561038a57600080fd5b50610393610d47565b005b6103af60048036038101906103aa9190612b01565b610dcf565b6040516103bc9190612c2e565b60405180910390f35b3480156103d157600080fd5b506103da610f17565b6040516103e791906128f2565b60405180910390f35b3480156103fc57600080fd5b50610405610f41565b60405161041291906128f2565b60405180910390f35b34801561042757600080fd5b50610430610f6a565b60405161043d919061282c565b60405180910390f35b34801561045257600080fd5b5061046d60048036038101906104689190612c75565b610ffc565b005b34801561047b57600080fd5b5061049660048036038101906104919190612d56565b611012565b005b3480156104a457600080fd5b506104bf60048036038101906104ba9190612884565b611074565b6040516104cc919061282c565b60405180910390f35b3480156104e157600080fd5b506104ea61111b565b6040516104f79190612fa2565b60405180910390f35b34801561050c57600080fd5b506105156112ef565b6040516105229190612c2e565b60405180910390f35b34801561053757600080fd5b50610552600480360381019061054d9190612fc4565b6112ff565b60405161055f9190612778565b60405180910390f35b34801561057457600080fd5b5061058f600480360381019061058a9190612c01565b611393565b005b34801561059d57600080fd5b506105a661148a565b6040516105b39190612fa2565b60405180910390f35b60007f80ac58cd000000000000000000000000000000000000000000000000000000007bffffffffffffffffffffffffffffffffffffffffffffffffffffffff1916827bffffffffffffffffffffffffffffffffffffffffffffffffffffffff1916148061068757507f5b5e139f000000000000000000000000000000000000000000000000000000007bffffffffffffffffffffffffffffffffffffffffffffffffffffffff1916827bffffffffffffffffffffffffffffffffffffffffffffffffffffffff1916145b80610697575061069682611723565b5b9050919050565b6060600180546106ad90613033565b80601f01602080910402602001604051908101604052809291908181526020018280546106d990613033565b80156107265780601f106106fb57610100808354040283529160200191610726565b820191906000526020600020905b81548152906001019060200180831161070957829003601f168201915b5050505050905090565b600061073b8261178d565b61077a576040517f08c379a0000000000000000000000000000000000000000000000000000000008152600401610771906130d6565b60405180910390fd5b6005600083815260200190815260200160002060009054906101000a900473ffffffffffffffffffffffffffffffffffffffff169050919050565b60006107c082610a68565b90508073ffffffffffffffffffffffffffffffffffffffff168373ffffffffffffffffffffffffffffffffffffffff1603610830576040517f08c379a000000000000000000000000000000000000000000000000000000000815260040161082790613168565b60405180910390fd5b8073ffffffffffffffffffffffffffffffffffffffff1661084f6117f9565b73ffffffffffffffffffffffffffffffffffffffff16148061087e575061087d816108786117f9565b6112ff565b5b6108bd576040517f08c379a00000000000000000000000000000000000000000000000000000000081526004016108b4906131fa565b60405180910390fd5b6108c78383611801565b505050565b6108dd6108d76117f9565b826118ba565b61091c576040517f08c379a00000000000000000000000000000000000000000000000000000000081526004016109139061328c565b60405180910390fd5b610927838383611998565b505050565b61094783838360405180602001604052806000815250611012565b505050565b6109546117f9565b73ffffffffffffffffffffffffffffffffffffffff16610972610f41565b73ffffffffffffffffffffffffffffffffffffffff16146109c8576040517f08c379a00000000000000000000000000000000000000000000000000000000081526004016109bf906132f8565b60405180910390fd5b80600890805190602001906109de9291906125e4565b5050565b6109ea6117f9565b73ffffffffffffffffffffffffffffffffffffffff16610a08610f41565b73ffffffffffffffffffffffffffffffffffffffff1614610a5e576040517f08c379a0000000000000000000000000000000000000000000000000000000008152600401610a55906132f8565b60405180910390fd5b80600b8190555050565b6000806003600084815260200190815260200160002060009054906101000a900473ffffffffffffffffffffffffffffffffffffffff169050600073ffffffffffffffffffffffffffffffffffffffff168173ffffffffffffffffffffffffffffffffffffffff1603610b10576040517f08c379a0000000000000000000000000000000000000000000000000000000008152600401610b079061338a565b60405180910390fd5b80915050919050565b600a8181548110610b2957600080fd5b9060005260206000209060050201600091509050806000018054610b4c90613033565b80601f0160208091040260200160405190810160405280929190818152602001828054610b7890613033565b8015610bc55780601f10610b9a57610100808354040283529160200191610bc5565b820191906000526020600020905b815481529060010190602001808311610ba857829003601f168201915b505050505090806001018054610bda90613033565b80601f0160208091040260200160405190810160405280929190818152602001828054610c0690613033565b8015610c535780601f10610c2857610100808354040283529160200191610c53565b820191906000526020600020905b815481529060010190602001808311610c3657829003601f168201915b5050505050908060020160009054906101000a900461ffff16908060020160029054906101000a900460ff16908060030154908060040154905086565b60008073ffffffffffffffffffffffffffffffffffffffff168273ffffffffffffffffffffffffffffffffffffffff1603610d00576040517f08c379a0000000000000000000000000000000000000000000000000000000008152600401610cf79061341c565b60405180910390fd5b600460008373ffffffffffffffffffffffffffffffffffffffff1673ffffffffffffffffffffffffffffffffffffffff168152602001908152602001600020549050919050565b610d4f6117f9565b73ffffffffffffffffffffffffffffffffffffffff16610d6d610f41565b73ffffffffffffffffffffffffffffffffffffffff1614610dc3576040517f08c379a0000000000000000000000000000000000000000000000000000000008152600401610dba906132f8565b60405180910390fd5b610dcd6000611bfe565b565b6000610ddb6007611cc2565b6000610de76007611cd8565b90506000610df484611ce6565b9050610e003383611d62565b610e0982611074565b50600a8190806001815401808255809150506001900390600052602060002090600502016000909190919091506000820151816000019080519060200190610e529291906125e4565b506020820151816001019080519060200190610e6f9291906125e4565b5060408201518160020160006101000a81548161ffff021916908361ffff16021790555060608201518160020160026101000a81548160ff021916908360ff1602179055506080820151816003015560a0820151816004015550507f412a5e547e3bca4f0dee37451eb50c3a0e17b32f72b1c6aed64c52a9008ab9018385610ef685611074565b604051610f059392919061343c565b60405180910390a18192505050919050565b6000600c60009054906101000a900473ffffffffffffffffffffffffffffffffffffffff16905090565b60008060009054906101000a900473ffffffffffffffffffffffffffffffffffffffff16905090565b606060028054610f7990613033565b80601f0160208091040260200160405190810160405280929190818152602001828054610fa590613033565b8015610ff25780601f10610fc757610100808354040283529160200191610ff2565b820191906000526020600020905b815481529060010190602001808311610fd557829003601f168201915b5050505050905090565b61100e6110076117f9565b8383611d80565b5050565b61102361101d6117f9565b836118ba565b611062576040517f08c379a00000000000000000000000000000000000000000000000000000000081526004016110599061328c565b60405180910390fd5b61106e84848484611eec565b50505050565b606061107f8261178d565b6110be576040517f08c379a00000000000000000000000000000000000000000000000000000000081526004016110b5906134f3565b60405180910390fd5b60006110c8611f48565b905060008151116110e85760405180602001604052806000815250611113565b806110f284611fda565b60405160200161110392919061354f565b6040516020818303038152906040525b915050919050565b6060600a805480602002602001604051908101604052809291908181526020016000905b828210156112e657838290600052602060002090600502016040518060c001604052908160008201805461117290613033565b80601f016020809104026020016040519081016040528092919081815260200182805461119e90613033565b80156111eb5780601f106111c0576101008083540402835291602001916111eb565b820191906000526020600020905b8154815290600101906020018083116111ce57829003601f168201915b5050505050815260200160018201805461120490613033565b80601f016020809104026020016040519081016040528092919081815260200182805461123090613033565b801561127d5780601f106112525761010080835404028352916020019161127d565b820191906000526020600020905b81548152906001019060200180831161126057829003601f168201915b505050505081526020016002820160009054906101000a900461ffff1661ffff1661ffff1681526020016002820160029054906101000a900460ff1660ff1660ff168152602001600382015481526020016004820154815250508152602001906001019061113f565b50505050905090565b60006112fa33610c90565b905090565b6000600660008473ffffffffffffffffffffffffffffffffffffffff1673ffffffffffffffffffffffffffffffffffffffff16815260200190815260200160002060008373ffffffffffffffffffffffffffffffffffffffff1673ffffffffffffffffffffffffffffffffffffffff16815260200190815260200160002060009054906101000a900460ff16905092915050565b61139b6117f9565b73ffffffffffffffffffffffffffffffffffffffff166113b9610f41565b73ffffffffffffffffffffffffffffffffffffffff161461140f576040517f08c379a0000000000000000000000000000000000000000000000000000000008152600401611406906132f8565b60405180910390fd5b600073ffffffffffffffffffffffffffffffffffffffff168173ffffffffffffffffffffffffffffffffffffffff160361147e576040517f08c379a0000000000000000000000000000000000000000000000000000000008152600401611475906135e5565b60405180910390fd5b61148781611bfe565b50565b6060600061149733610c90565b67ffffffffffffffff8111156114b0576114af6129d6565b5b6040519080825280602002602001820160405280156114e957816020015b6114d661266a565b8152602001906001900390816114ce5790505b5090506000805b600a8054905081101561171a573373ffffffffffffffffffffffffffffffffffffffff1661151d82610a68565b73ffffffffffffffffffffffffffffffffffffffff160361170757600a818154811061154c5761154b613605565b5b90600052602060002090600502016040518060c001604052908160008201805461157590613033565b80601f01602080910402602001604051908101604052809291908181526020018280546115a190613033565b80156115ee5780601f106115c3576101008083540402835291602001916115ee565b820191906000526020600020905b8154815290600101906020018083116115d157829003601f168201915b5050505050815260200160018201805461160790613033565b80601f016020809104026020016040519081016040528092919081815260200182805461163390613033565b80156116805780601f1061165557610100808354040283529160200191611680565b820191906000526020600020905b81548152906001019060200180831161166357829003601f168201915b505050505081526020016002820160009054906101000a900461ffff1661ffff1661ffff1681526020016002820160029054906101000a900460ff1660ff1660ff168152602001600382015481526020016004820154815250508383815181106116ed576116ec613605565b5b6020026020010181905250818061170390613663565b9250505b808061171290613663565b9150506114f0565b50819250505090565b60007f01ffc9a7000000000000000000000000000000000000000000000000000000007bffffffffffffffffffffffffffffffffffffffffffffffffffffffff1916827bffffffffffffffffffffffffffffffffffffffffffffffffffffffff1916149050919050565b60008073ffffffffffffffffffffffffffffffffffffffff166003600084815260200190815260200160002060009054906101000a900473ffffffffffffffffffffffffffffffffffffffff1673ffffffffffffffffffffffffffffffffffffffff1614159050919050565b600033905090565b816005600083815260200190815260200160002060006101000a81548173ffffffffffffffffffffffffffffffffffffffff021916908373ffffffffffffffffffffffffffffffffffffffff160217905550808273ffffffffffffffffffffffffffffffffffffffff1661187483610a68565b73ffffffffffffffffffffffffffffffffffffffff167f8c5be1e5ebec7d5bd14f71427d1e84f3dd0314c0f7b2291e5b200ac8c7c3b92560405160405180910390a45050565b60006118c58261178d565b611904576040517f08c379a00000000000000000000000000000000000000000000000000000000081526004016118fb9061371d565b60405180910390fd5b600061190f83610a68565b90508073ffffffffffffffffffffffffffffffffffffffff168473ffffffffffffffffffffffffffffffffffffffff16148061197e57508373ffffffffffffffffffffffffffffffffffffffff1661196684610730565b73ffffffffffffffffffffffffffffffffffffffff16145b8061198f575061198e81856112ff565b5b91505092915050565b8273ffffffffffffffffffffffffffffffffffffffff166119b882610a68565b73ffffffffffffffffffffffffffffffffffffffff1614611a0e576040517f08c379a0000000000000000000000000000000000000000000000000000000008152600401611a05906137af565b60405180910390fd5b600073ffffffffffffffffffffffffffffffffffffffff168273ffffffffffffffffffffffffffffffffffffffff1603611a7d576040517f08c379a0000000000000000000000000000000000000000000000000000000008152600401611a7490613841565b60405180910390fd5b611a8883838361213a565b611a93600082611801565b6001600460008573ffffffffffffffffffffffffffffffffffffffff1673ffffffffffffffffffffffffffffffffffffffff1681526020019081526020016000206000828254611ae39190613861565b925050819055506001600460008473ffffffffffffffffffffffffffffffffffffffff1673ffffffffffffffffffffffffffffffffffffffff1681526020019081526020016000206000828254611b3a9190613895565b92505081905550816003600083815260200190815260200160002060006101000a81548173ffffffffffffffffffffffffffffffffffffffff021916908373ffffffffffffffffffffffffffffffffffffffff160217905550808273ffffffffffffffffffffffffffffffffffffffff168473ffffffffffffffffffffffffffffffffffffffff167fddf252ad1be2c89b69c2b068fc378daa952ba7f163c4a11628f55a4df523b3ef60405160405180910390a4611bf983838361213f565b505050565b60008060009054906101000a900473ffffffffffffffffffffffffffffffffffffffff169050816000806101000a81548173ffffffffffffffffffffffffffffffffffffffff021916908373ffffffffffffffffffffffffffffffffffffffff1602179055508173ffffffffffffffffffffffffffffffffffffffff168173ffffffffffffffffffffffffffffffffffffffff167f8be0079c531659141344cd1fd0a4f28419497f9722a3daafe3b4186f6b6457e060405160405180910390a35050565b6001816000016000828254019250508190555050565b600081600001549050919050565b611cee61266a565b611cf661266a565b828160000181905250611d07612144565b8160200181905250611d17612181565b816080018181525050600a816060019060ff16908160ff16815250506001816040019061ffff16908161ffff1681525050611d506121ac565b8160a001818152505080915050919050565b611d7c8282604051806020016040528060008152506121c1565b5050565b8173ffffffffffffffffffffffffffffffffffffffff168373ffffffffffffffffffffffffffffffffffffffff1603611dee576040517f08c379a0000000000000000000000000000000000000000000000000000000008152600401611de590613937565b60405180910390fd5b80600660008573ffffffffffffffffffffffffffffffffffffffff1673ffffffffffffffffffffffffffffffffffffffff16815260200190815260200160002060008473ffffffffffffffffffffffffffffffffffffffff1673ffffffffffffffffffffffffffffffffffffffff16815260200190815260200160002060006101000a81548160ff0219169083151502179055508173ffffffffffffffffffffffffffffffffffffffff168373ffffffffffffffffffffffffffffffffffffffff167f17307eab39ab6107e8899845ad3d59bd9653f200f220920489ca2b5937696c3183604051611edf9190612778565b60405180910390a3505050565b611ef7848484611998565b611f038484848461221c565b611f42576040517f08c379a0000000000000000000000000000000000000000000000000000000008152600401611f39906139c9565b60405180910390fd5b50505050565b606060088054611f5790613033565b80601f0160208091040260200160405190810160405280929190818152602001828054611f8390613033565b8015611fd05780601f10611fa557610100808354040283529160200191611fd0565b820191906000526020600020905b815481529060010190602001808311611fb357829003601f168201915b5050505050905090565b606060008203612021576040518060400160405280600181526020017f30000000000000000000000000000000000000000000000000000000000000008152509050612135565b600082905060005b6000821461205357808061203c90613663565b915050600a8261204c9190613a18565b9150612029565b60008167ffffffffffffffff81111561206f5761206e6129d6565b5b6040519080825280601f01601f1916602001820160405280156120a15781602001600182028036833780820191505090505b5090505b6000851461212e576001826120ba9190613861565b9150600a856120c99190613a49565b60306120d59190613895565b60f81b8183815181106120eb576120ea613605565b5b60200101907effffffffffffffffffffffffffffffffffffffffffffffffffffffffffffff1916908160001a905350600a856121279190613a18565b94506120a5565b8093505050505b919050565b505050565b505050565b60606040518060400160405280600781526020017f5363696e696f6e00000000000000000000000000000000000000000000000000815250905090565b60006121a7600960009054906101000a900460ff16600a6121a29190613bad565b6123a3565b905090565b60006c014370dcb3ba2d04989a029004905090565b6121cb83836123e8565b6121d8600084848461221c565b612217576040517f08c379a000000000000000000000000000000000000000000000000000000000815260040161220e906139c9565b60405180910390fd5b505050565b600061223d8473ffffffffffffffffffffffffffffffffffffffff166125c1565b15612396578373ffffffffffffffffffffffffffffffffffffffff1663150b7a026122666117f9565b8786866040518563ffffffff1660e01b81526004016122889493929190613c4d565b6020604051808303816000875af19250505080156122c457506040513d601f19601f820116820180604052508101906122c19190613cae565b60015b612346573d80600081146122f4576040519150601f19603f3d011682016040523d82523d6000602084013e6122f9565b606091505b50600081510361233e576040517f08c379a0000000000000000000000000000000000000000000000000000000008152600401612335906139c9565b60405180910390fd5b805181602001fd5b63150b7a0260e01b7bffffffffffffffffffffffffffffffffffffffffffffffffffffffff1916817bffffffffffffffffffffffffffffffffffffffffffffffffffffffff19161491505061239b565b600190505b949350505050565b60008042336040516020016123b9929190613d44565b6040516020818303038152906040528051906020012060001c905082816123e09190613a49565b915050919050565b600073ffffffffffffffffffffffffffffffffffffffff168273ffffffffffffffffffffffffffffffffffffffff1603612457576040517f08c379a000000000000000000000000000000000000000000000000000000000815260040161244e90613dbc565b60405180910390fd5b6124608161178d565b156124a0576040517f08c379a000000000000000000000000000000000000000000000000000000000815260040161249790613e28565b60405180910390fd5b6124ac6000838361213a565b6001600460008473ffffffffffffffffffffffffffffffffffffffff1673ffffffffffffffffffffffffffffffffffffffff16815260200190815260200160002060008282546124fc9190613895565b92505081905550816003600083815260200190815260200160002060006101000a81548173ffffffffffffffffffffffffffffffffffffffff021916908373ffffffffffffffffffffffffffffffffffffffff160217905550808273ffffffffffffffffffffffffffffffffffffffff16600073ffffffffffffffffffffffffffffffffffffffff167fddf252ad1be2c89b69c2b068fc378daa952ba7f163c4a11628f55a4df523b3ef60405160405180910390a46125bd6000838361213f565b5050565b6000808273ffffffffffffffffffffffffffffffffffffffff163b119050919050565b8280546125f090613033565b90600052602060002090601f0160209004810192826126125760008555612659565b82601f1061262b57805160ff1916838001178555612659565b82800160010185558215612659579182015b8281111561265857825182559160200191906001019061263d565b5b50905061266691906126a7565b5090565b6040518060c001604052806060815260200160608152602001600061ffff168152602001600060ff16815260200160008152602001600081525090565b5b808211156126c05760008160009055506001016126a8565b5090565b6000604051905090565b600080fd5b600080fd5b60007fffffffff0000000000000000000000000000000000000000000000000000000082169050919050565b61270d816126d8565b811461271857600080fd5b50565b60008135905061272a81612704565b92915050565b600060208284031215612746576127456126ce565b5b60006127548482850161271b565b91505092915050565b60008115159050919050565b6127728161275d565b82525050565b600060208201905061278d6000830184612769565b92915050565b600081519050919050565b600082825260208201905092915050565b60005b838110156127cd5780820151818401526020810190506127b2565b838111156127dc576000848401525b50505050565b6000601f19601f8301169050919050565b60006127fe82612793565b612808818561279e565b93506128188185602086016127af565b612821816127e2565b840191505092915050565b6000602082019050818103600083015261284681846127f3565b905092915050565b6000819050919050565b6128618161284e565b811461286c57600080fd5b50565b60008135905061287e81612858565b92915050565b60006020828403121561289a576128996126ce565b5b60006128a88482850161286f565b91505092915050565b600073ffffffffffffffffffffffffffffffffffffffff82169050919050565b60006128dc826128b1565b9050919050565b6128ec816128d1565b82525050565b600060208201905061290760008301846128e3565b92915050565b612916816128d1565b811461292157600080fd5b50565b6000813590506129338161290d565b92915050565b600080604083850312156129505761294f6126ce565b5b600061295e85828601612924565b925050602061296f8582860161286f565b9150509250929050565b600080600060608486031215612992576129916126ce565b5b60006129a086828701612924565b93505060206129b186828701612924565b92505060406129c28682870161286f565b9150509250925092565b600080fd5b600080fd5b7f4e487b7100000000000000000000000000000000000000000000000000000000600052604160045260246000fd5b612a0e826127e2565b810181811067ffffffffffffffff82111715612a2d57612a2c6129d6565b5b80604052505050565b6000612a406126c4565b9050612a4c8282612a05565b919050565b600067ffffffffffffffff821115612a6c57612a6b6129d6565b5b612a75826127e2565b9050602081019050919050565b82818337600083830152505050565b6000612aa4612a9f84612a51565b612a36565b905082815260208101848484011115612ac057612abf6129d1565b5b612acb848285612a82565b509392505050565b600082601f830112612ae857612ae76129cc565b5b8135612af8848260208601612a91565b91505092915050565b600060208284031215612b1757612b166126ce565b5b600082013567ffffffffffffffff811115612b3557612b346126d3565b5b612b4184828501612ad3565b91505092915050565b600061ffff82169050919050565b612b6181612b4a565b82525050565b600060ff82169050919050565b612b7d81612b67565b82525050565b612b8c8161284e565b82525050565b600060c0820190508181036000830152612bac81896127f3565b90508181036020830152612bc081886127f3565b9050612bcf6040830187612b58565b612bdc6060830186612b74565b612be96080830185612b83565b612bf660a0830184612b83565b979650505050505050565b600060208284031215612c1757612c166126ce565b5b6000612c2584828501612924565b91505092915050565b6000602082019050612c436000830184612b83565b92915050565b612c528161275d565b8114612c5d57600080fd5b50565b600081359050612c6f81612c49565b92915050565b60008060408385031215612c8c57612c8b6126ce565b5b6000612c9a85828601612924565b9250506020612cab85828601612c60565b9150509250929050565b600067ffffffffffffffff821115612cd057612ccf6129d6565b5b612cd9826127e2565b9050602081019050919050565b6000612cf9612cf484612cb5565b612a36565b905082815260208101848484011115612d1557612d146129d1565b5b612d20848285612a82565b509392505050565b600082601f830112612d3d57612d3c6129cc565b5b8135612d4d848260208601612ce6565b91505092915050565b60008060008060808587031215612d7057612d6f6126ce565b5b6000612d7e87828801612924565b9450506020612d8f87828801612924565b9350506040612da08782880161286f565b925050606085013567ffffffffffffffff811115612dc157612dc06126d3565b5b612dcd87828801612d28565b91505092959194509250565b600081519050919050565b600082825260208201905092915050565b6000819050602082019050919050565b600082825260208201905092915050565b6000612e2182612793565b612e2b8185612e05565b9350612e3b8185602086016127af565b612e44816127e2565b840191505092915050565b612e5881612b4a565b82525050565b612e6781612b67565b82525050565b612e768161284e565b82525050565b600060c0830160008301518482036000860152612e998282612e16565b91505060208301518482036020860152612eb38282612e16565b9150506040830151612ec86040860182612e4f565b506060830151612edb6060860182612e5e565b506080830151612eee6080860182612e6d565b5060a0830151612f0160a0860182612e6d565b508091505092915050565b6000612f188383612e7c565b905092915050565b6000602082019050919050565b6000612f3882612dd9565b612f428185612de4565b935083602082028501612f5485612df5565b8060005b85811015612f905784840389528151612f718582612f0c565b9450612f7c83612f20565b925060208a01995050600181019050612f58565b50829750879550505050505092915050565b60006020820190508181036000830152612fbc8184612f2d565b905092915050565b60008060408385031215612fdb57612fda6126ce565b5b6000612fe985828601612924565b9250506020612ffa85828601612924565b9150509250929050565b7f4e487b7100000000000000000000000000000000000000000000000000000000600052602260045260246000fd5b6000600282049050600182168061304b57607f821691505b60208210810361305e5761305d613004565b5b50919050565b7f4552433732313a20617070726f76656420717565727920666f72206e6f6e657860008201527f697374656e7420746f6b656e0000000000000000000000000000000000000000602082015250565b60006130c0602c8361279e565b91506130cb82613064565b604082019050919050565b600060208201905081810360008301526130ef816130b3565b9050919050565b7f4552433732313a20617070726f76616c20746f2063757272656e74206f776e6560008201527f7200000000000000000000000000000000000000000000000000000000000000602082015250565b600061315260218361279e565b915061315d826130f6565b604082019050919050565b6000602082019050818103600083015261318181613145565b9050919050565b7f4552433732313a20617070726f76652063616c6c6572206973206e6f74206f7760008201527f6e6572206e6f7220617070726f76656420666f7220616c6c0000000000000000602082015250565b60006131e460388361279e565b91506131ef82613188565b604082019050919050565b60006020820190508181036000830152613213816131d7565b9050919050565b7f4552433732313a207472616e736665722063616c6c6572206973206e6f74206f60008201527f776e6572206e6f7220617070726f766564000000000000000000000000000000602082015250565b600061327660318361279e565b91506132818261321a565b604082019050919050565b600060208201905081810360008301526132a581613269565b9050919050565b7f4f776e61626c653a2063616c6c6572206973206e6f7420746865206f776e6572600082015250565b60006132e260208361279e565b91506132ed826132ac565b602082019050919050565b60006020820190508181036000830152613311816132d5565b9050919050565b7f4552433732313a206f776e657220717565727920666f72206e6f6e657869737460008201527f656e7420746f6b656e0000000000000000000000000000000000000000000000602082015250565b600061337460298361279e565b915061337f82613318565b604082019050919050565b600060208201905081810360008301526133a381613367565b9050919050565b7f4552433732313a2062616c616e636520717565727920666f7220746865207a6560008201527f726f206164647265737300000000000000000000000000000000000000000000602082015250565b6000613406602a8361279e565b9150613411826133aa565b604082019050919050565b60006020820190508181036000830152613435816133f9565b9050919050565b60006060820190506134516000830186612b83565b818103602083015261346381856127f3565b9050818103604083015261347781846127f3565b9050949350505050565b7f4552433732314d657461646174613a2055524920717565727920666f72206e6f60008201527f6e6578697374656e7420746f6b656e0000000000000000000000000000000000602082015250565b60006134dd602f8361279e565b91506134e882613481565b604082019050919050565b6000602082019050818103600083015261350c816134d0565b9050919050565b600081905092915050565b600061352982612793565b6135338185613513565b93506135438185602086016127af565b80840191505092915050565b600061355b828561351e565b9150613567828461351e565b91508190509392505050565b7f4f776e61626c653a206e6577206f776e657220697320746865207a65726f206160008201527f6464726573730000000000000000000000000000000000000000000000000000602082015250565b60006135cf60268361279e565b91506135da82613573565b604082019050919050565b600060208201905081810360008301526135fe816135c2565b9050919050565b7f4e487b7100000000000000000000000000000000000000000000000000000000600052603260045260246000fd5b7f4e487b7100000000000000000000000000000000000000000000000000000000600052601160045260246000fd5b600061366e8261284e565b91507fffffffffffffffffffffffffffffffffffffffffffffffffffffffffffffffff82036136a05761369f613634565b5b600182019050919050565b7f4552433732313a206f70657261746f7220717565727920666f72206e6f6e657860008201527f697374656e7420746f6b656e0000000000000000000000000000000000000000602082015250565b6000613707602c8361279e565b9150613712826136ab565b604082019050919050565b60006020820190508181036000830152613736816136fa565b9050919050565b7f4552433732313a207472616e736665722066726f6d20696e636f72726563742060008201527f6f776e6572000000000000000000000000000000000000000000000000000000602082015250565b600061379960258361279e565b91506137a48261373d565b604082019050919050565b600060208201905081810360008301526137c88161378c565b9050919050565b7f4552433732313a207472616e7366657220746f20746865207a65726f2061646460008201527f7265737300000000000000000000000000000000000000000000000000000000602082015250565b600061382b60248361279e565b9150613836826137cf565b604082019050919050565b6000602082019050818103600083015261385a8161381e565b9050919050565b600061386c8261284e565b91506138778361284e565b92508282101561388a57613889613634565b5b828203905092915050565b60006138a08261284e565b91506138ab8361284e565b9250827fffffffffffffffffffffffffffffffffffffffffffffffffffffffffffffffff038211156138e0576138df613634565b5b828201905092915050565b7f4552433732313a20617070726f766520746f2063616c6c657200000000000000600082015250565b600061392160198361279e565b915061392c826138eb565b602082019050919050565b6000602082019050818103600083015261395081613914565b9050919050565b7f4552433732313a207472616e7366657220746f206e6f6e20455243373231526560008201527f63656976657220696d706c656d656e7465720000000000000000000000000000602082015250565b60006139b360328361279e565b91506139be82613957565b604082019050919050565b600060208201905081810360008301526139e2816139a6565b9050919050565b7f4e487b7100000000000000000000000000000000000000000000000000000000600052601260045260246000fd5b6000613a238261284e565b9150613a2e8361284e565b925082613a3e57613a3d6139e9565b5b828204905092915050565b6000613a548261284e565b9150613a5f8361284e565b925082613a6f57613a6e6139e9565b5b828206905092915050565b60008160011c9050919050565b6000808291508390505b6001851115613ad157808604811115613aad57613aac613634565b5b6001851615613abc5780820291505b8081029050613aca85613a7a565b9450613a91565b94509492505050565b600082613aea5760019050613ba6565b81613af85760009050613ba6565b8160018114613b0e5760028114613b1857613b47565b6001915050613ba6565b60ff841115613b2a57613b29613634565b5b8360020a915084821115613b4157613b40613634565b5b50613ba6565b5060208310610133831016604e8410600b8410161715613b7c5782820a905083811115613b7757613b76613634565b5b613ba6565b613b898484846001613a87565b92509050818404811115613ba057613b9f613634565b5b81810290505b9392505050565b6000613bb88261284e565b9150613bc383612b67565b9250613bf07fffffffffffffffffffffffffffffffffffffffffffffffffffffffffffffffff8484613ada565b905092915050565b600081519050919050565b600082825260208201905092915050565b6000613c1f82613bf8565b613c298185613c03565b9350613c398185602086016127af565b613c42816127e2565b840191505092915050565b6000608082019050613c6260008301876128e3565b613c6f60208301866128e3565b613c7c6040830185612b83565b8181036060830152613c8e8184613c14565b905095945050505050565b600081519050613ca881612704565b92915050565b600060208284031215613cc457613cc36126ce565b5b6000613cd284828501613c99565b91505092915050565b6000819050919050565b613cf6613cf18261284e565b613cdb565b82525050565b60008160601b9050919050565b6000613d1482613cfc565b9050919050565b6000613d2682613d09565b9050919050565b613d3e613d39826128d1565b613d1b565b82525050565b6000613d508285613ce5565b602082019150613d608284613d2d565b6014820191508190509392505050565b7f4552433732313a206d696e7420746f20746865207a65726f2061646472657373600082015250565b6000613da660208361279e565b9150613db182613d70565b602082019050919050565b60006020820190508181036000830152613dd581613d99565b9050919050565b7f4552433732313a20746f6b656e20616c7265616479206d696e74656400000000600082015250565b6000613e12601c8361279e565b9150613e1d82613ddc565b602082019050919050565b60006020820190508181036000830152613e4181613e05565b905091905056fea2646970667358221220c341b4eb1c07d8443530f23271668113f9bfc50196dd90d6a9879cab4be3471164736f6c634300080d0033697066733a2f2f516d584571454239464345486333345a736e79434172394b4466787168764c7170735a553359347334736d317067",
  "immutableReferences": {},
  "source": "\n// SPDX-License-Identifier: MIT\npragma solidity ^0.8.0;\n\nimport \"@openzeppelin/contracts/access/Ownable.sol\";\nimport \"@openzeppelin/contracts/token/ERC721/ERC721.sol\";\nimport \"@openzeppelin/contracts/utils/math/SafeMath.sol\";\nimport \"@openzeppelin/contracts/utils/Counters.sol\";\nimport '@openzeppelin/contracts/token/ERC1155/utils/ERC1155Holder.sol';\n\n\ncontract ScinionFactory is Ownable, ERC721 {\n\n  using Counters for Counters.Counter;\n  Counters.Counter private _tokenIds;\n  string private _baseURIextended;\n  uint8 private NUMBER_DIGITS_DNA = 16;\n  Scinion[] public scinions;\n\n  uint minPrice = 0.01 ether;\n\n  using SafeMath for uint256;\n\n  event NewScinion(uint scinionId, string name, string uri);\n\n  address payable gameOwner;\n\n  function getOwner() public view returns (address) {\n        return gameOwner;\n  }\n\n  modifier onlyOwnerOf(uint _scinionId) {\n    require(msg.sender == ownerOf(_scinionId));\n    _;\n  }\n\n  struct Scinion {\n    string name;\n    string scinionType;\n    uint16 level;\n    uint8 energia;\n    uint dna;\n    uint habilities;\n  }\n\n   constructor() ERC721(\"ScinionNFT\", \"SCTK\") {\n        gameOwner = payable(msg.sender);\n        _baseURIextended = \"ipfs://QmXEqEB9FCEHc34ZsnyCAr9KDfxqhvLqpsZU3Y4s4sm1pg\";\n    }\n\n\n  function rand(uint8 _min, uint8 _max, string memory _name) private pure returns (uint8){\n    return uint8(uint(keccak256(abi.encodePacked(_name)))%(_min+_max)-_min);\n  }\n\n  function setMinPrice(uint _fee) external onlyOwner() {\n    minPrice = _fee;\n  }\n\n  function _baseURI() internal view virtual override returns (string memory) {\n    return _baseURIextended;\n  }\n\n   function setBaseURI(string memory baseURI_) external onlyOwner() {\n     _baseURIextended = baseURI_;\n   }\n\n  function _createScinion(string memory _name) private view returns(Scinion memory) {\n    Scinion memory newScinion;\n    newScinion.name = _name;\n    newScinion.scinionType = _setScinionType();\n    newScinion.dna = _setDna();\n    newScinion.energia = 10;\n    newScinion.level = 1;\n    newScinion.habilities = _setPerfectHabilities();\n    return newScinion;\n  }\n\n  function _createRandomNum(uint256 _mod) internal view returns (uint256) {\n    uint256 randomNum = uint256(\n      keccak256(abi.encodePacked(block.timestamp, msg.sender))\n    );\n    return randomNum % _mod;\n  }\n\n  function _setPerfectHabilities() pure private returns (uint habilities) {\n    return 100100100100100100100100100100;\n  }\n\n  function _setScinionType() pure private returns (string memory scinionType) {\n    return \"Scinion\";\n  }\n\n  function _setDna() view private returns (uint256 dna) {\n     return _createRandomNum(10**NUMBER_DIGITS_DNA);\n    \n  }\n\n  function mintScinion(string memory _name) external payable returns(uint id) {\n     _tokenIds.increment();\n    uint256 tokenId = _tokenIds.current();\n    Scinion memory newScinion = _createScinion(_name);\n    //require(msg.value >= minPrice, \"Not enough ETH sent; check price!\"); \n   //  payable(owner()).transfer(msg.value);\n    _safeMint(msg.sender, tokenId);\n    tokenURI(tokenId);\n    scinions.push(newScinion);\n    emit NewScinion(id, _name, tokenURI(tokenId));\n    return tokenId;\n  }\n\n   \n  function getScinionsByOwner() public view returns(Scinion[] memory) {\n      Scinion[] memory result = new Scinion[](balanceOf(msg.sender));\n      uint counter = 0;\n      for (uint i = 0; i < scinions.length; i++) {\n          if (ownerOf(i)==msg.sender) {\n              result[counter]=scinions[i];\n              counter++;\n          }\n      }    \n      return result;\n  }\n\n  function getBalanceOfOwner() public view returns(uint numberOfScinions){\n      return balanceOf(msg.sender);\n  }\n\n\n  function getAllScinions() public view returns(Scinion[] memory) {\n      return scinions;\n  }\n   \n\n\n}\n",
  "sourcePath": "/Users/albateixidovillanueva/Desktop/scinions/contracts/scinionfactory.sol",
  "compiler": {
    "name": "solc",
    "version": "0.8.13+commit.abaa5c0e.Emscripten.clang"
  },
  "schemaVersion": "3.4.6",
  "updatedAt": "2022-05-08T15:43:01.116Z",
  "networkType": "ethereum",
  "devdoc": {
    "kind": "dev",
    "methods": {
      "approve(address,uint256)": {
        "details": "See {IERC721-approve}."
      },
      "balanceOf(address)": {
        "details": "See {IERC721-balanceOf}."
      },
      "getApproved(uint256)": {
        "details": "See {IERC721-getApproved}."
      },
      "isApprovedForAll(address,address)": {
        "details": "See {IERC721-isApprovedForAll}."
      },
      "name()": {
        "details": "See {IERC721Metadata-name}."
      },
      "owner()": {
        "details": "Returns the address of the current owner."
      },
      "ownerOf(uint256)": {
        "details": "See {IERC721-ownerOf}."
      },
      "renounceOwnership()": {
        "details": "Leaves the contract without owner. It will not be possible to call `onlyOwner` functions anymore. Can only be called by the current owner. NOTE: Renouncing ownership will leave the contract without an owner, thereby removing any functionality that is only available to the owner."
      },
      "safeTransferFrom(address,address,uint256)": {
        "details": "See {IERC721-safeTransferFrom}."
      },
      "safeTransferFrom(address,address,uint256,bytes)": {
        "details": "See {IERC721-safeTransferFrom}."
      },
      "setApprovalForAll(address,bool)": {
        "details": "See {IERC721-setApprovalForAll}."
      },
      "supportsInterface(bytes4)": {
        "details": "See {IERC165-supportsInterface}."
      },
      "symbol()": {
        "details": "See {IERC721Metadata-symbol}."
      },
      "tokenURI(uint256)": {
        "details": "See {IERC721Metadata-tokenURI}."
      },
      "transferFrom(address,address,uint256)": {
        "details": "See {IERC721-transferFrom}."
      },
      "transferOwnership(address)": {
        "details": "Transfers ownership of the contract to a new account (`newOwner`). Can only be called by the current owner."
      }
    },
    "version": 1
  },
  "userdoc": {
    "kind": "user",
    "methods": {},
    "version": 1
  }
}