{
  "contractName": "ScinionFactory",
  "abi": [
    {
      "inputs": [],
      "stateMutability": "nonpayable",
      "type": "constructor"
    },
    {
      "anonymous": false,
      "inputs": [
        {
          "indexed": true,
          "internalType": "address",
          "name": "owner",
          "type": "address"
        },
        {
          "indexed": true,
          "internalType": "address",
          "name": "approved",
          "type": "address"
        },
        {
          "indexed": true,
          "internalType": "uint256",
          "name": "tokenId",
          "type": "uint256"
        }
      ],
      "name": "Approval",
      "type": "event"
    },
    {
      "anonymous": false,
      "inputs": [
        {
          "indexed": true,
          "internalType": "address",
          "name": "owner",
          "type": "address"
        },
        {
          "indexed": true,
          "internalType": "address",
          "name": "operator",
          "type": "address"
        },
        {
          "indexed": false,
          "internalType": "bool",
          "name": "approved",
          "type": "bool"
        }
      ],
      "name": "ApprovalForAll",
      "type": "event"
    },
    {
      "anonymous": false,
      "inputs": [
        {
          "indexed": false,
          "internalType": "uint256",
          "name": "money",
          "type": "uint256"
        },
        {
          "indexed": false,
          "internalType": "address",
          "name": "from",
          "type": "address"
        }
      ],
      "name": "MoneyAccount",
      "type": "event"
    },
    {
      "anonymous": false,
      "inputs": [
        {
          "indexed": false,
          "internalType": "uint256",
          "name": "scinionId",
          "type": "uint256"
        },
        {
          "indexed": false,
          "internalType": "string",
          "name": "name",
          "type": "string"
        }
      ],
      "name": "NewScinion",
      "type": "event"
    },
    {
      "anonymous": false,
      "inputs": [
        {
          "indexed": true,
          "internalType": "address",
          "name": "previousOwner",
          "type": "address"
        },
        {
          "indexed": true,
          "internalType": "address",
          "name": "newOwner",
          "type": "address"
        }
      ],
      "name": "OwnershipTransferred",
      "type": "event"
    },
    {
      "anonymous": false,
      "inputs": [
        {
          "indexed": true,
          "internalType": "address",
          "name": "from",
          "type": "address"
        },
        {
          "indexed": true,
          "internalType": "address",
          "name": "to",
          "type": "address"
        },
        {
          "indexed": true,
          "internalType": "uint256",
          "name": "tokenId",
          "type": "uint256"
        }
      ],
      "name": "Transfer",
      "type": "event"
    },
    {
      "inputs": [
        {
          "internalType": "address",
          "name": "to",
          "type": "address"
        },
        {
          "internalType": "uint256",
          "name": "tokenId",
          "type": "uint256"
        }
      ],
      "name": "approve",
      "outputs": [],
      "stateMutability": "nonpayable",
      "type": "function"
    },
    {
      "inputs": [
        {
          "internalType": "address",
          "name": "owner",
          "type": "address"
        }
      ],
      "name": "balanceOf",
      "outputs": [
        {
          "internalType": "uint256",
          "name": "",
          "type": "uint256"
        }
      ],
      "stateMutability": "view",
      "type": "function",
      "constant": true
    },
    {
      "inputs": [
        {
          "internalType": "uint256",
          "name": "tokenId",
          "type": "uint256"
        }
      ],
      "name": "getApproved",
      "outputs": [
        {
          "internalType": "address",
          "name": "",
          "type": "address"
        }
      ],
      "stateMutability": "view",
      "type": "function",
      "constant": true
    },
    {
      "inputs": [
        {
          "internalType": "address",
          "name": "owner",
          "type": "address"
        },
        {
          "internalType": "address",
          "name": "operator",
          "type": "address"
        }
      ],
      "name": "isApprovedForAll",
      "outputs": [
        {
          "internalType": "bool",
          "name": "",
          "type": "bool"
        }
      ],
      "stateMutability": "view",
      "type": "function",
      "constant": true
    },
    {
      "inputs": [],
      "name": "name",
      "outputs": [
        {
          "internalType": "string",
          "name": "",
          "type": "string"
        }
      ],
      "stateMutability": "view",
      "type": "function",
      "constant": true
    },
    {
      "inputs": [],
      "name": "owner",
      "outputs": [
        {
          "internalType": "address",
          "name": "",
          "type": "address"
        }
      ],
      "stateMutability": "view",
      "type": "function",
      "constant": true
    },
    {
      "inputs": [
        {
          "internalType": "uint256",
          "name": "tokenId",
          "type": "uint256"
        }
      ],
      "name": "ownerOf",
      "outputs": [
        {
          "internalType": "address",
          "name": "",
          "type": "address"
        }
      ],
      "stateMutability": "view",
      "type": "function",
      "constant": true
    },
    {
      "inputs": [],
      "name": "renounceOwnership",
      "outputs": [],
      "stateMutability": "nonpayable",
      "type": "function"
    },
    {
      "inputs": [
        {
          "internalType": "address",
          "name": "from",
          "type": "address"
        },
        {
          "internalType": "address",
          "name": "to",
          "type": "address"
        },
        {
          "internalType": "uint256",
          "name": "tokenId",
          "type": "uint256"
        }
      ],
      "name": "safeTransferFrom",
      "outputs": [],
      "stateMutability": "nonpayable",
      "type": "function"
    },
    {
      "inputs": [
        {
          "internalType": "address",
          "name": "from",
          "type": "address"
        },
        {
          "internalType": "address",
          "name": "to",
          "type": "address"
        },
        {
          "internalType": "uint256",
          "name": "tokenId",
          "type": "uint256"
        },
        {
          "internalType": "bytes",
          "name": "_data",
          "type": "bytes"
        }
      ],
      "name": "safeTransferFrom",
      "outputs": [],
      "stateMutability": "nonpayable",
      "type": "function"
    },
    {
      "inputs": [
        {
          "internalType": "address",
          "name": "operator",
          "type": "address"
        },
        {
          "internalType": "bool",
          "name": "approved",
          "type": "bool"
        }
      ],
      "name": "setApprovalForAll",
      "outputs": [],
      "stateMutability": "nonpayable",
      "type": "function"
    },
    {
      "inputs": [
        {
          "internalType": "bytes4",
          "name": "interfaceId",
          "type": "bytes4"
        }
      ],
      "name": "supportsInterface",
      "outputs": [
        {
          "internalType": "bool",
          "name": "",
          "type": "bool"
        }
      ],
      "stateMutability": "view",
      "type": "function",
      "constant": true
    },
    {
      "inputs": [],
      "name": "symbol",
      "outputs": [
        {
          "internalType": "string",
          "name": "",
          "type": "string"
        }
      ],
      "stateMutability": "view",
      "type": "function",
      "constant": true
    },
    {
      "inputs": [
        {
          "internalType": "uint256",
          "name": "tokenId",
          "type": "uint256"
        }
      ],
      "name": "tokenURI",
      "outputs": [
        {
          "internalType": "string",
          "name": "",
          "type": "string"
        }
      ],
      "stateMutability": "view",
      "type": "function",
      "constant": true
    },
    {
      "inputs": [
        {
          "internalType": "address",
          "name": "from",
          "type": "address"
        },
        {
          "internalType": "address",
          "name": "to",
          "type": "address"
        },
        {
          "internalType": "uint256",
          "name": "tokenId",
          "type": "uint256"
        }
      ],
      "name": "transferFrom",
      "outputs": [],
      "stateMutability": "nonpayable",
      "type": "function"
    },
    {
      "inputs": [
        {
          "internalType": "address",
          "name": "newOwner",
          "type": "address"
        }
      ],
      "name": "transferOwnership",
      "outputs": [],
      "stateMutability": "nonpayable",
      "type": "function"
    },
    {
      "inputs": [],
      "name": "getOwner",
      "outputs": [
        {
          "internalType": "address",
          "name": "",
          "type": "address"
        }
      ],
      "stateMutability": "view",
      "type": "function",
      "constant": true
    },
    {
      "inputs": [
        {
          "internalType": "uint256",
          "name": "_fee",
          "type": "uint256"
        }
      ],
      "name": "setMinPrice",
      "outputs": [],
      "stateMutability": "nonpayable",
      "type": "function"
    },
    {
      "inputs": [
        {
          "internalType": "string",
          "name": "_name",
          "type": "string"
        },
        {
          "internalType": "string",
          "name": "_scinionType",
          "type": "string"
        },
        {
          "internalType": "uint256",
          "name": "_dna",
          "type": "uint256"
        }
      ],
      "name": "createScinion",
      "outputs": [],
      "stateMutability": "nonpayable",
      "type": "function"
    },
    {
      "inputs": [
        {
          "internalType": "address",
          "name": "_from",
          "type": "address"
        },
        {
          "internalType": "address",
          "name": "_to",
          "type": "address"
        },
        {
          "internalType": "uint256",
          "name": "_tokenId",
          "type": "uint256"
        }
      ],
      "name": "transferScinion",
      "outputs": [],
      "stateMutability": "payable",
      "type": "function",
      "payable": true
    },
    {
      "inputs": [
        {
          "internalType": "uint256",
          "name": "_tokenId",
          "type": "uint256"
        }
      ],
      "name": "mintScinion",
      "outputs": [],
      "stateMutability": "payable",
      "type": "function",
      "payable": true
    },
    {
      "inputs": [
        {
          "internalType": "address",
          "name": "owner",
          "type": "address"
        }
      ],
      "name": "balanceOfScinions",
      "outputs": [
        {
          "internalType": "uint256",
          "name": "balance",
          "type": "uint256"
        }
      ],
      "stateMutability": "view",
      "type": "function",
      "constant": true
    }
  ],
  "bytecode": "0x608060405266038d7ea4c680006008553480156200001c57600080fd5b506040518060400160405280600a81526020017f5363696e696f6e4e4654000000000000000000000000000000000000000000008152506040518060400160405280600481526020017f5343544b00000000000000000000000000000000000000000000000000000000815250620000a96200009d6200012460201b60201c565b6200012c60201b60201c565b8160019080519060200190620000c1929190620001f0565b508060029080519060200190620000da929190620001f0565b50505033600960006101000a81548173ffffffffffffffffffffffffffffffffffffffff021916908373ffffffffffffffffffffffffffffffffffffffff16021790555062000304565b600033905090565b60008060009054906101000a900473ffffffffffffffffffffffffffffffffffffffff169050816000806101000a81548173ffffffffffffffffffffffffffffffffffffffff021916908373ffffffffffffffffffffffffffffffffffffffff1602179055508173ffffffffffffffffffffffffffffffffffffffff168173ffffffffffffffffffffffffffffffffffffffff167f8be0079c531659141344cd1fd0a4f28419497f9722a3daafe3b4186f6b6457e060405160405180910390a35050565b828054620001fe90620002cf565b90600052602060002090601f0160209004810192826200022257600085556200026e565b82601f106200023d57805160ff19168380011785556200026e565b828001600101855582156200026e579182015b828111156200026d57825182559160200191906001019062000250565b5b5090506200027d919062000281565b5090565b5b808211156200029c57600081600090555060010162000282565b5090565b7f4e487b7100000000000000000000000000000000000000000000000000000000600052602260045260246000fd5b60006002820490506001821680620002e857607f821691505b602082108103620002fe57620002fd620002a0565b5b50919050565b613b7380620003146000396000f3fe6080604052600436106101355760003560e01c8063893d20e8116100ab578063b88d4fde1161006f578063b88d4fde14610417578063c87b56dd14610440578063e985e9c51461047d578063ea0e6aeb146104ba578063f2fde38b146104e3578063facc74091461050c57610135565b8063893d20e8146103515780638da5cb5b1461037c57806395d89b41146103a7578063a22cb465146103d2578063a612c71a146103fb57610135565b806342842e0e116100fd57806342842e0e146102315780635ea8cd121461025a5780636352211e146102835780636fa9174e146102c057806370a08231146102fd578063715018a61461033a57610135565b806301ffc9a71461013a57806306fdde0314610177578063081812fc146101a2578063095ea7b3146101df57806323b872dd14610208575b600080fd5b34801561014657600080fd5b50610161600480360381019061015c9190612788565b610528565b60405161016e91906127d0565b60405180910390f35b34801561018357600080fd5b5061018c61060a565b6040516101999190612884565b60405180910390f35b3480156101ae57600080fd5b506101c960048036038101906101c491906128dc565b61069c565b6040516101d6919061294a565b60405180910390f35b3480156101eb57600080fd5b5061020660048036038101906102019190612991565b610721565b005b34801561021457600080fd5b5061022f600480360381019061022a91906129d1565b610838565b005b34801561023d57600080fd5b50610258600480360381019061025391906129d1565b610898565b005b34801561026657600080fd5b50610281600480360381019061027c91906128dc565b6108b8565b005b34801561028f57600080fd5b506102aa60048036038101906102a591906128dc565b61093e565b6040516102b7919061294a565b60405180910390f35b3480156102cc57600080fd5b506102e760048036038101906102e29190612a24565b6109ef565b6040516102f49190612a60565b60405180910390f35b34801561030957600080fd5b50610324600480360381019061031f9190612a24565b610a38565b6040516103319190612a60565b60405180910390f35b34801561034657600080fd5b5061034f610aef565b005b34801561035d57600080fd5b50610366610b77565b604051610373919061294a565b60405180910390f35b34801561038857600080fd5b50610391610ba1565b60405161039e919061294a565b60405180910390f35b3480156103b357600080fd5b506103bc610bca565b6040516103c99190612884565b60405180910390f35b3480156103de57600080fd5b506103f960048036038101906103f49190612aa7565b610c5c565b005b610415600480360381019061041091906129d1565b610c72565b005b34801561042357600080fd5b5061043e60048036038101906104399190612c1c565b610d4e565b005b34801561044c57600080fd5b50610467600480360381019061046291906128dc565b610db0565b6040516104749190612884565b60405180910390f35b34801561048957600080fd5b506104a4600480360381019061049f9190612c9f565b610e57565b6040516104b191906127d0565b60405180910390f35b3480156104c657600080fd5b506104e160048036038101906104dc9190612d80565b610eeb565b005b3480156104ef57600080fd5b5061050a60048036038101906105059190612a24565b61136e565b005b610526600480360381019061052191906128dc565b611465565b005b60007f80ac58cd000000000000000000000000000000000000000000000000000000007bffffffffffffffffffffffffffffffffffffffffffffffffffffffff1916827bffffffffffffffffffffffffffffffffffffffffffffffffffffffff191614806105f357507f5b5e139f000000000000000000000000000000000000000000000000000000007bffffffffffffffffffffffffffffffffffffffffffffffffffffffff1916827bffffffffffffffffffffffffffffffffffffffffffffffffffffffff1916145b80610603575061060282611657565b5b9050919050565b60606001805461061990612e3a565b80601f016020809104026020016040519081016040528092919081815260200182805461064590612e3a565b80156106925780601f1061066757610100808354040283529160200191610692565b820191906000526020600020905b81548152906001019060200180831161067557829003601f168201915b5050505050905090565b60006106a7826116c1565b6106e6576040517f08c379a00000000000000000000000000000000000000000000000000000000081526004016106dd90612edd565b60405180910390fd5b6005600083815260200190815260200160002060009054906101000a900473ffffffffffffffffffffffffffffffffffffffff169050919050565b600061072c8261093e565b90508073ffffffffffffffffffffffffffffffffffffffff168373ffffffffffffffffffffffffffffffffffffffff160361079c576040517f08c379a000000000000000000000000000000000000000000000000000000000815260040161079390612f6f565b60405180910390fd5b8073ffffffffffffffffffffffffffffffffffffffff166107bb61172d565b73ffffffffffffffffffffffffffffffffffffffff1614806107ea57506107e9816107e461172d565b610e57565b5b610829576040517f08c379a000000000000000000000000000000000000000000000000000000000815260040161082090613001565b60405180910390fd5b6108338383611735565b505050565b61084961084361172d565b826117ee565b610888576040517f08c379a000000000000000000000000000000000000000000000000000000000815260040161087f90613093565b60405180910390fd5b6108938383836118cc565b505050565b6108b383838360405180602001604052806000815250610d4e565b505050565b6108c061172d565b73ffffffffffffffffffffffffffffffffffffffff166108de610ba1565b73ffffffffffffffffffffffffffffffffffffffff1614610934576040517f08c379a000000000000000000000000000000000000000000000000000000000815260040161092b906130ff565b60405180910390fd5b8060088190555050565b6000806003600084815260200190815260200160002060009054906101000a900473ffffffffffffffffffffffffffffffffffffffff169050600073ffffffffffffffffffffffffffffffffffffffff168173ffffffffffffffffffffffffffffffffffffffff16036109e6576040517f08c379a00000000000000000000000000000000000000000000000000000000081526004016109dd90613191565b60405180910390fd5b80915050919050565b6000600c60008373ffffffffffffffffffffffffffffffffffffffff1673ffffffffffffffffffffffffffffffffffffffff168152602001908152602001600020549050919050565b60008073ffffffffffffffffffffffffffffffffffffffff168273ffffffffffffffffffffffffffffffffffffffff1603610aa8576040517f08c379a0000000000000000000000000000000000000000000000000000000008152600401610a9f90613223565b60405180910390fd5b600460008373ffffffffffffffffffffffffffffffffffffffff1673ffffffffffffffffffffffffffffffffffffffff168152602001908152602001600020549050919050565b610af761172d565b73ffffffffffffffffffffffffffffffffffffffff16610b15610ba1565b73ffffffffffffffffffffffffffffffffffffffff1614610b6b576040517f08c379a0000000000000000000000000000000000000000000000000000000008152600401610b62906130ff565b60405180910390fd5b610b756000611b32565b565b6000600960009054906101000a900473ffffffffffffffffffffffffffffffffffffffff16905090565b60008060009054906101000a900473ffffffffffffffffffffffffffffffffffffffff16905090565b606060028054610bd990612e3a565b80601f0160208091040260200160405190810160405280929190818152602001828054610c0590612e3a565b8015610c525780601f10610c2757610100808354040283529160200191610c52565b820191906000526020600020905b815481529060010190602001808311610c3557829003601f168201915b5050505050905090565b610c6e610c6761172d565b8383611bf6565b5050565b610c7a61172d565b73ffffffffffffffffffffffffffffffffffffffff16610c98610ba1565b73ffffffffffffffffffffffffffffffffffffffff1614610cee576040517f08c379a0000000000000000000000000000000000000000000000000000000008152600401610ce5906130ff565b60405180910390fd5b600854341015610d33576040517f08c379a0000000000000000000000000000000000000000000000000000000008152600401610d2a906132b5565b60405180910390fd5b610d3e838383611d62565b610d49838383610838565b505050565b610d5f610d5961172d565b836117ee565b610d9e576040517f08c379a0000000000000000000000000000000000000000000000000000000008152600401610d9590613093565b60405180910390fd5b610daa84848484611f40565b50505050565b6060610dbb826116c1565b610dfa576040517f08c379a0000000000000000000000000000000000000000000000000000000008152600401610df190613347565b60405180910390fd5b6000610e04611f9c565b90506000815111610e245760405180602001604052806000815250610e4f565b80610e2e84611fb3565b604051602001610e3f9291906133a3565b6040516020818303038152906040525b915050919050565b6000600660008473ffffffffffffffffffffffffffffffffffffffff1673ffffffffffffffffffffffffffffffffffffffff16815260200190815260200160002060008373ffffffffffffffffffffffffffffffffffffffff1673ffffffffffffffffffffffffffffffffffffffff16815260200190815260200160002060009054906101000a900460ff16905092915050565b610ef361172d565b73ffffffffffffffffffffffffffffffffffffffff16610f11610ba1565b73ffffffffffffffffffffffffffffffffffffffff1614610f67576040517f08c379a0000000000000000000000000000000000000000000000000000000008152600401610f5e906130ff565b60405180910390fd5b610f716007612113565b6000610f7d6007612129565b9050610f876125c5565b84816000018190525083816020018190525082816080018181525050600a816060019060ff16908160ff16815250506001816040019061ffff16908161ffff1681525050610fd86001606487612137565b8160a001516000019060ff16908160ff1681525050610ffa6001606487612137565b8160a001516020019060ff16908160ff168152505061101c6001606487612137565b8160a001516040019060ff16908160ff168152505061103e6001606487612137565b8160a001516060019060ff16908160ff16815250506110606001606487612137565b8160a001516080019060ff16908160ff16815250506110826001606487612137565b8160a0015160a0019060ff16908160ff16815250506110a46001606487612137565b8160a0015160c0019060ff16908160ff16815250506110c66001606487612137565b8160a0015160e0019060ff16908160ff16815250506110e86001606487612137565b8160a00151610100019060ff16908160ff168152505061110b6001606487612137565b8160a00151610120019060ff16908160ff1681525050600a8190806001815401808255809150506001900390600052602060002090600502016000909190919091506000820151816000019080519060200190611169929190612608565b506020820151816001019080519060200190611186929190612608565b5060408201518160020160006101000a81548161ffff021916908361ffff16021790555060608201518160020160026101000a81548160ff021916908360ff1602179055506080820151816003015560a08201518160040160008201518160000160006101000a81548160ff021916908360ff16021790555060208201518160000160016101000a81548160ff021916908360ff16021790555060408201518160000160026101000a81548160ff021916908360ff16021790555060608201518160000160036101000a81548160ff021916908360ff16021790555060808201518160000160046101000a81548160ff021916908360ff16021790555060a08201518160000160056101000a81548160ff021916908360ff16021790555060c08201518160000160066101000a81548160ff021916908360ff16021790555060e08201518160000160076101000a81548160ff021916908360ff1602179055506101008201518160000160086101000a81548160ff021916908360ff1602179055506101208201518160000160096101000a81548160ff021916908360ff160217905550505050507f806638a1fc90cec1d905c742ef32e76004dcce146ea274170b3018708eec5b2f828660405161135f9291906133c7565b60405180910390a15050505050565b61137661172d565b73ffffffffffffffffffffffffffffffffffffffff16611394610ba1565b73ffffffffffffffffffffffffffffffffffffffff16146113ea576040517f08c379a00000000000000000000000000000000000000000000000000000000081526004016113e1906130ff565b60405180910390fd5b600073ffffffffffffffffffffffffffffffffffffffff168173ffffffffffffffffffffffffffffffffffffffff1603611459576040517f08c379a000000000000000000000000000000000000000000000000000000000815260040161145090613469565b60405180910390fd5b61146281611b32565b50565b7fe56f18e374bb8dce430723c1947f905723fc716825356be61589a5de9ff2855f3433604051611496929190613489565b60405180910390a16008543410156114e3576040517f08c379a00000000000000000000000000000000000000000000000000000000081526004016114da906132b5565b60405180910390fd5b6115366001600c60003373ffffffffffffffffffffffffffffffffffffffff1673ffffffffffffffffffffffffffffffffffffffff1681526020019081526020016000205461219390919063ffffffff16565b600c60003373ffffffffffffffffffffffffffffffffffffffff1673ffffffffffffffffffffffffffffffffffffffff1681526020019081526020016000208190555033600b600083815260200190815260200160002060006101000a81548173ffffffffffffffffffffffffffffffffffffffff021916908373ffffffffffffffffffffffffffffffffffffffff160217905550600854600960009054906101000a900473ffffffffffffffffffffffffffffffffffffffff1673ffffffffffffffffffffffffffffffffffffffff163373ffffffffffffffffffffffffffffffffffffffff167fddf252ad1be2c89b69c2b068fc378daa952ba7f163c4a11628f55a4df523b3ef60405160405180910390a461165433826121a9565b50565b60007f01ffc9a7000000000000000000000000000000000000000000000000000000007bffffffffffffffffffffffffffffffffffffffffffffffffffffffff1916827bffffffffffffffffffffffffffffffffffffffffffffffffffffffff1916149050919050565b60008073ffffffffffffffffffffffffffffffffffffffff166003600084815260200190815260200160002060009054906101000a900473ffffffffffffffffffffffffffffffffffffffff1673ffffffffffffffffffffffffffffffffffffffff1614159050919050565b600033905090565b816005600083815260200190815260200160002060006101000a81548173ffffffffffffffffffffffffffffffffffffffff021916908373ffffffffffffffffffffffffffffffffffffffff160217905550808273ffffffffffffffffffffffffffffffffffffffff166117a88361093e565b73ffffffffffffffffffffffffffffffffffffffff167f8c5be1e5ebec7d5bd14f71427d1e84f3dd0314c0f7b2291e5b200ac8c7c3b92560405160405180910390a45050565b60006117f9826116c1565b611838576040517f08c379a000000000000000000000000000000000000000000000000000000000815260040161182f90613524565b60405180910390fd5b60006118438361093e565b90508073ffffffffffffffffffffffffffffffffffffffff168473ffffffffffffffffffffffffffffffffffffffff1614806118b257508373ffffffffffffffffffffffffffffffffffffffff1661189a8461069c565b73ffffffffffffffffffffffffffffffffffffffff16145b806118c357506118c28185610e57565b5b91505092915050565b8273ffffffffffffffffffffffffffffffffffffffff166118ec8261093e565b73ffffffffffffffffffffffffffffffffffffffff1614611942576040517f08c379a0000000000000000000000000000000000000000000000000000000008152600401611939906135b6565b60405180910390fd5b600073ffffffffffffffffffffffffffffffffffffffff168273ffffffffffffffffffffffffffffffffffffffff16036119b1576040517f08c379a00000000000000000000000000000000000000000000000000000000081526004016119a890613648565b60405180910390fd5b6119bc8383836121c7565b6119c7600082611735565b6001600460008573ffffffffffffffffffffffffffffffffffffffff1673ffffffffffffffffffffffffffffffffffffffff1681526020019081526020016000206000828254611a179190613697565b925050819055506001600460008473ffffffffffffffffffffffffffffffffffffffff1673ffffffffffffffffffffffffffffffffffffffff1681526020019081526020016000206000828254611a6e91906136cb565b92505081905550816003600083815260200190815260200160002060006101000a81548173ffffffffffffffffffffffffffffffffffffffff021916908373ffffffffffffffffffffffffffffffffffffffff160217905550808273ffffffffffffffffffffffffffffffffffffffff168473ffffffffffffffffffffffffffffffffffffffff167fddf252ad1be2c89b69c2b068fc378daa952ba7f163c4a11628f55a4df523b3ef60405160405180910390a4611b2d8383836121cc565b505050565b60008060009054906101000a900473ffffffffffffffffffffffffffffffffffffffff169050816000806101000a81548173ffffffffffffffffffffffffffffffffffffffff021916908373ffffffffffffffffffffffffffffffffffffffff1602179055508173ffffffffffffffffffffffffffffffffffffffff168173ffffffffffffffffffffffffffffffffffffffff167f8be0079c531659141344cd1fd0a4f28419497f9722a3daafe3b4186f6b6457e060405160405180910390a35050565b8173ffffffffffffffffffffffffffffffffffffffff168373ffffffffffffffffffffffffffffffffffffffff1603611c64576040517f08c379a0000000000000000000000000000000000000000000000000000000008152600401611c5b9061376d565b60405180910390fd5b80600660008573ffffffffffffffffffffffffffffffffffffffff1673ffffffffffffffffffffffffffffffffffffffff16815260200190815260200160002060008473ffffffffffffffffffffffffffffffffffffffff1673ffffffffffffffffffffffffffffffffffffffff16815260200190815260200160002060006101000a81548160ff0219169083151502179055508173ffffffffffffffffffffffffffffffffffffffff168373ffffffffffffffffffffffffffffffffffffffff167f17307eab39ab6107e8899845ad3d59bd9653f200f220920489ca2b5937696c3183604051611d5591906127d0565b60405180910390a3505050565b611db56001600c60008573ffffffffffffffffffffffffffffffffffffffff1673ffffffffffffffffffffffffffffffffffffffff1681526020019081526020016000205461219390919063ffffffff16565b600c60008473ffffffffffffffffffffffffffffffffffffffff1673ffffffffffffffffffffffffffffffffffffffff16815260200190815260200160002081905550611e4b6001600c60008673ffffffffffffffffffffffffffffffffffffffff1673ffffffffffffffffffffffffffffffffffffffff168152602001908152602001600020546121d190919063ffffffff16565b600c60008573ffffffffffffffffffffffffffffffffffffffff1673ffffffffffffffffffffffffffffffffffffffff1681526020019081526020016000208190555081600b600083815260200190815260200160002060006101000a81548173ffffffffffffffffffffffffffffffffffffffff021916908373ffffffffffffffffffffffffffffffffffffffff160217905550808273ffffffffffffffffffffffffffffffffffffffff168473ffffffffffffffffffffffffffffffffffffffff167fddf252ad1be2c89b69c2b068fc378daa952ba7f163c4a11628f55a4df523b3ef60405160405180910390a4505050565b611f4b8484846118cc565b611f57848484846121e7565b611f96576040517f08c379a0000000000000000000000000000000000000000000000000000000008152600401611f8d906137ff565b60405180910390fd5b50505050565b606060405180602001604052806000815250905090565b606060008203611ffa576040518060400160405280600181526020017f3000000000000000000000000000000000000000000000000000000000000000815250905061210e565b600082905060005b6000821461202c5780806120159061381f565b915050600a826120259190613896565b9150612002565b60008167ffffffffffffffff81111561204857612047612af1565b5b6040519080825280601f01601f19166020018201604052801561207a5781602001600182028036833780820191505090505b5090505b60008514612107576001826120939190613697565b9150600a856120a291906138c7565b60306120ae91906136cb565b60f81b8183815181106120c4576120c36138f8565b5b60200101907effffffffffffffffffffffffffffffffffffffffffffffffffffffffffffff1916908160001a905350600a856121009190613896565b945061207e565b8093505050505b919050565b6001816000016000828254019250508190555050565b600081600001549050919050565b60008360ff1683856121499190613934565b60ff168360405160200161215d919061396b565b6040516020818303038152906040528051906020012060001c61218091906138c7565b61218a9190613697565b90509392505050565b600081836121a191906136cb565b905092915050565b6121c382826040518060200160405280600081525061236e565b5050565b505050565b505050565b600081836121df9190613697565b905092915050565b60006122088473ffffffffffffffffffffffffffffffffffffffff166123c9565b15612361578373ffffffffffffffffffffffffffffffffffffffff1663150b7a0261223161172d565b8786866040518563ffffffff1660e01b815260040161225394939291906139d7565b6020604051808303816000875af192505050801561228f57506040513d601f19601f8201168201806040525081019061228c9190613a38565b60015b612311573d80600081146122bf576040519150601f19603f3d011682016040523d82523d6000602084013e6122c4565b606091505b506000815103612309576040517f08c379a0000000000000000000000000000000000000000000000000000000008152600401612300906137ff565b60405180910390fd5b805181602001fd5b63150b7a0260e01b7bffffffffffffffffffffffffffffffffffffffffffffffffffffffff1916817bffffffffffffffffffffffffffffffffffffffffffffffffffffffff191614915050612366565b600190505b949350505050565b61237883836123ec565b61238560008484846121e7565b6123c4576040517f08c379a00000000000000000000000000000000000000000000000000000000081526004016123bb906137ff565b60405180910390fd5b505050565b6000808273ffffffffffffffffffffffffffffffffffffffff163b119050919050565b600073ffffffffffffffffffffffffffffffffffffffff168273ffffffffffffffffffffffffffffffffffffffff160361245b576040517f08c379a000000000000000000000000000000000000000000000000000000000815260040161245290613ab1565b60405180910390fd5b612464816116c1565b156124a4576040517f08c379a000000000000000000000000000000000000000000000000000000000815260040161249b90613b1d565b60405180910390fd5b6124b0600083836121c7565b6001600460008473ffffffffffffffffffffffffffffffffffffffff1673ffffffffffffffffffffffffffffffffffffffff168152602001908152602001600020600082825461250091906136cb565b92505081905550816003600083815260200190815260200160002060006101000a81548173ffffffffffffffffffffffffffffffffffffffff021916908373ffffffffffffffffffffffffffffffffffffffff160217905550808273ffffffffffffffffffffffffffffffffffffffff16600073ffffffffffffffffffffffffffffffffffffffff167fddf252ad1be2c89b69c2b068fc378daa952ba7f163c4a11628f55a4df523b3ef60405160405180910390a46125c1600083836121cc565b5050565b6040518060c001604052806060815260200160608152602001600061ffff168152602001600060ff1681526020016000815260200161260261268e565b81525090565b82805461261490612e3a565b90600052602060002090601f016020900481019282612636576000855561267d565b82601f1061264f57805160ff191683800117855561267d565b8280016001018555821561267d579182015b8281111561267c578251825591602001919060010190612661565b5b50905061268a91906126ff565b5090565b604051806101400160405280600060ff168152602001600060ff168152602001600060ff168152602001600060ff168152602001600060ff168152602001600060ff168152602001600060ff168152602001600060ff168152602001600060ff168152602001600060ff1681525090565b5b80821115612718576000816000905550600101612700565b5090565b6000604051905090565b600080fd5b600080fd5b60007fffffffff0000000000000000000000000000000000000000000000000000000082169050919050565b61276581612730565b811461277057600080fd5b50565b6000813590506127828161275c565b92915050565b60006020828403121561279e5761279d612726565b5b60006127ac84828501612773565b91505092915050565b60008115159050919050565b6127ca816127b5565b82525050565b60006020820190506127e560008301846127c1565b92915050565b600081519050919050565b600082825260208201905092915050565b60005b8381101561282557808201518184015260208101905061280a565b83811115612834576000848401525b50505050565b6000601f19601f8301169050919050565b6000612856826127eb565b61286081856127f6565b9350612870818560208601612807565b6128798161283a565b840191505092915050565b6000602082019050818103600083015261289e818461284b565b905092915050565b6000819050919050565b6128b9816128a6565b81146128c457600080fd5b50565b6000813590506128d6816128b0565b92915050565b6000602082840312156128f2576128f1612726565b5b6000612900848285016128c7565b91505092915050565b600073ffffffffffffffffffffffffffffffffffffffff82169050919050565b600061293482612909565b9050919050565b61294481612929565b82525050565b600060208201905061295f600083018461293b565b92915050565b61296e81612929565b811461297957600080fd5b50565b60008135905061298b81612965565b92915050565b600080604083850312156129a8576129a7612726565b5b60006129b68582860161297c565b92505060206129c7858286016128c7565b9150509250929050565b6000806000606084860312156129ea576129e9612726565b5b60006129f88682870161297c565b9350506020612a098682870161297c565b9250506040612a1a868287016128c7565b9150509250925092565b600060208284031215612a3a57612a39612726565b5b6000612a488482850161297c565b91505092915050565b612a5a816128a6565b82525050565b6000602082019050612a756000830184612a51565b92915050565b612a84816127b5565b8114612a8f57600080fd5b50565b600081359050612aa181612a7b565b92915050565b60008060408385031215612abe57612abd612726565b5b6000612acc8582860161297c565b9250506020612add85828601612a92565b9150509250929050565b600080fd5b600080fd5b7f4e487b7100000000000000000000000000000000000000000000000000000000600052604160045260246000fd5b612b298261283a565b810181811067ffffffffffffffff82111715612b4857612b47612af1565b5b80604052505050565b6000612b5b61271c565b9050612b678282612b20565b919050565b600067ffffffffffffffff821115612b8757612b86612af1565b5b612b908261283a565b9050602081019050919050565b82818337600083830152505050565b6000612bbf612bba84612b6c565b612b51565b905082815260208101848484011115612bdb57612bda612aec565b5b612be6848285612b9d565b509392505050565b600082601f830112612c0357612c02612ae7565b5b8135612c13848260208601612bac565b91505092915050565b60008060008060808587031215612c3657612c35612726565b5b6000612c448782880161297c565b9450506020612c558782880161297c565b9350506040612c66878288016128c7565b925050606085013567ffffffffffffffff811115612c8757612c8661272b565b5b612c9387828801612bee565b91505092959194509250565b60008060408385031215612cb657612cb5612726565b5b6000612cc48582860161297c565b9250506020612cd58582860161297c565b9150509250929050565b600067ffffffffffffffff821115612cfa57612cf9612af1565b5b612d038261283a565b9050602081019050919050565b6000612d23612d1e84612cdf565b612b51565b905082815260208101848484011115612d3f57612d3e612aec565b5b612d4a848285612b9d565b509392505050565b600082601f830112612d6757612d66612ae7565b5b8135612d77848260208601612d10565b91505092915050565b600080600060608486031215612d9957612d98612726565b5b600084013567ffffffffffffffff811115612db757612db661272b565b5b612dc386828701612d52565b935050602084013567ffffffffffffffff811115612de457612de361272b565b5b612df086828701612d52565b9250506040612e01868287016128c7565b9150509250925092565b7f4e487b7100000000000000000000000000000000000000000000000000000000600052602260045260246000fd5b60006002820490506001821680612e5257607f821691505b602082108103612e6557612e64612e0b565b5b50919050565b7f4552433732313a20617070726f76656420717565727920666f72206e6f6e657860008201527f697374656e7420746f6b656e0000000000000000000000000000000000000000602082015250565b6000612ec7602c836127f6565b9150612ed282612e6b565b604082019050919050565b60006020820190508181036000830152612ef681612eba565b9050919050565b7f4552433732313a20617070726f76616c20746f2063757272656e74206f776e6560008201527f7200000000000000000000000000000000000000000000000000000000000000602082015250565b6000612f596021836127f6565b9150612f6482612efd565b604082019050919050565b60006020820190508181036000830152612f8881612f4c565b9050919050565b7f4552433732313a20617070726f76652063616c6c6572206973206e6f74206f7760008201527f6e6572206e6f7220617070726f76656420666f7220616c6c0000000000000000602082015250565b6000612feb6038836127f6565b9150612ff682612f8f565b604082019050919050565b6000602082019050818103600083015261301a81612fde565b9050919050565b7f4552433732313a207472616e736665722063616c6c6572206973206e6f74206f60008201527f776e6572206e6f7220617070726f766564000000000000000000000000000000602082015250565b600061307d6031836127f6565b915061308882613021565b604082019050919050565b600060208201905081810360008301526130ac81613070565b9050919050565b7f4f776e61626c653a2063616c6c6572206973206e6f7420746865206f776e6572600082015250565b60006130e96020836127f6565b91506130f4826130b3565b602082019050919050565b60006020820190508181036000830152613118816130dc565b9050919050565b7f4552433732313a206f776e657220717565727920666f72206e6f6e657869737460008201527f656e7420746f6b656e0000000000000000000000000000000000000000000000602082015250565b600061317b6029836127f6565b91506131868261311f565b604082019050919050565b600060208201905081810360008301526131aa8161316e565b9050919050565b7f4552433732313a2062616c616e636520717565727920666f7220746865207a6560008201527f726f206164647265737300000000000000000000000000000000000000000000602082015250565b600061320d602a836127f6565b9150613218826131b1565b604082019050919050565b6000602082019050818103600083015261323c81613200565b9050919050565b7f4e6f7420656e6f756768204554482073656e743b20636865636b20707269636560008201527f2100000000000000000000000000000000000000000000000000000000000000602082015250565b600061329f6021836127f6565b91506132aa82613243565b604082019050919050565b600060208201905081810360008301526132ce81613292565b9050919050565b7f4552433732314d657461646174613a2055524920717565727920666f72206e6f60008201527f6e6578697374656e7420746f6b656e0000000000000000000000000000000000602082015250565b6000613331602f836127f6565b915061333c826132d5565b604082019050919050565b6000602082019050818103600083015261336081613324565b9050919050565b600081905092915050565b600061337d826127eb565b6133878185613367565b9350613397818560208601612807565b80840191505092915050565b60006133af8285613372565b91506133bb8284613372565b91508190509392505050565b60006040820190506133dc6000830185612a51565b81810360208301526133ee818461284b565b90509392505050565b7f4f776e61626c653a206e6577206f776e657220697320746865207a65726f206160008201527f6464726573730000000000000000000000000000000000000000000000000000602082015250565b60006134536026836127f6565b915061345e826133f7565b604082019050919050565b6000602082019050818103600083015261348281613446565b9050919050565b600060408201905061349e6000830185612a51565b6134ab602083018461293b565b9392505050565b7f4552433732313a206f70657261746f7220717565727920666f72206e6f6e657860008201527f697374656e7420746f6b656e0000000000000000000000000000000000000000602082015250565b600061350e602c836127f6565b9150613519826134b2565b604082019050919050565b6000602082019050818103600083015261353d81613501565b9050919050565b7f4552433732313a207472616e736665722066726f6d20696e636f72726563742060008201527f6f776e6572000000000000000000000000000000000000000000000000000000602082015250565b60006135a06025836127f6565b91506135ab82613544565b604082019050919050565b600060208201905081810360008301526135cf81613593565b9050919050565b7f4552433732313a207472616e7366657220746f20746865207a65726f2061646460008201527f7265737300000000000000000000000000000000000000000000000000000000602082015250565b60006136326024836127f6565b915061363d826135d6565b604082019050919050565b6000602082019050818103600083015261366181613625565b9050919050565b7f4e487b7100000000000000000000000000000000000000000000000000000000600052601160045260246000fd5b60006136a2826128a6565b91506136ad836128a6565b9250828210156136c0576136bf613668565b5b828203905092915050565b60006136d6826128a6565b91506136e1836128a6565b9250827fffffffffffffffffffffffffffffffffffffffffffffffffffffffffffffffff0382111561371657613715613668565b5b828201905092915050565b7f4552433732313a20617070726f766520746f2063616c6c657200000000000000600082015250565b60006137576019836127f6565b915061376282613721565b602082019050919050565b600060208201905081810360008301526137868161374a565b9050919050565b7f4552433732313a207472616e7366657220746f206e6f6e20455243373231526560008201527f63656976657220696d706c656d656e7465720000000000000000000000000000602082015250565b60006137e96032836127f6565b91506137f48261378d565b604082019050919050565b60006020820190508181036000830152613818816137dc565b9050919050565b600061382a826128a6565b91507fffffffffffffffffffffffffffffffffffffffffffffffffffffffffffffffff820361385c5761385b613668565b5b600182019050919050565b7f4e487b7100000000000000000000000000000000000000000000000000000000600052601260045260246000fd5b60006138a1826128a6565b91506138ac836128a6565b9250826138bc576138bb613867565b5b828204905092915050565b60006138d2826128a6565b91506138dd836128a6565b9250826138ed576138ec613867565b5b828206905092915050565b7f4e487b7100000000000000000000000000000000000000000000000000000000600052603260045260246000fd5b600060ff82169050919050565b600061393f82613927565b915061394a83613927565b92508260ff038211156139605761395f613668565b5b828201905092915050565b60006139778284613372565b915081905092915050565b600081519050919050565b600082825260208201905092915050565b60006139a982613982565b6139b3818561398d565b93506139c3818560208601612807565b6139cc8161283a565b840191505092915050565b60006080820190506139ec600083018761293b565b6139f9602083018661293b565b613a066040830185612a51565b8181036060830152613a18818461399e565b905095945050505050565b600081519050613a328161275c565b92915050565b600060208284031215613a4e57613a4d612726565b5b6000613a5c84828501613a23565b91505092915050565b7f4552433732313a206d696e7420746f20746865207a65726f2061646472657373600082015250565b6000613a9b6020836127f6565b9150613aa682613a65565b602082019050919050565b60006020820190508181036000830152613aca81613a8e565b9050919050565b7f4552433732313a20746f6b656e20616c7265616479206d696e74656400000000600082015250565b6000613b07601c836127f6565b9150613b1282613ad1565b602082019050919050565b60006020820190508181036000830152613b3681613afa565b905091905056fea26469706673582212201c8a855ec8e5943161106dc5ef7d69353c9685b3af70d6b7b0e0b219f74e7ac464736f6c634300080d0033",
  "immutableReferences": {},
  "source": "\n// SPDX-License-Identifier: MIT\npragma solidity ^0.8.0;\n\nimport \"@openzeppelin/contracts/access/Ownable.sol\";\nimport \"@openzeppelin/contracts/token/ERC721/ERC721.sol\";\nimport \"@openzeppelin/contracts/utils/math/SafeMath.sol\";\nimport \"@openzeppelin/contracts/utils/Counters.sol\";\nimport '@openzeppelin/contracts/token/ERC1155/utils/ERC1155Holder.sol';\n\n\ncontract ScinionFactory is Ownable, ERC721 {\n\n  using Counters for Counters.Counter;\n  Counters.Counter private _tokenIds;\n\n  uint minPrice = 0.001 ether;\n\n  using SafeMath for uint256;\n\n  event NewScinion(uint scinionId, string name);\n\n  event MoneyAccount(uint money, address from);\n\n  address payable gameOwner;\n\n  function getOwner() public view returns (address) {\n        return gameOwner;\n  }\n\n  struct Scinion {\n    string name;\n    string scinionType;\n    uint16 level;\n    uint8 energia;\n    uint dna;\n    Habilities habilities;\n  }\n\n  struct Habilities {\n    uint8 capacidadDeAprendizaje;\n    uint8 destreza;\n    uint8 etica;\n    uint8 suerte;\n    uint8 controlDeEmociones;\n    uint8 planificacion;\n    uint8 limpieza;\n    uint8 trabajoEnEquipo;\n    uint8 discrecion;\n    uint8 lealtad;\n  }\n\n   constructor() ERC721(\"ScinionNFT\", \"SCTK\") {\n        gameOwner = payable(msg.sender);\n    }\n\n\n  Scinion[] internal scinions;\n\n  mapping (uint => address) internal scinionToOwner;\n  mapping (address => uint) internal ownerScinionCount;\n\n  modifier onlyOwnerOf(uint _scinionId) {\n    require(msg.sender == scinionToOwner[_scinionId]);\n    _;\n  }\n\n  function rand(uint8 _min, uint8 _max, string memory _name) private pure returns (uint8){\n    return uint8(uint(keccak256(abi.encodePacked(_name)))%(_min+_max)-_min);\n  }\n\n  function setMinPrice(uint _fee) external onlyOwner {\n    minPrice = _fee;\n  }\n\n  function createScinion(string memory _name, string memory _scinionType, uint _dna) external onlyOwner {\n    _tokenIds.increment();\n    uint256 id = _tokenIds.current();\n    Scinion memory newScinion;\n    newScinion.name = _name;\n    newScinion.scinionType = _scinionType;\n    newScinion.dna = _dna;\n    newScinion.energia = 10;\n    newScinion.level = 1;\n    newScinion.habilities.capacidadDeAprendizaje= rand(1,100, _name);\n    newScinion.habilities.destreza = rand(1,100, _name);\n    newScinion.habilities.etica = rand(1,100, _name);\n    newScinion.habilities.suerte = rand(1,100, _name);\n    newScinion.habilities.controlDeEmociones = rand(1,100, _name);\n    newScinion.habilities.planificacion = rand(1,100, _name);\n    newScinion.habilities.limpieza = rand(1,100, _name);\n    newScinion.habilities.trabajoEnEquipo = rand(1,100, _name);\n    newScinion.habilities.discrecion = rand(1,100, _name);\n    newScinion.habilities.lealtad = rand(1,100, _name);\n    scinions.push(newScinion);\n    emit NewScinion(id, _name);\n  }\n\n\n  function _transferScinion(address _from, address _to, uint256 _tokenId) private {\n    ownerScinionCount[_to] = ownerScinionCount[_to].add(1);\n    ownerScinionCount[_from] = ownerScinionCount[_from].sub(1);\n    scinionToOwner[_tokenId] = _to;\n    emit Transfer(_from, _to, _tokenId);\n  }\n\n  function transferScinion(address _from, address _to, uint256 _tokenId) external payable onlyOwner{\n      require(msg.value >= minPrice, \"Not enough ETH sent; check price!\"); \n      _transferScinion(_from, _to, _tokenId);\n      transferFrom(_from, _to, _tokenId);\n   } \n\n  function mintScinion(uint256 _tokenId) external payable {\n    emit MoneyAccount(msg.value, msg.sender);\n    require(msg.value >= minPrice, \"Not enough ETH sent; check price!\"); \n    ownerScinionCount[msg.sender] = ownerScinionCount[msg.sender].add(1);\n    scinionToOwner[_tokenId] = msg.sender;\n    emit Transfer(msg.sender, gameOwner, minPrice);\n    _safeMint(msg.sender, _tokenId);\n  }\n\n  function balanceOfScinions(address owner) external view returns (uint balance) {\n    return ownerScinionCount[owner];\n  }\n\n\n /* function kill() public onlyOwner {\n      selfdestruct(owner());\n  } */\n\n}\n",
  "sourcePath": "/Users/albateixidovillanueva/Desktop/scinions/contracts/scinionfactory.sol",
  "compiler": {
    "name": "solc",
    "version": "0.8.13+commit.abaa5c0e.Emscripten.clang"
  },
  "schemaVersion": "3.4.6",
  "updatedAt": "2022-04-15T13:55:52.009Z",
  "networkType": "ethereum",
  "devdoc": {
    "kind": "dev",
    "methods": {
      "approve(address,uint256)": {
        "details": "See {IERC721-approve}."
      },
      "balanceOf(address)": {
        "details": "See {IERC721-balanceOf}."
      },
      "getApproved(uint256)": {
        "details": "See {IERC721-getApproved}."
      },
      "isApprovedForAll(address,address)": {
        "details": "See {IERC721-isApprovedForAll}."
      },
      "name()": {
        "details": "See {IERC721Metadata-name}."
      },
      "owner()": {
        "details": "Returns the address of the current owner."
      },
      "ownerOf(uint256)": {
        "details": "See {IERC721-ownerOf}."
      },
      "renounceOwnership()": {
        "details": "Leaves the contract without owner. It will not be possible to call `onlyOwner` functions anymore. Can only be called by the current owner. NOTE: Renouncing ownership will leave the contract without an owner, thereby removing any functionality that is only available to the owner."
      },
      "safeTransferFrom(address,address,uint256)": {
        "details": "See {IERC721-safeTransferFrom}."
      },
      "safeTransferFrom(address,address,uint256,bytes)": {
        "details": "See {IERC721-safeTransferFrom}."
      },
      "setApprovalForAll(address,bool)": {
        "details": "See {IERC721-setApprovalForAll}."
      },
      "supportsInterface(bytes4)": {
        "details": "See {IERC165-supportsInterface}."
      },
      "symbol()": {
        "details": "See {IERC721Metadata-symbol}."
      },
      "tokenURI(uint256)": {
        "details": "See {IERC721Metadata-tokenURI}."
      },
      "transferFrom(address,address,uint256)": {
        "details": "See {IERC721-transferFrom}."
      },
      "transferOwnership(address)": {
        "details": "Transfers ownership of the contract to a new account (`newOwner`). Can only be called by the current owner."
      }
    },
    "version": 1
  },
  "userdoc": {
    "kind": "user",
    "methods": {},
    "version": 1
  }
}