{
  "contractName": "ScinionFactory",
  "abi": [
    {
      "inputs": [],
      "stateMutability": "nonpayable",
      "type": "constructor"
    },
    {
      "anonymous": false,
      "inputs": [
        {
          "indexed": true,
          "internalType": "address",
          "name": "owner",
          "type": "address"
        },
        {
          "indexed": true,
          "internalType": "address",
          "name": "approved",
          "type": "address"
        },
        {
          "indexed": true,
          "internalType": "uint256",
          "name": "tokenId",
          "type": "uint256"
        }
      ],
      "name": "Approval",
      "type": "event"
    },
    {
      "anonymous": false,
      "inputs": [
        {
          "indexed": true,
          "internalType": "address",
          "name": "owner",
          "type": "address"
        },
        {
          "indexed": true,
          "internalType": "address",
          "name": "operator",
          "type": "address"
        },
        {
          "indexed": false,
          "internalType": "bool",
          "name": "approved",
          "type": "bool"
        }
      ],
      "name": "ApprovalForAll",
      "type": "event"
    },
    {
      "anonymous": false,
      "inputs": [
        {
          "indexed": false,
          "internalType": "uint256",
          "name": "scinionId",
          "type": "uint256"
        },
        {
          "indexed": false,
          "internalType": "string",
          "name": "name",
          "type": "string"
        }
      ],
      "name": "NewScinion",
      "type": "event"
    },
    {
      "anonymous": false,
      "inputs": [
        {
          "indexed": true,
          "internalType": "address",
          "name": "previousOwner",
          "type": "address"
        },
        {
          "indexed": true,
          "internalType": "address",
          "name": "newOwner",
          "type": "address"
        }
      ],
      "name": "OwnershipTransferred",
      "type": "event"
    },
    {
      "anonymous": false,
      "inputs": [
        {
          "indexed": true,
          "internalType": "address",
          "name": "from",
          "type": "address"
        },
        {
          "indexed": true,
          "internalType": "address",
          "name": "to",
          "type": "address"
        },
        {
          "indexed": true,
          "internalType": "uint256",
          "name": "tokenId",
          "type": "uint256"
        }
      ],
      "name": "Transfer",
      "type": "event"
    },
    {
      "inputs": [
        {
          "internalType": "address",
          "name": "to",
          "type": "address"
        },
        {
          "internalType": "uint256",
          "name": "tokenId",
          "type": "uint256"
        }
      ],
      "name": "approve",
      "outputs": [],
      "stateMutability": "nonpayable",
      "type": "function"
    },
    {
      "inputs": [
        {
          "internalType": "address",
          "name": "owner",
          "type": "address"
        }
      ],
      "name": "balanceOf",
      "outputs": [
        {
          "internalType": "uint256",
          "name": "",
          "type": "uint256"
        }
      ],
      "stateMutability": "view",
      "type": "function",
      "constant": true
    },
    {
      "inputs": [
        {
          "internalType": "uint256",
          "name": "tokenId",
          "type": "uint256"
        }
      ],
      "name": "getApproved",
      "outputs": [
        {
          "internalType": "address",
          "name": "",
          "type": "address"
        }
      ],
      "stateMutability": "view",
      "type": "function",
      "constant": true
    },
    {
      "inputs": [
        {
          "internalType": "address",
          "name": "owner",
          "type": "address"
        },
        {
          "internalType": "address",
          "name": "operator",
          "type": "address"
        }
      ],
      "name": "isApprovedForAll",
      "outputs": [
        {
          "internalType": "bool",
          "name": "",
          "type": "bool"
        }
      ],
      "stateMutability": "view",
      "type": "function",
      "constant": true
    },
    {
      "inputs": [],
      "name": "name",
      "outputs": [
        {
          "internalType": "string",
          "name": "",
          "type": "string"
        }
      ],
      "stateMutability": "view",
      "type": "function",
      "constant": true
    },
    {
      "inputs": [],
      "name": "owner",
      "outputs": [
        {
          "internalType": "address",
          "name": "",
          "type": "address"
        }
      ],
      "stateMutability": "view",
      "type": "function",
      "constant": true
    },
    {
      "inputs": [
        {
          "internalType": "uint256",
          "name": "tokenId",
          "type": "uint256"
        }
      ],
      "name": "ownerOf",
      "outputs": [
        {
          "internalType": "address",
          "name": "",
          "type": "address"
        }
      ],
      "stateMutability": "view",
      "type": "function",
      "constant": true
    },
    {
      "inputs": [],
      "name": "renounceOwnership",
      "outputs": [],
      "stateMutability": "nonpayable",
      "type": "function"
    },
    {
      "inputs": [
        {
          "internalType": "address",
          "name": "from",
          "type": "address"
        },
        {
          "internalType": "address",
          "name": "to",
          "type": "address"
        },
        {
          "internalType": "uint256",
          "name": "tokenId",
          "type": "uint256"
        }
      ],
      "name": "safeTransferFrom",
      "outputs": [],
      "stateMutability": "nonpayable",
      "type": "function"
    },
    {
      "inputs": [
        {
          "internalType": "address",
          "name": "from",
          "type": "address"
        },
        {
          "internalType": "address",
          "name": "to",
          "type": "address"
        },
        {
          "internalType": "uint256",
          "name": "tokenId",
          "type": "uint256"
        },
        {
          "internalType": "bytes",
          "name": "_data",
          "type": "bytes"
        }
      ],
      "name": "safeTransferFrom",
      "outputs": [],
      "stateMutability": "nonpayable",
      "type": "function"
    },
    {
      "inputs": [
        {
          "internalType": "uint256",
          "name": "",
          "type": "uint256"
        }
      ],
      "name": "scinionToOwner",
      "outputs": [
        {
          "internalType": "address",
          "name": "",
          "type": "address"
        }
      ],
      "stateMutability": "view",
      "type": "function",
      "constant": true
    },
    {
      "inputs": [
        {
          "internalType": "address",
          "name": "operator",
          "type": "address"
        },
        {
          "internalType": "bool",
          "name": "approved",
          "type": "bool"
        }
      ],
      "name": "setApprovalForAll",
      "outputs": [],
      "stateMutability": "nonpayable",
      "type": "function"
    },
    {
      "inputs": [
        {
          "internalType": "bytes4",
          "name": "interfaceId",
          "type": "bytes4"
        }
      ],
      "name": "supportsInterface",
      "outputs": [
        {
          "internalType": "bool",
          "name": "",
          "type": "bool"
        }
      ],
      "stateMutability": "view",
      "type": "function",
      "constant": true
    },
    {
      "inputs": [],
      "name": "symbol",
      "outputs": [
        {
          "internalType": "string",
          "name": "",
          "type": "string"
        }
      ],
      "stateMutability": "view",
      "type": "function",
      "constant": true
    },
    {
      "inputs": [
        {
          "internalType": "uint256",
          "name": "tokenId",
          "type": "uint256"
        }
      ],
      "name": "tokenURI",
      "outputs": [
        {
          "internalType": "string",
          "name": "",
          "type": "string"
        }
      ],
      "stateMutability": "view",
      "type": "function",
      "constant": true
    },
    {
      "inputs": [
        {
          "internalType": "address",
          "name": "from",
          "type": "address"
        },
        {
          "internalType": "address",
          "name": "to",
          "type": "address"
        },
        {
          "internalType": "uint256",
          "name": "tokenId",
          "type": "uint256"
        }
      ],
      "name": "transferFrom",
      "outputs": [],
      "stateMutability": "nonpayable",
      "type": "function"
    },
    {
      "inputs": [
        {
          "internalType": "address",
          "name": "newOwner",
          "type": "address"
        }
      ],
      "name": "transferOwnership",
      "outputs": [],
      "stateMutability": "nonpayable",
      "type": "function"
    },
    {
      "inputs": [
        {
          "internalType": "string",
          "name": "_name",
          "type": "string"
        },
        {
          "internalType": "uint256",
          "name": "_dna",
          "type": "uint256"
        },
        {
          "internalType": "uint256",
          "name": "_habilities",
          "type": "uint256"
        }
      ],
      "name": "createScinion",
      "outputs": [],
      "stateMutability": "nonpayable",
      "type": "function"
    },
    {
      "inputs": [
        {
          "internalType": "address",
          "name": "_from",
          "type": "address"
        },
        {
          "internalType": "address",
          "name": "_to",
          "type": "address"
        },
        {
          "internalType": "uint256",
          "name": "_tokenId",
          "type": "uint256"
        }
      ],
      "name": "transferScinion",
      "outputs": [],
      "stateMutability": "payable",
      "type": "function",
      "payable": true
    },
    {
      "inputs": [
        {
          "internalType": "address",
          "name": "_to",
          "type": "address"
        },
        {
          "internalType": "uint256",
          "name": "_tokenId",
          "type": "uint256"
        }
      ],
      "name": "mintScinion",
      "outputs": [],
      "stateMutability": "nonpayable",
      "type": "function"
    }
  ],
  "bytecode": "0x6080604052620151806007553480156200001857600080fd5b506040518060400160405280600a81526020017f5363696e696f6e4e4654000000000000000000000000000000000000000000008152506040518060400160405280600481526020017f5343544b00000000000000000000000000000000000000000000000000000000815250620000a5620000996200012060201b60201c565b6200012860201b60201c565b8160019080519060200190620000bd929190620001ec565b508060029080519060200190620000d6929190620001ec565b50505033600860006101000a81548173ffffffffffffffffffffffffffffffffffffffff021916908373ffffffffffffffffffffffffffffffffffffffff16021790555062000300565b600033905090565b60008060009054906101000a900473ffffffffffffffffffffffffffffffffffffffff169050816000806101000a81548173ffffffffffffffffffffffffffffffffffffffff021916908373ffffffffffffffffffffffffffffffffffffffff1602179055508173ffffffffffffffffffffffffffffffffffffffff168173ffffffffffffffffffffffffffffffffffffffff167f8be0079c531659141344cd1fd0a4f28419497f9722a3daafe3b4186f6b6457e060405160405180910390a35050565b828054620001fa90620002cb565b90600052602060002090601f0160209004810192826200021e57600085556200026a565b82601f106200023957805160ff19168380011785556200026a565b828001600101855582156200026a579182015b82811115620002695782518255916020019190600101906200024c565b5b5090506200027991906200027d565b5090565b5b80821115620002985760008160009055506001016200027e565b5090565b7f4e487b7100000000000000000000000000000000000000000000000000000000600052602260045260246000fd5b60006002820490506001821680620002e457607f821691505b602082108103620002fa57620002f96200029c565b5b50919050565b61339b80620003106000396000f3fe60806040526004361061011f5760003560e01c806370a08231116100a0578063a612c71a11610064578063a612c71a146103e3578063b88d4fde146103ff578063c87b56dd14610428578063e985e9c514610465578063f2fde38b146104a25761011f565b806370a0823114610310578063715018a61461034d5780638da5cb5b1461036457806395d89b411461038f578063a22cb465146103ba5761011f565b8063167271b6116100e7578063167271b61461021b57806323b872dd1461025857806342842e0e146102815780636352211e146102aa5780636d097390146102e75761011f565b806301ffc9a71461012457806306fdde0314610161578063081812fc1461018c578063095ea7b3146101c95780630a8ccd13146101f2575b600080fd5b34801561013057600080fd5b5061014b600480360381019061014691906120e2565b6104cb565b604051610158919061212a565b60405180910390f35b34801561016d57600080fd5b506101766105ad565b60405161018391906121de565b60405180910390f35b34801561019857600080fd5b506101b360048036038101906101ae9190612236565b61063f565b6040516101c091906122a4565b60405180910390f35b3480156101d557600080fd5b506101f060048036038101906101eb91906122eb565b6106c4565b005b3480156101fe57600080fd5b5061021960048036038101906102149190612460565b6107db565b005b34801561022757600080fd5b50610242600480360381019061023d9190612236565b610a38565b60405161024f91906122a4565b60405180910390f35b34801561026457600080fd5b5061027f600480360381019061027a91906124cf565b610a6b565b005b34801561028d57600080fd5b506102a860048036038101906102a391906124cf565b610acb565b005b3480156102b657600080fd5b506102d160048036038101906102cc9190612236565b610aeb565b6040516102de91906122a4565b60405180910390f35b3480156102f357600080fd5b5061030e600480360381019061030991906122eb565b610b9c565b005b34801561031c57600080fd5b5061033760048036038101906103329190612522565b610baa565b604051610344919061255e565b60405180910390f35b34801561035957600080fd5b50610362610c61565b005b34801561037057600080fd5b50610379610ce9565b60405161038691906122a4565b60405180910390f35b34801561039b57600080fd5b506103a4610d12565b6040516103b191906121de565b60405180910390f35b3480156103c657600080fd5b506103e160048036038101906103dc91906125a5565b610da4565b005b6103fd60048036038101906103f891906124cf565b610dba565b005b34801561040b57600080fd5b5061042660048036038101906104219190612686565b610e51565b005b34801561043457600080fd5b5061044f600480360381019061044a9190612236565b610eb3565b60405161045c91906121de565b60405180910390f35b34801561047157600080fd5b5061048c60048036038101906104879190612709565b610f5a565b604051610499919061212a565b60405180910390f35b3480156104ae57600080fd5b506104c960048036038101906104c49190612522565b610fee565b005b60007f80ac58cd000000000000000000000000000000000000000000000000000000007bffffffffffffffffffffffffffffffffffffffffffffffffffffffff1916827bffffffffffffffffffffffffffffffffffffffffffffffffffffffff1916148061059657507f5b5e139f000000000000000000000000000000000000000000000000000000007bffffffffffffffffffffffffffffffffffffffffffffffffffffffff1916827bffffffffffffffffffffffffffffffffffffffffffffffffffffffff1916145b806105a657506105a5826110e5565b5b9050919050565b6060600180546105bc90612778565b80601f01602080910402602001604051908101604052809291908181526020018280546105e890612778565b80156106355780601f1061060a57610100808354040283529160200191610635565b820191906000526020600020905b81548152906001019060200180831161061857829003601f168201915b5050505050905090565b600061064a8261114f565b610689576040517f08c379a00000000000000000000000000000000000000000000000000000000081526004016106809061281b565b60405180910390fd5b6005600083815260200190815260200160002060009054906101000a900473ffffffffffffffffffffffffffffffffffffffff169050919050565b60006106cf82610aeb565b90508073ffffffffffffffffffffffffffffffffffffffff168373ffffffffffffffffffffffffffffffffffffffff160361073f576040517f08c379a0000000000000000000000000000000000000000000000000000000008152600401610736906128ad565b60405180910390fd5b8073ffffffffffffffffffffffffffffffffffffffff1661075e6111bb565b73ffffffffffffffffffffffffffffffffffffffff16148061078d575061078c816107876111bb565b610f5a565b5b6107cc576040517f08c379a00000000000000000000000000000000000000000000000000000000081526004016107c39061293f565b60405180910390fd5b6107d683836111c3565b505050565b600860009054906101000a900473ffffffffffffffffffffffffffffffffffffffff1673ffffffffffffffffffffffffffffffffffffffff163373ffffffffffffffffffffffffffffffffffffffff161461083557600080fd5b6000600980549050905060096040518060a00160405280868152602001858152602001600161ffff168152602001600a60ff16815260200184815250908060018154018082558091505060019003906000526020600020906004020160009091909190915060008201518160000190805190602001906108b6929190611fd3565b506020820151816001015560408201518160020160006101000a81548161ffff021916908361ffff16021790555060608201518160020160026101000a81548160ff021916908360ff16021790555060808201518160030155505033600a600083815260200190815260200160002060006101000a81548173ffffffffffffffffffffffffffffffffffffffff021916908373ffffffffffffffffffffffffffffffffffffffff1602179055506109b66001600b60003373ffffffffffffffffffffffffffffffffffffffff1673ffffffffffffffffffffffffffffffffffffffff1681526020019081526020016000205461127c90919063ffffffff16565b600b60003373ffffffffffffffffffffffffffffffffffffffff1673ffffffffffffffffffffffffffffffffffffffff168152602001908152602001600020819055507f806638a1fc90cec1d905c742ef32e76004dcce146ea274170b3018708eec5b2f8185604051610a2a92919061295f565b60405180910390a150505050565b600a6020528060005260406000206000915054906101000a900473ffffffffffffffffffffffffffffffffffffffff1681565b610a7c610a766111bb565b82611292565b610abb576040517f08c379a0000000000000000000000000000000000000000000000000000000008152600401610ab290612a01565b60405180910390fd5b610ac6838383611370565b505050565b610ae683838360405180602001604052806000815250610e51565b505050565b6000806003600084815260200190815260200160002060009054906101000a900473ffffffffffffffffffffffffffffffffffffffff169050600073ffffffffffffffffffffffffffffffffffffffff168173ffffffffffffffffffffffffffffffffffffffff1603610b93576040517f08c379a0000000000000000000000000000000000000000000000000000000008152600401610b8a90612a93565b60405180910390fd5b80915050919050565b610ba682826115d6565b5050565b60008073ffffffffffffffffffffffffffffffffffffffff168273ffffffffffffffffffffffffffffffffffffffff1603610c1a576040517f08c379a0000000000000000000000000000000000000000000000000000000008152600401610c1190612b25565b60405180910390fd5b600460008373ffffffffffffffffffffffffffffffffffffffff1673ffffffffffffffffffffffffffffffffffffffff168152602001908152602001600020549050919050565b610c696111bb565b73ffffffffffffffffffffffffffffffffffffffff16610c87610ce9565b73ffffffffffffffffffffffffffffffffffffffff1614610cdd576040517f08c379a0000000000000000000000000000000000000000000000000000000008152600401610cd490612b91565b60405180910390fd5b610ce760006115f4565b565b60008060009054906101000a900473ffffffffffffffffffffffffffffffffffffffff16905090565b606060028054610d2190612778565b80601f0160208091040260200160405190810160405280929190818152602001828054610d4d90612778565b8015610d9a5780601f10610d6f57610100808354040283529160200191610d9a565b820191906000526020600020905b815481529060010190602001808311610d7d57829003601f168201915b5050505050905090565b610db6610daf6111bb565b83836116b8565b5050565b610dc26111bb565b73ffffffffffffffffffffffffffffffffffffffff16610de0610ce9565b73ffffffffffffffffffffffffffffffffffffffff1614610e36576040517f08c379a0000000000000000000000000000000000000000000000000000000008152600401610e2d90612b91565b60405180910390fd5b610e41838383611824565b610e4c838383610a6b565b505050565b610e62610e5c6111bb565b83611292565b610ea1576040517f08c379a0000000000000000000000000000000000000000000000000000000008152600401610e9890612a01565b60405180910390fd5b610ead84848484611a02565b50505050565b6060610ebe8261114f565b610efd576040517f08c379a0000000000000000000000000000000000000000000000000000000008152600401610ef490612c23565b60405180910390fd5b6000610f07611a5e565b90506000815111610f275760405180602001604052806000815250610f52565b80610f3184611a75565b604051602001610f42929190612c7f565b6040516020818303038152906040525b915050919050565b6000600660008473ffffffffffffffffffffffffffffffffffffffff1673ffffffffffffffffffffffffffffffffffffffff16815260200190815260200160002060008373ffffffffffffffffffffffffffffffffffffffff1673ffffffffffffffffffffffffffffffffffffffff16815260200190815260200160002060009054906101000a900460ff16905092915050565b610ff66111bb565b73ffffffffffffffffffffffffffffffffffffffff16611014610ce9565b73ffffffffffffffffffffffffffffffffffffffff161461106a576040517f08c379a000000000000000000000000000000000000000000000000000000000815260040161106190612b91565b60405180910390fd5b600073ffffffffffffffffffffffffffffffffffffffff168173ffffffffffffffffffffffffffffffffffffffff16036110d9576040517f08c379a00000000000000000000000000000000000000000000000000000000081526004016110d090612d15565b60405180910390fd5b6110e2816115f4565b50565b60007f01ffc9a7000000000000000000000000000000000000000000000000000000007bffffffffffffffffffffffffffffffffffffffffffffffffffffffff1916827bffffffffffffffffffffffffffffffffffffffffffffffffffffffff1916149050919050565b60008073ffffffffffffffffffffffffffffffffffffffff166003600084815260200190815260200160002060009054906101000a900473ffffffffffffffffffffffffffffffffffffffff1673ffffffffffffffffffffffffffffffffffffffff1614159050919050565b600033905090565b816005600083815260200190815260200160002060006101000a81548173ffffffffffffffffffffffffffffffffffffffff021916908373ffffffffffffffffffffffffffffffffffffffff160217905550808273ffffffffffffffffffffffffffffffffffffffff1661123683610aeb565b73ffffffffffffffffffffffffffffffffffffffff167f8c5be1e5ebec7d5bd14f71427d1e84f3dd0314c0f7b2291e5b200ac8c7c3b92560405160405180910390a45050565b6000818361128a9190612d64565b905092915050565b600061129d8261114f565b6112dc576040517f08c379a00000000000000000000000000000000000000000000000000000000081526004016112d390612e2c565b60405180910390fd5b60006112e783610aeb565b90508073ffffffffffffffffffffffffffffffffffffffff168473ffffffffffffffffffffffffffffffffffffffff16148061135657508373ffffffffffffffffffffffffffffffffffffffff1661133e8461063f565b73ffffffffffffffffffffffffffffffffffffffff16145b8061136757506113668185610f5a565b5b91505092915050565b8273ffffffffffffffffffffffffffffffffffffffff1661139082610aeb565b73ffffffffffffffffffffffffffffffffffffffff16146113e6576040517f08c379a00000000000000000000000000000000000000000000000000000000081526004016113dd90612ebe565b60405180910390fd5b600073ffffffffffffffffffffffffffffffffffffffff168273ffffffffffffffffffffffffffffffffffffffff1603611455576040517f08c379a000000000000000000000000000000000000000000000000000000000815260040161144c90612f50565b60405180910390fd5b611460838383611bd5565b61146b6000826111c3565b6001600460008573ffffffffffffffffffffffffffffffffffffffff1673ffffffffffffffffffffffffffffffffffffffff16815260200190815260200160002060008282546114bb9190612f70565b925050819055506001600460008473ffffffffffffffffffffffffffffffffffffffff1673ffffffffffffffffffffffffffffffffffffffff16815260200190815260200160002060008282546115129190612d64565b92505081905550816003600083815260200190815260200160002060006101000a81548173ffffffffffffffffffffffffffffffffffffffff021916908373ffffffffffffffffffffffffffffffffffffffff160217905550808273ffffffffffffffffffffffffffffffffffffffff168473ffffffffffffffffffffffffffffffffffffffff167fddf252ad1be2c89b69c2b068fc378daa952ba7f163c4a11628f55a4df523b3ef60405160405180910390a46115d1838383611bda565b505050565b6115f0828260405180602001604052806000815250611bdf565b5050565b60008060009054906101000a900473ffffffffffffffffffffffffffffffffffffffff169050816000806101000a81548173ffffffffffffffffffffffffffffffffffffffff021916908373ffffffffffffffffffffffffffffffffffffffff1602179055508173ffffffffffffffffffffffffffffffffffffffff168173ffffffffffffffffffffffffffffffffffffffff167f8be0079c531659141344cd1fd0a4f28419497f9722a3daafe3b4186f6b6457e060405160405180910390a35050565b8173ffffffffffffffffffffffffffffffffffffffff168373ffffffffffffffffffffffffffffffffffffffff1603611726576040517f08c379a000000000000000000000000000000000000000000000000000000000815260040161171d90612ff0565b60405180910390fd5b80600660008573ffffffffffffffffffffffffffffffffffffffff1673ffffffffffffffffffffffffffffffffffffffff16815260200190815260200160002060008473ffffffffffffffffffffffffffffffffffffffff1673ffffffffffffffffffffffffffffffffffffffff16815260200190815260200160002060006101000a81548160ff0219169083151502179055508173ffffffffffffffffffffffffffffffffffffffff168373ffffffffffffffffffffffffffffffffffffffff167f17307eab39ab6107e8899845ad3d59bd9653f200f220920489ca2b5937696c3183604051611817919061212a565b60405180910390a3505050565b6118776001600b60008573ffffffffffffffffffffffffffffffffffffffff1673ffffffffffffffffffffffffffffffffffffffff1681526020019081526020016000205461127c90919063ffffffff16565b600b60008473ffffffffffffffffffffffffffffffffffffffff1673ffffffffffffffffffffffffffffffffffffffff1681526020019081526020016000208190555061190d6001600b60003373ffffffffffffffffffffffffffffffffffffffff1673ffffffffffffffffffffffffffffffffffffffff16815260200190815260200160002054611c3a90919063ffffffff16565b600b60003373ffffffffffffffffffffffffffffffffffffffff1673ffffffffffffffffffffffffffffffffffffffff1681526020019081526020016000208190555081600a600083815260200190815260200160002060006101000a81548173ffffffffffffffffffffffffffffffffffffffff021916908373ffffffffffffffffffffffffffffffffffffffff160217905550808273ffffffffffffffffffffffffffffffffffffffff168473ffffffffffffffffffffffffffffffffffffffff167fddf252ad1be2c89b69c2b068fc378daa952ba7f163c4a11628f55a4df523b3ef60405160405180910390a4505050565b611a0d848484611370565b611a1984848484611c50565b611a58576040517f08c379a0000000000000000000000000000000000000000000000000000000008152600401611a4f90613082565b60405180910390fd5b50505050565b606060405180602001604052806000815250905090565b606060008203611abc576040518060400160405280600181526020017f30000000000000000000000000000000000000000000000000000000000000008152509050611bd0565b600082905060005b60008214611aee578080611ad7906130a2565b915050600a82611ae79190613119565b9150611ac4565b60008167ffffffffffffffff811115611b0a57611b09612335565b5b6040519080825280601f01601f191660200182016040528015611b3c5781602001600182028036833780820191505090505b5090505b60008514611bc957600182611b559190612f70565b9150600a85611b64919061314a565b6030611b709190612d64565b60f81b818381518110611b8657611b8561317b565b5b60200101907effffffffffffffffffffffffffffffffffffffffffffffffffffffffffffff1916908160001a905350600a85611bc29190613119565b9450611b40565b8093505050505b919050565b505050565b505050565b611be98383611dd7565b611bf66000848484611c50565b611c35576040517f08c379a0000000000000000000000000000000000000000000000000000000008152600401611c2c90613082565b60405180910390fd5b505050565b60008183611c489190612f70565b905092915050565b6000611c718473ffffffffffffffffffffffffffffffffffffffff16611fb0565b15611dca578373ffffffffffffffffffffffffffffffffffffffff1663150b7a02611c9a6111bb565b8786866040518563ffffffff1660e01b8152600401611cbc94939291906131ff565b6020604051808303816000875af1925050508015611cf857506040513d601f19601f82011682018060405250810190611cf59190613260565b60015b611d7a573d8060008114611d28576040519150601f19603f3d011682016040523d82523d6000602084013e611d2d565b606091505b506000815103611d72576040517f08c379a0000000000000000000000000000000000000000000000000000000008152600401611d6990613082565b60405180910390fd5b805181602001fd5b63150b7a0260e01b7bffffffffffffffffffffffffffffffffffffffffffffffffffffffff1916817bffffffffffffffffffffffffffffffffffffffffffffffffffffffff191614915050611dcf565b600190505b949350505050565b600073ffffffffffffffffffffffffffffffffffffffff168273ffffffffffffffffffffffffffffffffffffffff1603611e46576040517f08c379a0000000000000000000000000000000000000000000000000000000008152600401611e3d906132d9565b60405180910390fd5b611e4f8161114f565b15611e8f576040517f08c379a0000000000000000000000000000000000000000000000000000000008152600401611e8690613345565b60405180910390fd5b611e9b60008383611bd5565b6001600460008473ffffffffffffffffffffffffffffffffffffffff1673ffffffffffffffffffffffffffffffffffffffff1681526020019081526020016000206000828254611eeb9190612d64565b92505081905550816003600083815260200190815260200160002060006101000a81548173ffffffffffffffffffffffffffffffffffffffff021916908373ffffffffffffffffffffffffffffffffffffffff160217905550808273ffffffffffffffffffffffffffffffffffffffff16600073ffffffffffffffffffffffffffffffffffffffff167fddf252ad1be2c89b69c2b068fc378daa952ba7f163c4a11628f55a4df523b3ef60405160405180910390a4611fac60008383611bda565b5050565b6000808273ffffffffffffffffffffffffffffffffffffffff163b119050919050565b828054611fdf90612778565b90600052602060002090601f0160209004810192826120015760008555612048565b82601f1061201a57805160ff1916838001178555612048565b82800160010185558215612048579182015b8281111561204757825182559160200191906001019061202c565b5b5090506120559190612059565b5090565b5b8082111561207257600081600090555060010161205a565b5090565b6000604051905090565b600080fd5b600080fd5b60007fffffffff0000000000000000000000000000000000000000000000000000000082169050919050565b6120bf8161208a565b81146120ca57600080fd5b50565b6000813590506120dc816120b6565b92915050565b6000602082840312156120f8576120f7612080565b5b6000612106848285016120cd565b91505092915050565b60008115159050919050565b6121248161210f565b82525050565b600060208201905061213f600083018461211b565b92915050565b600081519050919050565b600082825260208201905092915050565b60005b8381101561217f578082015181840152602081019050612164565b8381111561218e576000848401525b50505050565b6000601f19601f8301169050919050565b60006121b082612145565b6121ba8185612150565b93506121ca818560208601612161565b6121d381612194565b840191505092915050565b600060208201905081810360008301526121f881846121a5565b905092915050565b6000819050919050565b61221381612200565b811461221e57600080fd5b50565b6000813590506122308161220a565b92915050565b60006020828403121561224c5761224b612080565b5b600061225a84828501612221565b91505092915050565b600073ffffffffffffffffffffffffffffffffffffffff82169050919050565b600061228e82612263565b9050919050565b61229e81612283565b82525050565b60006020820190506122b96000830184612295565b92915050565b6122c881612283565b81146122d357600080fd5b50565b6000813590506122e5816122bf565b92915050565b6000806040838503121561230257612301612080565b5b6000612310858286016122d6565b925050602061232185828601612221565b9150509250929050565b600080fd5b600080fd5b7f4e487b7100000000000000000000000000000000000000000000000000000000600052604160045260246000fd5b61236d82612194565b810181811067ffffffffffffffff8211171561238c5761238b612335565b5b80604052505050565b600061239f612076565b90506123ab8282612364565b919050565b600067ffffffffffffffff8211156123cb576123ca612335565b5b6123d482612194565b9050602081019050919050565b82818337600083830152505050565b60006124036123fe846123b0565b612395565b90508281526020810184848401111561241f5761241e612330565b5b61242a8482856123e1565b509392505050565b600082601f8301126124475761244661232b565b5b81356124578482602086016123f0565b91505092915050565b60008060006060848603121561247957612478612080565b5b600084013567ffffffffffffffff81111561249757612496612085565b5b6124a386828701612432565b93505060206124b486828701612221565b92505060406124c586828701612221565b9150509250925092565b6000806000606084860312156124e8576124e7612080565b5b60006124f6868287016122d6565b9350506020612507868287016122d6565b925050604061251886828701612221565b9150509250925092565b60006020828403121561253857612537612080565b5b6000612546848285016122d6565b91505092915050565b61255881612200565b82525050565b6000602082019050612573600083018461254f565b92915050565b6125828161210f565b811461258d57600080fd5b50565b60008135905061259f81612579565b92915050565b600080604083850312156125bc576125bb612080565b5b60006125ca858286016122d6565b92505060206125db85828601612590565b9150509250929050565b600067ffffffffffffffff821115612600576125ff612335565b5b61260982612194565b9050602081019050919050565b6000612629612624846125e5565b612395565b90508281526020810184848401111561264557612644612330565b5b6126508482856123e1565b509392505050565b600082601f83011261266d5761266c61232b565b5b813561267d848260208601612616565b91505092915050565b600080600080608085870312156126a05761269f612080565b5b60006126ae878288016122d6565b94505060206126bf878288016122d6565b93505060406126d087828801612221565b925050606085013567ffffffffffffffff8111156126f1576126f0612085565b5b6126fd87828801612658565b91505092959194509250565b600080604083850312156127205761271f612080565b5b600061272e858286016122d6565b925050602061273f858286016122d6565b9150509250929050565b7f4e487b7100000000000000000000000000000000000000000000000000000000600052602260045260246000fd5b6000600282049050600182168061279057607f821691505b6020821081036127a3576127a2612749565b5b50919050565b7f4552433732313a20617070726f76656420717565727920666f72206e6f6e657860008201527f697374656e7420746f6b656e0000000000000000000000000000000000000000602082015250565b6000612805602c83612150565b9150612810826127a9565b604082019050919050565b60006020820190508181036000830152612834816127f8565b9050919050565b7f4552433732313a20617070726f76616c20746f2063757272656e74206f776e6560008201527f7200000000000000000000000000000000000000000000000000000000000000602082015250565b6000612897602183612150565b91506128a28261283b565b604082019050919050565b600060208201905081810360008301526128c68161288a565b9050919050565b7f4552433732313a20617070726f76652063616c6c6572206973206e6f74206f7760008201527f6e6572206e6f7220617070726f76656420666f7220616c6c0000000000000000602082015250565b6000612929603883612150565b9150612934826128cd565b604082019050919050565b600060208201905081810360008301526129588161291c565b9050919050565b6000604082019050612974600083018561254f565b818103602083015261298681846121a5565b90509392505050565b7f4552433732313a207472616e736665722063616c6c6572206973206e6f74206f60008201527f776e6572206e6f7220617070726f766564000000000000000000000000000000602082015250565b60006129eb603183612150565b91506129f68261298f565b604082019050919050565b60006020820190508181036000830152612a1a816129de565b9050919050565b7f4552433732313a206f776e657220717565727920666f72206e6f6e657869737460008201527f656e7420746f6b656e0000000000000000000000000000000000000000000000602082015250565b6000612a7d602983612150565b9150612a8882612a21565b604082019050919050565b60006020820190508181036000830152612aac81612a70565b9050919050565b7f4552433732313a2062616c616e636520717565727920666f7220746865207a6560008201527f726f206164647265737300000000000000000000000000000000000000000000602082015250565b6000612b0f602a83612150565b9150612b1a82612ab3565b604082019050919050565b60006020820190508181036000830152612b3e81612b02565b9050919050565b7f4f776e61626c653a2063616c6c6572206973206e6f7420746865206f776e6572600082015250565b6000612b7b602083612150565b9150612b8682612b45565b602082019050919050565b60006020820190508181036000830152612baa81612b6e565b9050919050565b7f4552433732314d657461646174613a2055524920717565727920666f72206e6f60008201527f6e6578697374656e7420746f6b656e0000000000000000000000000000000000602082015250565b6000612c0d602f83612150565b9150612c1882612bb1565b604082019050919050565b60006020820190508181036000830152612c3c81612c00565b9050919050565b600081905092915050565b6000612c5982612145565b612c638185612c43565b9350612c73818560208601612161565b80840191505092915050565b6000612c8b8285612c4e565b9150612c978284612c4e565b91508190509392505050565b7f4f776e61626c653a206e6577206f776e657220697320746865207a65726f206160008201527f6464726573730000000000000000000000000000000000000000000000000000602082015250565b6000612cff602683612150565b9150612d0a82612ca3565b604082019050919050565b60006020820190508181036000830152612d2e81612cf2565b9050919050565b7f4e487b7100000000000000000000000000000000000000000000000000000000600052601160045260246000fd5b6000612d6f82612200565b9150612d7a83612200565b9250827fffffffffffffffffffffffffffffffffffffffffffffffffffffffffffffffff03821115612daf57612dae612d35565b5b828201905092915050565b7f4552433732313a206f70657261746f7220717565727920666f72206e6f6e657860008201527f697374656e7420746f6b656e0000000000000000000000000000000000000000602082015250565b6000612e16602c83612150565b9150612e2182612dba565b604082019050919050565b60006020820190508181036000830152612e4581612e09565b9050919050565b7f4552433732313a207472616e736665722066726f6d20696e636f72726563742060008201527f6f776e6572000000000000000000000000000000000000000000000000000000602082015250565b6000612ea8602583612150565b9150612eb382612e4c565b604082019050919050565b60006020820190508181036000830152612ed781612e9b565b9050919050565b7f4552433732313a207472616e7366657220746f20746865207a65726f2061646460008201527f7265737300000000000000000000000000000000000000000000000000000000602082015250565b6000612f3a602483612150565b9150612f4582612ede565b604082019050919050565b60006020820190508181036000830152612f6981612f2d565b9050919050565b6000612f7b82612200565b9150612f8683612200565b925082821015612f9957612f98612d35565b5b828203905092915050565b7f4552433732313a20617070726f766520746f2063616c6c657200000000000000600082015250565b6000612fda601983612150565b9150612fe582612fa4565b602082019050919050565b6000602082019050818103600083015261300981612fcd565b9050919050565b7f4552433732313a207472616e7366657220746f206e6f6e20455243373231526560008201527f63656976657220696d706c656d656e7465720000000000000000000000000000602082015250565b600061306c603283612150565b915061307782613010565b604082019050919050565b6000602082019050818103600083015261309b8161305f565b9050919050565b60006130ad82612200565b91507fffffffffffffffffffffffffffffffffffffffffffffffffffffffffffffffff82036130df576130de612d35565b5b600182019050919050565b7f4e487b7100000000000000000000000000000000000000000000000000000000600052601260045260246000fd5b600061312482612200565b915061312f83612200565b92508261313f5761313e6130ea565b5b828204905092915050565b600061315582612200565b915061316083612200565b9250826131705761316f6130ea565b5b828206905092915050565b7f4e487b7100000000000000000000000000000000000000000000000000000000600052603260045260246000fd5b600081519050919050565b600082825260208201905092915050565b60006131d1826131aa565b6131db81856131b5565b93506131eb818560208601612161565b6131f481612194565b840191505092915050565b60006080820190506132146000830187612295565b6132216020830186612295565b61322e604083018561254f565b818103606083015261324081846131c6565b905095945050505050565b60008151905061325a816120b6565b92915050565b60006020828403121561327657613275612080565b5b60006132848482850161324b565b91505092915050565b7f4552433732313a206d696e7420746f20746865207a65726f2061646472657373600082015250565b60006132c3602083612150565b91506132ce8261328d565b602082019050919050565b600060208201905081810360008301526132f2816132b6565b9050919050565b7f4552433732313a20746f6b656e20616c7265616479206d696e74656400000000600082015250565b600061332f601c83612150565b915061333a826132f9565b602082019050919050565b6000602082019050818103600083015261335e81613322565b905091905056fea2646970667358221220e654e168a8ebaff994cb161c0b8b76cde539e3a85642a54a3287044015cff0fa64736f6c634300080d0033",
  "immutableReferences": {},
  "source": "\n// SPDX-License-Identifier: MIT\npragma solidity ^0.8.0;\n\nimport \"@openzeppelin/contracts/access/Ownable.sol\";\nimport \"@openzeppelin/contracts/token/ERC721/ERC721.sol\";\nimport \"@openzeppelin/contracts/utils/math/SafeMath.sol\";\n\n\ncontract ScinionFactory is Ownable, ERC721 {\n\n  using SafeMath for uint256;\n\n  event NewScinion(uint scinionId, string name);\n\n  uint cooldownTime = 1 days;\n  address gameOwner;\n\n\n  struct Scinion {\n    string name;\n    uint dna;\n    uint16 level;\n    uint8 energia;\n    uint habilities;\n    /*\n    uint8 capacidadDeAprendizaje;\n    uint8 destreza;\n    uint8 etica;\n    uint8 suerte;\n    uint8 controlDeEmociones;\n    uint8 planificacion;\n    uint8 limpieza;\n    uint8 trabajoEnEquipo;\n    uint8 discrecion;\n    uint8 lealtad;*/\n  }\n\n   constructor() ERC721(\"ScinionNFT\", \"SCTK\") {\n        gameOwner = msg.sender;\n    }\n\n\n  Scinion[] scinions;\n\n  mapping (uint => address) public scinionToOwner;\n  mapping (address => uint) ownerScinionCount;\n\n  modifier onlyOwnerOf(uint _zombieId) {\n    require(msg.sender == scinionToOwner[_zombieId]);\n    _;\n  }\n\n\n  function createScinion(string memory _name, uint _dna, uint _habilities) external {\n    require(msg.sender == gameOwner);\n    uint id = scinions.length;\n    scinions.push(Scinion(_name, _dna, 1, 10, _habilities));\n    scinionToOwner[id] = msg.sender;\n    ownerScinionCount[msg.sender] = ownerScinionCount[msg.sender].add(1);\n    emit NewScinion(id, _name);\n  }\n\n\n  function _transferScinion(address _from, address _to, uint256 _tokenId) private {\n    ownerScinionCount[_to] = ownerScinionCount[_to].add(1);\n    ownerScinionCount[msg.sender] = ownerScinionCount[msg.sender].sub(1);\n    scinionToOwner[_tokenId] = _to;\n    emit Transfer(_from, _to, _tokenId);\n  }\n\n  function transferScinion(address _from, address _to, uint256 _tokenId) external payable onlyOwner{\n      _transferScinion(_from, _to, _tokenId);\n      transferFrom(_from, _to, _tokenId);\n   } \n\n    function mintScinion(address _to, uint256 _tokenId) external {\n         _safeMint(_to, _tokenId);\n    }\n\n  /*function kill() public onlyOwner {\n      selfdestruct(owner());\n  }*/\n\n}\n\n\n/*\nimport \"@openzeppelin/contracts/token/ERC721/ERC721.sol\";\n\ncontract Scinion is ERC721 {\n\n\n    constructor() ERC721(\"ScinionNFT\", \"SCTK\") {\n        gameOwner = msg.sender;\n    }\n\n    struct scinion {\n        string name;\n        uint level;\n        uint capacidadDeAprendizaje;\n        uint destreza;\n        uint etica;\n        uint suerte;\n        uint controlDeEmociones;\n        uint planificacion;\n        uint energia;\n\n    }\n\n    scinion[] scinions;\n    address public gameOwner;\n\n\n     modifier onlyOwnerOf(uint _scinionId) {\n        require(ownerOf(_scinionId) == msg.sender, \"Must be owner of monster to battle\");\n        _;\n    }\n\n    function createNewScinion(string memory _name, address _to) public {\n        require(msg.sender == gameOwner, \"Only game owner can create new monsters\");\n        uint id = scinions.length;\n        scinions.push(scinion(_name, 1, 75,\t67,\t74,\t64,\t44,\t67, 10));\n        _safeMint(_to, id);\n    }\n\n\n\n    function completarInvestigacion(uint _scinionId) public onlyOwnerOf(_scinionId) {\n        \n        scinion storage scinionSelected = scinions[_scinionId];\n        scinionSelected.level = scinionSelected.level+1;\n\n    }\n\n\n    function dormir(uint _scinionId) public onlyOwnerOf(_scinionId) {\n        \n        scinion storage scinionSelected = scinions[_scinionId];\n        scinionSelected.energia = 10;\n\n    }\n\n    \n}\n\n*/",
  "sourcePath": "/Users/albateixidovillanueva/Desktop/scinions/contracts/scinionfactory.sol",
  "compiler": {
    "name": "solc",
    "version": "0.8.13+commit.abaa5c0e.Emscripten.clang"
  },
  "schemaVersion": "3.4.6",
  "updatedAt": "2022-03-30T17:35:07.837Z",
  "networkType": "ethereum",
  "devdoc": {
    "kind": "dev",
    "methods": {
      "approve(address,uint256)": {
        "details": "See {IERC721-approve}."
      },
      "balanceOf(address)": {
        "details": "See {IERC721-balanceOf}."
      },
      "getApproved(uint256)": {
        "details": "See {IERC721-getApproved}."
      },
      "isApprovedForAll(address,address)": {
        "details": "See {IERC721-isApprovedForAll}."
      },
      "name()": {
        "details": "See {IERC721Metadata-name}."
      },
      "owner()": {
        "details": "Returns the address of the current owner."
      },
      "ownerOf(uint256)": {
        "details": "See {IERC721-ownerOf}."
      },
      "renounceOwnership()": {
        "details": "Leaves the contract without owner. It will not be possible to call `onlyOwner` functions anymore. Can only be called by the current owner. NOTE: Renouncing ownership will leave the contract without an owner, thereby removing any functionality that is only available to the owner."
      },
      "safeTransferFrom(address,address,uint256)": {
        "details": "See {IERC721-safeTransferFrom}."
      },
      "safeTransferFrom(address,address,uint256,bytes)": {
        "details": "See {IERC721-safeTransferFrom}."
      },
      "setApprovalForAll(address,bool)": {
        "details": "See {IERC721-setApprovalForAll}."
      },
      "supportsInterface(bytes4)": {
        "details": "See {IERC165-supportsInterface}."
      },
      "symbol()": {
        "details": "See {IERC721Metadata-symbol}."
      },
      "tokenURI(uint256)": {
        "details": "See {IERC721Metadata-tokenURI}."
      },
      "transferFrom(address,address,uint256)": {
        "details": "See {IERC721-transferFrom}."
      },
      "transferOwnership(address)": {
        "details": "Transfers ownership of the contract to a new account (`newOwner`). Can only be called by the current owner."
      }
    },
    "version": 1
  },
  "userdoc": {
    "kind": "user",
    "methods": {},
    "version": 1
  }
}